{
	"DU-vote-v2/contracts/DVote-v2c.sol": {
		"Electionv2": {
			"abi": [
				{
					"inputs": [],
					"stateMutability": "nonpayable",
					"type": "constructor"
				},
				{
					"inputs": [],
					"name": "MAX_EVENTS",
					"outputs": [
						{
							"internalType": "uint32",
							"name": "",
							"type": "uint32"
						}
					],
					"stateMutability": "view",
					"type": "function"
				},
				{
					"inputs": [
						{
							"internalType": "uint32",
							"name": "_electionIndex",
							"type": "uint32"
						},
						{
							"internalType": "string",
							"name": "_candidateName",
							"type": "string"
						}
					],
					"name": "addCandidateToElection",
					"outputs": [],
					"stateMutability": "nonpayable",
					"type": "function"
				},
				{
					"inputs": [
						{
							"internalType": "string",
							"name": "_orgId",
							"type": "string"
						},
						{
							"internalType": "string",
							"name": "_electionID",
							"type": "string"
						},
						{
							"internalType": "string",
							"name": "_electionName",
							"type": "string"
						},
						{
							"internalType": "uint8",
							"name": "_candidateCount",
							"type": "uint8"
						}
					],
					"name": "addElectionEvent",
					"outputs": [],
					"stateMutability": "nonpayable",
					"type": "function"
				},
				{
					"inputs": [
						{
							"internalType": "address",
							"name": "",
							"type": "address"
						}
					],
					"name": "adminToOrganization",
					"outputs": [
						{
							"internalType": "string",
							"name": "",
							"type": "string"
						}
					],
					"stateMutability": "view",
					"type": "function"
				},
				{
					"inputs": [],
					"name": "contractOwner",
					"outputs": [
						{
							"internalType": "address",
							"name": "",
							"type": "address"
						}
					],
					"stateMutability": "view",
					"type": "function"
				},
				{
					"inputs": [
						{
							"internalType": "uint32",
							"name": "",
							"type": "uint32"
						}
					],
					"name": "elections",
					"outputs": [
						{
							"internalType": "string",
							"name": "electionID",
							"type": "string"
						},
						{
							"internalType": "string",
							"name": "orgId",
							"type": "string"
						},
						{
							"internalType": "string",
							"name": "electionName",
							"type": "string"
						},
						{
							"internalType": "uint8",
							"name": "candidateList",
							"type": "uint8"
						},
						{
							"internalType": "uint8",
							"name": "candidateCount",
							"type": "uint8"
						},
						{
							"internalType": "enum Electionv2.ElectionStatus",
							"name": "status",
							"type": "uint8"
						}
					],
					"stateMutability": "view",
					"type": "function"
				},
				{
					"inputs": [],
					"name": "getAdminOrganization",
					"outputs": [
						{
							"internalType": "string",
							"name": "",
							"type": "string"
						},
						{
							"internalType": "string",
							"name": "",
							"type": "string"
						}
					],
					"stateMutability": "view",
					"type": "function"
				},
				{
					"inputs": [
						{
							"internalType": "string",
							"name": "_orgId",
							"type": "string"
						}
					],
					"name": "getOrganization",
					"outputs": [
						{
							"internalType": "string",
							"name": "",
							"type": "string"
						},
						{
							"internalType": "enum Electionv2.OrganizationType",
							"name": "",
							"type": "uint8"
						},
						{
							"internalType": "uint48",
							"name": "",
							"type": "uint48"
						},
						{
							"internalType": "uint16",
							"name": "",
							"type": "uint16"
						},
						{
							"internalType": "address[]",
							"name": "",
							"type": "address[]"
						}
					],
					"stateMutability": "view",
					"type": "function"
				},
				{
					"inputs": [],
					"name": "getOrganizationsCount",
					"outputs": [
						{
							"internalType": "uint256",
							"name": "",
							"type": "uint256"
						}
					],
					"stateMutability": "view",
					"type": "function"
				},
				{
					"inputs": [
						{
							"internalType": "string",
							"name": "",
							"type": "string"
						}
					],
					"name": "organizationList",
					"outputs": [
						{
							"internalType": "bool",
							"name": "",
							"type": "bool"
						}
					],
					"stateMutability": "view",
					"type": "function"
				},
				{
					"inputs": [
						{
							"internalType": "string",
							"name": "",
							"type": "string"
						},
						{
							"internalType": "uint256",
							"name": "",
							"type": "uint256"
						}
					],
					"name": "organizationToAdminAddresses",
					"outputs": [
						{
							"internalType": "address",
							"name": "",
							"type": "address"
						}
					],
					"stateMutability": "view",
					"type": "function"
				},
				{
					"inputs": [
						{
							"internalType": "string",
							"name": "",
							"type": "string"
						}
					],
					"name": "organizationTotalMembers",
					"outputs": [
						{
							"internalType": "uint48",
							"name": "",
							"type": "uint48"
						}
					],
					"stateMutability": "view",
					"type": "function"
				},
				{
					"inputs": [
						{
							"internalType": "string",
							"name": "",
							"type": "string"
						}
					],
					"name": "organizations",
					"outputs": [
						{
							"internalType": "string",
							"name": "orgName",
							"type": "string"
						},
						{
							"internalType": "string",
							"name": "orgId",
							"type": "string"
						},
						{
							"internalType": "enum Electionv2.OrganizationType",
							"name": "orgType",
							"type": "uint8"
						},
						{
							"internalType": "uint16",
							"name": "electionEventCounter",
							"type": "uint16"
						},
						{
							"internalType": "uint48",
							"name": "totalMembers",
							"type": "uint48"
						}
					],
					"stateMutability": "view",
					"type": "function"
				},
				{
					"inputs": [],
					"name": "organizationsCount",
					"outputs": [
						{
							"internalType": "uint32",
							"name": "",
							"type": "uint32"
						}
					],
					"stateMutability": "view",
					"type": "function"
				},
				{
					"inputs": [
						{
							"internalType": "string",
							"name": "_orgName",
							"type": "string"
						}
					],
					"name": "registerElectionAdmin",
					"outputs": [],
					"stateMutability": "nonpayable",
					"type": "function"
				},
				{
					"inputs": [
						{
							"internalType": "string",
							"name": "_orgName",
							"type": "string"
						},
						{
							"internalType": "string",
							"name": "_orgId",
							"type": "string"
						},
						{
							"internalType": "enum Electionv2.OrganizationType",
							"name": "_orgType",
							"type": "uint8"
						}
					],
					"name": "registerOrganization",
					"outputs": [],
					"stateMutability": "nonpayable",
					"type": "function"
				},
				{
					"inputs": [
						{
							"internalType": "address",
							"name": "",
							"type": "address"
						}
					],
					"name": "registeredAdmin",
					"outputs": [
						{
							"internalType": "bool",
							"name": "",
							"type": "bool"
						}
					],
					"stateMutability": "view",
					"type": "function"
				},
				{
					"inputs": [
						{
							"internalType": "address",
							"name": "",
							"type": "address"
						}
					],
					"name": "voters",
					"outputs": [
						{
							"internalType": "uint48",
							"name": "VoterID",
							"type": "uint48"
						},
						{
							"internalType": "address",
							"name": "VoterAddress",
							"type": "address"
						},
						{
							"internalType": "string",
							"name": "VoterName",
							"type": "string"
						},
						{
							"internalType": "bool",
							"name": "isRegistered",
							"type": "bool"
						},
						{
							"internalType": "string",
							"name": "associatedOrganization",
							"type": "string"
						}
					],
					"stateMutability": "view",
					"type": "function"
				},
				{
					"inputs": [],
					"name": "votersCount",
					"outputs": [
						{
							"internalType": "uint48",
							"name": "",
							"type": "uint48"
						}
					],
					"stateMutability": "view",
					"type": "function"
				},
				{
					"inputs": [
						{
							"internalType": "uint48",
							"name": "",
							"type": "uint48"
						}
					],
					"name": "votersIDExists",
					"outputs": [
						{
							"internalType": "bool",
							"name": "",
							"type": "bool"
						}
					],
					"stateMutability": "view",
					"type": "function"
				}
			],
			"devdoc": {
				"kind": "dev",
				"methods": {},
				"version": 1
			},
			"evm": {
				"assembly": "    /* \"DU-vote-v2/contracts/DVote-v2c.sol\":64:16350  contract Electionv2{... */\n  mstore(0x40, 0x80)\n    /* \"DU-vote-v2/contracts/DVote-v2c.sol\":326:362  address electionAdmins =  msg.sender */\n  0x01\n  dup1\n  sload\n  sub(shl(0xe0, 0x01), shl(0xa0, 0x01))\n    /* \"DU-vote-v2/contracts/DVote-v2c.sol\":435:464  uint32 public MAX_EVENTS = 10 */\n  and\n    /* \"DU-vote-v2/contracts/DVote-v2c.sol\":352:362  msg.sender */\n  caller\n  sub(shl(0xe0, 0x01), 0x01)\n    /* \"DU-vote-v2/contracts/DVote-v2c.sol\":435:464  uint32 public MAX_EVENTS = 10 */\n  and\n  or\n  shl(0xe1, 0x05)\n  or\n  swap1\n  sstore\n    /* \"DU-vote-v2/contracts/DVote-v2c.sol\":92:151  constructor() {... */\n  callvalue\n  dup1\n  iszero\n  tag_1\n  jumpi\n  0x00\n  dup1\n  revert\ntag_1:\n  pop\n    /* \"DU-vote-v2/contracts/DVote-v2c.sol\":117:130  contractOwner */\n  0x00\n    /* \"DU-vote-v2/contracts/DVote-v2c.sol\":117:143  contractOwner = msg.sender */\n  dup1\n  sload\n  not(sub(shl(0xa0, 0x01), 0x01))\n  and\n    /* \"DU-vote-v2/contracts/DVote-v2c.sol\":133:143  msg.sender */\n  caller\n    /* \"DU-vote-v2/contracts/DVote-v2c.sol\":117:143  contractOwner = msg.sender */\n  or\n  swap1\n  sstore\n    /* \"DU-vote-v2/contracts/DVote-v2c.sol\":64:16350  contract Electionv2{... */\n  dataSize(sub_0)\n  dup1\n  dataOffset(sub_0)\n  0x00\n  codecopy\n  0x00\n  return\nstop\n\nsub_0: assembly {\n        /* \"DU-vote-v2/contracts/DVote-v2c.sol\":64:16350  contract Electionv2{... */\n      mstore(0x40, 0x80)\n      callvalue\n      dup1\n      iszero\n      tag_1\n      jumpi\n      0x00\n      dup1\n      revert\n    tag_1:\n      pop\n      jumpi(tag_2, lt(calldatasize, 0x04))\n      shr(0xe0, calldataload(0x00))\n      dup1\n      0x94c04f97\n      gt\n      tag_23\n      jumpi\n      dup1\n      0xdef72ec1\n      gt\n      tag_24\n      jumpi\n      dup1\n      0xdef72ec1\n      eq\n      tag_18\n      jumpi\n      dup1\n      0xe311f43c\n      eq\n      tag_19\n      jumpi\n      dup1\n      0xe374c32a\n      eq\n      tag_20\n      jumpi\n      dup1\n      0xf53cbb2d\n      eq\n      tag_21\n      jumpi\n      dup1\n      0xf96ef609\n      eq\n      tag_22\n      jumpi\n      0x00\n      dup1\n      revert\n    tag_24:\n      dup1\n      0x94c04f97\n      eq\n      tag_13\n      jumpi\n      dup1\n      0x98c07938\n      eq\n      tag_14\n      jumpi\n      dup1\n      0xa3ec138d\n      eq\n      tag_15\n      jumpi\n      dup1\n      0xa50f9495\n      eq\n      tag_16\n      jumpi\n      dup1\n      0xce606ee0\n      eq\n      tag_17\n      jumpi\n      0x00\n      dup1\n      revert\n    tag_23:\n      dup1\n      0x4daa8e1d\n      gt\n      tag_25\n      jumpi\n      dup1\n      0x4daa8e1d\n      eq\n      tag_8\n      jumpi\n      dup1\n      0x59987f91\n      eq\n      tag_9\n      jumpi\n      dup1\n      0x5ded1bd6\n      eq\n      tag_10\n      jumpi\n      dup1\n      0x6326b8cf\n      eq\n      tag_11\n      jumpi\n      dup1\n      0x7d70cbaf\n      eq\n      tag_12\n      jumpi\n      0x00\n      dup1\n      revert\n    tag_25:\n      dup1\n      0x0b2a0904\n      eq\n      tag_3\n      jumpi\n      dup1\n      0x2812ca10\n      eq\n      tag_4\n      jumpi\n      dup1\n      0x2c751d30\n      eq\n      tag_5\n      jumpi\n      dup1\n      0x375aa7e2\n      eq\n      tag_6\n      jumpi\n      dup1\n      0x3c36ffae\n      eq\n      tag_7\n      jumpi\n    tag_2:\n      0x00\n      dup1\n      revert\n        /* \"DU-vote-v2/contracts/DVote-v2c.sol\":738:791  mapping(address => string) public adminToOrganization */\n    tag_3:\n      tag_26\n      tag_27\n      calldatasize\n      0x04\n      tag_28\n      jump\t// in\n    tag_27:\n      tag_29\n      jump\t// in\n    tag_26:\n      mload(0x40)\n      tag_30\n      swap2\n      swap1\n      tag_31\n      jump\t// in\n    tag_30:\n      mload(0x40)\n      dup1\n      swap2\n      sub\n      swap1\n      return\n        /* \"DU-vote-v2/contracts/DVote-v2c.sol\":871:935  mapping(string => address[]) public organizationToAdminAddresses */\n    tag_4:\n      tag_32\n      tag_33\n      calldatasize\n      0x04\n      tag_34\n      jump\t// in\n    tag_33:\n      tag_35\n      jump\t// in\n    tag_32:\n      mload(0x40)\n      sub(shl(0xa0, 0x01), 0x01)\n        /* \"#utility.yul\":2471:2503   */\n      swap1\n      swap2\n      and\n        /* \"#utility.yul\":2453:2504   */\n      dup2\n      mstore\n        /* \"#utility.yul\":2441:2443   */\n      0x20\n        /* \"#utility.yul\":2426:2444   */\n      add\n        /* \"DU-vote-v2/contracts/DVote-v2c.sol\":871:935  mapping(string => address[]) public organizationToAdminAddresses */\n      tag_30\n        /* \"#utility.yul\":2307:2510   */\n      jump\n        /* \"DU-vote-v2/contracts/DVote-v2c.sol\":942:993  mapping (uint32 => ElectionDetail) public elections */\n    tag_5:\n      tag_38\n      tag_39\n      calldatasize\n      0x04\n      tag_40\n      jump\t// in\n    tag_39:\n      tag_41\n      jump\t// in\n    tag_38:\n      mload(0x40)\n      tag_30\n      swap7\n      swap6\n      swap5\n      swap4\n      swap3\n      swap2\n      swap1\n      tag_43\n      jump\t// in\n        /* \"DU-vote-v2/contracts/DVote-v2c.sol\":4018:4409  function getOrganization(string memory _orgId) public view returns (string memory, OrganizationType, uint48, uint16, address[] memory) {... */\n    tag_6:\n      tag_44\n      tag_45\n      calldatasize\n      0x04\n      tag_46\n      jump\t// in\n    tag_45:\n      tag_47\n      jump\t// in\n    tag_44:\n      mload(0x40)\n      tag_30\n      swap6\n      swap5\n      swap4\n      swap3\n      swap2\n      swap1\n      tag_49\n      jump\t// in\n        /* \"DU-vote-v2/contracts/DVote-v2c.sol\":507:554  mapping(address => bool) public registeredAdmin */\n    tag_7:\n      tag_50\n      tag_51\n      calldatasize\n      0x04\n      tag_28\n      jump\t// in\n    tag_51:\n      mstore(0x20, 0x03)\n      0x00\n      swap1\n      dup2\n      mstore\n      0x40\n      swap1\n      keccak256\n      sload\n      0xff\n      and\n      dup2\n      jump\n    tag_50:\n      mload(0x40)\n        /* \"#utility.yul\":5677:5691   */\n      swap1\n      iszero\n        /* \"#utility.yul\":5670:5692   */\n      iszero\n        /* \"#utility.yul\":5652:5693   */\n      dup2\n      mstore\n        /* \"#utility.yul\":5640:5642   */\n      0x20\n        /* \"#utility.yul\":5625:5643   */\n      add\n        /* \"DU-vote-v2/contracts/DVote-v2c.sol\":507:554  mapping(address => bool) public registeredAdmin */\n      tag_30\n        /* \"#utility.yul\":5512:5699   */\n      jump\n        /* \"DU-vote-v2/contracts/DVote-v2c.sol\":6461:7427  function addCandidateToElection(uint32 _electionIndex, string memory _candidateName) public {... */\n    tag_8:\n      tag_55\n      tag_56\n      calldatasize\n      0x04\n      tag_57\n      jump\t// in\n    tag_56:\n      tag_58\n      jump\t// in\n    tag_55:\n      stop\n        /* \"DU-vote-v2/contracts/DVote-v2c.sol\":396:428  uint32 public organizationsCount */\n    tag_9:\n      sload(0x01)\n      tag_59\n      swap1\n      shl(0xc0, 0x01)\n      swap1\n      div\n      0xffffffff\n      and\n      dup2\n      jump\n    tag_59:\n      mload(0x40)\n        /* \"#utility.yul\":6277:6287   */\n      0xffffffff\n        /* \"#utility.yul\":6265:6288   */\n      swap1\n      swap2\n      and\n        /* \"#utility.yul\":6247:6289   */\n      dup2\n      mstore\n        /* \"#utility.yul\":6235:6237   */\n      0x20\n        /* \"#utility.yul\":6220:6238   */\n      add\n        /* \"DU-vote-v2/contracts/DVote-v2c.sol\":396:428  uint32 public organizationsCount */\n      tag_30\n        /* \"#utility.yul\":6103:6295   */\n      jump\n        /* \"DU-vote-v2/contracts/DVote-v2c.sol\":435:464  uint32 public MAX_EVENTS = 10 */\n    tag_10:\n      sload(0x01)\n      tag_59\n      swap1\n      shl(0xe0, 0x01)\n      swap1\n      div\n      0xffffffff\n      and\n      dup2\n      jump\n        /* \"DU-vote-v2/contracts/DVote-v2c.sol\":674:731  mapping(string => uint48) public organizationTotalMembers */\n    tag_11:\n      tag_66\n      tag_67\n      calldatasize\n      0x04\n      tag_46\n      jump\t// in\n    tag_67:\n      dup1\n      mload\n      0x20\n      dup2\n      dup4\n      add\n      dup2\n      add\n      dup1\n      mload\n      0x06\n      dup3\n      mstore\n      swap3\n      dup3\n      add\n      swap2\n      swap1\n      swap4\n      add\n      keccak256\n      swap2\n      mstore\n      sload\n      0xffffffffffff\n      and\n      dup2\n      jump\n    tag_66:\n      mload(0x40)\n        /* \"#utility.yul\":6474:6488   */\n      0xffffffffffff\n        /* \"#utility.yul\":6462:6489   */\n      swap1\n      swap2\n      and\n        /* \"#utility.yul\":6444:6490   */\n      dup2\n      mstore\n        /* \"#utility.yul\":6432:6434   */\n      0x20\n        /* \"#utility.yul\":6417:6435   */\n      add\n        /* \"DU-vote-v2/contracts/DVote-v2c.sol\":674:731  mapping(string => uint48) public organizationTotalMembers */\n      tag_30\n        /* \"#utility.yul\":6300:6496   */\n      jump\n        /* \"DU-vote-v2/contracts/DVote-v2c.sol\":5013:5117  function getOrganizationsCount() public view returns (uint) {... */\n    tag_12:\n        /* \"DU-vote-v2/contracts/DVote-v2c.sol\":5091:5109  organizationsCount */\n      sload(0x01)\n      shl(0xc0, 0x01)\n      swap1\n      div\n      0xffffffff\n      and\n        /* \"DU-vote-v2/contracts/DVote-v2c.sol\":5013:5117  function getOrganizationsCount() public view returns (uint) {... */\n      mload(0x40)\n        /* \"#utility.yul\":6647:6672   */\n      swap1\n      dup2\n      mstore\n        /* \"#utility.yul\":6635:6637   */\n      0x20\n        /* \"#utility.yul\":6620:6638   */\n      add\n        /* \"DU-vote-v2/contracts/DVote-v2c.sol\":5013:5117  function getOrganizationsCount() public view returns (uint) {... */\n      tag_30\n        /* \"#utility.yul\":6501:6678   */\n      jump\n        /* \"DU-vote-v2/contracts/DVote-v2c.sol\":4417:5005  function getAdminOrganization() public view returns (string memory, string memory) {... */\n    tag_13:\n      tag_75\n      tag_76\n      jump\t// in\n    tag_75:\n      mload(0x40)\n      tag_30\n      swap3\n      swap2\n      swap1\n      tag_78\n      jump\t// in\n        /* \"DU-vote-v2/contracts/DVote-v2c.sol\":471:496  uint48 public votersCount */\n    tag_14:\n      sload(0x02)\n      tag_66\n      swap1\n      0xffffffffffff\n      and\n      dup2\n      jump\n        /* \"DU-vote-v2/contracts/DVote-v2c.sol\":1000:1039  mapping(address => Voter) public voters */\n    tag_15:\n      tag_82\n      tag_83\n      calldatasize\n      0x04\n      tag_28\n      jump\t// in\n    tag_83:\n      tag_84\n      jump\t// in\n    tag_82:\n      mload(0x40)\n      tag_30\n      swap6\n      swap5\n      swap4\n      swap3\n      swap2\n      swap1\n      tag_86\n      jump\t// in\n        /* \"DU-vote-v2/contracts/DVote-v2c.sol\":1046:1091  mapping(uint48 => bool) public votersIDExists */\n    tag_16:\n      tag_50\n      tag_88\n      calldatasize\n      0x04\n      tag_89\n      jump\t// in\n    tag_88:\n      mstore(0x20, 0x0c)\n      0x00\n      swap1\n      dup2\n      mstore\n      0x40\n      swap1\n      keccak256\n      sload\n      0xff\n      and\n      dup2\n      jump\n        /* \"DU-vote-v2/contracts/DVote-v2c.sol\":291:319  address public contractOwner */\n    tag_17:\n      sload(0x00)\n      tag_32\n      swap1\n      sub(shl(0xa0, 0x01), 0x01)\n      and\n      dup2\n      jump\n        /* \"DU-vote-v2/contracts/DVote-v2c.sol\":2150:2690  function registerElectionAdmin(string memory _orgName) public {... */\n    tag_18:\n      tag_55\n      tag_96\n      calldatasize\n      0x04\n      tag_46\n      jump\t// in\n    tag_96:\n      tag_97\n      jump\t// in\n        /* \"DU-vote-v2/contracts/DVote-v2c.sol\":615:667  mapping(string => Organization) public organizations */\n    tag_19:\n      tag_98\n      tag_99\n      calldatasize\n      0x04\n      tag_46\n      jump\t// in\n    tag_99:\n      tag_100\n      jump\t// in\n    tag_98:\n      mload(0x40)\n      tag_30\n      swap6\n      swap5\n      swap4\n      swap3\n      swap2\n      swap1\n      tag_102\n      jump\t// in\n        /* \"DU-vote-v2/contracts/DVote-v2c.sol\":5125:6453  function addElectionEvent(... */\n    tag_20:\n      tag_55\n      tag_104\n      calldatasize\n      0x04\n      tag_105\n      jump\t// in\n    tag_104:\n      tag_106\n      jump\t// in\n        /* \"DU-vote-v2/contracts/DVote-v2c.sol\":2700:4008  function registerOrganization(... */\n    tag_21:\n      tag_55\n      tag_108\n      calldatasize\n      0x04\n      tag_109\n      jump\t// in\n    tag_108:\n      tag_110\n      jump\t// in\n        /* \"DU-vote-v2/contracts/DVote-v2c.sol\":561:608  mapping(string => bool) public organizationList */\n    tag_22:\n      tag_50\n      tag_112\n      calldatasize\n      0x04\n      tag_46\n      jump\t// in\n    tag_112:\n      dup1\n      mload\n      0x20\n      dup2\n      dup4\n      add\n      dup2\n      add\n      dup1\n      mload\n      0x04\n      dup3\n      mstore\n      swap3\n      dup3\n      add\n      swap2\n      swap1\n      swap4\n      add\n      keccak256\n      swap2\n      mstore\n      sload\n      0xff\n      and\n      dup2\n      jump\n        /* \"DU-vote-v2/contracts/DVote-v2c.sol\":738:791  mapping(address => string) public adminToOrganization */\n    tag_29:\n      mstore(0x20, 0x07)\n      0x00\n      swap1\n      dup2\n      mstore\n      0x40\n      swap1\n      keccak256\n      dup1\n      sload\n      tag_115\n      swap1\n      tag_116\n      jump\t// in\n    tag_115:\n      dup1\n      0x1f\n      add\n      0x20\n      dup1\n      swap2\n      div\n      mul\n      0x20\n      add\n      mload(0x40)\n      swap1\n      dup2\n      add\n      0x40\n      mstore\n      dup1\n      swap3\n      swap2\n      swap1\n      dup2\n      dup2\n      mstore\n      0x20\n      add\n      dup3\n      dup1\n      sload\n      tag_117\n      swap1\n      tag_116\n      jump\t// in\n    tag_117:\n      dup1\n      iszero\n      tag_118\n      jumpi\n      dup1\n      0x1f\n      lt\n      tag_119\n      jumpi\n      0x0100\n      dup1\n      dup4\n      sload\n      div\n      mul\n      dup4\n      mstore\n      swap2\n      0x20\n      add\n      swap2\n      jump(tag_118)\n    tag_119:\n      dup3\n      add\n      swap2\n      swap1\n      0x00\n      mstore\n      keccak256(0x00, 0x20)\n      swap1\n    tag_120:\n      dup2\n      sload\n      dup2\n      mstore\n      swap1\n      0x01\n      add\n      swap1\n      0x20\n      add\n      dup1\n      dup4\n      gt\n      tag_120\n      jumpi\n      dup3\n      swap1\n      sub\n      0x1f\n      and\n      dup3\n      add\n      swap2\n    tag_118:\n      pop\n      pop\n      pop\n      pop\n      pop\n      dup2\n      jump\t// out\n        /* \"DU-vote-v2/contracts/DVote-v2c.sol\":871:935  mapping(string => address[]) public organizationToAdminAddresses */\n    tag_35:\n      dup2\n      mload\n      0x20\n      dup2\n      dup5\n      add\n      dup2\n      add\n      dup1\n      mload\n      0x09\n      dup3\n      mstore\n      swap3\n      dup3\n      add\n      swap2\n      dup6\n      add\n      swap2\n      swap1\n      swap2\n      keccak256\n      swap2\n      swap1\n      mstore\n      dup1\n      sload\n      dup3\n      swap1\n      dup2\n      lt\n      tag_121\n      jumpi\n      0x00\n      dup1\n      revert\n    tag_121:\n      0x00\n      swap2\n      dup3\n      mstore\n      0x20\n      swap1\n      swap2\n      keccak256\n      add\n      sload\n      sub(shl(0xa0, 0x01), 0x01)\n      and\n      swap2\n      pop\n      dup3\n      swap1\n      pop\n      jump\t// out\n        /* \"DU-vote-v2/contracts/DVote-v2c.sol\":942:993  mapping (uint32 => ElectionDetail) public elections */\n    tag_41:\n      mstore(0x20, 0x0a)\n      0x00\n      swap1\n      dup2\n      mstore\n      0x40\n      swap1\n      keccak256\n      dup1\n      sload\n      dup2\n      swap1\n      tag_123\n      swap1\n      tag_116\n      jump\t// in\n    tag_123:\n      dup1\n      0x1f\n      add\n      0x20\n      dup1\n      swap2\n      div\n      mul\n      0x20\n      add\n      mload(0x40)\n      swap1\n      dup2\n      add\n      0x40\n      mstore\n      dup1\n      swap3\n      swap2\n      swap1\n      dup2\n      dup2\n      mstore\n      0x20\n      add\n      dup3\n      dup1\n      sload\n      tag_124\n      swap1\n      tag_116\n      jump\t// in\n    tag_124:\n      dup1\n      iszero\n      tag_125\n      jumpi\n      dup1\n      0x1f\n      lt\n      tag_126\n      jumpi\n      0x0100\n      dup1\n      dup4\n      sload\n      div\n      mul\n      dup4\n      mstore\n      swap2\n      0x20\n      add\n      swap2\n      jump(tag_125)\n    tag_126:\n      dup3\n      add\n      swap2\n      swap1\n      0x00\n      mstore\n      keccak256(0x00, 0x20)\n      swap1\n    tag_127:\n      dup2\n      sload\n      dup2\n      mstore\n      swap1\n      0x01\n      add\n      swap1\n      0x20\n      add\n      dup1\n      dup4\n      gt\n      tag_127\n      jumpi\n      dup3\n      swap1\n      sub\n      0x1f\n      and\n      dup3\n      add\n      swap2\n    tag_125:\n      pop\n      pop\n      pop\n      pop\n      pop\n      swap1\n      dup1\n      0x01\n      add\n      dup1\n      sload\n      tag_128\n      swap1\n      tag_116\n      jump\t// in\n    tag_128:\n      dup1\n      0x1f\n      add\n      0x20\n      dup1\n      swap2\n      div\n      mul\n      0x20\n      add\n      mload(0x40)\n      swap1\n      dup2\n      add\n      0x40\n      mstore\n      dup1\n      swap3\n      swap2\n      swap1\n      dup2\n      dup2\n      mstore\n      0x20\n      add\n      dup3\n      dup1\n      sload\n      tag_129\n      swap1\n      tag_116\n      jump\t// in\n    tag_129:\n      dup1\n      iszero\n      tag_130\n      jumpi\n      dup1\n      0x1f\n      lt\n      tag_131\n      jumpi\n      0x0100\n      dup1\n      dup4\n      sload\n      div\n      mul\n      dup4\n      mstore\n      swap2\n      0x20\n      add\n      swap2\n      jump(tag_130)\n    tag_131:\n      dup3\n      add\n      swap2\n      swap1\n      0x00\n      mstore\n      keccak256(0x00, 0x20)\n      swap1\n    tag_132:\n      dup2\n      sload\n      dup2\n      mstore\n      swap1\n      0x01\n      add\n      swap1\n      0x20\n      add\n      dup1\n      dup4\n      gt\n      tag_132\n      jumpi\n      dup3\n      swap1\n      sub\n      0x1f\n      and\n      dup3\n      add\n      swap2\n    tag_130:\n      pop\n      pop\n      pop\n      pop\n      pop\n      swap1\n      dup1\n      0x02\n      add\n      dup1\n      sload\n      tag_133\n      swap1\n      tag_116\n      jump\t// in\n    tag_133:\n      dup1\n      0x1f\n      add\n      0x20\n      dup1\n      swap2\n      div\n      mul\n      0x20\n      add\n      mload(0x40)\n      swap1\n      dup2\n      add\n      0x40\n      mstore\n      dup1\n      swap3\n      swap2\n      swap1\n      dup2\n      dup2\n      mstore\n      0x20\n      add\n      dup3\n      dup1\n      sload\n      tag_134\n      swap1\n      tag_116\n      jump\t// in\n    tag_134:\n      dup1\n      iszero\n      tag_135\n      jumpi\n      dup1\n      0x1f\n      lt\n      tag_136\n      jumpi\n      0x0100\n      dup1\n      dup4\n      sload\n      div\n      mul\n      dup4\n      mstore\n      swap2\n      0x20\n      add\n      swap2\n      jump(tag_135)\n    tag_136:\n      dup3\n      add\n      swap2\n      swap1\n      0x00\n      mstore\n      keccak256(0x00, 0x20)\n      swap1\n    tag_137:\n      dup2\n      sload\n      dup2\n      mstore\n      swap1\n      0x01\n      add\n      swap1\n      0x20\n      add\n      dup1\n      dup4\n      gt\n      tag_137\n      jumpi\n      dup3\n      swap1\n      sub\n      0x1f\n      and\n      dup3\n      add\n      swap2\n    tag_135:\n      pop\n      pop\n      pop\n      0x03\n      swap1\n      swap4\n      add\n      sload\n      swap2\n      swap3\n      pop\n      pop\n      0xff\n      dup1\n      dup3\n      and\n      swap2\n      0x0100\n      dup2\n      div\n      dup3\n      and\n      swap2\n      0x010000\n      swap1\n      swap2\n      div\n      and\n      dup7\n      jump\t// out\n        /* \"DU-vote-v2/contracts/DVote-v2c.sol\":4018:4409  function getOrganization(string memory _orgId) public view returns (string memory, OrganizationType, uint48, uint16, address[] memory) {... */\n    tag_47:\n        /* \"DU-vote-v2/contracts/DVote-v2c.sol\":4086:4099  string memory */\n      0x60\n        /* \"DU-vote-v2/contracts/DVote-v2c.sol\":4101:4117  OrganizationType */\n      0x00\n        /* \"DU-vote-v2/contracts/DVote-v2c.sol\":4119:4125  uint48 */\n      dup1\n        /* \"DU-vote-v2/contracts/DVote-v2c.sol\":4127:4133  uint16 */\n      0x00\n        /* \"DU-vote-v2/contracts/DVote-v2c.sol\":4135:4151  address[] memory */\n      0x60\n        /* \"DU-vote-v2/contracts/DVote-v2c.sol\":4172:4188  organizationList */\n      0x04\n        /* \"DU-vote-v2/contracts/DVote-v2c.sol\":4189:4195  _orgId */\n      dup7\n        /* \"DU-vote-v2/contracts/DVote-v2c.sol\":4172:4196  organizationList[_orgId] */\n      mload(0x40)\n      tag_139\n      swap2\n      swap1\n      tag_140\n      jump\t// in\n    tag_139:\n      swap1\n      dup2\n      mstore\n      mload(0x40)\n      swap1\n      dup2\n      swap1\n      sub\n      0x20\n      add\n      swap1\n      keccak256\n      sload\n      0xff\n      and\n        /* \"DU-vote-v2/contracts/DVote-v2c.sol\":4164:4226  require(organizationList[_orgId], \"Organization ID not found\") */\n      tag_141\n      jumpi\n      mload(0x40)\n      shl(0xe5, 0x461bcd)\n      dup2\n      mstore\n        /* \"#utility.yul\":11204:11206   */\n      0x20\n        /* \"DU-vote-v2/contracts/DVote-v2c.sol\":4164:4226  require(organizationList[_orgId], \"Organization ID not found\") */\n      0x04\n      dup3\n      add\n        /* \"#utility.yul\":11186:11207   */\n      mstore\n        /* \"#utility.yul\":11243:11245   */\n      0x19\n        /* \"#utility.yul\":11223:11241   */\n      0x24\n      dup3\n      add\n        /* \"#utility.yul\":11216:11246   */\n      mstore\n      shl(0x3a, 0x13dc99d85b9a5e985d1a5bdb881251081b9bdd08199bdd5b99)\n        /* \"#utility.yul\":11262:11280   */\n      0x44\n      dup3\n      add\n        /* \"#utility.yul\":11255:11310   */\n      mstore\n        /* \"#utility.yul\":11327:11345   */\n      0x64\n      add\n        /* \"DU-vote-v2/contracts/DVote-v2c.sol\":4164:4226  require(organizationList[_orgId], \"Organization ID not found\") */\n    tag_142:\n      mload(0x40)\n      dup1\n      swap2\n      sub\n      swap1\n      revert\n    tag_141:\n        /* \"DU-vote-v2/contracts/DVote-v2c.sol\":4237:4261  Organization storage org */\n      0x00\n        /* \"DU-vote-v2/contracts/DVote-v2c.sol\":4264:4277  organizations */\n      0x05\n        /* \"DU-vote-v2/contracts/DVote-v2c.sol\":4278:4284  _orgId */\n      dup8\n        /* \"DU-vote-v2/contracts/DVote-v2c.sol\":4264:4285  organizations[_orgId] */\n      mload(0x40)\n      tag_144\n      swap2\n      swap1\n      tag_140\n      jump\t// in\n    tag_144:\n      swap1\n      dup2\n      mstore\n      mload(0x40)\n      swap1\n      dup2\n      swap1\n      sub\n      0x20\n      add\n      swap1\n      keccak256\n        /* \"DU-vote-v2/contracts/DVote-v2c.sol\":4317:4328  org.orgType */\n      0x02\n      dup2\n      add\n      sload\n        /* \"DU-vote-v2/contracts/DVote-v2c.sol\":4296:4401  return (org.orgName, org.orgType, org.totalMembers, org.electionEventCounter, org.electionAdminAddresses) */\n      dup2\n      sload\n        /* \"DU-vote-v2/contracts/DVote-v2c.sol\":4264:4285  organizations[_orgId] */\n      swap2\n      swap3\n      pop\n      dup3\n      swap2\n        /* \"DU-vote-v2/contracts/DVote-v2c.sol\":4317:4328  org.orgType */\n      0xff\n      dup3\n      and\n      swap2\n        /* \"DU-vote-v2/contracts/DVote-v2c.sol\":4330:4346  org.totalMembers */\n      0xffffffffffff\n      0x01000000\n      dup3\n      div\n      and\n      swap2\n        /* \"DU-vote-v2/contracts/DVote-v2c.sol\":4348:4372  org.electionEventCounter */\n      0xffff\n        /* \"DU-vote-v2/contracts/DVote-v2c.sol\":4317:4328  org.orgType */\n      0x0100\n        /* \"DU-vote-v2/contracts/DVote-v2c.sol\":4348:4372  org.electionEventCounter */\n      swap1\n      swap3\n      div\n      swap2\n      swap1\n      swap2\n      and\n      swap1\n        /* \"DU-vote-v2/contracts/DVote-v2c.sol\":4330:4346  org.totalMembers */\n      0x03\n        /* \"DU-vote-v2/contracts/DVote-v2c.sol\":4374:4400  org.electionAdminAddresses */\n      dup6\n      add\n      swap1\n        /* \"DU-vote-v2/contracts/DVote-v2c.sol\":4264:4285  organizations[_orgId] */\n      dup6\n      swap1\n        /* \"DU-vote-v2/contracts/DVote-v2c.sol\":4296:4401  return (org.orgName, org.orgType, org.totalMembers, org.electionEventCounter, org.electionAdminAddresses) */\n      tag_145\n      swap1\n      tag_116\n      jump\t// in\n    tag_145:\n      dup1\n      0x1f\n      add\n      0x20\n      dup1\n      swap2\n      div\n      mul\n      0x20\n      add\n      mload(0x40)\n      swap1\n      dup2\n      add\n      0x40\n      mstore\n      dup1\n      swap3\n      swap2\n      swap1\n      dup2\n      dup2\n      mstore\n      0x20\n      add\n      dup3\n      dup1\n      sload\n      tag_146\n      swap1\n      tag_116\n      jump\t// in\n    tag_146:\n      dup1\n      iszero\n      tag_147\n      jumpi\n      dup1\n      0x1f\n      lt\n      tag_148\n      jumpi\n      0x0100\n      dup1\n      dup4\n      sload\n      div\n      mul\n      dup4\n      mstore\n      swap2\n      0x20\n      add\n      swap2\n      jump(tag_147)\n    tag_148:\n      dup3\n      add\n      swap2\n      swap1\n      0x00\n      mstore\n      keccak256(0x00, 0x20)\n      swap1\n    tag_149:\n      dup2\n      sload\n      dup2\n      mstore\n      swap1\n      0x01\n      add\n      swap1\n      0x20\n      add\n      dup1\n      dup4\n      gt\n      tag_149\n      jumpi\n      dup3\n      swap1\n      sub\n      0x1f\n      and\n      dup3\n      add\n      swap2\n    tag_147:\n      pop\n      pop\n      pop\n      pop\n      pop\n      swap5\n      pop\n      dup1\n      dup1\n      sload\n      dup1\n      0x20\n      mul\n      0x20\n      add\n      mload(0x40)\n      swap1\n      dup2\n      add\n      0x40\n      mstore\n      dup1\n      swap3\n      swap2\n      swap1\n      dup2\n      dup2\n      mstore\n      0x20\n      add\n      dup3\n      dup1\n      sload\n      dup1\n      iszero\n      tag_150\n      jumpi\n      0x20\n      mul\n      dup3\n      add\n      swap2\n      swap1\n      0x00\n      mstore\n      keccak256(0x00, 0x20)\n      swap1\n    tag_151:\n      dup2\n      sload\n      sub(shl(0xa0, 0x01), 0x01)\n      and\n      dup2\n      mstore\n      0x01\n      swap1\n      swap2\n      add\n      swap1\n      0x20\n      add\n      dup1\n      dup4\n      gt\n      tag_151\n      jumpi\n    tag_150:\n      pop\n      pop\n      pop\n      pop\n      pop\n      swap1\n      pop\n      swap6\n      pop\n      swap6\n      pop\n      swap6\n      pop\n      swap6\n      pop\n      swap6\n      pop\n      pop\n        /* \"DU-vote-v2/contracts/DVote-v2c.sol\":4018:4409  function getOrganization(string memory _orgId) public view returns (string memory, OrganizationType, uint48, uint16, address[] memory) {... */\n      swap2\n      swap4\n      swap6\n      swap1\n      swap3\n      swap5\n      pop\n      jump\t// out\n        /* \"DU-vote-v2/contracts/DVote-v2c.sol\":6461:7427  function addCandidateToElection(uint32 _electionIndex, string memory _candidateName) public {... */\n    tag_58:\n        /* \"DU-vote-v2/contracts/DVote-v2c.sol\":6589:6602  electionCount */\n      sload(0x01)\n      0xffffffff\n      shl(0xa0, 0x01)\n      swap1\n      swap2\n      div\n      dup2\n      and\n        /* \"DU-vote-v2/contracts/DVote-v2c.sol\":6572:6602  _electionIndex < electionCount */\n      swap1\n      dup4\n      and\n      lt\n        /* \"DU-vote-v2/contracts/DVote-v2c.sol\":6564:6629  require(_electionIndex < electionCount, \"Invalid election index\") */\n      tag_153\n      jumpi\n      mload(0x40)\n      shl(0xe5, 0x461bcd)\n      dup2\n      mstore\n        /* \"#utility.yul\":11558:11560   */\n      0x20\n        /* \"DU-vote-v2/contracts/DVote-v2c.sol\":6564:6629  require(_electionIndex < electionCount, \"Invalid election index\") */\n      0x04\n      dup3\n      add\n        /* \"#utility.yul\":11540:11561   */\n      mstore\n        /* \"#utility.yul\":11597:11599   */\n      0x16\n        /* \"#utility.yul\":11577:11595   */\n      0x24\n      dup3\n      add\n        /* \"#utility.yul\":11570:11600   */\n      mstore\n      shl(0x53, 0x092dcecc2d8d2c840cad8cac6e8d2dedc40d2dcc8caf)\n        /* \"#utility.yul\":11616:11634   */\n      0x44\n      dup3\n      add\n        /* \"#utility.yul\":11609:11661   */\n      mstore\n        /* \"#utility.yul\":11678:11696   */\n      0x64\n      add\n        /* \"DU-vote-v2/contracts/DVote-v2c.sol\":6564:6629  require(_electionIndex < electionCount, \"Invalid election index\") */\n      tag_142\n        /* \"#utility.yul\":11356:11702   */\n      jump\n        /* \"DU-vote-v2/contracts/DVote-v2c.sol\":6564:6629  require(_electionIndex < electionCount, \"Invalid election index\") */\n    tag_153:\n        /* \"DU-vote-v2/contracts/DVote-v2c.sol\":6676:6701  elections[_electionIndex] */\n      0xffffffff\n      dup3\n      and\n        /* \"DU-vote-v2/contracts/DVote-v2c.sol\":6642:6673  ElectionDetail storage election */\n      0x00\n        /* \"DU-vote-v2/contracts/DVote-v2c.sol\":6676:6701  elections[_electionIndex] */\n      swap1\n      dup2\n      mstore\n        /* \"DU-vote-v2/contracts/DVote-v2c.sol\":6676:6685  elections */\n      0x0a\n        /* \"DU-vote-v2/contracts/DVote-v2c.sol\":6676:6701  elections[_electionIndex] */\n      0x20\n      mstore\n      0x40\n      swap1\n      keccak256\n        /* \"DU-vote-v2/contracts/DVote-v2c.sol\":6765:6779  election.orgId */\n      0x01\n      dup2\n      add\n        /* \"DU-vote-v2/contracts/DVote-v2c.sol\":6722:6780  isElectionAdminForOrganization(msg.sender, election.orgId) */\n      dup1\n      sload\n      tag_156\n      swap2\n        /* \"DU-vote-v2/contracts/DVote-v2c.sol\":6753:6763  msg.sender */\n      caller\n      swap2\n        /* \"DU-vote-v2/contracts/DVote-v2c.sol\":6722:6780  isElectionAdminForOrganization(msg.sender, election.orgId) */\n      tag_157\n      swap1\n      tag_116\n      jump\t// in\n    tag_157:\n      dup1\n      0x1f\n      add\n      0x20\n      dup1\n      swap2\n      div\n      mul\n      0x20\n      add\n      mload(0x40)\n      swap1\n      dup2\n      add\n      0x40\n      mstore\n      dup1\n      swap3\n      swap2\n      swap1\n      dup2\n      dup2\n      mstore\n      0x20\n      add\n      dup3\n      dup1\n      sload\n      tag_158\n      swap1\n      tag_116\n      jump\t// in\n    tag_158:\n      dup1\n      iszero\n      tag_159\n      jumpi\n      dup1\n      0x1f\n      lt\n      tag_160\n      jumpi\n      0x0100\n      dup1\n      dup4\n      sload\n      div\n      mul\n      dup4\n      mstore\n      swap2\n      0x20\n      add\n      swap2\n      jump(tag_159)\n    tag_160:\n      dup3\n      add\n      swap2\n      swap1\n      0x00\n      mstore\n      keccak256(0x00, 0x20)\n      swap1\n    tag_161:\n      dup2\n      sload\n      dup2\n      mstore\n      swap1\n      0x01\n      add\n      swap1\n      0x20\n      add\n      dup1\n      dup4\n      gt\n      tag_161\n      jumpi\n      dup3\n      swap1\n      sub\n      0x1f\n      and\n      dup3\n      add\n      swap2\n    tag_159:\n      pop\n      pop\n      pop\n      pop\n      pop\n        /* \"DU-vote-v2/contracts/DVote-v2c.sol\":6722:6752  isElectionAdminForOrganization */\n      tag_162\n        /* \"DU-vote-v2/contracts/DVote-v2c.sol\":6722:6780  isElectionAdminForOrganization(msg.sender, election.orgId) */\n      jump\t// in\n    tag_156:\n        /* \"DU-vote-v2/contracts/DVote-v2c.sol\":6714:6824  require(isElectionAdminForOrganization(msg.sender, election.orgId), \"Only election admins can add candidates\") */\n      tag_163\n      jumpi\n      mload(0x40)\n      shl(0xe5, 0x461bcd)\n      dup2\n      mstore\n        /* \"#utility.yul\":11909:11911   */\n      0x20\n        /* \"DU-vote-v2/contracts/DVote-v2c.sol\":6714:6824  require(isElectionAdminForOrganization(msg.sender, election.orgId), \"Only election admins can add candidates\") */\n      0x04\n      dup3\n      add\n        /* \"#utility.yul\":11891:11912   */\n      mstore\n        /* \"#utility.yul\":11948:11950   */\n      0x27\n        /* \"#utility.yul\":11928:11946   */\n      0x24\n      dup3\n      add\n        /* \"#utility.yul\":11921:11951   */\n      mstore\n        /* \"#utility.yul\":11987:12021   */\n      0x4f6e6c7920656c656374696f6e2061646d696e732063616e206164642063616e\n        /* \"#utility.yul\":11967:11985   */\n      0x44\n      dup3\n      add\n        /* \"#utility.yul\":11960:12022   */\n      mstore\n      shl(0xc8, 0x64696461746573)\n        /* \"#utility.yul\":12038:12056   */\n      0x64\n      dup3\n      add\n        /* \"#utility.yul\":12031:12068   */\n      mstore\n        /* \"#utility.yul\":12085:12104   */\n      0x84\n      add\n        /* \"DU-vote-v2/contracts/DVote-v2c.sol\":6714:6824  require(isElectionAdminForOrganization(msg.sender, election.orgId), \"Only election admins can add candidates\") */\n      tag_142\n        /* \"#utility.yul\":11707:12110   */\n      jump\n        /* \"DU-vote-v2/contracts/DVote-v2c.sol\":6714:6824  require(isElectionAdminForOrganization(msg.sender, election.orgId), \"Only election admins can add candidates\") */\n    tag_163:\n        /* \"DU-vote-v2/contracts/DVote-v2c.sol\":6871:6893  election.candidateList */\n      0x03\n      dup2\n      add\n      sload\n      0xff\n      dup1\n      dup3\n      and\n      0x0100\n        /* \"DU-vote-v2/contracts/DVote-v2c.sol\":6845:6868  election.candidateCount */\n      swap1\n      swap3\n      div\n      and\n        /* \"DU-vote-v2/contracts/DVote-v2c.sol\":6845:6893  election.candidateCount < election.candidateList */\n      lt\n        /* \"DU-vote-v2/contracts/DVote-v2c.sol\":6837:6921  require(election.candidateCount < election.candidateList, \"Candidate limit reached\") */\n      tag_166\n      jumpi\n      mload(0x40)\n      shl(0xe5, 0x461bcd)\n      dup2\n      mstore\n        /* \"#utility.yul\":12317:12319   */\n      0x20\n        /* \"DU-vote-v2/contracts/DVote-v2c.sol\":6837:6921  require(election.candidateCount < election.candidateList, \"Candidate limit reached\") */\n      0x04\n      dup3\n      add\n        /* \"#utility.yul\":12299:12320   */\n      mstore\n        /* \"#utility.yul\":12356:12358   */\n      0x17\n        /* \"#utility.yul\":12336:12354   */\n      0x24\n      dup3\n      add\n        /* \"#utility.yul\":12329:12359   */\n      mstore\n        /* \"#utility.yul\":12395:12420   */\n      0x43616e646964617465206c696d69742072656163686564000000000000000000\n        /* \"#utility.yul\":12375:12393   */\n      0x44\n      dup3\n      add\n        /* \"#utility.yul\":12368:12421   */\n      mstore\n        /* \"#utility.yul\":12438:12456   */\n      0x64\n      add\n        /* \"DU-vote-v2/contracts/DVote-v2c.sol\":6837:6921  require(election.candidateCount < election.candidateList, \"Candidate limit reached\") */\n      tag_142\n        /* \"#utility.yul\":12115:12462   */\n      jump\n        /* \"DU-vote-v2/contracts/DVote-v2c.sol\":6837:6921  require(election.candidateCount < election.candidateList, \"Candidate limit reached\") */\n    tag_166:\n        /* \"DU-vote-v2/contracts/DVote-v2c.sol\":7079:7080  0 */\n      0x00\n        /* \"DU-vote-v2/contracts/DVote-v2c.sol\":7054:7068  _candidateName */\n      dup3\n        /* \"DU-vote-v2/contracts/DVote-v2c.sol\":7048:7076  bytes(_candidateName).length */\n      mload\n        /* \"DU-vote-v2/contracts/DVote-v2c.sol\":7048:7080  bytes(_candidateName).length > 0 */\n      gt\n        /* \"DU-vote-v2/contracts/DVote-v2c.sol\":7040:7115  require(bytes(_candidateName).length > 0, \"Candidate name cannot be empty\") */\n      tag_169\n      jumpi\n      mload(0x40)\n      shl(0xe5, 0x461bcd)\n      dup2\n      mstore\n        /* \"#utility.yul\":12669:12671   */\n      0x20\n        /* \"DU-vote-v2/contracts/DVote-v2c.sol\":7040:7115  require(bytes(_candidateName).length > 0, \"Candidate name cannot be empty\") */\n      0x04\n      dup3\n      add\n        /* \"#utility.yul\":12651:12672   */\n      mstore\n        /* \"#utility.yul\":12708:12710   */\n      0x1e\n        /* \"#utility.yul\":12688:12706   */\n      0x24\n      dup3\n      add\n        /* \"#utility.yul\":12681:12711   */\n      mstore\n        /* \"#utility.yul\":12747:12779   */\n      0x43616e646964617465206e616d652063616e6e6f7420626520656d7074790000\n        /* \"#utility.yul\":12727:12745   */\n      0x44\n      dup3\n      add\n        /* \"#utility.yul\":12720:12780   */\n      mstore\n        /* \"#utility.yul\":12797:12815   */\n      0x64\n      add\n        /* \"DU-vote-v2/contracts/DVote-v2c.sol\":7040:7115  require(bytes(_candidateName).length > 0, \"Candidate name cannot be empty\") */\n      tag_142\n        /* \"#utility.yul\":12467:12821   */\n      jump\n        /* \"DU-vote-v2/contracts/DVote-v2c.sol\":7040:7115  require(bytes(_candidateName).length > 0, \"Candidate name cannot be empty\") */\n    tag_169:\n        /* \"DU-vote-v2/contracts/DVote-v2c.sol\":7166:7168  16 */\n      0x10\n        /* \"DU-vote-v2/contracts/DVote-v2c.sol\":7140:7154  _candidateName */\n      dup3\n        /* \"DU-vote-v2/contracts/DVote-v2c.sol\":7134:7162  bytes(_candidateName).length */\n      mload\n        /* \"DU-vote-v2/contracts/DVote-v2c.sol\":7134:7168  bytes(_candidateName).length <= 16 */\n      gt\n      iszero\n        /* \"DU-vote-v2/contracts/DVote-v2c.sol\":7126:7219  require(bytes(_candidateName).length <= 16, \"Candidate name should be 16 characters or less\") */\n      tag_172\n      jumpi\n      mload(0x40)\n      shl(0xe5, 0x461bcd)\n      dup2\n      mstore\n        /* \"#utility.yul\":13028:13030   */\n      0x20\n        /* \"DU-vote-v2/contracts/DVote-v2c.sol\":7126:7219  require(bytes(_candidateName).length <= 16, \"Candidate name should be 16 characters or less\") */\n      0x04\n      dup3\n      add\n        /* \"#utility.yul\":13010:13031   */\n      mstore\n        /* \"#utility.yul\":13067:13069   */\n      0x2e\n        /* \"#utility.yul\":13047:13065   */\n      0x24\n      dup3\n      add\n        /* \"#utility.yul\":13040:13070   */\n      mstore\n        /* \"#utility.yul\":13106:13140   */\n      0x43616e646964617465206e616d652073686f756c642062652031362063686172\n        /* \"#utility.yul\":13086:13104   */\n      0x44\n      dup3\n      add\n        /* \"#utility.yul\":13079:13141   */\n      mstore\n      shl(0x90, 0x616374657273206f72206c657373)\n        /* \"#utility.yul\":13157:13175   */\n      0x64\n      dup3\n      add\n        /* \"#utility.yul\":13150:13194   */\n      mstore\n        /* \"#utility.yul\":13211:13230   */\n      0x84\n      add\n        /* \"DU-vote-v2/contracts/DVote-v2c.sol\":7126:7219  require(bytes(_candidateName).length <= 16, \"Candidate name should be 16 characters or less\") */\n      tag_142\n        /* \"#utility.yul\":12826:13236   */\n      jump\n        /* \"DU-vote-v2/contracts/DVote-v2c.sol\":7126:7219  require(bytes(_candidateName).length <= 16, \"Candidate name should be 16 characters or less\") */\n    tag_172:\n        /* \"DU-vote-v2/contracts/DVote-v2c.sol\":7238:7276  onlyAlphabetCharacters(_candidateName) */\n      tag_175\n        /* \"DU-vote-v2/contracts/DVote-v2c.sol\":7261:7275  _candidateName */\n      dup3\n        /* \"DU-vote-v2/contracts/DVote-v2c.sol\":7238:7260  onlyAlphabetCharacters */\n      tag_176\n        /* \"DU-vote-v2/contracts/DVote-v2c.sol\":7238:7276  onlyAlphabetCharacters(_candidateName) */\n      jump\t// in\n    tag_175:\n        /* \"DU-vote-v2/contracts/DVote-v2c.sol\":7230:7339  require(onlyAlphabetCharacters(_candidateName), \"Candidate name should only contain alphabetical characters\") */\n      tag_177\n      jumpi\n      mload(0x40)\n      shl(0xe5, 0x461bcd)\n      dup2\n      mstore\n        /* \"#utility.yul\":13443:13445   */\n      0x20\n        /* \"DU-vote-v2/contracts/DVote-v2c.sol\":7230:7339  require(onlyAlphabetCharacters(_candidateName), \"Candidate name should only contain alphabetical characters\") */\n      0x04\n      dup3\n      add\n        /* \"#utility.yul\":13425:13446   */\n      mstore\n        /* \"#utility.yul\":13482:13484   */\n      0x3a\n        /* \"#utility.yul\":13462:13480   */\n      0x24\n      dup3\n      add\n        /* \"#utility.yul\":13455:13485   */\n      mstore\n        /* \"#utility.yul\":13521:13555   */\n      0x43616e646964617465206e616d652073686f756c64206f6e6c7920636f6e7461\n        /* \"#utility.yul\":13501:13519   */\n      0x44\n      dup3\n      add\n        /* \"#utility.yul\":13494:13556   */\n      mstore\n        /* \"#utility.yul\":13592:13620   */\n      0x696e20616c7068616265746963616c2063686172616374657273000000000000\n        /* \"#utility.yul\":13572:13590   */\n      0x64\n      dup3\n      add\n        /* \"#utility.yul\":13565:13621   */\n      mstore\n        /* \"#utility.yul\":13638:13657   */\n      0x84\n      add\n        /* \"DU-vote-v2/contracts/DVote-v2c.sol\":7230:7339  require(onlyAlphabetCharacters(_candidateName), \"Candidate name should only contain alphabetical characters\") */\n      tag_142\n        /* \"#utility.yul\":13241:13663   */\n      jump\n        /* \"DU-vote-v2/contracts/DVote-v2c.sol\":7230:7339  require(onlyAlphabetCharacters(_candidateName), \"Candidate name should only contain alphabetical characters\") */\n    tag_177:\n        /* \"DU-vote-v2/contracts/DVote-v2c.sol\":7394:7417  election.candidateCount */\n      0x03\n      dup2\n      add\n        /* \"DU-vote-v2/contracts/DVote-v2c.sol\":7394:7419  election.candidateCount++ */\n      dup1\n      sload\n      0x0100\n      swap1\n      div\n      0xff\n      and\n      swap1\n        /* \"DU-vote-v2/contracts/DVote-v2c.sol\":7394:7417  election.candidateCount */\n      0x01\n        /* \"DU-vote-v2/contracts/DVote-v2c.sol\":7394:7419  election.candidateCount++ */\n      tag_180\n      dup4\n      tag_181\n      jump\t// in\n    tag_180:\n      swap2\n      swap1\n      0x0100\n      exp\n      dup2\n      sload\n      dup2\n      0xff\n      mul\n      not\n      and\n      swap1\n      dup4\n      0xff\n      and\n      mul\n      or\n      swap1\n      sstore\n      pop\n      pop\n        /* \"DU-vote-v2/contracts/DVote-v2c.sol\":6553:7427  {... */\n      pop\n        /* \"DU-vote-v2/contracts/DVote-v2c.sol\":6461:7427  function addCandidateToElection(uint32 _electionIndex, string memory _candidateName) public {... */\n      pop\n      pop\n      jump\t// out\n        /* \"DU-vote-v2/contracts/DVote-v2c.sol\":4417:5005  function getAdminOrganization() public view returns (string memory, string memory) {... */\n    tag_76:\n        /* \"DU-vote-v2/contracts/DVote-v2c.sol\":4535:4545  msg.sender */\n      caller\n        /* \"DU-vote-v2/contracts/DVote-v2c.sol\":4511:4532  address _adminAddress */\n      0x00\n        /* \"DU-vote-v2/contracts/DVote-v2c.sol\":4564:4594  registeredAdmin[_adminAddress] */\n      dup2\n      dup2\n      mstore\n        /* \"DU-vote-v2/contracts/DVote-v2c.sol\":4564:4579  registeredAdmin */\n      0x03\n        /* \"DU-vote-v2/contracts/DVote-v2c.sol\":4564:4594  registeredAdmin[_adminAddress] */\n      0x20\n      mstore\n      0x40\n      swap1\n      keccak256\n      sload\n        /* \"DU-vote-v2/contracts/DVote-v2c.sol\":4470:4483  string memory */\n      0x60\n      swap2\n      dup3\n      swap2\n        /* \"DU-vote-v2/contracts/DVote-v2c.sol\":4564:4594  registeredAdmin[_adminAddress] */\n      0xff\n      and\n        /* \"DU-vote-v2/contracts/DVote-v2c.sol\":4556:4636  require(registeredAdmin[_adminAddress], \"Election Admin address not registered\") */\n      tag_184\n      jumpi\n      mload(0x40)\n      shl(0xe5, 0x461bcd)\n      dup2\n      mstore\n        /* \"#utility.yul\":14182:14184   */\n      0x20\n        /* \"DU-vote-v2/contracts/DVote-v2c.sol\":4556:4636  require(registeredAdmin[_adminAddress], \"Election Admin address not registered\") */\n      0x04\n      dup3\n      add\n        /* \"#utility.yul\":14164:14185   */\n      mstore\n        /* \"#utility.yul\":14221:14223   */\n      0x25\n        /* \"#utility.yul\":14201:14219   */\n      0x24\n      dup3\n      add\n        /* \"#utility.yul\":14194:14224   */\n      mstore\n        /* \"#utility.yul\":14260:14294   */\n      0x456c656374696f6e2041646d696e2061646472657373206e6f74207265676973\n        /* \"#utility.yul\":14240:14258   */\n      0x44\n      dup3\n      add\n        /* \"#utility.yul\":14233:14295   */\n      mstore\n      shl(0xda, 0x1d195c9959)\n        /* \"#utility.yul\":14311:14329   */\n      0x64\n      dup3\n      add\n        /* \"#utility.yul\":14304:14339   */\n      mstore\n        /* \"#utility.yul\":14356:14375   */\n      0x84\n      add\n        /* \"DU-vote-v2/contracts/DVote-v2c.sol\":4556:4636  require(registeredAdmin[_adminAddress], \"Election Admin address not registered\") */\n      tag_142\n        /* \"#utility.yul\":13980:14381   */\n      jump\n        /* \"DU-vote-v2/contracts/DVote-v2c.sol\":4556:4636  require(registeredAdmin[_adminAddress], \"Election Admin address not registered\") */\n    tag_184:\n      sub(shl(0xa0, 0x01), 0x01)\n        /* \"DU-vote-v2/contracts/DVote-v2c.sol\":4752:4786  adminToOrganization[_adminAddress] */\n      dup2\n      and\n        /* \"DU-vote-v2/contracts/DVote-v2c.sol\":4728:4749  string memory orgName */\n      0x00\n        /* \"DU-vote-v2/contracts/DVote-v2c.sol\":4752:4786  adminToOrganization[_adminAddress] */\n      swap1\n      dup2\n      mstore\n        /* \"DU-vote-v2/contracts/DVote-v2c.sol\":4752:4771  adminToOrganization */\n      0x07\n        /* \"DU-vote-v2/contracts/DVote-v2c.sol\":4752:4786  adminToOrganization[_adminAddress] */\n      0x20\n      mstore\n      0x40\n      dup2\n      keccak256\n        /* \"DU-vote-v2/contracts/DVote-v2c.sol\":4728:4786  string memory orgName = adminToOrganization[_adminAddress] */\n      dup1\n      sload\n      tag_187\n      swap1\n      tag_116\n      jump\t// in\n    tag_187:\n      dup1\n      0x1f\n      add\n      0x20\n      dup1\n      swap2\n      div\n      mul\n      0x20\n      add\n      mload(0x40)\n      swap1\n      dup2\n      add\n      0x40\n      mstore\n      dup1\n      swap3\n      swap2\n      swap1\n      dup2\n      dup2\n      mstore\n      0x20\n      add\n      dup3\n      dup1\n      sload\n      tag_188\n      swap1\n      tag_116\n      jump\t// in\n    tag_188:\n      dup1\n      iszero\n      tag_189\n      jumpi\n      dup1\n      0x1f\n      lt\n      tag_190\n      jumpi\n      0x0100\n      dup1\n      dup4\n      sload\n      div\n      mul\n      dup4\n      mstore\n      swap2\n      0x20\n      add\n      swap2\n      jump(tag_189)\n    tag_190:\n      dup3\n      add\n      swap2\n      swap1\n      0x00\n      mstore\n      keccak256(0x00, 0x20)\n      swap1\n    tag_191:\n      dup2\n      sload\n      dup2\n      mstore\n      swap1\n      0x01\n      add\n      swap1\n      0x20\n      add\n      dup1\n      dup4\n      gt\n      tag_191\n      jumpi\n      dup3\n      swap1\n      sub\n      0x1f\n      and\n      dup3\n      add\n      swap2\n    tag_189:\n      pop\n      pop\n      pop\n      pop\n      pop\n      swap1\n      pop\n        /* \"DU-vote-v2/contracts/DVote-v2c.sol\":4805:4821  organizationList */\n      0x04\n        /* \"DU-vote-v2/contracts/DVote-v2c.sol\":4822:4829  orgName */\n      dup2\n        /* \"DU-vote-v2/contracts/DVote-v2c.sol\":4805:4830  organizationList[orgName] */\n      mload(0x40)\n      tag_192\n      swap2\n      swap1\n      tag_140\n      jump\t// in\n    tag_192:\n      swap1\n      dup2\n      mstore\n      mload(0x40)\n      swap1\n      dup2\n      swap1\n      sub\n      0x20\n      add\n      swap1\n      keccak256\n      sload\n      0xff\n      and\n        /* \"DU-vote-v2/contracts/DVote-v2c.sol\":4797:4857  require(organizationList[orgName], \"Organization not found\") */\n      tag_193\n      jumpi\n      mload(0x40)\n      shl(0xe5, 0x461bcd)\n      dup2\n      mstore\n        /* \"#utility.yul\":14588:14590   */\n      0x20\n        /* \"DU-vote-v2/contracts/DVote-v2c.sol\":4797:4857  require(organizationList[orgName], \"Organization not found\") */\n      0x04\n      dup3\n      add\n        /* \"#utility.yul\":14570:14591   */\n      mstore\n        /* \"#utility.yul\":14627:14629   */\n      0x16\n        /* \"#utility.yul\":14607:14625   */\n      0x24\n      dup3\n      add\n        /* \"#utility.yul\":14600:14630   */\n      mstore\n      shl(0x52, 0x13dc99d85b9a5e985d1a5bdb881b9bdd08199bdd5b99)\n        /* \"#utility.yul\":14646:14664   */\n      0x44\n      dup3\n      add\n        /* \"#utility.yul\":14639:14691   */\n      mstore\n        /* \"#utility.yul\":14708:14726   */\n      0x64\n      add\n        /* \"DU-vote-v2/contracts/DVote-v2c.sol\":4797:4857  require(organizationList[orgName], \"Organization not found\") */\n      tag_142\n        /* \"#utility.yul\":14386:14732   */\n      jump\n        /* \"DU-vote-v2/contracts/DVote-v2c.sol\":4797:4857  require(organizationList[orgName], \"Organization not found\") */\n    tag_193:\n        /* \"DU-vote-v2/contracts/DVote-v2c.sol\":4911:4930  string memory orgId */\n      0x00\n        /* \"DU-vote-v2/contracts/DVote-v2c.sol\":4933:4946  organizations */\n      0x05\n        /* \"DU-vote-v2/contracts/DVote-v2c.sol\":4947:4954  orgName */\n      dup3\n        /* \"DU-vote-v2/contracts/DVote-v2c.sol\":4933:4955  organizations[orgName] */\n      mload(0x40)\n      tag_196\n      swap2\n      swap1\n      tag_140\n      jump\t// in\n    tag_196:\n      swap1\n      dup2\n      mstore\n      0x20\n      add\n      mload(0x40)\n      dup1\n      swap2\n      sub\n      swap1\n      keccak256\n        /* \"DU-vote-v2/contracts/DVote-v2c.sol\":4933:4961  organizations[orgName].orgId */\n      0x01\n      add\n        /* \"DU-vote-v2/contracts/DVote-v2c.sol\":4911:4961  string memory orgId = organizations[orgName].orgId */\n      dup1\n      sload\n      tag_197\n      swap1\n      tag_116\n      jump\t// in\n    tag_197:\n      dup1\n      0x1f\n      add\n      0x20\n      dup1\n      swap2\n      div\n      mul\n      0x20\n      add\n      mload(0x40)\n      swap1\n      dup2\n      add\n      0x40\n      mstore\n      dup1\n      swap3\n      swap2\n      swap1\n      dup2\n      dup2\n      mstore\n      0x20\n      add\n      dup3\n      dup1\n      sload\n      tag_198\n      swap1\n      tag_116\n      jump\t// in\n    tag_198:\n      dup1\n      iszero\n      tag_199\n      jumpi\n      dup1\n      0x1f\n      lt\n      tag_200\n      jumpi\n      0x0100\n      dup1\n      dup4\n      sload\n      div\n      mul\n      dup4\n      mstore\n      swap2\n      0x20\n      add\n      swap2\n      jump(tag_199)\n    tag_200:\n      dup3\n      add\n      swap2\n      swap1\n      0x00\n      mstore\n      keccak256(0x00, 0x20)\n      swap1\n    tag_201:\n      dup2\n      sload\n      dup2\n      mstore\n      swap1\n      0x01\n      add\n      swap1\n      0x20\n      add\n      dup1\n      dup4\n      gt\n      tag_201\n      jumpi\n      dup3\n      swap1\n      sub\n      0x1f\n      and\n      dup3\n      add\n      swap2\n    tag_199:\n      pop\n        /* \"DU-vote-v2/contracts/DVote-v2c.sol\":4982:4989  orgName */\n      swap6\n      swap10\n        /* \"DU-vote-v2/contracts/DVote-v2c.sol\":4911:4961  string memory orgId = organizations[orgName].orgId */\n      swap4\n      swap9\n      pop\n        /* \"DU-vote-v2/contracts/DVote-v2c.sol\":4417:5005  function getAdminOrganization() public view returns (string memory, string memory) {... */\n      swap3\n      swap7\n      pop\n      pop\n      pop\n      pop\n      pop\n      pop\n      pop\n      jump\t// out\n        /* \"DU-vote-v2/contracts/DVote-v2c.sol\":1000:1039  mapping(address => Voter) public voters */\n    tag_84:\n      mstore(0x20, 0x0b)\n      0x00\n      swap1\n      dup2\n      mstore\n      0x40\n      swap1\n      keccak256\n      dup1\n      sload\n      0x01\n      dup3\n      add\n      dup1\n      sload\n      0xffffffffffff\n      dup4\n      and\n      swap4\n      0x01000000000000\n      swap1\n      swap4\n      div\n      sub(shl(0xa0, 0x01), 0x01)\n      and\n      swap3\n      swap2\n      swap1\n      tag_202\n      swap1\n      tag_116\n      jump\t// in\n    tag_202:\n      dup1\n      0x1f\n      add\n      0x20\n      dup1\n      swap2\n      div\n      mul\n      0x20\n      add\n      mload(0x40)\n      swap1\n      dup2\n      add\n      0x40\n      mstore\n      dup1\n      swap3\n      swap2\n      swap1\n      dup2\n      dup2\n      mstore\n      0x20\n      add\n      dup3\n      dup1\n      sload\n      tag_203\n      swap1\n      tag_116\n      jump\t// in\n    tag_203:\n      dup1\n      iszero\n      tag_204\n      jumpi\n      dup1\n      0x1f\n      lt\n      tag_205\n      jumpi\n      0x0100\n      dup1\n      dup4\n      sload\n      div\n      mul\n      dup4\n      mstore\n      swap2\n      0x20\n      add\n      swap2\n      jump(tag_204)\n    tag_205:\n      dup3\n      add\n      swap2\n      swap1\n      0x00\n      mstore\n      keccak256(0x00, 0x20)\n      swap1\n    tag_206:\n      dup2\n      sload\n      dup2\n      mstore\n      swap1\n      0x01\n      add\n      swap1\n      0x20\n      add\n      dup1\n      dup4\n      gt\n      tag_206\n      jumpi\n      dup3\n      swap1\n      sub\n      0x1f\n      and\n      dup3\n      add\n      swap2\n    tag_204:\n      pop\n      pop\n      pop\n      0x02\n      dup5\n      add\n      sload\n      0x04\n      dup6\n      add\n      dup1\n      sload\n      swap5\n      swap6\n      0xff\n      swap1\n      swap3\n      and\n      swap5\n      swap2\n      swap4\n      pop\n      swap2\n      pop\n      tag_207\n      swap1\n      tag_116\n      jump\t// in\n    tag_207:\n      dup1\n      0x1f\n      add\n      0x20\n      dup1\n      swap2\n      div\n      mul\n      0x20\n      add\n      mload(0x40)\n      swap1\n      dup2\n      add\n      0x40\n      mstore\n      dup1\n      swap3\n      swap2\n      swap1\n      dup2\n      dup2\n      mstore\n      0x20\n      add\n      dup3\n      dup1\n      sload\n      tag_208\n      swap1\n      tag_116\n      jump\t// in\n    tag_208:\n      dup1\n      iszero\n      tag_209\n      jumpi\n      dup1\n      0x1f\n      lt\n      tag_210\n      jumpi\n      0x0100\n      dup1\n      dup4\n      sload\n      div\n      mul\n      dup4\n      mstore\n      swap2\n      0x20\n      add\n      swap2\n      jump(tag_209)\n    tag_210:\n      dup3\n      add\n      swap2\n      swap1\n      0x00\n      mstore\n      keccak256(0x00, 0x20)\n      swap1\n    tag_211:\n      dup2\n      sload\n      dup2\n      mstore\n      swap1\n      0x01\n      add\n      swap1\n      0x20\n      add\n      dup1\n      dup4\n      gt\n      tag_211\n      jumpi\n      dup3\n      swap1\n      sub\n      0x1f\n      and\n      dup3\n      add\n      swap2\n    tag_209:\n      pop\n      pop\n      pop\n      pop\n      pop\n      swap1\n      pop\n      dup6\n      jump\t// out\n        /* \"DU-vote-v2/contracts/DVote-v2c.sol\":2150:2690  function registerElectionAdmin(string memory _orgName) public {... */\n    tag_97:\n        /* \"DU-vote-v2/contracts/DVote-v2c.sol\":2248:2258  msg.sender */\n      caller\n        /* \"DU-vote-v2/contracts/DVote-v2c.sol\":2232:2259  registeredAdmin[msg.sender] */\n      0x00\n      swap1\n      dup2\n      mstore\n        /* \"DU-vote-v2/contracts/DVote-v2c.sol\":2232:2247  registeredAdmin */\n      0x03\n        /* \"DU-vote-v2/contracts/DVote-v2c.sol\":2232:2259  registeredAdmin[msg.sender] */\n      0x20\n      mstore\n      0x40\n      swap1\n      keccak256\n      sload\n      0xff\n      and\n        /* \"DU-vote-v2/contracts/DVote-v2c.sol\":2231:2259  !registeredAdmin[msg.sender] */\n      iszero\n        /* \"DU-vote-v2/contracts/DVote-v2c.sol\":2223:2305  require(!registeredAdmin[msg.sender], \"Election Admin address already registered\") */\n      tag_213\n      jumpi\n      mload(0x40)\n      shl(0xe5, 0x461bcd)\n      dup2\n      mstore\n        /* \"#utility.yul\":14939:14941   */\n      0x20\n        /* \"DU-vote-v2/contracts/DVote-v2c.sol\":2223:2305  require(!registeredAdmin[msg.sender], \"Election Admin address already registered\") */\n      0x04\n      dup3\n      add\n        /* \"#utility.yul\":14921:14942   */\n      mstore\n        /* \"#utility.yul\":14978:14980   */\n      0x29\n        /* \"#utility.yul\":14958:14976   */\n      0x24\n      dup3\n      add\n        /* \"#utility.yul\":14951:14981   */\n      mstore\n        /* \"#utility.yul\":15017:15051   */\n      0x456c656374696f6e2041646d696e206164647265737320616c72656164792072\n        /* \"#utility.yul\":14997:15015   */\n      0x44\n      dup3\n      add\n        /* \"#utility.yul\":14990:15052   */\n      mstore\n      shl(0xba, 0x1959da5cdd195c9959)\n        /* \"#utility.yul\":15068:15086   */\n      0x64\n      dup3\n      add\n        /* \"#utility.yul\":15061:15100   */\n      mstore\n        /* \"#utility.yul\":15117:15136   */\n      0x84\n      add\n        /* \"DU-vote-v2/contracts/DVote-v2c.sol\":2223:2305  require(!registeredAdmin[msg.sender], \"Election Admin address already registered\") */\n      tag_142\n        /* \"#utility.yul\":14737:15142   */\n      jump\n        /* \"DU-vote-v2/contracts/DVote-v2c.sol\":2223:2305  require(!registeredAdmin[msg.sender], \"Election Admin address already registered\") */\n    tag_213:\n        /* \"DU-vote-v2/contracts/DVote-v2c.sol\":2324:2340  organizationList */\n      0x04\n        /* \"DU-vote-v2/contracts/DVote-v2c.sol\":2341:2349  _orgName */\n      dup2\n        /* \"DU-vote-v2/contracts/DVote-v2c.sol\":2324:2350  organizationList[_orgName] */\n      mload(0x40)\n      tag_216\n      swap2\n      swap1\n      tag_140\n      jump\t// in\n    tag_216:\n      swap1\n      dup2\n      mstore\n      mload(0x40)\n      swap1\n      dup2\n      swap1\n      sub\n      0x20\n      add\n      swap1\n      keccak256\n      sload\n      0xff\n      and\n        /* \"DU-vote-v2/contracts/DVote-v2c.sol\":2316:2377  require(organizationList[_orgName], \"Organization not found\") */\n      tag_217\n      jumpi\n      mload(0x40)\n      shl(0xe5, 0x461bcd)\n      dup2\n      mstore\n        /* \"#utility.yul\":14588:14590   */\n      0x20\n        /* \"DU-vote-v2/contracts/DVote-v2c.sol\":2316:2377  require(organizationList[_orgName], \"Organization not found\") */\n      0x04\n      dup3\n      add\n        /* \"#utility.yul\":14570:14591   */\n      mstore\n        /* \"#utility.yul\":14627:14629   */\n      0x16\n        /* \"#utility.yul\":14607:14625   */\n      0x24\n      dup3\n      add\n        /* \"#utility.yul\":14600:14630   */\n      mstore\n      shl(0x52, 0x13dc99d85b9a5e985d1a5bdb881b9bdd08199bdd5b99)\n        /* \"#utility.yul\":14646:14664   */\n      0x44\n      dup3\n      add\n        /* \"#utility.yul\":14639:14691   */\n      mstore\n        /* \"#utility.yul\":14708:14726   */\n      0x64\n      add\n        /* \"DU-vote-v2/contracts/DVote-v2c.sol\":2316:2377  require(organizationList[_orgName], \"Organization not found\") */\n      tag_142\n        /* \"#utility.yul\":14386:14732   */\n      jump\n        /* \"DU-vote-v2/contracts/DVote-v2c.sol\":2316:2377  require(organizationList[_orgName], \"Organization not found\") */\n    tag_217:\n        /* \"DU-vote-v2/contracts/DVote-v2c.sol\":2390:2414  Organization storage org */\n      0x00\n        /* \"DU-vote-v2/contracts/DVote-v2c.sol\":2417:2430  organizations */\n      0x05\n        /* \"DU-vote-v2/contracts/DVote-v2c.sol\":2431:2439  _orgName */\n      dup3\n        /* \"DU-vote-v2/contracts/DVote-v2c.sol\":2417:2440  organizations[_orgName] */\n      mload(0x40)\n      tag_219\n      swap2\n      swap1\n      tag_140\n      jump\t// in\n    tag_219:\n      swap1\n      dup2\n      mstore\n      0x40\n      dup1\n      mload\n      swap2\n      dup3\n      swap1\n      sub\n      0x20\n      swap1\n      dup2\n      add\n      dup4\n      keccak256\n        /* \"DU-vote-v2/contracts/DVote-v2c.sol\":2545:2571  org.electionAdminAddresses */\n      0x03\n      dup1\n      dup3\n      add\n        /* \"DU-vote-v2/contracts/DVote-v2c.sol\":2545:2588  org.electionAdminAddresses.push(msg.sender) */\n      dup1\n      sload\n      0x01\n      dup2\n      dup2\n      add\n      dup4\n      sstore\n      0x00\n      swap3\n      dup4\n      mstore\n      dup6\n      dup4\n      keccak256\n      swap1\n      swap2\n      add\n      dup1\n      sload\n      not(sub(shl(0xa0, 0x01), 0x01))\n      and\n        /* \"DU-vote-v2/contracts/DVote-v2c.sol\":2577:2587  msg.sender */\n      caller\n        /* \"DU-vote-v2/contracts/DVote-v2c.sol\":2545:2588  org.electionAdminAddresses.push(msg.sender) */\n      swap1\n      dup2\n      or\n      swap1\n      swap2\n      sstore\n        /* \"DU-vote-v2/contracts/DVote-v2c.sol\":2601:2628  registeredAdmin[msg.sender] */\n      dup3\n      mstore\n      swap2\n      swap1\n      swap4\n      mstore\n      swap3\n      swap1\n      swap2\n      keccak256\n        /* \"DU-vote-v2/contracts/DVote-v2c.sol\":2601:2635  registeredAdmin[msg.sender] = true */\n      dup1\n      sload\n      not(0xff)\n      and\n      swap1\n      swap3\n      or\n      swap1\n      swap2\n      sstore\n        /* \"DU-vote-v2/contracts/DVote-v2c.sol\":2417:2440  organizations[_orgName] */\n      swap2\n      pop\n        /* \"DU-vote-v2/contracts/DVote-v2c.sol\":2646:2670  organizationTotalMembers */\n      0x06\n      swap1\n        /* \"DU-vote-v2/contracts/DVote-v2c.sol\":2646:2680  organizationTotalMembers[_orgName] */\n      tag_221\n      swap1\n        /* \"DU-vote-v2/contracts/DVote-v2c.sol\":2671:2679  _orgName */\n      dup5\n      swap1\n        /* \"DU-vote-v2/contracts/DVote-v2c.sol\":2646:2680  organizationTotalMembers[_orgName] */\n      tag_140\n      jump\t// in\n    tag_221:\n      swap1\n      dup2\n      mstore\n      mload(0x40)\n      swap1\n      dup2\n      swap1\n      sub\n      0x20\n      add\n      swap1\n      keccak256\n        /* \"DU-vote-v2/contracts/DVote-v2c.sol\":2646:2682  organizationTotalMembers[_orgName]++ */\n      dup1\n      sload\n      0xffffffffffff\n      and\n      swap1\n        /* \"DU-vote-v2/contracts/DVote-v2c.sol\":2646:2680  organizationTotalMembers[_orgName] */\n      0x00\n        /* \"DU-vote-v2/contracts/DVote-v2c.sol\":2646:2682  organizationTotalMembers[_orgName]++ */\n      tag_222\n      dup4\n      tag_223\n      jump\t// in\n    tag_222:\n      swap2\n      swap1\n      0x0100\n      exp\n      dup2\n      sload\n      dup2\n      0xffffffffffff\n      mul\n      not\n      and\n      swap1\n      dup4\n      0xffffffffffff\n      and\n      mul\n      or\n      swap1\n      sstore\n      pop\n      pop\n        /* \"DU-vote-v2/contracts/DVote-v2c.sol\":2212:2690  {... */\n      pop\n        /* \"DU-vote-v2/contracts/DVote-v2c.sol\":2150:2690  function registerElectionAdmin(string memory _orgName) public {... */\n      pop\n      jump\t// out\n        /* \"DU-vote-v2/contracts/DVote-v2c.sol\":615:667  mapping(string => Organization) public organizations */\n    tag_100:\n      dup1\n      mload\n      0x20\n      dup2\n      dup4\n      add\n      dup2\n      add\n      dup1\n      mload\n      0x05\n      dup3\n      mstore\n      swap3\n      dup3\n      add\n      swap2\n      swap1\n      swap4\n      add\n      keccak256\n      swap2\n      mstore\n      dup1\n      sload\n      dup2\n      swap1\n      tag_224\n      swap1\n      tag_116\n      jump\t// in\n    tag_224:\n      dup1\n      0x1f\n      add\n      0x20\n      dup1\n      swap2\n      div\n      mul\n      0x20\n      add\n      mload(0x40)\n      swap1\n      dup2\n      add\n      0x40\n      mstore\n      dup1\n      swap3\n      swap2\n      swap1\n      dup2\n      dup2\n      mstore\n      0x20\n      add\n      dup3\n      dup1\n      sload\n      tag_225\n      swap1\n      tag_116\n      jump\t// in\n    tag_225:\n      dup1\n      iszero\n      tag_226\n      jumpi\n      dup1\n      0x1f\n      lt\n      tag_227\n      jumpi\n      0x0100\n      dup1\n      dup4\n      sload\n      div\n      mul\n      dup4\n      mstore\n      swap2\n      0x20\n      add\n      swap2\n      jump(tag_226)\n    tag_227:\n      dup3\n      add\n      swap2\n      swap1\n      0x00\n      mstore\n      keccak256(0x00, 0x20)\n      swap1\n    tag_228:\n      dup2\n      sload\n      dup2\n      mstore\n      swap1\n      0x01\n      add\n      swap1\n      0x20\n      add\n      dup1\n      dup4\n      gt\n      tag_228\n      jumpi\n      dup3\n      swap1\n      sub\n      0x1f\n      and\n      dup3\n      add\n      swap2\n    tag_226:\n      pop\n      pop\n      pop\n      pop\n      pop\n      swap1\n      dup1\n      0x01\n      add\n      dup1\n      sload\n      tag_229\n      swap1\n      tag_116\n      jump\t// in\n    tag_229:\n      dup1\n      0x1f\n      add\n      0x20\n      dup1\n      swap2\n      div\n      mul\n      0x20\n      add\n      mload(0x40)\n      swap1\n      dup2\n      add\n      0x40\n      mstore\n      dup1\n      swap3\n      swap2\n      swap1\n      dup2\n      dup2\n      mstore\n      0x20\n      add\n      dup3\n      dup1\n      sload\n      tag_230\n      swap1\n      tag_116\n      jump\t// in\n    tag_230:\n      dup1\n      iszero\n      tag_231\n      jumpi\n      dup1\n      0x1f\n      lt\n      tag_232\n      jumpi\n      0x0100\n      dup1\n      dup4\n      sload\n      div\n      mul\n      dup4\n      mstore\n      swap2\n      0x20\n      add\n      swap2\n      jump(tag_231)\n    tag_232:\n      dup3\n      add\n      swap2\n      swap1\n      0x00\n      mstore\n      keccak256(0x00, 0x20)\n      swap1\n    tag_233:\n      dup2\n      sload\n      dup2\n      mstore\n      swap1\n      0x01\n      add\n      swap1\n      0x20\n      add\n      dup1\n      dup4\n      gt\n      tag_233\n      jumpi\n      dup3\n      swap1\n      sub\n      0x1f\n      and\n      dup3\n      add\n      swap2\n    tag_231:\n      pop\n      pop\n      pop\n      0x02\n      swap1\n      swap4\n      add\n      sload\n      swap2\n      swap3\n      pop\n      pop\n      0xff\n      dup2\n      and\n      swap1\n      0xffff\n      0x0100\n      dup3\n      div\n      and\n      swap1\n      0xffffffffffff\n      0x01000000\n      swap1\n      swap2\n      div\n      and\n      dup6\n      jump\t// out\n        /* \"DU-vote-v2/contracts/DVote-v2c.sol\":5125:6453  function addElectionEvent(... */\n    tag_106:\n        /* \"DU-vote-v2/contracts/DVote-v2c.sol\":5329:5345  organizationList */\n      0x04\n        /* \"DU-vote-v2/contracts/DVote-v2c.sol\":5346:5352  _orgId */\n      dup5\n        /* \"DU-vote-v2/contracts/DVote-v2c.sol\":5329:5353  organizationList[_orgId] */\n      mload(0x40)\n      tag_235\n      swap2\n      swap1\n      tag_140\n      jump\t// in\n    tag_235:\n      swap1\n      dup2\n      mstore\n      mload(0x40)\n      swap1\n      dup2\n      swap1\n      sub\n      0x20\n      add\n      swap1\n      keccak256\n      sload\n      0xff\n      and\n        /* \"DU-vote-v2/contracts/DVote-v2c.sol\":5321:5383  require(organizationList[_orgId], \"Organization ID not found\") */\n      tag_236\n      jumpi\n      mload(0x40)\n      shl(0xe5, 0x461bcd)\n      dup2\n      mstore\n        /* \"#utility.yul\":11204:11206   */\n      0x20\n        /* \"DU-vote-v2/contracts/DVote-v2c.sol\":5321:5383  require(organizationList[_orgId], \"Organization ID not found\") */\n      0x04\n      dup3\n      add\n        /* \"#utility.yul\":11186:11207   */\n      mstore\n        /* \"#utility.yul\":11243:11245   */\n      0x19\n        /* \"#utility.yul\":11223:11241   */\n      0x24\n      dup3\n      add\n        /* \"#utility.yul\":11216:11246   */\n      mstore\n      shl(0x3a, 0x13dc99d85b9a5e985d1a5bdb881251081b9bdd08199bdd5b99)\n        /* \"#utility.yul\":11262:11280   */\n      0x44\n      dup3\n      add\n        /* \"#utility.yul\":11255:11310   */\n      mstore\n        /* \"#utility.yul\":11327:11345   */\n      0x64\n      add\n        /* \"DU-vote-v2/contracts/DVote-v2c.sol\":5321:5383  require(organizationList[_orgId], \"Organization ID not found\") */\n      tag_142\n        /* \"#utility.yul\":11002:11351   */\n      jump\n        /* \"DU-vote-v2/contracts/DVote-v2c.sol\":5321:5383  require(organizationList[_orgId], \"Organization ID not found\") */\n    tag_236:\n        /* \"DU-vote-v2/contracts/DVote-v2c.sol\":5434:5435  1 */\n      0x01\n        /* \"DU-vote-v2/contracts/DVote-v2c.sol\":5412:5423  _electionID */\n      dup4\n        /* \"DU-vote-v2/contracts/DVote-v2c.sol\":5406:5431  bytes(_electionID).length */\n      mload\n        /* \"DU-vote-v2/contracts/DVote-v2c.sol\":5406:5435  bytes(_electionID).length > 1 */\n      gt\n        /* \"DU-vote-v2/contracts/DVote-v2c.sol\":5398:5466  require(bytes(_electionID).length > 1, \"Election ID can't be empty\") */\n      tag_238\n      jumpi\n      mload(0x40)\n      shl(0xe5, 0x461bcd)\n      dup2\n      mstore\n        /* \"#utility.yul\":15559:15561   */\n      0x20\n        /* \"DU-vote-v2/contracts/DVote-v2c.sol\":5398:5466  require(bytes(_electionID).length > 1, \"Election ID can't be empty\") */\n      0x04\n      dup3\n      add\n        /* \"#utility.yul\":15541:15562   */\n      mstore\n        /* \"#utility.yul\":15598:15600   */\n      0x1a\n        /* \"#utility.yul\":15578:15596   */\n      0x24\n      dup3\n      add\n        /* \"#utility.yul\":15571:15601   */\n      mstore\n        /* \"#utility.yul\":15637:15665   */\n      0x456c656374696f6e2049442063616e277420626520656d707479000000000000\n        /* \"#utility.yul\":15617:15635   */\n      0x44\n      dup3\n      add\n        /* \"#utility.yul\":15610:15666   */\n      mstore\n        /* \"#utility.yul\":15683:15701   */\n      0x64\n      add\n        /* \"DU-vote-v2/contracts/DVote-v2c.sol\":5398:5466  require(bytes(_electionID).length > 1, \"Election ID can't be empty\") */\n      tag_142\n        /* \"#utility.yul\":15357:15707   */\n      jump\n        /* \"DU-vote-v2/contracts/DVote-v2c.sol\":5398:5466  require(bytes(_electionID).length > 1, \"Election ID can't be empty\") */\n    tag_238:\n        /* \"DU-vote-v2/contracts/DVote-v2c.sol\":5518:5519  6 */\n      0x06\n        /* \"DU-vote-v2/contracts/DVote-v2c.sol\":5495:5506  _electionID */\n      dup4\n        /* \"DU-vote-v2/contracts/DVote-v2c.sol\":5489:5514  bytes(_electionID).length */\n      mload\n        /* \"DU-vote-v2/contracts/DVote-v2c.sol\":5489:5519  bytes(_electionID).length <= 6 */\n      gt\n      iszero\n        /* \"DU-vote-v2/contracts/DVote-v2c.sol\":5481:5566  require(bytes(_electionID).length <= 6, \"Election ID should be 6 characters or less\") */\n      tag_241\n      jumpi\n      mload(0x40)\n      shl(0xe5, 0x461bcd)\n      dup2\n      mstore\n        /* \"#utility.yul\":15914:15916   */\n      0x20\n        /* \"DU-vote-v2/contracts/DVote-v2c.sol\":5481:5566  require(bytes(_electionID).length <= 6, \"Election ID should be 6 characters or less\") */\n      0x04\n      dup3\n      add\n        /* \"#utility.yul\":15896:15917   */\n      mstore\n        /* \"#utility.yul\":15953:15955   */\n      0x2a\n        /* \"#utility.yul\":15933:15951   */\n      0x24\n      dup3\n      add\n        /* \"#utility.yul\":15926:15956   */\n      mstore\n        /* \"#utility.yul\":15992:16026   */\n      0x456c656374696f6e2049442073686f756c642062652036206368617261637465\n        /* \"#utility.yul\":15972:15990   */\n      0x44\n      dup3\n      add\n        /* \"#utility.yul\":15965:16027   */\n      mstore\n      shl(0xb0, 0x7273206f72206c657373)\n        /* \"#utility.yul\":16043:16061   */\n      0x64\n      dup3\n      add\n        /* \"#utility.yul\":16036:16076   */\n      mstore\n        /* \"#utility.yul\":16093:16112   */\n      0x84\n      add\n        /* \"DU-vote-v2/contracts/DVote-v2c.sol\":5481:5566  require(bytes(_electionID).length <= 6, \"Election ID should be 6 characters or less\") */\n      tag_142\n        /* \"#utility.yul\":15712:16118   */\n      jump\n        /* \"DU-vote-v2/contracts/DVote-v2c.sol\":5481:5566  require(bytes(_electionID).length <= 6, \"Election ID should be 6 characters or less\") */\n    tag_241:\n        /* \"DU-vote-v2/contracts/DVote-v2c.sol\":5621:5622  1 */\n      0x01\n        /* \"DU-vote-v2/contracts/DVote-v2c.sol\":5597:5610  _electionName */\n      dup3\n        /* \"DU-vote-v2/contracts/DVote-v2c.sol\":5591:5618  bytes(_electionName).length */\n      mload\n        /* \"DU-vote-v2/contracts/DVote-v2c.sol\":5591:5622  bytes(_electionName).length > 1 */\n      gt\n        /* \"DU-vote-v2/contracts/DVote-v2c.sol\":5583:5655  require(bytes(_electionName).length > 1, \"Election name can't be empty\") */\n      tag_244\n      jumpi\n      mload(0x40)\n      shl(0xe5, 0x461bcd)\n      dup2\n      mstore\n        /* \"#utility.yul\":16325:16327   */\n      0x20\n        /* \"DU-vote-v2/contracts/DVote-v2c.sol\":5583:5655  require(bytes(_electionName).length > 1, \"Election name can't be empty\") */\n      0x04\n      dup3\n      add\n        /* \"#utility.yul\":16307:16328   */\n      mstore\n        /* \"#utility.yul\":16364:16366   */\n      0x1c\n        /* \"#utility.yul\":16344:16362   */\n      0x24\n      dup3\n      add\n        /* \"#utility.yul\":16337:16367   */\n      mstore\n        /* \"#utility.yul\":16403:16433   */\n      0x456c656374696f6e206e616d652063616e277420626520656d70747900000000\n        /* \"#utility.yul\":16383:16401   */\n      0x44\n      dup3\n      add\n        /* \"#utility.yul\":16376:16434   */\n      mstore\n        /* \"#utility.yul\":16451:16469   */\n      0x64\n      add\n        /* \"DU-vote-v2/contracts/DVote-v2c.sol\":5583:5655  require(bytes(_electionName).length > 1, \"Election name can't be empty\") */\n      tag_142\n        /* \"#utility.yul\":16123:16475   */\n      jump\n        /* \"DU-vote-v2/contracts/DVote-v2c.sol\":5583:5655  require(bytes(_electionName).length > 1, \"Election name can't be empty\") */\n    tag_244:\n        /* \"DU-vote-v2/contracts/DVote-v2c.sol\":5709:5711  15 */\n      0x0f\n        /* \"DU-vote-v2/contracts/DVote-v2c.sol\":5684:5697  _electionName */\n      dup3\n        /* \"DU-vote-v2/contracts/DVote-v2c.sol\":5678:5705  bytes(_electionName).length */\n      mload\n        /* \"DU-vote-v2/contracts/DVote-v2c.sol\":5678:5711  bytes(_electionName).length <= 15 */\n      gt\n      iszero\n        /* \"DU-vote-v2/contracts/DVote-v2c.sol\":5670:5761  require(bytes(_electionName).length <= 15, \"Election name should be 15 characters or less\") */\n      tag_247\n      jumpi\n      mload(0x40)\n      shl(0xe5, 0x461bcd)\n      dup2\n      mstore\n        /* \"#utility.yul\":16682:16684   */\n      0x20\n        /* \"DU-vote-v2/contracts/DVote-v2c.sol\":5670:5761  require(bytes(_electionName).length <= 15, \"Election name should be 15 characters or less\") */\n      0x04\n      dup3\n      add\n        /* \"#utility.yul\":16664:16685   */\n      mstore\n        /* \"#utility.yul\":16721:16723   */\n      0x2d\n        /* \"#utility.yul\":16701:16719   */\n      0x24\n      dup3\n      add\n        /* \"#utility.yul\":16694:16724   */\n      mstore\n        /* \"#utility.yul\":16760:16794   */\n      0x456c656374696f6e206e616d652073686f756c64206265203135206368617261\n        /* \"#utility.yul\":16740:16758   */\n      0x44\n      dup3\n      add\n        /* \"#utility.yul\":16733:16795   */\n      mstore\n      shl(0x98, 0x6374657273206f72206c657373)\n        /* \"#utility.yul\":16811:16829   */\n      0x64\n      dup3\n      add\n        /* \"#utility.yul\":16804:16847   */\n      mstore\n        /* \"#utility.yul\":16864:16883   */\n      0x84\n      add\n        /* \"DU-vote-v2/contracts/DVote-v2c.sol\":5670:5761  require(bytes(_electionName).length <= 15, \"Election name should be 15 characters or less\") */\n      tag_142\n        /* \"#utility.yul\":16480:16889   */\n      jump\n        /* \"DU-vote-v2/contracts/DVote-v2c.sol\":5670:5761  require(bytes(_electionName).length <= 15, \"Election name should be 15 characters or less\") */\n    tag_247:\n        /* \"DU-vote-v2/contracts/DVote-v2c.sol\":5800:5810  MAX_EVENTS */\n      sload(0x01)\n      0xffffffff\n      shl(0xe0, 0x01)\n      dup3\n      div\n      dup2\n      and\n      shl(0xa0, 0x01)\n        /* \"DU-vote-v2/contracts/DVote-v2c.sol\":5784:5797  electionCount */\n      swap1\n      swap3\n      div\n      and\n        /* \"DU-vote-v2/contracts/DVote-v2c.sol\":5784:5810  electionCount < MAX_EVENTS */\n      lt\n        /* \"DU-vote-v2/contracts/DVote-v2c.sol\":5776:5845  require(electionCount < MAX_EVENTS, \"Maximum events created reached\") */\n      tag_250\n      jumpi\n      mload(0x40)\n      shl(0xe5, 0x461bcd)\n      dup2\n      mstore\n        /* \"#utility.yul\":17096:17098   */\n      0x20\n        /* \"DU-vote-v2/contracts/DVote-v2c.sol\":5776:5845  require(electionCount < MAX_EVENTS, \"Maximum events created reached\") */\n      0x04\n      dup3\n      add\n        /* \"#utility.yul\":17078:17099   */\n      mstore\n        /* \"#utility.yul\":17135:17137   */\n      0x1e\n        /* \"#utility.yul\":17115:17133   */\n      0x24\n      dup3\n      add\n        /* \"#utility.yul\":17108:17138   */\n      mstore\n        /* \"#utility.yul\":17174:17206   */\n      0x4d6178696d756d206576656e7473206372656174656420726561636865640000\n        /* \"#utility.yul\":17154:17172   */\n      0x44\n      dup3\n      add\n        /* \"#utility.yul\":17147:17207   */\n      mstore\n        /* \"#utility.yul\":17224:17242   */\n      0x64\n      add\n        /* \"DU-vote-v2/contracts/DVote-v2c.sol\":5776:5845  require(electionCount < MAX_EVENTS, \"Maximum events created reached\") */\n      tag_142\n        /* \"#utility.yul\":16894:17248   */\n      jump\n        /* \"DU-vote-v2/contracts/DVote-v2c.sol\":5776:5845  require(electionCount < MAX_EVENTS, \"Maximum events created reached\") */\n    tag_250:\n        /* \"DU-vote-v2/contracts/DVote-v2c.sol\":5972:5985  electionCount */\n      sload(0x01)\n      shl(0xa0, 0x01)\n      swap1\n      div\n      0xffffffff\n      and\n        /* \"DU-vote-v2/contracts/DVote-v2c.sol\":5860:5881  ElectionStatus status */\n      0x00\n        /* \"DU-vote-v2/contracts/DVote-v2c.sol\":5962:5986  elections[electionCount] */\n      swap1\n      dup2\n      mstore\n        /* \"DU-vote-v2/contracts/DVote-v2c.sol\":5962:5971  elections */\n      0x0a\n        /* \"DU-vote-v2/contracts/DVote-v2c.sol\":5962:5986  elections[electionCount] */\n      0x20\n      swap1\n      dup2\n      mstore\n      0x40\n      dup3\n      keccak256\n        /* \"DU-vote-v2/contracts/DVote-v2c.sol\":6001:6037  newElection.electionID = _electionID */\n      dup6\n      mload\n        /* \"DU-vote-v2/contracts/DVote-v2c.sol\":5962:5986  elections[electionCount] */\n      swap1\n      swap2\n        /* \"DU-vote-v2/contracts/DVote-v2c.sol\":6001:6037  newElection.electionID = _electionID */\n      tag_253\n      swap2\n        /* \"DU-vote-v2/contracts/DVote-v2c.sol\":5962:5986  elections[electionCount] */\n      dup4\n      swap2\n        /* \"DU-vote-v2/contracts/DVote-v2c.sol\":6001:6037  newElection.electionID = _electionID */\n      dup9\n      add\n      swap1\n      tag_254\n      jump\t// in\n    tag_253:\n      pop\n        /* \"DU-vote-v2/contracts/DVote-v2c.sol\":6052:6078  newElection.orgId = _orgId */\n      dup6\n      mload\n      tag_255\n      swap1\n        /* \"DU-vote-v2/contracts/DVote-v2c.sol\":6052:6069  newElection.orgId */\n      0x01\n      dup4\n      add\n      swap1\n        /* \"DU-vote-v2/contracts/DVote-v2c.sol\":6052:6078  newElection.orgId = _orgId */\n      0x20\n      dup10\n      add\n      swap1\n      tag_254\n      jump\t// in\n    tag_255:\n      pop\n        /* \"DU-vote-v2/contracts/DVote-v2c.sol\":6093:6133  newElection.electionName = _electionName */\n      dup4\n      mload\n      tag_256\n      swap1\n        /* \"DU-vote-v2/contracts/DVote-v2c.sol\":6093:6117  newElection.electionName */\n      0x02\n      dup4\n      add\n      swap1\n        /* \"DU-vote-v2/contracts/DVote-v2c.sol\":6093:6133  newElection.electionName = _electionName */\n      0x20\n      dup8\n      add\n      swap1\n      tag_254\n      jump\t// in\n    tag_256:\n      pop\n        /* \"DU-vote-v2/contracts/DVote-v2c.sol\":6148:6166  newElection.status */\n      0x03\n      dup2\n      add\n        /* \"DU-vote-v2/contracts/DVote-v2c.sol\":6148:6175  newElection.status = status */\n      dup1\n      sload\n        /* \"DU-vote-v2/contracts/DVote-v2c.sol\":6169:6175  status */\n      dup4\n      swap2\n        /* \"DU-vote-v2/contracts/DVote-v2c.sol\":6148:6166  newElection.status */\n      swap1\n      not(0xff0000)\n        /* \"DU-vote-v2/contracts/DVote-v2c.sol\":6148:6175  newElection.status = status */\n      and\n      0x010000\n        /* \"DU-vote-v2/contracts/DVote-v2c.sol\":6169:6175  status */\n      dup4\n        /* \"DU-vote-v2/contracts/DVote-v2c.sol\":6148:6166  newElection.status */\n      0x02\n        /* \"DU-vote-v2/contracts/DVote-v2c.sol\":6148:6175  newElection.status = status */\n      dup2\n      gt\n      iszero\n      tag_258\n      jumpi\n      tag_258\n      tag_259\n      jump\t// in\n    tag_258:\n      mul\n      or\n      swap1\n      sstore\n      pop\n        /* \"DU-vote-v2/contracts/DVote-v2c.sol\":6190:6215  newElection.candidateList */\n      0x03\n      dup2\n      add\n        /* \"DU-vote-v2/contracts/DVote-v2c.sol\":6190:6233  newElection.candidateList = _candidateCount */\n      dup1\n      sload\n      not(0xff)\n      and\n      0xff\n      dup6\n      and\n      or\n      swap1\n      sstore\n        /* \"DU-vote-v2/contracts/DVote-v2c.sol\":6324:6345  organizations[_orgId] */\n      mload(0x40)\n        /* \"DU-vote-v2/contracts/DVote-v2c.sol\":6324:6337  organizations */\n      0x05\n      swap1\n        /* \"DU-vote-v2/contracts/DVote-v2c.sol\":6324:6345  organizations[_orgId] */\n      tag_260\n      swap1\n        /* \"DU-vote-v2/contracts/DVote-v2c.sol\":6338:6344  _orgId */\n      dup9\n      swap1\n        /* \"DU-vote-v2/contracts/DVote-v2c.sol\":6324:6345  organizations[_orgId] */\n      tag_140\n      jump\t// in\n    tag_260:\n      swap1\n      dup2\n      mstore\n      mload(0x40)\n      swap1\n      dup2\n      swap1\n      sub\n      0x20\n      add\n      swap1\n      keccak256\n        /* \"DU-vote-v2/contracts/DVote-v2c.sol\":6324:6366  organizations[_orgId].electionEventCounter */\n      0x02\n      add\n        /* \"DU-vote-v2/contracts/DVote-v2c.sol\":6324:6368  organizations[_orgId].electionEventCounter++ */\n      dup1\n      sload\n      0xffff\n      0x0100\n      swap1\n      swap2\n      div\n      and\n      swap1\n        /* \"DU-vote-v2/contracts/DVote-v2c.sol\":6324:6366  organizations[_orgId].electionEventCounter */\n      0x01\n        /* \"DU-vote-v2/contracts/DVote-v2c.sol\":6324:6368  organizations[_orgId].electionEventCounter++ */\n      tag_261\n      dup4\n      tag_262\n      jump\t// in\n    tag_261:\n      dup3\n      sload\n      0xffff\n      swap2\n      dup3\n      and\n      0x0100\n      swap4\n      swap1\n      swap4\n      exp\n      swap3\n      dup4\n      mul\n      swap2\n      swap1\n      swap3\n      mul\n      not\n      swap1\n      swap2\n      and\n      or\n      swap1\n      sstore\n      pop\n      0x01\n        /* \"DU-vote-v2/contracts/DVote-v2c.sol\":6430:6445  electionCount++ */\n      dup1\n      sload\n      0xffffffff\n      shl(0xa0, 0x01)\n      swap1\n      swap2\n      div\n      and\n      swap1\n        /* \"DU-vote-v2/contracts/DVote-v2c.sol\":6430:6443  electionCount */\n      0x14\n        /* \"DU-vote-v2/contracts/DVote-v2c.sol\":6430:6445  electionCount++ */\n      tag_263\n      dup4\n      tag_264\n      jump\t// in\n    tag_263:\n      swap2\n      swap1\n      0x0100\n      exp\n      dup2\n      sload\n      dup2\n      0xffffffff\n      mul\n      not\n      and\n      swap1\n      dup4\n      0xffffffff\n      and\n      mul\n      or\n      swap1\n      sstore\n      pop\n      pop\n        /* \"DU-vote-v2/contracts/DVote-v2c.sol\":5306:6453  {... */\n      pop\n      pop\n        /* \"DU-vote-v2/contracts/DVote-v2c.sol\":5125:6453  function addElectionEvent(... */\n      pop\n      pop\n      pop\n      pop\n      jump\t// out\n        /* \"DU-vote-v2/contracts/DVote-v2c.sol\":2700:4008  function registerOrganization(... */\n    tag_110:\n        /* \"DU-vote-v2/contracts/DVote-v2c.sol\":2864:2880  organizationList */\n      0x04\n        /* \"DU-vote-v2/contracts/DVote-v2c.sol\":2881:2887  _orgId */\n      dup3\n        /* \"DU-vote-v2/contracts/DVote-v2c.sol\":2864:2888  organizationList[_orgId] */\n      mload(0x40)\n      tag_266\n      swap2\n      swap1\n      tag_140\n      jump\t// in\n    tag_266:\n      swap1\n      dup2\n      mstore\n      mload(0x40)\n      swap1\n      dup2\n      swap1\n      sub\n      0x20\n      add\n      swap1\n      keccak256\n      sload\n      0xff\n      and\n        /* \"DU-vote-v2/contracts/DVote-v2c.sol\":2863:2888  !organizationList[_orgId] */\n      iszero\n        /* \"DU-vote-v2/contracts/DVote-v2c.sol\":2855:2927  require(!organizationList[_orgId], \"Organization ID already registered\") */\n      tag_267\n      jumpi\n      mload(0x40)\n      shl(0xe5, 0x461bcd)\n      dup2\n      mstore\n        /* \"#utility.yul\":17863:17865   */\n      0x20\n        /* \"DU-vote-v2/contracts/DVote-v2c.sol\":2855:2927  require(!organizationList[_orgId], \"Organization ID already registered\") */\n      0x04\n      dup3\n      add\n        /* \"#utility.yul\":17845:17866   */\n      mstore\n        /* \"#utility.yul\":17902:17904   */\n      0x22\n        /* \"#utility.yul\":17882:17900   */\n      0x24\n      dup3\n      add\n        /* \"#utility.yul\":17875:17905   */\n      mstore\n        /* \"#utility.yul\":17941:17975   */\n      0x4f7267616e697a6174696f6e20494420616c7265616479207265676973746572\n        /* \"#utility.yul\":17921:17939   */\n      0x44\n      dup3\n      add\n        /* \"#utility.yul\":17914:17976   */\n      mstore\n      shl(0xf2, 0x1959)\n        /* \"#utility.yul\":17992:18010   */\n      0x64\n      dup3\n      add\n        /* \"#utility.yul\":17985:18017   */\n      mstore\n        /* \"#utility.yul\":18034:18053   */\n      0x84\n      add\n        /* \"DU-vote-v2/contracts/DVote-v2c.sol\":2855:2927  require(!organizationList[_orgId], \"Organization ID already registered\") */\n      tag_142\n        /* \"#utility.yul\":17661:18059   */\n      jump\n        /* \"DU-vote-v2/contracts/DVote-v2c.sol\":2855:2927  require(!organizationList[_orgId], \"Organization ID already registered\") */\n    tag_267:\n        /* \"DU-vote-v2/contracts/DVote-v2c.sol\":2947:2963  organizationList */\n      0x04\n        /* \"DU-vote-v2/contracts/DVote-v2c.sol\":2964:2972  _orgName */\n      dup4\n        /* \"DU-vote-v2/contracts/DVote-v2c.sol\":2947:2973  organizationList[_orgName] */\n      mload(0x40)\n      tag_270\n      swap2\n      swap1\n      tag_140\n      jump\t// in\n    tag_270:\n      swap1\n      dup2\n      mstore\n      mload(0x40)\n      swap1\n      dup2\n      swap1\n      sub\n      0x20\n      add\n      swap1\n      keccak256\n      sload\n      0xff\n      and\n        /* \"DU-vote-v2/contracts/DVote-v2c.sol\":2946:2973  !organizationList[_orgName] */\n      iszero\n        /* \"DU-vote-v2/contracts/DVote-v2c.sol\":2938:3014  require(!organizationList[_orgName], \"Organization Name already registered\") */\n      tag_271\n      jumpi\n      mload(0x40)\n      shl(0xe5, 0x461bcd)\n      dup2\n      mstore\n        /* \"#utility.yul\":18266:18268   */\n      0x20\n        /* \"DU-vote-v2/contracts/DVote-v2c.sol\":2938:3014  require(!organizationList[_orgName], \"Organization Name already registered\") */\n      0x04\n      dup3\n      add\n        /* \"#utility.yul\":18248:18269   */\n      mstore\n        /* \"#utility.yul\":18305:18307   */\n      0x24\n        /* \"#utility.yul\":18285:18303   */\n      dup1\n      dup3\n      add\n        /* \"#utility.yul\":18278:18308   */\n      mstore\n        /* \"#utility.yul\":18344:18378   */\n      0x4f7267616e697a6174696f6e204e616d6520616c726561647920726567697374\n        /* \"#utility.yul\":18324:18342   */\n      0x44\n      dup3\n      add\n        /* \"#utility.yul\":18317:18379   */\n      mstore\n      shl(0xe2, 0x195c9959)\n        /* \"#utility.yul\":18395:18413   */\n      0x64\n      dup3\n      add\n        /* \"#utility.yul\":18388:18422   */\n      mstore\n        /* \"#utility.yul\":18439:18458   */\n      0x84\n      add\n        /* \"DU-vote-v2/contracts/DVote-v2c.sol\":2938:3014  require(!organizationList[_orgName], \"Organization Name already registered\") */\n      tag_142\n        /* \"#utility.yul\":18064:18464   */\n      jump\n        /* \"DU-vote-v2/contracts/DVote-v2c.sol\":2938:3014  require(!organizationList[_orgName], \"Organization Name already registered\") */\n    tag_271:\n        /* \"DU-vote-v2/contracts/DVote-v2c.sol\":3058:3059  1 */\n      0x01\n        /* \"DU-vote-v2/contracts/DVote-v2c.sol\":3039:3047  _orgName */\n      dup4\n        /* \"DU-vote-v2/contracts/DVote-v2c.sol\":3033:3055  bytes(_orgName).length */\n      mload\n        /* \"DU-vote-v2/contracts/DVote-v2c.sol\":3033:3059  bytes(_orgName).length > 1 */\n      gt\n        /* \"DU-vote-v2/contracts/DVote-v2c.sol\":3025:3096  require(bytes(_orgName).length > 1, \"Organization name can't be empty\") */\n      tag_274\n      jumpi\n      mload(0x40)\n      shl(0xe5, 0x461bcd)\n      dup2\n      mstore\n        /* \"#utility.yul\":18671:18673   */\n      0x20\n        /* \"DU-vote-v2/contracts/DVote-v2c.sol\":3025:3096  require(bytes(_orgName).length > 1, \"Organization name can't be empty\") */\n      0x04\n      dup3\n      add\n        /* \"#utility.yul\":18653:18674   */\n      dup2\n      swap1\n      mstore\n        /* \"#utility.yul\":18690:18708   */\n      0x24\n      dup3\n      add\n        /* \"#utility.yul\":18683:18713   */\n      mstore\n        /* \"#utility.yul\":18749:18783   */\n      0x4f7267616e697a6174696f6e206e616d652063616e277420626520656d707479\n        /* \"#utility.yul\":18729:18747   */\n      0x44\n      dup3\n      add\n        /* \"#utility.yul\":18722:18784   */\n      mstore\n        /* \"#utility.yul\":18801:18819   */\n      0x64\n      add\n        /* \"DU-vote-v2/contracts/DVote-v2c.sol\":3025:3096  require(bytes(_orgName).length > 1, \"Organization name can't be empty\") */\n      tag_142\n        /* \"#utility.yul\":18469:18825   */\n      jump\n        /* \"DU-vote-v2/contracts/DVote-v2c.sol\":3025:3096  require(bytes(_orgName).length > 1, \"Organization name can't be empty\") */\n    tag_274:\n        /* \"DU-vote-v2/contracts/DVote-v2c.sol\":3141:3143  12 */\n      0x0c\n        /* \"DU-vote-v2/contracts/DVote-v2c.sol\":3121:3129  _orgName */\n      dup4\n        /* \"DU-vote-v2/contracts/DVote-v2c.sol\":3115:3137  bytes(_orgName).length */\n      mload\n        /* \"DU-vote-v2/contracts/DVote-v2c.sol\":3115:3143  bytes(_orgName).length <= 12 */\n      gt\n      iszero\n        /* \"DU-vote-v2/contracts/DVote-v2c.sol\":3107:3197  require(bytes(_orgName).length <= 12, \"Organization name should be 12 characters or less\") */\n      tag_277\n      jumpi\n      mload(0x40)\n      shl(0xe5, 0x461bcd)\n      dup2\n      mstore\n        /* \"#utility.yul\":19032:19034   */\n      0x20\n        /* \"DU-vote-v2/contracts/DVote-v2c.sol\":3107:3197  require(bytes(_orgName).length <= 12, \"Organization name should be 12 characters or less\") */\n      0x04\n      dup3\n      add\n        /* \"#utility.yul\":19014:19035   */\n      mstore\n        /* \"#utility.yul\":19071:19073   */\n      0x31\n        /* \"#utility.yul\":19051:19069   */\n      0x24\n      dup3\n      add\n        /* \"#utility.yul\":19044:19074   */\n      mstore\n        /* \"#utility.yul\":19110:19144   */\n      0x4f7267616e697a6174696f6e206e616d652073686f756c642062652031322063\n        /* \"#utility.yul\":19090:19108   */\n      0x44\n      dup3\n      add\n        /* \"#utility.yul\":19083:19145   */\n      mstore\n      shl(0x78, 0x686172616374657273206f72206c657373)\n        /* \"#utility.yul\":19161:19179   */\n      0x64\n      dup3\n      add\n        /* \"#utility.yul\":19154:19201   */\n      mstore\n        /* \"#utility.yul\":19218:19237   */\n      0x84\n      add\n        /* \"DU-vote-v2/contracts/DVote-v2c.sol\":3107:3197  require(bytes(_orgName).length <= 12, \"Organization name should be 12 characters or less\") */\n      tag_142\n        /* \"#utility.yul\":18830:19243   */\n      jump\n        /* \"DU-vote-v2/contracts/DVote-v2c.sol\":3107:3197  require(bytes(_orgName).length <= 12, \"Organization name should be 12 characters or less\") */\n    tag_277:\n        /* \"DU-vote-v2/contracts/DVote-v2c.sol\":3241:3242  1 */\n      0x01\n        /* \"DU-vote-v2/contracts/DVote-v2c.sol\":3224:3230  _orgId */\n      dup3\n        /* \"DU-vote-v2/contracts/DVote-v2c.sol\":3218:3238  bytes(_orgId).length */\n      mload\n        /* \"DU-vote-v2/contracts/DVote-v2c.sol\":3218:3242  bytes(_orgId).length > 1 */\n      gt\n        /* \"DU-vote-v2/contracts/DVote-v2c.sol\":3210:3277  require(bytes(_orgId).length > 1, \"Organization ID can't be empty\") */\n      tag_280\n      jumpi\n      mload(0x40)\n      shl(0xe5, 0x461bcd)\n      dup2\n      mstore\n        /* \"#utility.yul\":19450:19452   */\n      0x20\n        /* \"DU-vote-v2/contracts/DVote-v2c.sol\":3210:3277  require(bytes(_orgId).length > 1, \"Organization ID can't be empty\") */\n      0x04\n      dup3\n      add\n        /* \"#utility.yul\":19432:19453   */\n      mstore\n        /* \"#utility.yul\":19489:19491   */\n      0x1e\n        /* \"#utility.yul\":19469:19487   */\n      0x24\n      dup3\n      add\n        /* \"#utility.yul\":19462:19492   */\n      mstore\n        /* \"#utility.yul\":19528:19560   */\n      0x4f7267616e697a6174696f6e2049442063616e277420626520656d7074790000\n        /* \"#utility.yul\":19508:19526   */\n      0x44\n      dup3\n      add\n        /* \"#utility.yul\":19501:19561   */\n      mstore\n        /* \"#utility.yul\":19578:19596   */\n      0x64\n      add\n        /* \"DU-vote-v2/contracts/DVote-v2c.sol\":3210:3277  require(bytes(_orgId).length > 1, \"Organization ID can't be empty\") */\n      tag_142\n        /* \"#utility.yul\":19248:19602   */\n      jump\n        /* \"DU-vote-v2/contracts/DVote-v2c.sol\":3210:3277  require(bytes(_orgId).length > 1, \"Organization ID can't be empty\") */\n    tag_280:\n        /* \"DU-vote-v2/contracts/DVote-v2c.sol\":3320:3321  4 */\n      0x04\n        /* \"DU-vote-v2/contracts/DVote-v2c.sol\":3302:3308  _orgId */\n      dup3\n        /* \"DU-vote-v2/contracts/DVote-v2c.sol\":3296:3316  bytes(_orgId).length */\n      mload\n        /* \"DU-vote-v2/contracts/DVote-v2c.sol\":3296:3321  bytes(_orgId).length <= 4 */\n      gt\n      iszero\n        /* \"DU-vote-v2/contracts/DVote-v2c.sol\":3288:3372  require(bytes(_orgId).length <= 4, \"Organization ID should be 4 characters or less\") */\n      tag_283\n      jumpi\n      mload(0x40)\n      shl(0xe5, 0x461bcd)\n      dup2\n      mstore\n        /* \"#utility.yul\":19809:19811   */\n      0x20\n        /* \"DU-vote-v2/contracts/DVote-v2c.sol\":3288:3372  require(bytes(_orgId).length <= 4, \"Organization ID should be 4 characters or less\") */\n      0x04\n      dup3\n      add\n        /* \"#utility.yul\":19791:19812   */\n      mstore\n        /* \"#utility.yul\":19848:19850   */\n      0x2e\n        /* \"#utility.yul\":19828:19846   */\n      0x24\n      dup3\n      add\n        /* \"#utility.yul\":19821:19851   */\n      mstore\n        /* \"#utility.yul\":19887:19921   */\n      0x4f7267616e697a6174696f6e2049442073686f756c6420626520342063686172\n        /* \"#utility.yul\":19867:19885   */\n      0x44\n      dup3\n      add\n        /* \"#utility.yul\":19860:19922   */\n      mstore\n      shl(0x90, 0x616374657273206f72206c657373)\n        /* \"#utility.yul\":19938:19956   */\n      0x64\n      dup3\n      add\n        /* \"#utility.yul\":19931:19975   */\n      mstore\n        /* \"#utility.yul\":19992:20011   */\n      0x84\n      add\n        /* \"DU-vote-v2/contracts/DVote-v2c.sol\":3288:3372  require(bytes(_orgId).length <= 4, \"Organization ID should be 4 characters or less\") */\n      tag_142\n        /* \"#utility.yul\":19607:20017   */\n      jump\n        /* \"DU-vote-v2/contracts/DVote-v2c.sol\":3288:3372  require(bytes(_orgId).length <= 4, \"Organization ID should be 4 characters or less\") */\n    tag_283:\n        /* \"DU-vote-v2/contracts/DVote-v2c.sol\":3385:3411  Organization memory newOrg */\n      0x00\n        /* \"DU-vote-v2/contracts/DVote-v2c.sol\":3414:3678  Organization({... */\n      mload(0x40)\n      dup1\n      0xc0\n      add\n      0x40\n      mstore\n      dup1\n        /* \"DU-vote-v2/contracts/DVote-v2c.sol\":3479:3487  _orgName */\n      dup6\n        /* \"DU-vote-v2/contracts/DVote-v2c.sol\":3414:3678  Organization({... */\n      dup2\n      mstore\n      0x20\n      add\n        /* \"DU-vote-v2/contracts/DVote-v2c.sol\":3449:3455  _orgId */\n      dup5\n        /* \"DU-vote-v2/contracts/DVote-v2c.sol\":3414:3678  Organization({... */\n      dup2\n      mstore\n      0x20\n      add\n        /* \"DU-vote-v2/contracts/DVote-v2c.sol\":3511:3519  _orgType */\n      dup4\n        /* \"DU-vote-v2/contracts/DVote-v2c.sol\":3414:3678  Organization({... */\n      0x02\n      dup2\n      gt\n      iszero\n      tag_287\n      jumpi\n      tag_287\n      tag_259\n      jump\t// in\n    tag_287:\n      dup2\n      mstore\n        /* \"DU-vote-v2/contracts/DVote-v2c.sol\":3556:3557  0 */\n      0x00\n        /* \"DU-vote-v2/contracts/DVote-v2c.sol\":3414:3678  Organization({... */\n      0x20\n      dup1\n      dup4\n      add\n      dup3\n      swap1\n      mstore\n      0x40\n      dup1\n      dup5\n      add\n      dup4\n      swap1\n      mstore\n        /* \"DU-vote-v2/contracts/DVote-v2c.sol\":3626:3642  new address[](0) */\n      dup1\n      mload\n      swap3\n      dup4\n      mstore\n      swap1\n      dup3\n      add\n      dup2\n      mstore\n        /* \"DU-vote-v2/contracts/DVote-v2c.sol\":3414:3678  Organization({... */\n      0x60\n      swap1\n      swap3\n      add\n      mstore\n        /* \"DU-vote-v2/contracts/DVote-v2c.sol\":3691:3712  organizations[_orgId] */\n      mload\n        /* \"DU-vote-v2/contracts/DVote-v2c.sol\":3385:3678  Organization memory newOrg = Organization({... */\n      swap1\n      swap2\n      pop\n      dup2\n      swap1\n        /* \"DU-vote-v2/contracts/DVote-v2c.sol\":3691:3704  organizations */\n      0x05\n      swap1\n        /* \"DU-vote-v2/contracts/DVote-v2c.sol\":3691:3712  organizations[_orgId] */\n      tag_292\n      swap1\n        /* \"DU-vote-v2/contracts/DVote-v2c.sol\":3705:3711  _orgId */\n      dup7\n      swap1\n        /* \"DU-vote-v2/contracts/DVote-v2c.sol\":3691:3712  organizations[_orgId] */\n      tag_140\n      jump\t// in\n    tag_292:\n      swap1\n      dup2\n      mstore\n      0x20\n      add\n      mload(0x40)\n      dup1\n      swap2\n      sub\n      swap1\n      keccak256\n        /* \"DU-vote-v2/contracts/DVote-v2c.sol\":3691:3721  organizations[_orgId] = newOrg */\n      0x00\n      dup3\n      add\n      mload\n      dup2\n      0x00\n      add\n      swap1\n      dup1\n      mload\n      swap1\n      0x20\n      add\n      swap1\n      tag_293\n      swap3\n      swap2\n      swap1\n      tag_254\n      jump\t// in\n    tag_293:\n      pop\n      0x20\n      dup3\n      dup2\n      add\n      mload\n      dup1\n      mload\n      tag_294\n      swap3\n      0x01\n      dup6\n      add\n      swap3\n      add\n      swap1\n      tag_254\n      jump\t// in\n    tag_294:\n      pop\n      0x40\n      dup3\n      add\n      mload\n      dup2\n      0x02\n      add\n      exp(0x0100, 0x00)\n      dup2\n      sload\n      dup2\n      0xff\n      mul\n      not\n      and\n      swap1\n      dup4\n      0x02\n      dup2\n      gt\n      iszero\n      tag_296\n      jumpi\n      tag_296\n      tag_259\n      jump\t// in\n    tag_296:\n      mul\n      or\n      swap1\n      sstore\n      pop\n      0x60\n      dup3\n      add\n      mload\n      0x02\n      dup3\n      add\n      dup1\n      sload\n      0x80\n      dup6\n      add\n      mload\n      0xffffffffffff\n      and\n      0x01000000\n      mul\n      not(0xffffffffffff000000)\n      0xffff\n      swap1\n      swap5\n      and\n      0x0100\n      mul\n      swap4\n      swap1\n      swap4\n      and\n      not(0xffffffffffffffff00)\n      swap1\n      swap2\n      and\n      or\n      swap2\n      swap1\n      swap2\n      or\n      swap1\n      sstore\n      0xa0\n      dup3\n      add\n      mload\n      dup1\n      mload\n      tag_297\n      swap2\n      0x03\n      dup5\n      add\n      swap2\n      0x20\n      swap1\n      swap2\n      add\n      swap1\n      tag_298\n      jump\t// in\n    tag_297:\n      pop\n      swap1\n      pop\n      pop\n        /* \"DU-vote-v2/contracts/DVote-v2c.sol\":3825:3829  true */\n      0x01\n        /* \"DU-vote-v2/contracts/DVote-v2c.sol\":3798:3814  organizationList */\n      0x04\n        /* \"DU-vote-v2/contracts/DVote-v2c.sol\":3815:3821  _orgId */\n      dup5\n        /* \"DU-vote-v2/contracts/DVote-v2c.sol\":3798:3822  organizationList[_orgId] */\n      mload(0x40)\n      tag_299\n      swap2\n      swap1\n      tag_140\n      jump\t// in\n    tag_299:\n      swap1\n      dup2\n      mstore\n      mload(0x40)\n      swap1\n      dup2\n      swap1\n      sub\n      0x20\n      add\n      dup2\n      keccak256\n        /* \"DU-vote-v2/contracts/DVote-v2c.sol\":3798:3829  organizationList[_orgId] = true */\n      dup1\n      sload\n      swap3\n      iszero\n      iszero\n      not(0xff)\n      swap1\n      swap4\n      and\n      swap3\n      swap1\n      swap3\n      or\n      swap1\n      swap2\n      sstore\n      0x01\n      swap1\n        /* \"DU-vote-v2/contracts/DVote-v2c.sol\":3840:3856  organizationList */\n      0x04\n      swap1\n        /* \"DU-vote-v2/contracts/DVote-v2c.sol\":3840:3866  organizationList[_orgName] */\n      tag_300\n      swap1\n        /* \"DU-vote-v2/contracts/DVote-v2c.sol\":3857:3865  _orgName */\n      dup8\n      swap1\n        /* \"DU-vote-v2/contracts/DVote-v2c.sol\":3840:3866  organizationList[_orgName] */\n      tag_140\n      jump\t// in\n    tag_300:\n      swap1\n      dup2\n      mstore\n      mload(0x40)\n      swap1\n      dup2\n      swap1\n      sub\n      0x20\n      add\n      swap1\n      keccak256\n        /* \"DU-vote-v2/contracts/DVote-v2c.sol\":3840:3873  organizationList[_orgName] = true */\n      dup1\n      sload\n      swap2\n      iszero\n      iszero\n      not(0xff)\n      swap1\n      swap3\n      and\n      swap2\n      swap1\n      swap2\n      or\n      swap1\n      sstore\n      0x01\n        /* \"DU-vote-v2/contracts/DVote-v2c.sol\":3884:3904  organizationsCount++ */\n      dup1\n      sload\n      0xffffffff\n      shl(0xc0, 0x01)\n      swap1\n      swap2\n      div\n      and\n      swap1\n        /* \"DU-vote-v2/contracts/DVote-v2c.sol\":3884:3902  organizationsCount */\n      0x18\n        /* \"DU-vote-v2/contracts/DVote-v2c.sol\":3884:3904  organizationsCount++ */\n      tag_301\n      dup4\n      tag_264\n      jump\t// in\n    tag_301:\n      swap2\n      swap1\n      0x0100\n      exp\n      dup2\n      sload\n      dup2\n      0xffffffff\n      mul\n      not\n      and\n      swap1\n      dup4\n      0xffffffff\n      and\n      mul\n      or\n      swap1\n      sstore\n      pop\n      pop\n        /* \"DU-vote-v2/contracts/DVote-v2c.sol\":3915:3943  organizationToAdminAddresses */\n      0x09\n        /* \"DU-vote-v2/contracts/DVote-v2c.sol\":3944:3952  _orgName */\n      dup5\n        /* \"DU-vote-v2/contracts/DVote-v2c.sol\":3915:3953  organizationToAdminAddresses[_orgName] */\n      mload(0x40)\n      tag_302\n      swap2\n      swap1\n      tag_140\n      jump\t// in\n    tag_302:\n      swap1\n      dup2\n      mstore\n      mload(0x40)\n      swap1\n      dup2\n      swap1\n      sub\n      0x20\n      swap1\n      dup2\n      add\n      swap1\n      swap2\n      keccak256\n        /* \"DU-vote-v2/contracts/DVote-v2c.sol\":3915:3970  organizationToAdminAddresses[_orgName].push(msg.sender) */\n      dup1\n      sload\n      0x01\n      dup2\n      add\n      dup3\n      sstore\n      0x00\n      swap2\n      dup3\n      mstore\n      swap2\n      swap1\n      keccak256\n      add\n      dup1\n      sload\n      not(sub(shl(0xa0, 0x01), 0x01))\n      and\n        /* \"DU-vote-v2/contracts/DVote-v2c.sol\":3959:3969  msg.sender */\n      caller\n        /* \"DU-vote-v2/contracts/DVote-v2c.sol\":3915:3970  organizationToAdminAddresses[_orgName].push(msg.sender) */\n      or\n      swap1\n      sstore\n      pop\n      pop\n      pop\n      pop\n        /* \"DU-vote-v2/contracts/DVote-v2c.sol\":2700:4008  function registerOrganization(... */\n      jump\t// out\n        /* \"DU-vote-v2/contracts/DVote-v2c.sol\":7911:8285  function isElectionAdminForOrganization(address adminAddress, string memory orgId) internal view returns (bool) {... */\n    tag_162:\n      sub(shl(0xa0, 0x01), 0x01)\n        /* \"DU-vote-v2/contracts/DVote-v2c.sol\":8038:8067  registeredAdmin[adminAddress] */\n      dup3\n      and\n        /* \"DU-vote-v2/contracts/DVote-v2c.sol\":8017:8021  bool */\n      0x00\n        /* \"DU-vote-v2/contracts/DVote-v2c.sol\":8038:8067  registeredAdmin[adminAddress] */\n      swap1\n      dup2\n      mstore\n        /* \"DU-vote-v2/contracts/DVote-v2c.sol\":8038:8053  registeredAdmin */\n      0x03\n        /* \"DU-vote-v2/contracts/DVote-v2c.sol\":8038:8067  registeredAdmin[adminAddress] */\n      0x20\n      mstore\n      0x40\n      dup2\n      keccak256\n      sload\n      0xff\n      and\n        /* \"DU-vote-v2/contracts/DVote-v2c.sol\":8034:8255  if (registeredAdmin[adminAddress]) {... */\n      iszero\n      tag_305\n      jumpi\n      sub(shl(0xa0, 0x01), 0x01)\n        /* \"DU-vote-v2/contracts/DVote-v2c.sol\":8111:8144  adminToOrganization[adminAddress] */\n      dup4\n      and\n        /* \"DU-vote-v2/contracts/DVote-v2c.sol\":8084:8108  string memory adminOrgId */\n      0x00\n        /* \"DU-vote-v2/contracts/DVote-v2c.sol\":8111:8144  adminToOrganization[adminAddress] */\n      swap1\n      dup2\n      mstore\n        /* \"DU-vote-v2/contracts/DVote-v2c.sol\":8111:8130  adminToOrganization */\n      0x07\n        /* \"DU-vote-v2/contracts/DVote-v2c.sol\":8111:8144  adminToOrganization[adminAddress] */\n      0x20\n      mstore\n      0x40\n      dup2\n      keccak256\n        /* \"DU-vote-v2/contracts/DVote-v2c.sol\":8084:8144  string memory adminOrgId = adminToOrganization[adminAddress] */\n      dup1\n      sload\n      tag_306\n      swap1\n      tag_116\n      jump\t// in\n    tag_306:\n      dup1\n      0x1f\n      add\n      0x20\n      dup1\n      swap2\n      div\n      mul\n      0x20\n      add\n      mload(0x40)\n      swap1\n      dup2\n      add\n      0x40\n      mstore\n      dup1\n      swap3\n      swap2\n      swap1\n      dup2\n      dup2\n      mstore\n      0x20\n      add\n      dup3\n      dup1\n      sload\n      tag_307\n      swap1\n      tag_116\n      jump\t// in\n    tag_307:\n      dup1\n      iszero\n      tag_308\n      jumpi\n      dup1\n      0x1f\n      lt\n      tag_309\n      jumpi\n      0x0100\n      dup1\n      dup4\n      sload\n      div\n      mul\n      dup4\n      mstore\n      swap2\n      0x20\n      add\n      swap2\n      jump(tag_308)\n    tag_309:\n      dup3\n      add\n      swap2\n      swap1\n      0x00\n      mstore\n      keccak256(0x00, 0x20)\n      swap1\n    tag_310:\n      dup2\n      sload\n      dup2\n      mstore\n      swap1\n      0x01\n      add\n      swap1\n      0x20\n      add\n      dup1\n      dup4\n      gt\n      tag_310\n      jumpi\n      dup3\n      swap1\n      sub\n      0x1f\n      and\n      dup3\n      add\n      swap2\n    tag_308:\n      pop\n      pop\n      pop\n      pop\n      pop\n      swap1\n      pop\n        /* \"DU-vote-v2/contracts/DVote-v2c.sol\":8236:8241  orgId */\n      dup3\n        /* \"DU-vote-v2/contracts/DVote-v2c.sol\":8219:8242  abi.encodePacked(orgId) */\n      add(0x20, mload(0x40))\n      tag_311\n      swap2\n      swap1\n      tag_140\n      jump\t// in\n    tag_311:\n      mload(0x40)\n      0x20\n      dup2\n      dup4\n      sub\n      sub\n      dup2\n      mstore\n      swap1\n      0x40\n      mstore\n        /* \"DU-vote-v2/contracts/DVote-v2c.sol\":8209:8243  keccak256(abi.encodePacked(orgId)) */\n      dup1\n      mload\n      swap1\n      0x20\n      add\n      keccak256\n        /* \"DU-vote-v2/contracts/DVote-v2c.sol\":8193:8203  adminOrgId */\n      dup2\n        /* \"DU-vote-v2/contracts/DVote-v2c.sol\":8176:8204  abi.encodePacked(adminOrgId) */\n      add(0x20, mload(0x40))\n      tag_312\n      swap2\n      swap1\n      tag_140\n      jump\t// in\n    tag_312:\n      mload(0x40)\n      0x20\n      dup2\n      dup4\n      sub\n      sub\n      dup2\n      mstore\n      swap1\n      0x40\n      mstore\n        /* \"DU-vote-v2/contracts/DVote-v2c.sol\":8166:8205  keccak256(abi.encodePacked(adminOrgId)) */\n      dup1\n      mload\n      swap1\n      0x20\n      add\n      keccak256\n        /* \"DU-vote-v2/contracts/DVote-v2c.sol\":8166:8243  keccak256(abi.encodePacked(adminOrgId)) == keccak256(abi.encodePacked(orgId)) */\n      eq\n        /* \"DU-vote-v2/contracts/DVote-v2c.sol\":8159:8243  return keccak256(abi.encodePacked(adminOrgId)) == keccak256(abi.encodePacked(orgId)) */\n      swap2\n      pop\n      pop\n      jump(tag_304)\n        /* \"DU-vote-v2/contracts/DVote-v2c.sol\":8034:8255  if (registeredAdmin[adminAddress]) {... */\n    tag_305:\n      pop\n        /* \"DU-vote-v2/contracts/DVote-v2c.sol\":8272:8277  false */\n      0x00\n        /* \"DU-vote-v2/contracts/DVote-v2c.sol\":7911:8285  function isElectionAdminForOrganization(address adminAddress, string memory orgId) internal view returns (bool) {... */\n    tag_304:\n      swap3\n      swap2\n      pop\n      pop\n      jump\t// out\n        /* \"DU-vote-v2/contracts/DVote-v2c.sol\":7537:7903  function onlyAlphabetCharacters(string memory _input) internal pure returns (bool) {... */\n    tag_176:\n        /* \"DU-vote-v2/contracts/DVote-v2c.sol\":7614:7618  bool */\n      0x00\n        /* \"DU-vote-v2/contracts/DVote-v2c.sol\":7654:7660  _input */\n      dup2\n        /* \"DU-vote-v2/contracts/DVote-v2c.sol\":7614:7618  bool */\n      dup2\n        /* \"DU-vote-v2/contracts/DVote-v2c.sol\":7672:7874  for (uint i = 0; i < b.length; i++) {... */\n    tag_314:\n        /* \"DU-vote-v2/contracts/DVote-v2c.sol\":7693:7694  b */\n      dup2\n        /* \"DU-vote-v2/contracts/DVote-v2c.sol\":7693:7701  b.length */\n      mload\n        /* \"DU-vote-v2/contracts/DVote-v2c.sol\":7689:7690  i */\n      dup2\n        /* \"DU-vote-v2/contracts/DVote-v2c.sol\":7689:7701  i < b.length */\n      lt\n        /* \"DU-vote-v2/contracts/DVote-v2c.sol\":7672:7874  for (uint i = 0; i < b.length; i++) {... */\n      iszero\n      tag_315\n      jumpi\n        /* \"DU-vote-v2/contracts/DVote-v2c.sol\":7744:7746  65 */\n      0x41\n        /* \"DU-vote-v2/contracts/DVote-v2c.sol\":7735:7736  b */\n      dup3\n        /* \"DU-vote-v2/contracts/DVote-v2c.sol\":7737:7738  i */\n      dup3\n        /* \"DU-vote-v2/contracts/DVote-v2c.sol\":7735:7739  b[i] */\n      dup2\n      mload\n      dup2\n      lt\n      tag_318\n      jumpi\n      tag_318\n      tag_319\n      jump\t// in\n    tag_318:\n      add\n      0x20\n      add\n      mload\n      0xf8\n      shr\n        /* \"DU-vote-v2/contracts/DVote-v2c.sol\":7729:7746  uint8(b[i]) >= 65 */\n      lt\n      dup1\n      iszero\n      swap1\n        /* \"DU-vote-v2/contracts/DVote-v2c.sol\":7729:7767  uint8(b[i]) >= 65 && uint8(b[i]) <= 90 */\n      tag_320\n      jumpi\n      pop\n        /* \"DU-vote-v2/contracts/DVote-v2c.sol\":7765:7767  90 */\n      0x5a\n        /* \"DU-vote-v2/contracts/DVote-v2c.sol\":7756:7757  b */\n      dup3\n        /* \"DU-vote-v2/contracts/DVote-v2c.sol\":7758:7759  i */\n      dup3\n        /* \"DU-vote-v2/contracts/DVote-v2c.sol\":7756:7760  b[i] */\n      dup2\n      mload\n      dup2\n      lt\n      tag_322\n      jumpi\n      tag_322\n      tag_319\n      jump\t// in\n    tag_322:\n      add\n      0x20\n      add\n      mload\n      0xf8\n      shr\n        /* \"DU-vote-v2/contracts/DVote-v2c.sol\":7750:7767  uint8(b[i]) <= 90 */\n      gt\n      iszero\n        /* \"DU-vote-v2/contracts/DVote-v2c.sol\":7729:7767  uint8(b[i]) >= 65 && uint8(b[i]) <= 90 */\n    tag_320:\n        /* \"DU-vote-v2/contracts/DVote-v2c.sol\":7727:7768  !(uint8(b[i]) >= 65 && uint8(b[i]) <= 90) */\n      iszero\n        /* \"DU-vote-v2/contracts/DVote-v2c.sol\":7727:7814  !(uint8(b[i]) >= 65 && uint8(b[i]) <= 90) && !(uint8(b[i]) >= 97 && uint8(b[i]) <= 122) */\n      dup1\n      iszero\n      tag_323\n      jumpi\n      pop\n        /* \"DU-vote-v2/contracts/DVote-v2c.sol\":7789:7791  97 */\n      0x61\n        /* \"DU-vote-v2/contracts/DVote-v2c.sol\":7780:7781  b */\n      dup3\n        /* \"DU-vote-v2/contracts/DVote-v2c.sol\":7782:7783  i */\n      dup3\n        /* \"DU-vote-v2/contracts/DVote-v2c.sol\":7780:7784  b[i] */\n      dup2\n      mload\n      dup2\n      lt\n      tag_325\n      jumpi\n      tag_325\n      tag_319\n      jump\t// in\n    tag_325:\n      add\n      0x20\n      add\n      mload\n      0xf8\n      shr\n        /* \"DU-vote-v2/contracts/DVote-v2c.sol\":7774:7791  uint8(b[i]) >= 97 */\n      lt\n      dup1\n      iszero\n      swap1\n        /* \"DU-vote-v2/contracts/DVote-v2c.sol\":7774:7813  uint8(b[i]) >= 97 && uint8(b[i]) <= 122 */\n      tag_326\n      jumpi\n      pop\n        /* \"DU-vote-v2/contracts/DVote-v2c.sol\":7810:7813  122 */\n      0x7a\n        /* \"DU-vote-v2/contracts/DVote-v2c.sol\":7801:7802  b */\n      dup3\n        /* \"DU-vote-v2/contracts/DVote-v2c.sol\":7803:7804  i */\n      dup3\n        /* \"DU-vote-v2/contracts/DVote-v2c.sol\":7801:7805  b[i] */\n      dup2\n      mload\n      dup2\n      lt\n      tag_328\n      jumpi\n      tag_328\n      tag_319\n      jump\t// in\n    tag_328:\n      add\n      0x20\n      add\n      mload\n      0xf8\n      shr\n        /* \"DU-vote-v2/contracts/DVote-v2c.sol\":7795:7813  uint8(b[i]) <= 122 */\n      gt\n      iszero\n        /* \"DU-vote-v2/contracts/DVote-v2c.sol\":7774:7813  uint8(b[i]) >= 97 && uint8(b[i]) <= 122 */\n    tag_326:\n        /* \"DU-vote-v2/contracts/DVote-v2c.sol\":7772:7814  !(uint8(b[i]) >= 97 && uint8(b[i]) <= 122) */\n      iszero\n        /* \"DU-vote-v2/contracts/DVote-v2c.sol\":7727:7814  !(uint8(b[i]) >= 65 && uint8(b[i]) <= 90) && !(uint8(b[i]) >= 97 && uint8(b[i]) <= 122) */\n    tag_323:\n        /* \"DU-vote-v2/contracts/DVote-v2c.sol\":7723:7863  if (!(uint8(b[i]) >= 65 && uint8(b[i]) <= 90) && !(uint8(b[i]) >= 97 && uint8(b[i]) <= 122)) {... */\n      iszero\n      tag_329\n      jumpi\n      pop\n        /* \"DU-vote-v2/contracts/DVote-v2c.sol\":7842:7847  false */\n      0x00\n      swap4\n        /* \"DU-vote-v2/contracts/DVote-v2c.sol\":7537:7903  function onlyAlphabetCharacters(string memory _input) internal pure returns (bool) {... */\n      swap3\n      pop\n      pop\n      pop\n      jump\t// out\n        /* \"DU-vote-v2/contracts/DVote-v2c.sol\":7723:7863  if (!(uint8(b[i]) >= 65 && uint8(b[i]) <= 90) && !(uint8(b[i]) >= 97 && uint8(b[i]) <= 122)) {... */\n    tag_329:\n        /* \"DU-vote-v2/contracts/DVote-v2c.sol\":7703:7706  i++ */\n      dup1\n      tag_330\n      dup2\n      tag_331\n      jump\t// in\n    tag_330:\n      swap2\n      pop\n      pop\n        /* \"DU-vote-v2/contracts/DVote-v2c.sol\":7672:7874  for (uint i = 0; i < b.length; i++) {... */\n      jump(tag_314)\n    tag_315:\n      pop\n        /* \"DU-vote-v2/contracts/DVote-v2c.sol\":7891:7895  true */\n      0x01\n      swap4\n        /* \"DU-vote-v2/contracts/DVote-v2c.sol\":7537:7903  function onlyAlphabetCharacters(string memory _input) internal pure returns (bool) {... */\n      swap3\n      pop\n      pop\n      pop\n      jump\t// out\n    tag_254:\n      dup3\n      dup1\n      sload\n      tag_332\n      swap1\n      tag_116\n      jump\t// in\n    tag_332:\n      swap1\n      0x00\n      mstore\n      keccak256(0x00, 0x20)\n      swap1\n      0x1f\n      add\n      0x20\n      swap1\n      div\n      dup2\n      add\n      swap3\n      dup3\n      tag_334\n      jumpi\n      0x00\n      dup6\n      sstore\n      jump(tag_337)\n    tag_334:\n      dup3\n      0x1f\n      lt\n      tag_335\n      jumpi\n      dup1\n      mload\n      not(0xff)\n      and\n      dup4\n      dup1\n      add\n      or\n      dup6\n      sstore\n      jump(tag_337)\n    tag_335:\n      dup3\n      dup1\n      add\n      0x01\n      add\n      dup6\n      sstore\n      dup3\n      iszero\n      tag_337\n      jumpi\n      swap2\n      dup3\n      add\n    tag_336:\n      dup3\n      dup2\n      gt\n      iszero\n      tag_337\n      jumpi\n      dup3\n      mload\n      dup3\n      sstore\n      swap2\n      0x20\n      add\n      swap2\n      swap1\n      0x01\n      add\n      swap1\n      jump(tag_336)\n    tag_337:\n      pop\n      tag_338\n      swap3\n      swap2\n      pop\n      tag_339\n      jump\t// in\n    tag_338:\n      pop\n      swap1\n      jump\t// out\n    tag_298:\n      dup3\n      dup1\n      sload\n      dup3\n      dup3\n      sstore\n      swap1\n      0x00\n      mstore\n      keccak256(0x00, 0x20)\n      swap1\n      dup2\n      add\n      swap3\n      dup3\n      iszero\n      tag_337\n      jumpi\n      swap2\n      0x20\n      mul\n      dup3\n      add\n    tag_341:\n      dup3\n      dup2\n      gt\n      iszero\n      tag_337\n      jumpi\n      dup3\n      mload\n      dup3\n      sload\n      not(sub(shl(0xa0, 0x01), 0x01))\n      and\n      sub(shl(0xa0, 0x01), 0x01)\n      swap1\n      swap2\n      and\n      or\n      dup3\n      sstore\n      0x20\n      swap1\n      swap3\n      add\n      swap2\n      0x01\n      swap1\n      swap2\n      add\n      swap1\n      jump(tag_341)\n    tag_339:\n    tag_344:\n      dup1\n      dup3\n      gt\n      iszero\n      tag_338\n      jumpi\n      0x00\n      dup2\n      sstore\n      0x01\n      add\n      jump(tag_344)\n        /* \"#utility.yul\":14:300   */\n    tag_28:\n        /* \"#utility.yul\":73:79   */\n      0x00\n        /* \"#utility.yul\":126:128   */\n      0x20\n        /* \"#utility.yul\":114:123   */\n      dup3\n        /* \"#utility.yul\":105:112   */\n      dup5\n        /* \"#utility.yul\":101:124   */\n      sub\n        /* \"#utility.yul\":97:129   */\n      slt\n        /* \"#utility.yul\":94:146   */\n      iszero\n      tag_354\n      jumpi\n        /* \"#utility.yul\":142:143   */\n      0x00\n        /* \"#utility.yul\":139:140   */\n      dup1\n        /* \"#utility.yul\":132:144   */\n      revert\n        /* \"#utility.yul\":94:146   */\n    tag_354:\n        /* \"#utility.yul\":168:191   */\n      dup2\n      calldataload\n      sub(shl(0xa0, 0x01), 0x01)\n        /* \"#utility.yul\":220:251   */\n      dup2\n      and\n        /* \"#utility.yul\":210:252   */\n      dup2\n      eq\n        /* \"#utility.yul\":200:270   */\n      tag_355\n      jumpi\n        /* \"#utility.yul\":266:267   */\n      0x00\n        /* \"#utility.yul\":263:264   */\n      dup1\n        /* \"#utility.yul\":256:268   */\n      revert\n        /* \"#utility.yul\":200:270   */\n    tag_355:\n        /* \"#utility.yul\":289:294   */\n      swap4\n        /* \"#utility.yul\":14:300   */\n      swap3\n      pop\n      pop\n      pop\n      jump\t// out\n        /* \"#utility.yul\":305:563   */\n    tag_346:\n        /* \"#utility.yul\":377:378   */\n      0x00\n        /* \"#utility.yul\":387:500   */\n    tag_357:\n        /* \"#utility.yul\":401:407   */\n      dup4\n        /* \"#utility.yul\":398:399   */\n      dup2\n        /* \"#utility.yul\":395:408   */\n      lt\n        /* \"#utility.yul\":387:500   */\n      iszero\n      tag_359\n      jumpi\n        /* \"#utility.yul\":477:488   */\n      dup2\n      dup2\n      add\n        /* \"#utility.yul\":471:489   */\n      mload\n        /* \"#utility.yul\":458:469   */\n      dup4\n      dup3\n      add\n        /* \"#utility.yul\":451:490   */\n      mstore\n        /* \"#utility.yul\":423:425   */\n      0x20\n        /* \"#utility.yul\":416:426   */\n      add\n        /* \"#utility.yul\":387:500   */\n      jump(tag_357)\n    tag_359:\n        /* \"#utility.yul\":518:524   */\n      dup4\n        /* \"#utility.yul\":515:516   */\n      dup2\n        /* \"#utility.yul\":512:525   */\n      gt\n        /* \"#utility.yul\":509:557   */\n      iszero\n      tag_360\n      jumpi\n        /* \"#utility.yul\":553:554   */\n      0x00\n        /* \"#utility.yul\":544:550   */\n      dup5\n        /* \"#utility.yul\":539:542   */\n      dup5\n        /* \"#utility.yul\":535:551   */\n      add\n        /* \"#utility.yul\":528:555   */\n      mstore\n        /* \"#utility.yul\":509:557   */\n    tag_360:\n      pop\n        /* \"#utility.yul\":305:563   */\n      pop\n      pop\n      pop\n      jump\t// out\n        /* \"#utility.yul\":568:826   */\n    tag_347:\n        /* \"#utility.yul\":610:613   */\n      0x00\n        /* \"#utility.yul\":648:653   */\n      dup2\n        /* \"#utility.yul\":642:654   */\n      mload\n        /* \"#utility.yul\":675:681   */\n      dup1\n        /* \"#utility.yul\":670:673   */\n      dup5\n        /* \"#utility.yul\":663:682   */\n      mstore\n        /* \"#utility.yul\":691:754   */\n      tag_362\n        /* \"#utility.yul\":747:753   */\n      dup2\n        /* \"#utility.yul\":740:744   */\n      0x20\n        /* \"#utility.yul\":735:738   */\n      dup7\n        /* \"#utility.yul\":731:745   */\n      add\n        /* \"#utility.yul\":724:728   */\n      0x20\n        /* \"#utility.yul\":717:722   */\n      dup7\n        /* \"#utility.yul\":713:729   */\n      add\n        /* \"#utility.yul\":691:754   */\n      tag_346\n      jump\t// in\n    tag_362:\n        /* \"#utility.yul\":808:810   */\n      0x1f\n        /* \"#utility.yul\":787:802   */\n      add\n      not(0x1f)\n        /* \"#utility.yul\":783:812   */\n      and\n        /* \"#utility.yul\":774:813   */\n      swap3\n      swap1\n      swap3\n      add\n        /* \"#utility.yul\":815:819   */\n      0x20\n        /* \"#utility.yul\":770:820   */\n      add\n      swap3\n        /* \"#utility.yul\":568:826   */\n      swap2\n      pop\n      pop\n      jump\t// out\n        /* \"#utility.yul\":831:1051   */\n    tag_31:\n        /* \"#utility.yul\":980:982   */\n      0x20\n        /* \"#utility.yul\":969:978   */\n      dup2\n        /* \"#utility.yul\":962:983   */\n      mstore\n        /* \"#utility.yul\":943:947   */\n      0x00\n        /* \"#utility.yul\":1000:1045   */\n      tag_355\n        /* \"#utility.yul\":1041:1043   */\n      0x20\n        /* \"#utility.yul\":1030:1039   */\n      dup4\n        /* \"#utility.yul\":1026:1044   */\n      add\n        /* \"#utility.yul\":1018:1024   */\n      dup5\n        /* \"#utility.yul\":1000:1045   */\n      tag_347\n      jump\t// in\n        /* \"#utility.yul\":1056:1183   */\n    tag_290:\n        /* \"#utility.yul\":1117:1127   */\n      0x4e487b71\n        /* \"#utility.yul\":1112:1115   */\n      0xe0\n        /* \"#utility.yul\":1108:1128   */\n      shl\n        /* \"#utility.yul\":1105:1106   */\n      0x00\n        /* \"#utility.yul\":1098:1129   */\n      mstore\n        /* \"#utility.yul\":1148:1152   */\n      0x41\n        /* \"#utility.yul\":1145:1146   */\n      0x04\n        /* \"#utility.yul\":1138:1153   */\n      mstore\n        /* \"#utility.yul\":1172:1176   */\n      0x24\n        /* \"#utility.yul\":1169:1170   */\n      0x00\n        /* \"#utility.yul\":1162:1177   */\n      revert\n        /* \"#utility.yul\":1188:1907   */\n    tag_348:\n        /* \"#utility.yul\":1231:1236   */\n      0x00\n        /* \"#utility.yul\":1284:1287   */\n      dup3\n        /* \"#utility.yul\":1277:1281   */\n      0x1f\n        /* \"#utility.yul\":1269:1275   */\n      dup4\n        /* \"#utility.yul\":1265:1282   */\n      add\n        /* \"#utility.yul\":1261:1288   */\n      slt\n        /* \"#utility.yul\":1251:1306   */\n      tag_367\n      jumpi\n        /* \"#utility.yul\":1302:1303   */\n      0x00\n        /* \"#utility.yul\":1299:1300   */\n      dup1\n        /* \"#utility.yul\":1292:1304   */\n      revert\n        /* \"#utility.yul\":1251:1306   */\n    tag_367:\n        /* \"#utility.yul\":1338:1344   */\n      dup2\n        /* \"#utility.yul\":1325:1345   */\n      calldataload\n        /* \"#utility.yul\":1364:1382   */\n      0xffffffffffffffff\n        /* \"#utility.yul\":1401:1403   */\n      dup1\n        /* \"#utility.yul\":1397:1399   */\n      dup3\n        /* \"#utility.yul\":1394:1404   */\n      gt\n        /* \"#utility.yul\":1391:1427   */\n      iszero\n      tag_369\n      jumpi\n        /* \"#utility.yul\":1407:1425   */\n      tag_369\n      tag_290\n      jump\t// in\n    tag_369:\n        /* \"#utility.yul\":1482:1484   */\n      0x40\n        /* \"#utility.yul\":1476:1485   */\n      mload\n        /* \"#utility.yul\":1450:1452   */\n      0x1f\n        /* \"#utility.yul\":1536:1549   */\n      dup4\n      add\n      not(0x1f)\n        /* \"#utility.yul\":1532:1554   */\n      swap1\n      dup2\n      and\n        /* \"#utility.yul\":1556:1558   */\n      0x3f\n        /* \"#utility.yul\":1528:1559   */\n      add\n        /* \"#utility.yul\":1524:1564   */\n      and\n        /* \"#utility.yul\":1512:1565   */\n      dup2\n      add\n      swap1\n        /* \"#utility.yul\":1580:1598   */\n      dup3\n      dup3\n      gt\n        /* \"#utility.yul\":1600:1622   */\n      dup2\n      dup4\n      lt\n        /* \"#utility.yul\":1577:1623   */\n      or\n        /* \"#utility.yul\":1574:1646   */\n      iszero\n      tag_371\n      jumpi\n        /* \"#utility.yul\":1626:1644   */\n      tag_371\n      tag_290\n      jump\t// in\n    tag_371:\n        /* \"#utility.yul\":1666:1676   */\n      dup2\n        /* \"#utility.yul\":1662:1664   */\n      0x40\n        /* \"#utility.yul\":1655:1677   */\n      mstore\n        /* \"#utility.yul\":1701:1703   */\n      dup4\n        /* \"#utility.yul\":1693:1699   */\n      dup2\n        /* \"#utility.yul\":1686:1704   */\n      mstore\n        /* \"#utility.yul\":1747:1750   */\n      dup7\n        /* \"#utility.yul\":1740:1744   */\n      0x20\n        /* \"#utility.yul\":1735:1737   */\n      dup6\n        /* \"#utility.yul\":1727:1733   */\n      dup9\n        /* \"#utility.yul\":1723:1738   */\n      add\n        /* \"#utility.yul\":1719:1745   */\n      add\n        /* \"#utility.yul\":1716:1751   */\n      gt\n        /* \"#utility.yul\":1713:1768   */\n      iszero\n      tag_372\n      jumpi\n        /* \"#utility.yul\":1764:1765   */\n      0x00\n        /* \"#utility.yul\":1761:1762   */\n      dup1\n        /* \"#utility.yul\":1754:1766   */\n      revert\n        /* \"#utility.yul\":1713:1768   */\n    tag_372:\n        /* \"#utility.yul\":1828:1830   */\n      dup4\n        /* \"#utility.yul\":1821:1825   */\n      0x20\n        /* \"#utility.yul\":1813:1819   */\n      dup8\n        /* \"#utility.yul\":1809:1826   */\n      add\n        /* \"#utility.yul\":1802:1806   */\n      0x20\n        /* \"#utility.yul\":1794:1800   */\n      dup4\n        /* \"#utility.yul\":1790:1807   */\n      add\n        /* \"#utility.yul\":1777:1831   */\n      calldatacopy\n        /* \"#utility.yul\":1875:1876   */\n      0x00\n        /* \"#utility.yul\":1868:1872   */\n      0x20\n        /* \"#utility.yul\":1863:1865   */\n      dup6\n        /* \"#utility.yul\":1855:1861   */\n      dup4\n        /* \"#utility.yul\":1851:1866   */\n      add\n        /* \"#utility.yul\":1847:1873   */\n      add\n        /* \"#utility.yul\":1840:1877   */\n      mstore\n        /* \"#utility.yul\":1895:1901   */\n      dup1\n        /* \"#utility.yul\":1886:1901   */\n      swap5\n      pop\n      pop\n      pop\n      pop\n      pop\n        /* \"#utility.yul\":1188:1907   */\n      swap3\n      swap2\n      pop\n      pop\n      jump\t// out\n        /* \"#utility.yul\":1912:2302   */\n    tag_34:\n        /* \"#utility.yul\":1990:1996   */\n      0x00\n        /* \"#utility.yul\":1998:2004   */\n      dup1\n        /* \"#utility.yul\":2051:2053   */\n      0x40\n        /* \"#utility.yul\":2039:2048   */\n      dup4\n        /* \"#utility.yul\":2030:2037   */\n      dup6\n        /* \"#utility.yul\":2026:2049   */\n      sub\n        /* \"#utility.yul\":2022:2054   */\n      slt\n        /* \"#utility.yul\":2019:2071   */\n      iszero\n      tag_374\n      jumpi\n        /* \"#utility.yul\":2067:2068   */\n      0x00\n        /* \"#utility.yul\":2064:2065   */\n      dup1\n        /* \"#utility.yul\":2057:2069   */\n      revert\n        /* \"#utility.yul\":2019:2071   */\n    tag_374:\n        /* \"#utility.yul\":2107:2116   */\n      dup3\n        /* \"#utility.yul\":2094:2117   */\n      calldataload\n        /* \"#utility.yul\":2140:2158   */\n      0xffffffffffffffff\n        /* \"#utility.yul\":2132:2138   */\n      dup2\n        /* \"#utility.yul\":2129:2159   */\n      gt\n        /* \"#utility.yul\":2126:2176   */\n      iszero\n      tag_375\n      jumpi\n        /* \"#utility.yul\":2172:2173   */\n      0x00\n        /* \"#utility.yul\":2169:2170   */\n      dup1\n        /* \"#utility.yul\":2162:2174   */\n      revert\n        /* \"#utility.yul\":2126:2176   */\n    tag_375:\n        /* \"#utility.yul\":2195:2245   */\n      tag_376\n        /* \"#utility.yul\":2237:2244   */\n      dup6\n        /* \"#utility.yul\":2228:2234   */\n      dup3\n        /* \"#utility.yul\":2217:2226   */\n      dup7\n        /* \"#utility.yul\":2213:2235   */\n      add\n        /* \"#utility.yul\":2195:2245   */\n      tag_348\n      jump\t// in\n    tag_376:\n        /* \"#utility.yul\":2185:2245   */\n      swap6\n        /* \"#utility.yul\":2292:2294   */\n      0x20\n        /* \"#utility.yul\":2277:2295   */\n      swap5\n      swap1\n      swap5\n      add\n        /* \"#utility.yul\":2264:2296   */\n      calldataload\n      swap5\n      pop\n      pop\n      pop\n      pop\n        /* \"#utility.yul\":1912:2302   */\n      jump\t// out\n        /* \"#utility.yul\":2515:2678   */\n    tag_349:\n        /* \"#utility.yul\":2582:2602   */\n      dup1\n      calldataload\n        /* \"#utility.yul\":2642:2652   */\n      0xffffffff\n        /* \"#utility.yul\":2631:2653   */\n      dup2\n      and\n        /* \"#utility.yul\":2621:2654   */\n      dup2\n      eq\n        /* \"#utility.yul\":2611:2672   */\n      tag_379\n      jumpi\n        /* \"#utility.yul\":2668:2669   */\n      0x00\n        /* \"#utility.yul\":2665:2666   */\n      dup1\n        /* \"#utility.yul\":2658:2670   */\n      revert\n        /* \"#utility.yul\":2611:2672   */\n    tag_379:\n        /* \"#utility.yul\":2515:2678   */\n      swap2\n      swap1\n      pop\n      jump\t// out\n        /* \"#utility.yul\":2683:2867   */\n    tag_40:\n        /* \"#utility.yul\":2741:2747   */\n      0x00\n        /* \"#utility.yul\":2794:2796   */\n      0x20\n        /* \"#utility.yul\":2782:2791   */\n      dup3\n        /* \"#utility.yul\":2773:2780   */\n      dup5\n        /* \"#utility.yul\":2769:2792   */\n      sub\n        /* \"#utility.yul\":2765:2797   */\n      slt\n        /* \"#utility.yul\":2762:2814   */\n      iszero\n      tag_381\n      jumpi\n        /* \"#utility.yul\":2810:2811   */\n      0x00\n        /* \"#utility.yul\":2807:2808   */\n      dup1\n        /* \"#utility.yul\":2800:2812   */\n      revert\n        /* \"#utility.yul\":2762:2814   */\n    tag_381:\n        /* \"#utility.yul\":2833:2861   */\n      tag_355\n        /* \"#utility.yul\":2851:2860   */\n      dup3\n        /* \"#utility.yul\":2833:2861   */\n      tag_349\n      jump\t// in\n        /* \"#utility.yul\":2872:2999   */\n    tag_259:\n        /* \"#utility.yul\":2933:2943   */\n      0x4e487b71\n        /* \"#utility.yul\":2928:2931   */\n      0xe0\n        /* \"#utility.yul\":2924:2944   */\n      shl\n        /* \"#utility.yul\":2921:2922   */\n      0x00\n        /* \"#utility.yul\":2914:2945   */\n      mstore\n        /* \"#utility.yul\":2964:2968   */\n      0x21\n        /* \"#utility.yul\":2961:2962   */\n      0x04\n        /* \"#utility.yul\":2954:2969   */\n      mstore\n        /* \"#utility.yul\":2988:2992   */\n      0x24\n        /* \"#utility.yul\":2985:2986   */\n      0x00\n        /* \"#utility.yul\":2978:2993   */\n      revert\n        /* \"#utility.yul\":3004:3220   */\n    tag_350:\n        /* \"#utility.yul\":3091:3092   */\n      0x03\n        /* \"#utility.yul\":3084:3089   */\n      dup2\n        /* \"#utility.yul\":3081:3093   */\n      lt\n        /* \"#utility.yul\":3071:3214   */\n      tag_385\n      jumpi\n        /* \"#utility.yul\":3136:3146   */\n      0x4e487b71\n        /* \"#utility.yul\":3131:3134   */\n      0xe0\n        /* \"#utility.yul\":3127:3147   */\n      shl\n        /* \"#utility.yul\":3124:3125   */\n      0x00\n        /* \"#utility.yul\":3117:3148   */\n      mstore\n        /* \"#utility.yul\":3171:3175   */\n      0x21\n        /* \"#utility.yul\":3168:3169   */\n      0x04\n        /* \"#utility.yul\":3161:3176   */\n      mstore\n        /* \"#utility.yul\":3199:3203   */\n      0x24\n        /* \"#utility.yul\":3196:3197   */\n      0x00\n        /* \"#utility.yul\":3189:3204   */\n      revert\n        /* \"#utility.yul\":3071:3214   */\n    tag_385:\n        /* \"#utility.yul\":3004:3220   */\n      pop\n      jump\t// out\n        /* \"#utility.yul\":3225:4070   */\n    tag_43:\n        /* \"#utility.yul\":3561:3564   */\n      0xc0\n        /* \"#utility.yul\":3550:3559   */\n      dup2\n        /* \"#utility.yul\":3543:3565   */\n      mstore\n        /* \"#utility.yul\":3524:3528   */\n      0x00\n        /* \"#utility.yul\":3588:3634   */\n      tag_387\n        /* \"#utility.yul\":3629:3632   */\n      0xc0\n        /* \"#utility.yul\":3618:3627   */\n      dup4\n        /* \"#utility.yul\":3614:3633   */\n      add\n        /* \"#utility.yul\":3606:3612   */\n      dup10\n        /* \"#utility.yul\":3588:3634   */\n      tag_347\n      jump\t// in\n    tag_387:\n        /* \"#utility.yul\":3682:3691   */\n      dup3\n        /* \"#utility.yul\":3674:3680   */\n      dup2\n        /* \"#utility.yul\":3670:3692   */\n      sub\n        /* \"#utility.yul\":3665:3667   */\n      0x20\n        /* \"#utility.yul\":3654:3663   */\n      dup5\n        /* \"#utility.yul\":3650:3668   */\n      add\n        /* \"#utility.yul\":3643:3693   */\n      mstore\n        /* \"#utility.yul\":3716:3749   */\n      tag_388\n        /* \"#utility.yul\":3742:3748   */\n      dup2\n        /* \"#utility.yul\":3734:3740   */\n      dup10\n        /* \"#utility.yul\":3716:3749   */\n      tag_347\n      jump\t// in\n    tag_388:\n        /* \"#utility.yul\":3702:3749   */\n      swap1\n      pop\n        /* \"#utility.yul\":3797:3806   */\n      dup3\n        /* \"#utility.yul\":3789:3795   */\n      dup2\n        /* \"#utility.yul\":3785:3807   */\n      sub\n        /* \"#utility.yul\":3780:3782   */\n      0x40\n        /* \"#utility.yul\":3769:3778   */\n      dup5\n        /* \"#utility.yul\":3765:3783   */\n      add\n        /* \"#utility.yul\":3758:3808   */\n      mstore\n        /* \"#utility.yul\":3825:3858   */\n      tag_389\n        /* \"#utility.yul\":3851:3857   */\n      dup2\n        /* \"#utility.yul\":3843:3849   */\n      dup9\n        /* \"#utility.yul\":3825:3858   */\n      tag_347\n      jump\t// in\n    tag_389:\n        /* \"#utility.yul\":3817:3858   */\n      swap2\n      pop\n      pop\n        /* \"#utility.yul\":3906:3910   */\n      0xff\n        /* \"#utility.yul\":3898:3904   */\n      dup6\n        /* \"#utility.yul\":3894:3911   */\n      and\n        /* \"#utility.yul\":3889:3891   */\n      0x60\n        /* \"#utility.yul\":3878:3887   */\n      dup4\n        /* \"#utility.yul\":3874:3892   */\n      add\n        /* \"#utility.yul\":3867:3912   */\n      mstore\n        /* \"#utility.yul\":3961:3965   */\n      0xff\n        /* \"#utility.yul\":3953:3959   */\n      dup5\n        /* \"#utility.yul\":3949:3966   */\n      and\n        /* \"#utility.yul\":3943:3946   */\n      0x80\n        /* \"#utility.yul\":3932:3941   */\n      dup4\n        /* \"#utility.yul\":3928:3947   */\n      add\n        /* \"#utility.yul\":3921:3967   */\n      mstore\n        /* \"#utility.yul\":3976:4020   */\n      tag_390\n        /* \"#utility.yul\":4013:4019   */\n      dup4\n        /* \"#utility.yul\":3976:4020   */\n      tag_350\n      jump\t// in\n    tag_390:\n        /* \"#utility.yul\":4057:4063   */\n      dup3\n        /* \"#utility.yul\":4051:4054   */\n      0xa0\n        /* \"#utility.yul\":4040:4049   */\n      dup4\n        /* \"#utility.yul\":4036:4055   */\n      add\n        /* \"#utility.yul\":4029:4064   */\n      mstore\n        /* \"#utility.yul\":3225:4070   */\n      swap8\n      swap7\n      pop\n      pop\n      pop\n      pop\n      pop\n      pop\n      pop\n      jump\t// out\n        /* \"#utility.yul\":4075:4397   */\n    tag_46:\n        /* \"#utility.yul\":4144:4150   */\n      0x00\n        /* \"#utility.yul\":4197:4199   */\n      0x20\n        /* \"#utility.yul\":4185:4194   */\n      dup3\n        /* \"#utility.yul\":4176:4183   */\n      dup5\n        /* \"#utility.yul\":4172:4195   */\n      sub\n        /* \"#utility.yul\":4168:4200   */\n      slt\n        /* \"#utility.yul\":4165:4217   */\n      iszero\n      tag_392\n      jumpi\n        /* \"#utility.yul\":4213:4214   */\n      0x00\n        /* \"#utility.yul\":4210:4211   */\n      dup1\n        /* \"#utility.yul\":4203:4215   */\n      revert\n        /* \"#utility.yul\":4165:4217   */\n    tag_392:\n        /* \"#utility.yul\":4253:4262   */\n      dup2\n        /* \"#utility.yul\":4240:4263   */\n      calldataload\n        /* \"#utility.yul\":4286:4304   */\n      0xffffffffffffffff\n        /* \"#utility.yul\":4278:4284   */\n      dup2\n        /* \"#utility.yul\":4275:4305   */\n      gt\n        /* \"#utility.yul\":4272:4322   */\n      iszero\n      tag_393\n      jumpi\n        /* \"#utility.yul\":4318:4319   */\n      0x00\n        /* \"#utility.yul\":4315:4316   */\n      dup1\n        /* \"#utility.yul\":4308:4320   */\n      revert\n        /* \"#utility.yul\":4272:4322   */\n    tag_393:\n        /* \"#utility.yul\":4341:4391   */\n      tag_394\n        /* \"#utility.yul\":4383:4390   */\n      dup5\n        /* \"#utility.yul\":4374:4380   */\n      dup3\n        /* \"#utility.yul\":4363:4372   */\n      dup6\n        /* \"#utility.yul\":4359:4381   */\n      add\n        /* \"#utility.yul\":4341:4391   */\n      tag_348\n      jump\t// in\n    tag_394:\n        /* \"#utility.yul\":4331:4391   */\n      swap5\n        /* \"#utility.yul\":4075:4397   */\n      swap4\n      pop\n      pop\n      pop\n      pop\n      jump\t// out\n        /* \"#utility.yul\":4402:5507   */\n    tag_49:\n        /* \"#utility.yul\":4726:4729   */\n      0xa0\n        /* \"#utility.yul\":4715:4724   */\n      dup2\n        /* \"#utility.yul\":4708:4730   */\n      mstore\n        /* \"#utility.yul\":4689:4693   */\n      0x00\n        /* \"#utility.yul\":4753:4799   */\n      tag_396\n        /* \"#utility.yul\":4794:4797   */\n      0xa0\n        /* \"#utility.yul\":4783:4792   */\n      dup4\n        /* \"#utility.yul\":4779:4798   */\n      add\n        /* \"#utility.yul\":4771:4777   */\n      dup9\n        /* \"#utility.yul\":4753:4799   */\n      tag_347\n      jump\t// in\n    tag_396:\n        /* \"#utility.yul\":4818:4820   */\n      0x20\n        /* \"#utility.yul\":4829:4873   */\n      tag_397\n        /* \"#utility.yul\":4866:4872   */\n      dup9\n        /* \"#utility.yul\":4829:4873   */\n      tag_350\n      jump\t// in\n    tag_397:\n        /* \"#utility.yul\":4889:4907   */\n      dup4\n      dup2\n      add\n        /* \"#utility.yul\":4882:4916   */\n      dup9\n      swap1\n      mstore\n        /* \"#utility.yul\":4964:4978   */\n      0xffffffffffff\n        /* \"#utility.yul\":4952:4979   */\n      dup8\n      and\n        /* \"#utility.yul\":4947:4949   */\n      0x40\n        /* \"#utility.yul\":4932:4950   */\n      dup6\n      add\n        /* \"#utility.yul\":4925:4980   */\n      mstore\n        /* \"#utility.yul\":5028:5034   */\n      0xffff\n        /* \"#utility.yul\":5016:5035   */\n      dup7\n      and\n        /* \"#utility.yul\":5011:5013   */\n      0x60\n        /* \"#utility.yul\":4996:5014   */\n      dup6\n      add\n        /* \"#utility.yul\":4989:5036   */\n      mstore\n        /* \"#utility.yul\":5073:5095   */\n      dup4\n      dup3\n      sub\n        /* \"#utility.yul\":5067:5070   */\n      0x80\n        /* \"#utility.yul\":5052:5071   */\n      dup6\n      add\n        /* \"#utility.yul\":5045:5096   */\n      mstore\n        /* \"#utility.yul\":5145:5158   */\n      dup5\n      mload\n        /* \"#utility.yul\":5167:5189   */\n      dup1\n      dup4\n      mstore\n        /* \"#utility.yul\":5243:5258   */\n      dup6\n      dup3\n      add\n      swap3\n        /* \"#utility.yul\":5205:5220   */\n      dup3\n      add\n      swap1\n      0x00\n        /* \"#utility.yul\":5286:5481   */\n    tag_398:\n        /* \"#utility.yul\":5300:5306   */\n      dup2\n        /* \"#utility.yul\":5297:5298   */\n      dup2\n        /* \"#utility.yul\":5294:5307   */\n      lt\n        /* \"#utility.yul\":5286:5481   */\n      iszero\n      tag_400\n      jumpi\n        /* \"#utility.yul\":5365:5378   */\n      dup5\n      mload\n      sub(shl(0xa0, 0x01), 0x01)\n        /* \"#utility.yul\":5361:5400   */\n      and\n        /* \"#utility.yul\":5349:5401   */\n      dup4\n      mstore\n        /* \"#utility.yul\":5456:5471   */\n      swap4\n      dup4\n      add\n      swap4\n        /* \"#utility.yul\":5421:5433   */\n      swap2\n      dup4\n      add\n      swap2\n        /* \"#utility.yul\":5397:5398   */\n      0x01\n        /* \"#utility.yul\":5315:5324   */\n      add\n        /* \"#utility.yul\":5286:5481   */\n      jump(tag_398)\n    tag_400:\n      pop\n        /* \"#utility.yul\":5498:5501   */\n      swap1\n      swap11\n        /* \"#utility.yul\":4402:5507   */\n      swap10\n      pop\n      pop\n      pop\n      pop\n      pop\n      pop\n      pop\n      pop\n      pop\n      pop\n      jump\t// out\n        /* \"#utility.yul\":5704:6098   */\n    tag_57:\n        /* \"#utility.yul\":5781:5787   */\n      0x00\n        /* \"#utility.yul\":5789:5795   */\n      dup1\n        /* \"#utility.yul\":5842:5844   */\n      0x40\n        /* \"#utility.yul\":5830:5839   */\n      dup4\n        /* \"#utility.yul\":5821:5828   */\n      dup6\n        /* \"#utility.yul\":5817:5840   */\n      sub\n        /* \"#utility.yul\":5813:5845   */\n      slt\n        /* \"#utility.yul\":5810:5862   */\n      iszero\n      tag_403\n      jumpi\n        /* \"#utility.yul\":5858:5859   */\n      0x00\n        /* \"#utility.yul\":5855:5856   */\n      dup1\n        /* \"#utility.yul\":5848:5860   */\n      revert\n        /* \"#utility.yul\":5810:5862   */\n    tag_403:\n        /* \"#utility.yul\":5881:5909   */\n      tag_404\n        /* \"#utility.yul\":5899:5908   */\n      dup4\n        /* \"#utility.yul\":5881:5909   */\n      tag_349\n      jump\t// in\n    tag_404:\n        /* \"#utility.yul\":5871:5909   */\n      swap2\n      pop\n        /* \"#utility.yul\":5960:5962   */\n      0x20\n        /* \"#utility.yul\":5949:5958   */\n      dup4\n        /* \"#utility.yul\":5945:5963   */\n      add\n        /* \"#utility.yul\":5932:5964   */\n      calldataload\n        /* \"#utility.yul\":5987:6005   */\n      0xffffffffffffffff\n        /* \"#utility.yul\":5979:5985   */\n      dup2\n        /* \"#utility.yul\":5976:6006   */\n      gt\n        /* \"#utility.yul\":5973:6023   */\n      iszero\n      tag_405\n      jumpi\n        /* \"#utility.yul\":6019:6020   */\n      0x00\n        /* \"#utility.yul\":6016:6017   */\n      dup1\n        /* \"#utility.yul\":6009:6021   */\n      revert\n        /* \"#utility.yul\":5973:6023   */\n    tag_405:\n        /* \"#utility.yul\":6042:6092   */\n      tag_406\n        /* \"#utility.yul\":6084:6091   */\n      dup6\n        /* \"#utility.yul\":6075:6081   */\n      dup3\n        /* \"#utility.yul\":6064:6073   */\n      dup7\n        /* \"#utility.yul\":6060:6082   */\n      add\n        /* \"#utility.yul\":6042:6092   */\n      tag_348\n      jump\t// in\n    tag_406:\n        /* \"#utility.yul\":6032:6092   */\n      swap2\n      pop\n      pop\n        /* \"#utility.yul\":5704:6098   */\n      swap3\n      pop\n      swap3\n      swap1\n      pop\n      jump\t// out\n        /* \"#utility.yul\":6683:7066   */\n    tag_78:\n        /* \"#utility.yul\":6880:6882   */\n      0x40\n        /* \"#utility.yul\":6869:6878   */\n      dup2\n        /* \"#utility.yul\":6862:6883   */\n      mstore\n        /* \"#utility.yul\":6843:6847   */\n      0x00\n        /* \"#utility.yul\":6906:6951   */\n      tag_411\n        /* \"#utility.yul\":6947:6949   */\n      0x40\n        /* \"#utility.yul\":6936:6945   */\n      dup4\n        /* \"#utility.yul\":6932:6950   */\n      add\n        /* \"#utility.yul\":6924:6930   */\n      dup6\n        /* \"#utility.yul\":6906:6951   */\n      tag_347\n      jump\t// in\n    tag_411:\n        /* \"#utility.yul\":6999:7008   */\n      dup3\n        /* \"#utility.yul\":6991:6997   */\n      dup2\n        /* \"#utility.yul\":6987:7009   */\n      sub\n        /* \"#utility.yul\":6982:6984   */\n      0x20\n        /* \"#utility.yul\":6971:6980   */\n      dup5\n        /* \"#utility.yul\":6967:6985   */\n      add\n        /* \"#utility.yul\":6960:7010   */\n      mstore\n        /* \"#utility.yul\":7027:7060   */\n      tag_412\n        /* \"#utility.yul\":7053:7059   */\n      dup2\n        /* \"#utility.yul\":7045:7051   */\n      dup6\n        /* \"#utility.yul\":7027:7060   */\n      tag_347\n      jump\t// in\n    tag_412:\n        /* \"#utility.yul\":7019:7060   */\n      swap6\n        /* \"#utility.yul\":6683:7066   */\n      swap5\n      pop\n      pop\n      pop\n      pop\n      pop\n      jump\t// out\n        /* \"#utility.yul\":7071:7725   */\n    tag_86:\n        /* \"#utility.yul\":7356:7370   */\n      0xffffffffffff\n        /* \"#utility.yul\":7344:7371   */\n      dup7\n      and\n        /* \"#utility.yul\":7326:7372   */\n      dup2\n      mstore\n      sub(shl(0xa0, 0x01), 0x01)\n        /* \"#utility.yul\":7408:7440   */\n      dup6\n      and\n        /* \"#utility.yul\":7403:7405   */\n      0x20\n        /* \"#utility.yul\":7388:7406   */\n      dup3\n      add\n        /* \"#utility.yul\":7381:7441   */\n      mstore\n        /* \"#utility.yul\":7428:7431   */\n      0xa0\n        /* \"#utility.yul\":7472:7474   */\n      0x40\n        /* \"#utility.yul\":7457:7475   */\n      dup3\n      add\n        /* \"#utility.yul\":7450:7481   */\n      dup2\n      swap1\n      mstore\n      0x00\n      swap1\n        /* \"#utility.yul\":7504:7550   */\n      tag_414\n      swap1\n        /* \"#utility.yul\":7530:7549   */\n      dup4\n      add\n        /* \"#utility.yul\":7522:7528   */\n      dup7\n        /* \"#utility.yul\":7504:7550   */\n      tag_347\n      jump\t// in\n    tag_414:\n        /* \"#utility.yul\":7600:7606   */\n      dup5\n        /* \"#utility.yul\":7593:7607   */\n      iszero\n        /* \"#utility.yul\":7586:7608   */\n      iszero\n        /* \"#utility.yul\":7581:7583   */\n      0x60\n        /* \"#utility.yul\":7570:7579   */\n      dup5\n        /* \"#utility.yul\":7566:7584   */\n      add\n        /* \"#utility.yul\":7559:7609   */\n      mstore\n        /* \"#utility.yul\":7658:7667   */\n      dup3\n        /* \"#utility.yul\":7650:7656   */\n      dup2\n        /* \"#utility.yul\":7646:7668   */\n      sub\n        /* \"#utility.yul\":7640:7643   */\n      0x80\n        /* \"#utility.yul\":7629:7638   */\n      dup5\n        /* \"#utility.yul\":7625:7644   */\n      add\n        /* \"#utility.yul\":7618:7669   */\n      mstore\n        /* \"#utility.yul\":7686:7719   */\n      tag_415\n        /* \"#utility.yul\":7712:7718   */\n      dup2\n        /* \"#utility.yul\":7704:7710   */\n      dup6\n        /* \"#utility.yul\":7686:7719   */\n      tag_347\n      jump\t// in\n    tag_415:\n        /* \"#utility.yul\":7678:7719   */\n      swap9\n        /* \"#utility.yul\":7071:7725   */\n      swap8\n      pop\n      pop\n      pop\n      pop\n      pop\n      pop\n      pop\n      pop\n      jump\t// out\n        /* \"#utility.yul\":7730:8010   */\n    tag_89:\n        /* \"#utility.yul\":7788:7794   */\n      0x00\n        /* \"#utility.yul\":7841:7843   */\n      0x20\n        /* \"#utility.yul\":7829:7838   */\n      dup3\n        /* \"#utility.yul\":7820:7827   */\n      dup5\n        /* \"#utility.yul\":7816:7839   */\n      sub\n        /* \"#utility.yul\":7812:7844   */\n      slt\n        /* \"#utility.yul\":7809:7861   */\n      iszero\n      tag_417\n      jumpi\n        /* \"#utility.yul\":7857:7858   */\n      0x00\n        /* \"#utility.yul\":7854:7855   */\n      dup1\n        /* \"#utility.yul\":7847:7859   */\n      revert\n        /* \"#utility.yul\":7809:7861   */\n    tag_417:\n        /* \"#utility.yul\":7896:7905   */\n      dup2\n        /* \"#utility.yul\":7883:7906   */\n      calldataload\n        /* \"#utility.yul\":7946:7960   */\n      0xffffffffffff\n        /* \"#utility.yul\":7939:7944   */\n      dup2\n        /* \"#utility.yul\":7935:7961   */\n      and\n        /* \"#utility.yul\":7928:7933   */\n      dup2\n        /* \"#utility.yul\":7925:7962   */\n      eq\n        /* \"#utility.yul\":7915:7980   */\n      tag_355\n      jumpi\n        /* \"#utility.yul\":7976:7977   */\n      0x00\n        /* \"#utility.yul\":7973:7974   */\n      dup1\n        /* \"#utility.yul\":7966:7978   */\n      revert\n        /* \"#utility.yul\":8015:8714   */\n    tag_102:\n        /* \"#utility.yul\":8309:8312   */\n      0xa0\n        /* \"#utility.yul\":8298:8307   */\n      dup2\n        /* \"#utility.yul\":8291:8313   */\n      mstore\n        /* \"#utility.yul\":8272:8276   */\n      0x00\n        /* \"#utility.yul\":8336:8382   */\n      tag_420\n        /* \"#utility.yul\":8377:8380   */\n      0xa0\n        /* \"#utility.yul\":8366:8375   */\n      dup4\n        /* \"#utility.yul\":8362:8381   */\n      add\n        /* \"#utility.yul\":8354:8360   */\n      dup9\n        /* \"#utility.yul\":8336:8382   */\n      tag_347\n      jump\t// in\n    tag_420:\n        /* \"#utility.yul\":8430:8439   */\n      dup3\n        /* \"#utility.yul\":8422:8428   */\n      dup2\n        /* \"#utility.yul\":8418:8440   */\n      sub\n        /* \"#utility.yul\":8413:8415   */\n      0x20\n        /* \"#utility.yul\":8402:8411   */\n      dup5\n        /* \"#utility.yul\":8398:8416   */\n      add\n        /* \"#utility.yul\":8391:8441   */\n      mstore\n        /* \"#utility.yul\":8458:8491   */\n      tag_421\n        /* \"#utility.yul\":8484:8490   */\n      dup2\n        /* \"#utility.yul\":8476:8482   */\n      dup9\n        /* \"#utility.yul\":8458:8491   */\n      tag_347\n      jump\t// in\n    tag_421:\n        /* \"#utility.yul\":8450:8491   */\n      swap2\n      pop\n      pop\n        /* \"#utility.yul\":8500:8544   */\n      tag_422\n        /* \"#utility.yul\":8537:8543   */\n      dup6\n        /* \"#utility.yul\":8500:8544   */\n      tag_350\n      jump\t// in\n    tag_422:\n        /* \"#utility.yul\":8580:8586   */\n      dup5\n        /* \"#utility.yul\":8575:8577   */\n      0x40\n        /* \"#utility.yul\":8564:8573   */\n      dup4\n        /* \"#utility.yul\":8560:8578   */\n      add\n        /* \"#utility.yul\":8553:8587   */\n      mstore\n        /* \"#utility.yul\":8635:8641   */\n      0xffff\n        /* \"#utility.yul\":8627:8633   */\n      dup5\n        /* \"#utility.yul\":8623:8642   */\n      and\n        /* \"#utility.yul\":8618:8620   */\n      0x60\n        /* \"#utility.yul\":8607:8616   */\n      dup4\n        /* \"#utility.yul\":8603:8621   */\n      add\n        /* \"#utility.yul\":8596:8643   */\n      mstore\n        /* \"#utility.yul\":8692:8706   */\n      0xffffffffffff\n        /* \"#utility.yul\":8684:8690   */\n      dup4\n        /* \"#utility.yul\":8680:8707   */\n      and\n        /* \"#utility.yul\":8674:8677   */\n      0x80\n        /* \"#utility.yul\":8663:8672   */\n      dup4\n        /* \"#utility.yul\":8659:8678   */\n      add\n        /* \"#utility.yul\":8652:8708   */\n      mstore\n        /* \"#utility.yul\":8015:8714   */\n      swap7\n      swap6\n      pop\n      pop\n      pop\n      pop\n      pop\n      pop\n      jump\t// out\n        /* \"#utility.yul\":8719:9620   */\n    tag_105:\n        /* \"#utility.yul\":8833:8839   */\n      0x00\n        /* \"#utility.yul\":8841:8847   */\n      dup1\n        /* \"#utility.yul\":8849:8855   */\n      0x00\n        /* \"#utility.yul\":8857:8863   */\n      dup1\n        /* \"#utility.yul\":8910:8913   */\n      0x80\n        /* \"#utility.yul\":8898:8907   */\n      dup6\n        /* \"#utility.yul\":8889:8896   */\n      dup8\n        /* \"#utility.yul\":8885:8908   */\n      sub\n        /* \"#utility.yul\":8881:8914   */\n      slt\n        /* \"#utility.yul\":8878:8931   */\n      iszero\n      tag_424\n      jumpi\n        /* \"#utility.yul\":8927:8928   */\n      0x00\n        /* \"#utility.yul\":8924:8925   */\n      dup1\n        /* \"#utility.yul\":8917:8929   */\n      revert\n        /* \"#utility.yul\":8878:8931   */\n    tag_424:\n        /* \"#utility.yul\":8967:8976   */\n      dup5\n        /* \"#utility.yul\":8954:8977   */\n      calldataload\n        /* \"#utility.yul\":8996:9014   */\n      0xffffffffffffffff\n        /* \"#utility.yul\":9037:9039   */\n      dup1\n        /* \"#utility.yul\":9029:9035   */\n      dup3\n        /* \"#utility.yul\":9026:9040   */\n      gt\n        /* \"#utility.yul\":9023:9057   */\n      iszero\n      tag_425\n      jumpi\n        /* \"#utility.yul\":9053:9054   */\n      0x00\n        /* \"#utility.yul\":9050:9051   */\n      dup1\n        /* \"#utility.yul\":9043:9055   */\n      revert\n        /* \"#utility.yul\":9023:9057   */\n    tag_425:\n        /* \"#utility.yul\":9076:9126   */\n      tag_426\n        /* \"#utility.yul\":9118:9125   */\n      dup9\n        /* \"#utility.yul\":9109:9115   */\n      dup4\n        /* \"#utility.yul\":9098:9107   */\n      dup10\n        /* \"#utility.yul\":9094:9116   */\n      add\n        /* \"#utility.yul\":9076:9126   */\n      tag_348\n      jump\t// in\n    tag_426:\n        /* \"#utility.yul\":9066:9126   */\n      swap6\n      pop\n        /* \"#utility.yul\":9179:9181   */\n      0x20\n        /* \"#utility.yul\":9168:9177   */\n      dup8\n        /* \"#utility.yul\":9164:9182   */\n      add\n        /* \"#utility.yul\":9151:9183   */\n      calldataload\n        /* \"#utility.yul\":9135:9183   */\n      swap2\n      pop\n        /* \"#utility.yul\":9208:9210   */\n      dup1\n        /* \"#utility.yul\":9198:9206   */\n      dup3\n        /* \"#utility.yul\":9195:9211   */\n      gt\n        /* \"#utility.yul\":9192:9228   */\n      iszero\n      tag_427\n      jumpi\n        /* \"#utility.yul\":9224:9225   */\n      0x00\n        /* \"#utility.yul\":9221:9222   */\n      dup1\n        /* \"#utility.yul\":9214:9226   */\n      revert\n        /* \"#utility.yul\":9192:9228   */\n    tag_427:\n        /* \"#utility.yul\":9247:9299   */\n      tag_428\n        /* \"#utility.yul\":9291:9298   */\n      dup9\n        /* \"#utility.yul\":9280:9288   */\n      dup4\n        /* \"#utility.yul\":9269:9278   */\n      dup10\n        /* \"#utility.yul\":9265:9289   */\n      add\n        /* \"#utility.yul\":9247:9299   */\n      tag_348\n      jump\t// in\n    tag_428:\n        /* \"#utility.yul\":9237:9299   */\n      swap5\n      pop\n        /* \"#utility.yul\":9352:9354   */\n      0x40\n        /* \"#utility.yul\":9341:9350   */\n      dup8\n        /* \"#utility.yul\":9337:9355   */\n      add\n        /* \"#utility.yul\":9324:9356   */\n      calldataload\n        /* \"#utility.yul\":9308:9356   */\n      swap2\n      pop\n        /* \"#utility.yul\":9381:9383   */\n      dup1\n        /* \"#utility.yul\":9371:9379   */\n      dup3\n        /* \"#utility.yul\":9368:9384   */\n      gt\n        /* \"#utility.yul\":9365:9401   */\n      iszero\n      tag_429\n      jumpi\n        /* \"#utility.yul\":9397:9398   */\n      0x00\n        /* \"#utility.yul\":9394:9395   */\n      dup1\n        /* \"#utility.yul\":9387:9399   */\n      revert\n        /* \"#utility.yul\":9365:9401   */\n    tag_429:\n      pop\n        /* \"#utility.yul\":9420:9472   */\n      tag_430\n        /* \"#utility.yul\":9464:9471   */\n      dup8\n        /* \"#utility.yul\":9453:9461   */\n      dup3\n        /* \"#utility.yul\":9442:9451   */\n      dup9\n        /* \"#utility.yul\":9438:9462   */\n      add\n        /* \"#utility.yul\":9420:9472   */\n      tag_348\n      jump\t// in\n    tag_430:\n        /* \"#utility.yul\":9410:9472   */\n      swap3\n      pop\n      pop\n        /* \"#utility.yul\":9522:9524   */\n      0x60\n        /* \"#utility.yul\":9511:9520   */\n      dup6\n        /* \"#utility.yul\":9507:9525   */\n      add\n        /* \"#utility.yul\":9494:9526   */\n      calldataload\n        /* \"#utility.yul\":9566:9570   */\n      0xff\n        /* \"#utility.yul\":9559:9564   */\n      dup2\n        /* \"#utility.yul\":9555:9571   */\n      and\n        /* \"#utility.yul\":9548:9553   */\n      dup2\n        /* \"#utility.yul\":9545:9572   */\n      eq\n        /* \"#utility.yul\":9535:9590   */\n      tag_431\n      jumpi\n        /* \"#utility.yul\":9586:9587   */\n      0x00\n        /* \"#utility.yul\":9583:9584   */\n      dup1\n        /* \"#utility.yul\":9576:9588   */\n      revert\n        /* \"#utility.yul\":9535:9590   */\n    tag_431:\n        /* \"#utility.yul\":8719:9620   */\n      swap4\n      swap7\n      swap3\n      swap6\n      pop\n      swap1\n      swap4\n      pop\n      pop\n      jump\t// out\n        /* \"#utility.yul\":9625:10331   */\n    tag_109:\n        /* \"#utility.yul\":9741:9747   */\n      0x00\n        /* \"#utility.yul\":9749:9755   */\n      dup1\n        /* \"#utility.yul\":9757:9763   */\n      0x00\n        /* \"#utility.yul\":9810:9812   */\n      0x60\n        /* \"#utility.yul\":9798:9807   */\n      dup5\n        /* \"#utility.yul\":9789:9796   */\n      dup7\n        /* \"#utility.yul\":9785:9808   */\n      sub\n        /* \"#utility.yul\":9781:9813   */\n      slt\n        /* \"#utility.yul\":9778:9830   */\n      iszero\n      tag_433\n      jumpi\n        /* \"#utility.yul\":9826:9827   */\n      0x00\n        /* \"#utility.yul\":9823:9824   */\n      dup1\n        /* \"#utility.yul\":9816:9828   */\n      revert\n        /* \"#utility.yul\":9778:9830   */\n    tag_433:\n        /* \"#utility.yul\":9866:9875   */\n      dup4\n        /* \"#utility.yul\":9853:9876   */\n      calldataload\n        /* \"#utility.yul\":9895:9913   */\n      0xffffffffffffffff\n        /* \"#utility.yul\":9936:9938   */\n      dup1\n        /* \"#utility.yul\":9928:9934   */\n      dup3\n        /* \"#utility.yul\":9925:9939   */\n      gt\n        /* \"#utility.yul\":9922:9956   */\n      iszero\n      tag_434\n      jumpi\n        /* \"#utility.yul\":9952:9953   */\n      0x00\n        /* \"#utility.yul\":9949:9950   */\n      dup1\n        /* \"#utility.yul\":9942:9954   */\n      revert\n        /* \"#utility.yul\":9922:9956   */\n    tag_434:\n        /* \"#utility.yul\":9975:10025   */\n      tag_435\n        /* \"#utility.yul\":10017:10024   */\n      dup8\n        /* \"#utility.yul\":10008:10014   */\n      dup4\n        /* \"#utility.yul\":9997:10006   */\n      dup9\n        /* \"#utility.yul\":9993:10015   */\n      add\n        /* \"#utility.yul\":9975:10025   */\n      tag_348\n      jump\t// in\n    tag_435:\n        /* \"#utility.yul\":9965:10025   */\n      swap5\n      pop\n        /* \"#utility.yul\":10078:10080   */\n      0x20\n        /* \"#utility.yul\":10067:10076   */\n      dup7\n        /* \"#utility.yul\":10063:10081   */\n      add\n        /* \"#utility.yul\":10050:10082   */\n      calldataload\n        /* \"#utility.yul\":10034:10082   */\n      swap2\n      pop\n        /* \"#utility.yul\":10107:10109   */\n      dup1\n        /* \"#utility.yul\":10097:10105   */\n      dup3\n        /* \"#utility.yul\":10094:10110   */\n      gt\n        /* \"#utility.yul\":10091:10127   */\n      iszero\n      tag_436\n      jumpi\n        /* \"#utility.yul\":10123:10124   */\n      0x00\n        /* \"#utility.yul\":10120:10121   */\n      dup1\n        /* \"#utility.yul\":10113:10125   */\n      revert\n        /* \"#utility.yul\":10091:10127   */\n    tag_436:\n      pop\n        /* \"#utility.yul\":10146:10198   */\n      tag_437\n        /* \"#utility.yul\":10190:10197   */\n      dup7\n        /* \"#utility.yul\":10179:10187   */\n      dup3\n        /* \"#utility.yul\":10168:10177   */\n      dup8\n        /* \"#utility.yul\":10164:10188   */\n      add\n        /* \"#utility.yul\":10146:10198   */\n      tag_348\n      jump\t// in\n    tag_437:\n        /* \"#utility.yul\":10136:10198   */\n      swap3\n      pop\n      pop\n        /* \"#utility.yul\":10248:10250   */\n      0x40\n        /* \"#utility.yul\":10237:10246   */\n      dup5\n        /* \"#utility.yul\":10233:10251   */\n      add\n        /* \"#utility.yul\":10220:10252   */\n      calldataload\n        /* \"#utility.yul\":10281:10282   */\n      0x03\n        /* \"#utility.yul\":10274:10279   */\n      dup2\n        /* \"#utility.yul\":10271:10283   */\n      lt\n        /* \"#utility.yul\":10261:10301   */\n      tag_438\n      jumpi\n        /* \"#utility.yul\":10297:10298   */\n      0x00\n        /* \"#utility.yul\":10294:10295   */\n      dup1\n        /* \"#utility.yul\":10287:10299   */\n      revert\n        /* \"#utility.yul\":10261:10301   */\n    tag_438:\n        /* \"#utility.yul\":10320:10325   */\n      dup1\n        /* \"#utility.yul\":10310:10325   */\n      swap2\n      pop\n      pop\n        /* \"#utility.yul\":9625:10331   */\n      swap3\n      pop\n      swap3\n      pop\n      swap3\n      jump\t// out\n        /* \"#utility.yul\":10336:10716   */\n    tag_116:\n        /* \"#utility.yul\":10415:10416   */\n      0x01\n        /* \"#utility.yul\":10411:10423   */\n      dup2\n      dup2\n      shr\n      swap1\n        /* \"#utility.yul\":10458:10470   */\n      dup3\n      and\n      dup1\n        /* \"#utility.yul\":10479:10540   */\n      tag_440\n      jumpi\n        /* \"#utility.yul\":10533:10537   */\n      0x7f\n        /* \"#utility.yul\":10525:10531   */\n      dup3\n        /* \"#utility.yul\":10521:10538   */\n      and\n        /* \"#utility.yul\":10511:10538   */\n      swap2\n      pop\n        /* \"#utility.yul\":10479:10540   */\n    tag_440:\n        /* \"#utility.yul\":10586:10588   */\n      0x20\n        /* \"#utility.yul\":10578:10584   */\n      dup3\n        /* \"#utility.yul\":10575:10589   */\n      lt\n        /* \"#utility.yul\":10555:10573   */\n      dup2\n        /* \"#utility.yul\":10552:10590   */\n      eq\n        /* \"#utility.yul\":10549:10710   */\n      iszero\n      tag_441\n      jumpi\n        /* \"#utility.yul\":10632:10642   */\n      0x4e487b71\n        /* \"#utility.yul\":10627:10630   */\n      0xe0\n        /* \"#utility.yul\":10623:10643   */\n      shl\n        /* \"#utility.yul\":10620:10621   */\n      0x00\n        /* \"#utility.yul\":10613:10644   */\n      mstore\n        /* \"#utility.yul\":10667:10671   */\n      0x22\n        /* \"#utility.yul\":10664:10665   */\n      0x04\n        /* \"#utility.yul\":10657:10672   */\n      mstore\n        /* \"#utility.yul\":10695:10699   */\n      0x24\n        /* \"#utility.yul\":10692:10693   */\n      0x00\n        /* \"#utility.yul\":10685:10700   */\n      revert\n        /* \"#utility.yul\":10549:10710   */\n    tag_441:\n      pop\n        /* \"#utility.yul\":10336:10716   */\n      swap2\n      swap1\n      pop\n      jump\t// out\n        /* \"#utility.yul\":10721:10997   */\n    tag_140:\n        /* \"#utility.yul\":10852:10855   */\n      0x00\n        /* \"#utility.yul\":10890:10896   */\n      dup3\n        /* \"#utility.yul\":10884:10897   */\n      mload\n        /* \"#utility.yul\":10906:10959   */\n      tag_443\n        /* \"#utility.yul\":10952:10958   */\n      dup2\n        /* \"#utility.yul\":10947:10950   */\n      dup5\n        /* \"#utility.yul\":10940:10944   */\n      0x20\n        /* \"#utility.yul\":10932:10938   */\n      dup8\n        /* \"#utility.yul\":10928:10945   */\n      add\n        /* \"#utility.yul\":10906:10959   */\n      tag_346\n      jump\t// in\n    tag_443:\n        /* \"#utility.yul\":10975:10991   */\n      swap2\n      swap1\n      swap2\n      add\n      swap3\n        /* \"#utility.yul\":10721:10997   */\n      swap2\n      pop\n      pop\n      jump\t// out\n        /* \"#utility.yul\":13668:13795   */\n    tag_351:\n        /* \"#utility.yul\":13729:13739   */\n      0x4e487b71\n        /* \"#utility.yul\":13724:13727   */\n      0xe0\n        /* \"#utility.yul\":13720:13740   */\n      shl\n        /* \"#utility.yul\":13717:13718   */\n      0x00\n        /* \"#utility.yul\":13710:13741   */\n      mstore\n        /* \"#utility.yul\":13760:13764   */\n      0x11\n        /* \"#utility.yul\":13757:13758   */\n      0x04\n        /* \"#utility.yul\":13750:13765   */\n      mstore\n        /* \"#utility.yul\":13784:13788   */\n      0x24\n        /* \"#utility.yul\":13781:13782   */\n      0x00\n        /* \"#utility.yul\":13774:13789   */\n      revert\n        /* \"#utility.yul\":13800:13975   */\n    tag_181:\n        /* \"#utility.yul\":13837:13840   */\n      0x00\n        /* \"#utility.yul\":13881:13885   */\n      0xff\n        /* \"#utility.yul\":13874:13879   */\n      dup3\n        /* \"#utility.yul\":13870:13886   */\n      and\n        /* \"#utility.yul\":13910:13914   */\n      0xff\n        /* \"#utility.yul\":13901:13908   */\n      dup2\n        /* \"#utility.yul\":13898:13915   */\n      eq\n        /* \"#utility.yul\":13895:13938   */\n      iszero\n      tag_454\n      jumpi\n        /* \"#utility.yul\":13918:13936   */\n      tag_454\n      tag_351\n      jump\t// in\n    tag_454:\n        /* \"#utility.yul\":13967:13968   */\n      0x01\n        /* \"#utility.yul\":13954:13969   */\n      add\n      swap3\n        /* \"#utility.yul\":13800:13975   */\n      swap2\n      pop\n      pop\n      jump\t// out\n        /* \"#utility.yul\":15147:15352   */\n    tag_223:\n        /* \"#utility.yul\":15185:15188   */\n      0x00\n        /* \"#utility.yul\":15213:15227   */\n      0xffffffffffff\n        /* \"#utility.yul\":15262:15264   */\n      dup1\n        /* \"#utility.yul\":15255:15260   */\n      dup4\n        /* \"#utility.yul\":15251:15265   */\n      and\n        /* \"#utility.yul\":15289:15291   */\n      dup2\n        /* \"#utility.yul\":15280:15287   */\n      dup2\n        /* \"#utility.yul\":15277:15292   */\n      eq\n        /* \"#utility.yul\":15274:15315   */\n      iszero\n      tag_460\n      jumpi\n        /* \"#utility.yul\":15295:15313   */\n      tag_460\n      tag_351\n      jump\t// in\n    tag_460:\n        /* \"#utility.yul\":15344:15345   */\n      0x01\n        /* \"#utility.yul\":15331:15346   */\n      add\n      swap4\n        /* \"#utility.yul\":15147:15352   */\n      swap3\n      pop\n      pop\n      pop\n      jump\t// out\n        /* \"#utility.yul\":17253:17450   */\n    tag_262:\n        /* \"#utility.yul\":17291:17294   */\n      0x00\n        /* \"#utility.yul\":17319:17325   */\n      0xffff\n        /* \"#utility.yul\":17360:17362   */\n      dup1\n        /* \"#utility.yul\":17353:17358   */\n      dup4\n        /* \"#utility.yul\":17349:17363   */\n      and\n        /* \"#utility.yul\":17387:17389   */\n      dup2\n        /* \"#utility.yul\":17378:17385   */\n      dup2\n        /* \"#utility.yul\":17375:17390   */\n      eq\n        /* \"#utility.yul\":17372:17413   */\n      iszero\n      tag_460\n      jumpi\n        /* \"#utility.yul\":17393:17411   */\n      tag_460\n      tag_351\n      jump\t// in\n        /* \"#utility.yul\":17455:17656   */\n    tag_264:\n        /* \"#utility.yul\":17493:17496   */\n      0x00\n        /* \"#utility.yul\":17521:17531   */\n      0xffffffff\n        /* \"#utility.yul\":17566:17568   */\n      dup1\n        /* \"#utility.yul\":17559:17564   */\n      dup4\n        /* \"#utility.yul\":17555:17569   */\n      and\n        /* \"#utility.yul\":17593:17595   */\n      dup2\n        /* \"#utility.yul\":17584:17591   */\n      dup2\n        /* \"#utility.yul\":17581:17596   */\n      eq\n        /* \"#utility.yul\":17578:17619   */\n      iszero\n      tag_460\n      jumpi\n        /* \"#utility.yul\":17599:17617   */\n      tag_460\n      tag_351\n      jump\t// in\n        /* \"#utility.yul\":20022:20149   */\n    tag_319:\n        /* \"#utility.yul\":20083:20093   */\n      0x4e487b71\n        /* \"#utility.yul\":20078:20081   */\n      0xe0\n        /* \"#utility.yul\":20074:20094   */\n      shl\n        /* \"#utility.yul\":20071:20072   */\n      0x00\n        /* \"#utility.yul\":20064:20095   */\n      mstore\n        /* \"#utility.yul\":20114:20118   */\n      0x32\n        /* \"#utility.yul\":20111:20112   */\n      0x04\n        /* \"#utility.yul\":20104:20119   */\n      mstore\n        /* \"#utility.yul\":20138:20142   */\n      0x24\n        /* \"#utility.yul\":20135:20136   */\n      0x00\n        /* \"#utility.yul\":20128:20143   */\n      revert\n        /* \"#utility.yul\":20154:20289   */\n    tag_331:\n        /* \"#utility.yul\":20193:20196   */\n      0x00\n      not(0x00)\n        /* \"#utility.yul\":20214:20231   */\n      dup3\n      eq\n        /* \"#utility.yul\":20211:20254   */\n      iszero\n      tag_481\n      jumpi\n        /* \"#utility.yul\":20234:20252   */\n      tag_481\n      tag_351\n      jump\t// in\n    tag_481:\n      pop\n        /* \"#utility.yul\":20281:20282   */\n      0x01\n        /* \"#utility.yul\":20270:20283   */\n      add\n      swap1\n        /* \"#utility.yul\":20154:20289   */\n      jump\t// out\n\n    auxdata: 0xa2646970667358221220413ebefd886eda44ab90a9f5ada0274dfcaf934070ec75e57eb93bead4b81a9b64736f6c634300080a0033\n}\n",
				"bytecode": {
					"linkReferences": {},
					"object": "608060405260018054600160a01b600160e01b0316336001600160e01b031617600560e11b17905534801561003357600080fd5b50600080546001600160a01b031916331790556123d7806100556000396000f3fe608060405234801561001057600080fd5b506004361061012c5760003560e01c806394c04f97116100ad578063def72ec111610071578063def72ec114610343578063e311f43c14610356578063e374c32a1461037a578063f53cbb2d1461038d578063f96ef609146103a057600080fd5b806394c04f97146102c157806398c07938146102d7578063a3ec138d146102e9578063a50f94951461030d578063ce606ee01461033057600080fd5b80634daa8e1d116100f45780634daa8e1d1461020157806359987f91146102165780635ded1bd6146102425780636326b8cf146102595780637d70cbaf146102a357600080fd5b80630b2a0904146101315780632812ca101461015a5780632c751d3014610185578063375aa7e2146101aa5780633c36ffae146101ce575b600080fd5b61014461013f366004611cfa565b6103ce565b6040516101519190611d86565b60405180910390f35b61016d610168366004611e3c565b610468565b6040516001600160a01b039091168152602001610151565b610198610193366004611e9a565b6104af565b60405161015196959493929190611eec565b6101bd6101b8366004611f54565b610685565b604051610151959493929190611f91565b6101f16101dc366004611cfa565b60036020526000908152604090205460ff1681565b6040519015158152602001610151565b61021461020f366004612019565b61084e565b005b60015461022d90600160c01b900463ffffffff1681565b60405163ffffffff9091168152602001610151565b60015461022d90600160e01b900463ffffffff1681565b61028c610267366004611f54565b805160208183018101805160068252928201919093012091525465ffffffffffff1681565b60405165ffffffffffff9091168152602001610151565b600154600160c01b900463ffffffff16604051908152602001610151565b6102c9610b7d565b604051610151929190612067565b60025461028c9065ffffffffffff1681565b6102fc6102f7366004611cfa565b610db2565b604051610151959493929190612095565b6101f161031b3660046120ed565b600c6020526000908152604090205460ff1681565b60005461016d906001600160a01b031681565b610214610351366004611f54565b610f12565b610369610364366004611f54565b6110ae565b604051610151959493929190612115565b61021461038836600461216e565b61120a565b61021461039b36600461220f565b611583565b6101f16103ae366004611f54565b805160208183018101805160048252928201919093012091525460ff1681565b600760205260009081526040902080546103e79061228b565b80601f01602080910402602001604051908101604052809291908181526020018280546104139061228b565b80156104605780601f1061043557610100808354040283529160200191610460565b820191906000526020600020905b81548152906001019060200180831161044357829003601f168201915b505050505081565b8151602081840181018051600982529282019185019190912091905280548290811061049357600080fd5b6000918252602090912001546001600160a01b03169150829050565b600a602052600090815260409020805481906104ca9061228b565b80601f01602080910402602001604051908101604052809291908181526020018280546104f69061228b565b80156105435780601f1061051857610100808354040283529160200191610543565b820191906000526020600020905b81548152906001019060200180831161052657829003601f168201915b5050505050908060010180546105589061228b565b80601f01602080910402602001604051908101604052809291908181526020018280546105849061228b565b80156105d15780601f106105a6576101008083540402835291602001916105d1565b820191906000526020600020905b8154815290600101906020018083116105b457829003601f168201915b5050505050908060020180546105e69061228b565b80601f01602080910402602001604051908101604052809291908181526020018280546106129061228b565b801561065f5780601f106106345761010080835404028352916020019161065f565b820191906000526020600020905b81548152906001019060200180831161064257829003601f168201915b5050506003909301549192505060ff808216916101008104821691620100009091041686565b60606000806000606060048660405161069e91906122c6565b9081526040519081900360200190205460ff166106fe5760405162461bcd60e51b815260206004820152601960248201527813dc99d85b9a5e985d1a5bdb881251081b9bdd08199bdd5b99603a1b60448201526064015b60405180910390fd5b600060058760405161071091906122c6565b90815260405190819003602001902060028101548154919250829160ff82169165ffffffffffff63010000008204169161ffff61010090920491909116906003850190859061075e9061228b565b80601f016020809104026020016040519081016040528092919081815260200182805461078a9061228b565b80156107d75780601f106107ac576101008083540402835291602001916107d7565b820191906000526020600020905b8154815290600101906020018083116107ba57829003601f168201915b505050505094508080548060200260200160405190810160405280929190818152602001828054801561083357602002820191906000526020600020905b81546001600160a01b03168152600190910190602001808311610815575b50505050509050955095509550955095505091939590929450565b60015463ffffffff600160a01b9091048116908316106108a95760405162461bcd60e51b8152602060048201526016602482015275092dcecc2d8d2c840cad8cac6e8d2dedc40d2dcc8caf60531b60448201526064016106f5565b63ffffffff82166000908152600a602052604090206001810180546109569133916108d39061228b565b80601f01602080910402602001604051908101604052809291908181526020018280546108ff9061228b565b801561094c5780601f106109215761010080835404028352916020019161094c565b820191906000526020600020905b81548152906001019060200180831161092f57829003601f168201915b5050505050611a1c565b6109b25760405162461bcd60e51b815260206004820152602760248201527f4f6e6c7920656c656374696f6e2061646d696e732063616e206164642063616e6044820152666469646174657360c81b60648201526084016106f5565b600381015460ff8082166101009092041610610a105760405162461bcd60e51b815260206004820152601760248201527f43616e646964617465206c696d6974207265616368656400000000000000000060448201526064016106f5565b6000825111610a615760405162461bcd60e51b815260206004820152601e60248201527f43616e646964617465206e616d652063616e6e6f7420626520656d707479000060448201526064016106f5565b601082511115610aca5760405162461bcd60e51b815260206004820152602e60248201527f43616e646964617465206e616d652073686f756c64206265203136206368617260448201526d616374657273206f72206c65737360901b60648201526084016106f5565b610ad382611b41565b610b455760405162461bcd60e51b815260206004820152603a60248201527f43616e646964617465206e616d652073686f756c64206f6e6c7920636f6e746160448201527f696e20616c7068616265746963616c206368617261637465727300000000000060648201526084016106f5565b600381018054610100900460ff16906001610b5f836122f8565b91906101000a81548160ff021916908360ff16021790555050505050565b33600081815260036020526040902054606091829160ff16610bef5760405162461bcd60e51b815260206004820152602560248201527f456c656374696f6e2041646d696e2061646472657373206e6f742072656769736044820152641d195c995960da1b60648201526084016106f5565b6001600160a01b03811660009081526007602052604081208054610c129061228b565b80601f0160208091040260200160405190810160405280929190818152602001828054610c3e9061228b565b8015610c8b5780601f10610c6057610100808354040283529160200191610c8b565b820191906000526020600020905b815481529060010190602001808311610c6e57829003601f168201915b50505050509050600481604051610ca291906122c6565b9081526040519081900360200190205460ff16610cfa5760405162461bcd60e51b815260206004820152601660248201527513dc99d85b9a5e985d1a5bdb881b9bdd08199bdd5b9960521b60448201526064016106f5565b6000600582604051610d0c91906122c6565b90815260200160405180910390206001018054610d289061228b565b80601f0160208091040260200160405190810160405280929190818152602001828054610d549061228b565b8015610da15780601f10610d7657610100808354040283529160200191610da1565b820191906000526020600020905b815481529060010190602001808311610d8457829003601f168201915b509599939850929650505050505050565b600b602052600090815260409020805460018201805465ffffffffffff83169366010000000000009093046001600160a01b0316929190610df29061228b565b80601f0160208091040260200160405190810160405280929190818152602001828054610e1e9061228b565b8015610e6b5780601f10610e4057610100808354040283529160200191610e6b565b820191906000526020600020905b815481529060010190602001808311610e4e57829003601f168201915b5050506002840154600485018054949560ff909216949193509150610e8f9061228b565b80601f0160208091040260200160405190810160405280929190818152602001828054610ebb9061228b565b8015610f085780601f10610edd57610100808354040283529160200191610f08565b820191906000526020600020905b815481529060010190602001808311610eeb57829003601f168201915b5050505050905085565b3360009081526003602052604090205460ff1615610f845760405162461bcd60e51b815260206004820152602960248201527f456c656374696f6e2041646d696e206164647265737320616c726561647920726044820152681959da5cdd195c995960ba1b60648201526084016106f5565b600481604051610f9491906122c6565b9081526040519081900360200190205460ff16610fec5760405162461bcd60e51b815260206004820152601660248201527513dc99d85b9a5e985d1a5bdb881b9bdd08199bdd5b9960521b60448201526064016106f5565b6000600582604051610ffe91906122c6565b9081526040805191829003602090810183206003808201805460018181018355600092835285832090910180546001600160a01b0319163390811790915582529190935292909120805460ff191690921790915591506006906110629084906122c6565b908152604051908190036020019020805465ffffffffffff1690600061108783612318565b91906101000a81548165ffffffffffff021916908365ffffffffffff160217905550505050565b80516020818301810180516005825292820191909301209152805481906110d49061228b565b80601f01602080910402602001604051908101604052809291908181526020018280546111009061228b565b801561114d5780601f106111225761010080835404028352916020019161114d565b820191906000526020600020905b81548152906001019060200180831161113057829003601f168201915b5050505050908060010180546111629061228b565b80601f016020809104026020016040519081016040528092919081815260200182805461118e9061228b565b80156111db5780601f106111b0576101008083540402835291602001916111db565b820191906000526020600020905b8154815290600101906020018083116111be57829003601f168201915b5050506002909301549192505060ff81169061ffff6101008204169065ffffffffffff63010000009091041685565b60048460405161121a91906122c6565b9081526040519081900360200190205460ff166112755760405162461bcd60e51b815260206004820152601960248201527813dc99d85b9a5e985d1a5bdb881251081b9bdd08199bdd5b99603a1b60448201526064016106f5565b60018351116112c65760405162461bcd60e51b815260206004820152601a60248201527f456c656374696f6e2049442063616e277420626520656d70747900000000000060448201526064016106f5565b60068351111561132b5760405162461bcd60e51b815260206004820152602a60248201527f456c656374696f6e2049442073686f756c6420626520362063686172616374656044820152697273206f72206c65737360b01b60648201526084016106f5565b600182511161137c5760405162461bcd60e51b815260206004820152601c60248201527f456c656374696f6e206e616d652063616e277420626520656d7074790000000060448201526064016106f5565b600f825111156113e45760405162461bcd60e51b815260206004820152602d60248201527f456c656374696f6e206e616d652073686f756c6420626520313520636861726160448201526c6374657273206f72206c65737360981b60648201526084016106f5565b60015463ffffffff600160e01b82048116600160a01b909204161061144b5760405162461bcd60e51b815260206004820152601e60248201527f4d6178696d756d206576656e747320637265617465642072656163686564000060448201526064016106f5565b600154600160a01b900463ffffffff166000908152600a6020908152604082208551909161147d918391880190611c0c565b5085516114939060018301906020890190611c0c565b5083516114a99060028301906020870190611c0c565b5060038101805483919062ff00001916620100008360028111156114cf576114cf611eb5565b021790555060038101805460ff191660ff85161790556040516005906114f69088906122c6565b908152604051908190036020019020600201805461ffff610100909104169060016115208361233e565b825461ffff9182166101009390930a9283029190920219909116179055506001805463ffffffff600160a01b9091041690601461155c83612356565b91906101000a81548163ffffffff021916908363ffffffff16021790555050505050505050565b60048260405161159391906122c6565b9081526040519081900360200190205460ff16156115fe5760405162461bcd60e51b815260206004820152602260248201527f4f7267616e697a6174696f6e20494420616c7265616479207265676973746572604482015261195960f21b60648201526084016106f5565b60048360405161160e91906122c6565b9081526040519081900360200190205460ff161561167a5760405162461bcd60e51b8152602060048201526024808201527f4f7267616e697a6174696f6e204e616d6520616c726561647920726567697374604482015263195c995960e21b60648201526084016106f5565b60018351116116cb5760405162461bcd60e51b815260206004820181905260248201527f4f7267616e697a6174696f6e206e616d652063616e277420626520656d70747960448201526064016106f5565b600c835111156117375760405162461bcd60e51b815260206004820152603160248201527f4f7267616e697a6174696f6e206e616d652073686f756c642062652031322063604482015270686172616374657273206f72206c65737360781b60648201526084016106f5565b60018251116117885760405162461bcd60e51b815260206004820152601e60248201527f4f7267616e697a6174696f6e2049442063616e277420626520656d707479000060448201526064016106f5565b6004825111156117f15760405162461bcd60e51b815260206004820152602e60248201527f4f7267616e697a6174696f6e2049442073686f756c642062652034206368617260448201526d616374657273206f72206c65737360901b60648201526084016106f5565b60006040518060c0016040528085815260200184815260200183600281111561181c5761181c611eb5565b8152600060208083018290526040808401839052805192835290820181526060909201525190915081906005906118549086906122c6565b9081526020016040518091039020600082015181600001908051906020019061187e929190611c0c565b5060208281015180516118979260018501920190611c0c565b5060408201518160020160006101000a81548160ff021916908360028111156118c2576118c2611eb5565b02179055506060820151600282018054608085015165ffffffffffff1663010000000268ffffffffffff0000001961ffff909416610100029390931668ffffffffffffffff00199091161791909117905560a0820151805161192e916003840191602090910190611c90565b50905050600160048460405161194491906122c6565b908152604051908190036020018120805492151560ff19909316929092179091556001906004906119769087906122c6565b908152604051908190036020019020805491151560ff199092169190911790556001805463ffffffff600160c01b909104169060186119b483612356565b91906101000a81548163ffffffff021916908363ffffffff160217905550506009846040516119e391906122c6565b908152604051908190036020908101909120805460018101825560009182529190200180546001600160a01b0319163317905550505050565b6001600160a01b03821660009081526003602052604081205460ff1615611b37576001600160a01b03831660009081526007602052604081208054611a609061228b565b80601f0160208091040260200160405190810160405280929190818152602001828054611a8c9061228b565b8015611ad95780601f10611aae57610100808354040283529160200191611ad9565b820191906000526020600020905b815481529060010190602001808311611abc57829003601f168201915b5050505050905082604051602001611af191906122c6565b6040516020818303038152906040528051906020012081604051602001611b1891906122c6565b6040516020818303038152906040528051906020012014915050611b3b565b5060005b92915050565b600081815b8151811015611c02576041828281518110611b6357611b63612370565b016020015160f81c10801590611b935750605a828281518110611b8857611b88612370565b016020015160f81c11155b158015611be157506061828281518110611baf57611baf612370565b016020015160f81c10801590611bdf5750607a828281518110611bd457611bd4612370565b016020015160f81c11155b155b15611bf0575060009392505050565b80611bfa81612386565b915050611b46565b5060019392505050565b828054611c189061228b565b90600052602060002090601f016020900481019282611c3a5760008555611c80565b82601f10611c5357805160ff1916838001178555611c80565b82800160010185558215611c80579182015b82811115611c80578251825591602001919060010190611c65565b50611c8c929150611ce5565b5090565b828054828255906000526020600020908101928215611c80579160200282015b82811115611c8057825182546001600160a01b0319166001600160a01b03909116178255602090920191600190910190611cb0565b5b80821115611c8c5760008155600101611ce6565b600060208284031215611d0c57600080fd5b81356001600160a01b0381168114611d2357600080fd5b9392505050565b60005b83811015611d45578181015183820152602001611d2d565b83811115611d54576000848401525b50505050565b60008151808452611d72816020860160208601611d2a565b601f01601f19169290920160200192915050565b602081526000611d236020830184611d5a565b634e487b7160e01b600052604160045260246000fd5b600082601f830112611dc057600080fd5b813567ffffffffffffffff80821115611ddb57611ddb611d99565b604051601f8301601f19908116603f01168101908282118183101715611e0357611e03611d99565b81604052838152866020858801011115611e1c57600080fd5b836020870160208301376000602085830101528094505050505092915050565b60008060408385031215611e4f57600080fd5b823567ffffffffffffffff811115611e6657600080fd5b611e7285828601611daf565b95602094909401359450505050565b803563ffffffff81168114611e9557600080fd5b919050565b600060208284031215611eac57600080fd5b611d2382611e81565b634e487b7160e01b600052602160045260246000fd5b60038110611ee957634e487b7160e01b600052602160045260246000fd5b50565b60c081526000611eff60c0830189611d5a565b8281036020840152611f118189611d5a565b90508281036040840152611f258188611d5a565b91505060ff8516606083015260ff84166080830152611f4383611ecb565b8260a0830152979650505050505050565b600060208284031215611f6657600080fd5b813567ffffffffffffffff811115611f7d57600080fd5b611f8984828501611daf565b949350505050565b60a081526000611fa460a0830188611d5a565b6020611faf88611ecb565b83810188905265ffffffffffff8716604085015261ffff86166060850152838203608085015284518083528582019282019060005b818110156120095784516001600160a01b031683529383019391830191600101611fe4565b50909a9950505050505050505050565b6000806040838503121561202c57600080fd5b61203583611e81565b9150602083013567ffffffffffffffff81111561205157600080fd5b61205d85828601611daf565b9150509250929050565b60408152600061207a6040830185611d5a565b828103602084015261208c8185611d5a565b95945050505050565b65ffffffffffff861681526001600160a01b038516602082015260a0604082018190526000906120c790830186611d5a565b841515606084015282810360808401526120e18185611d5a565b98975050505050505050565b6000602082840312156120ff57600080fd5b813565ffffffffffff81168114611d2357600080fd5b60a08152600061212860a0830188611d5a565b828103602084015261213a8188611d5a565b91505061214685611ecb565b84604083015261ffff8416606083015265ffffffffffff831660808301529695505050505050565b6000806000806080858703121561218457600080fd5b843567ffffffffffffffff8082111561219c57600080fd5b6121a888838901611daf565b955060208701359150808211156121be57600080fd5b6121ca88838901611daf565b945060408701359150808211156121e057600080fd5b506121ed87828801611daf565b925050606085013560ff8116811461220457600080fd5b939692955090935050565b60008060006060848603121561222457600080fd5b833567ffffffffffffffff8082111561223c57600080fd5b61224887838801611daf565b9450602086013591508082111561225e57600080fd5b5061226b86828701611daf565b92505060408401356003811061228057600080fd5b809150509250925092565b600181811c9082168061229f57607f821691505b602082108114156122c057634e487b7160e01b600052602260045260246000fd5b50919050565b600082516122d8818460208701611d2a565b9190910192915050565b634e487b7160e01b600052601160045260246000fd5b600060ff821660ff81141561230f5761230f6122e2565b60010192915050565b600065ffffffffffff80831681811415612334576123346122e2565b6001019392505050565b600061ffff80831681811415612334576123346122e2565b600063ffffffff80831681811415612334576123346122e2565b634e487b7160e01b600052603260045260246000fd5b600060001982141561239a5761239a6122e2565b506001019056fea2646970667358221220413ebefd886eda44ab90a9f5ada0274dfcaf934070ec75e57eb93bead4b81a9b64736f6c634300080a0033",
					"opcodes": "PUSH1 0x80 PUSH1 0x40 MSTORE PUSH1 0x1 DUP1 SLOAD PUSH1 0x1 PUSH1 0xA0 SHL PUSH1 0x1 PUSH1 0xE0 SHL SUB AND CALLER PUSH1 0x1 PUSH1 0x1 PUSH1 0xE0 SHL SUB AND OR PUSH1 0x5 PUSH1 0xE1 SHL OR SWAP1 SSTORE CALLVALUE DUP1 ISZERO PUSH2 0x33 JUMPI PUSH1 0x0 DUP1 REVERT JUMPDEST POP PUSH1 0x0 DUP1 SLOAD PUSH1 0x1 PUSH1 0x1 PUSH1 0xA0 SHL SUB NOT AND CALLER OR SWAP1 SSTORE PUSH2 0x23D7 DUP1 PUSH2 0x55 PUSH1 0x0 CODECOPY PUSH1 0x0 RETURN INVALID PUSH1 0x80 PUSH1 0x40 MSTORE CALLVALUE DUP1 ISZERO PUSH2 0x10 JUMPI PUSH1 0x0 DUP1 REVERT JUMPDEST POP PUSH1 0x4 CALLDATASIZE LT PUSH2 0x12C JUMPI PUSH1 0x0 CALLDATALOAD PUSH1 0xE0 SHR DUP1 PUSH4 0x94C04F97 GT PUSH2 0xAD JUMPI DUP1 PUSH4 0xDEF72EC1 GT PUSH2 0x71 JUMPI DUP1 PUSH4 0xDEF72EC1 EQ PUSH2 0x343 JUMPI DUP1 PUSH4 0xE311F43C EQ PUSH2 0x356 JUMPI DUP1 PUSH4 0xE374C32A EQ PUSH2 0x37A JUMPI DUP1 PUSH4 0xF53CBB2D EQ PUSH2 0x38D JUMPI DUP1 PUSH4 0xF96EF609 EQ PUSH2 0x3A0 JUMPI PUSH1 0x0 DUP1 REVERT JUMPDEST DUP1 PUSH4 0x94C04F97 EQ PUSH2 0x2C1 JUMPI DUP1 PUSH4 0x98C07938 EQ PUSH2 0x2D7 JUMPI DUP1 PUSH4 0xA3EC138D EQ PUSH2 0x2E9 JUMPI DUP1 PUSH4 0xA50F9495 EQ PUSH2 0x30D JUMPI DUP1 PUSH4 0xCE606EE0 EQ PUSH2 0x330 JUMPI PUSH1 0x0 DUP1 REVERT JUMPDEST DUP1 PUSH4 0x4DAA8E1D GT PUSH2 0xF4 JUMPI DUP1 PUSH4 0x4DAA8E1D EQ PUSH2 0x201 JUMPI DUP1 PUSH4 0x59987F91 EQ PUSH2 0x216 JUMPI DUP1 PUSH4 0x5DED1BD6 EQ PUSH2 0x242 JUMPI DUP1 PUSH4 0x6326B8CF EQ PUSH2 0x259 JUMPI DUP1 PUSH4 0x7D70CBAF EQ PUSH2 0x2A3 JUMPI PUSH1 0x0 DUP1 REVERT JUMPDEST DUP1 PUSH4 0xB2A0904 EQ PUSH2 0x131 JUMPI DUP1 PUSH4 0x2812CA10 EQ PUSH2 0x15A JUMPI DUP1 PUSH4 0x2C751D30 EQ PUSH2 0x185 JUMPI DUP1 PUSH4 0x375AA7E2 EQ PUSH2 0x1AA JUMPI DUP1 PUSH4 0x3C36FFAE EQ PUSH2 0x1CE JUMPI JUMPDEST PUSH1 0x0 DUP1 REVERT JUMPDEST PUSH2 0x144 PUSH2 0x13F CALLDATASIZE PUSH1 0x4 PUSH2 0x1CFA JUMP JUMPDEST PUSH2 0x3CE JUMP JUMPDEST PUSH1 0x40 MLOAD PUSH2 0x151 SWAP2 SWAP1 PUSH2 0x1D86 JUMP JUMPDEST PUSH1 0x40 MLOAD DUP1 SWAP2 SUB SWAP1 RETURN JUMPDEST PUSH2 0x16D PUSH2 0x168 CALLDATASIZE PUSH1 0x4 PUSH2 0x1E3C JUMP JUMPDEST PUSH2 0x468 JUMP JUMPDEST PUSH1 0x40 MLOAD PUSH1 0x1 PUSH1 0x1 PUSH1 0xA0 SHL SUB SWAP1 SWAP2 AND DUP2 MSTORE PUSH1 0x20 ADD PUSH2 0x151 JUMP JUMPDEST PUSH2 0x198 PUSH2 0x193 CALLDATASIZE PUSH1 0x4 PUSH2 0x1E9A JUMP JUMPDEST PUSH2 0x4AF JUMP JUMPDEST PUSH1 0x40 MLOAD PUSH2 0x151 SWAP7 SWAP6 SWAP5 SWAP4 SWAP3 SWAP2 SWAP1 PUSH2 0x1EEC JUMP JUMPDEST PUSH2 0x1BD PUSH2 0x1B8 CALLDATASIZE PUSH1 0x4 PUSH2 0x1F54 JUMP JUMPDEST PUSH2 0x685 JUMP JUMPDEST PUSH1 0x40 MLOAD PUSH2 0x151 SWAP6 SWAP5 SWAP4 SWAP3 SWAP2 SWAP1 PUSH2 0x1F91 JUMP JUMPDEST PUSH2 0x1F1 PUSH2 0x1DC CALLDATASIZE PUSH1 0x4 PUSH2 0x1CFA JUMP JUMPDEST PUSH1 0x3 PUSH1 0x20 MSTORE PUSH1 0x0 SWAP1 DUP2 MSTORE PUSH1 0x40 SWAP1 KECCAK256 SLOAD PUSH1 0xFF AND DUP2 JUMP JUMPDEST PUSH1 0x40 MLOAD SWAP1 ISZERO ISZERO DUP2 MSTORE PUSH1 0x20 ADD PUSH2 0x151 JUMP JUMPDEST PUSH2 0x214 PUSH2 0x20F CALLDATASIZE PUSH1 0x4 PUSH2 0x2019 JUMP JUMPDEST PUSH2 0x84E JUMP JUMPDEST STOP JUMPDEST PUSH1 0x1 SLOAD PUSH2 0x22D SWAP1 PUSH1 0x1 PUSH1 0xC0 SHL SWAP1 DIV PUSH4 0xFFFFFFFF AND DUP2 JUMP JUMPDEST PUSH1 0x40 MLOAD PUSH4 0xFFFFFFFF SWAP1 SWAP2 AND DUP2 MSTORE PUSH1 0x20 ADD PUSH2 0x151 JUMP JUMPDEST PUSH1 0x1 SLOAD PUSH2 0x22D SWAP1 PUSH1 0x1 PUSH1 0xE0 SHL SWAP1 DIV PUSH4 0xFFFFFFFF AND DUP2 JUMP JUMPDEST PUSH2 0x28C PUSH2 0x267 CALLDATASIZE PUSH1 0x4 PUSH2 0x1F54 JUMP JUMPDEST DUP1 MLOAD PUSH1 0x20 DUP2 DUP4 ADD DUP2 ADD DUP1 MLOAD PUSH1 0x6 DUP3 MSTORE SWAP3 DUP3 ADD SWAP2 SWAP1 SWAP4 ADD KECCAK256 SWAP2 MSTORE SLOAD PUSH6 0xFFFFFFFFFFFF AND DUP2 JUMP JUMPDEST PUSH1 0x40 MLOAD PUSH6 0xFFFFFFFFFFFF SWAP1 SWAP2 AND DUP2 MSTORE PUSH1 0x20 ADD PUSH2 0x151 JUMP JUMPDEST PUSH1 0x1 SLOAD PUSH1 0x1 PUSH1 0xC0 SHL SWAP1 DIV PUSH4 0xFFFFFFFF AND PUSH1 0x40 MLOAD SWAP1 DUP2 MSTORE PUSH1 0x20 ADD PUSH2 0x151 JUMP JUMPDEST PUSH2 0x2C9 PUSH2 0xB7D JUMP JUMPDEST PUSH1 0x40 MLOAD PUSH2 0x151 SWAP3 SWAP2 SWAP1 PUSH2 0x2067 JUMP JUMPDEST PUSH1 0x2 SLOAD PUSH2 0x28C SWAP1 PUSH6 0xFFFFFFFFFFFF AND DUP2 JUMP JUMPDEST PUSH2 0x2FC PUSH2 0x2F7 CALLDATASIZE PUSH1 0x4 PUSH2 0x1CFA JUMP JUMPDEST PUSH2 0xDB2 JUMP JUMPDEST PUSH1 0x40 MLOAD PUSH2 0x151 SWAP6 SWAP5 SWAP4 SWAP3 SWAP2 SWAP1 PUSH2 0x2095 JUMP JUMPDEST PUSH2 0x1F1 PUSH2 0x31B CALLDATASIZE PUSH1 0x4 PUSH2 0x20ED JUMP JUMPDEST PUSH1 0xC PUSH1 0x20 MSTORE PUSH1 0x0 SWAP1 DUP2 MSTORE PUSH1 0x40 SWAP1 KECCAK256 SLOAD PUSH1 0xFF AND DUP2 JUMP JUMPDEST PUSH1 0x0 SLOAD PUSH2 0x16D SWAP1 PUSH1 0x1 PUSH1 0x1 PUSH1 0xA0 SHL SUB AND DUP2 JUMP JUMPDEST PUSH2 0x214 PUSH2 0x351 CALLDATASIZE PUSH1 0x4 PUSH2 0x1F54 JUMP JUMPDEST PUSH2 0xF12 JUMP JUMPDEST PUSH2 0x369 PUSH2 0x364 CALLDATASIZE PUSH1 0x4 PUSH2 0x1F54 JUMP JUMPDEST PUSH2 0x10AE JUMP JUMPDEST PUSH1 0x40 MLOAD PUSH2 0x151 SWAP6 SWAP5 SWAP4 SWAP3 SWAP2 SWAP1 PUSH2 0x2115 JUMP JUMPDEST PUSH2 0x214 PUSH2 0x388 CALLDATASIZE PUSH1 0x4 PUSH2 0x216E JUMP JUMPDEST PUSH2 0x120A JUMP JUMPDEST PUSH2 0x214 PUSH2 0x39B CALLDATASIZE PUSH1 0x4 PUSH2 0x220F JUMP JUMPDEST PUSH2 0x1583 JUMP JUMPDEST PUSH2 0x1F1 PUSH2 0x3AE CALLDATASIZE PUSH1 0x4 PUSH2 0x1F54 JUMP JUMPDEST DUP1 MLOAD PUSH1 0x20 DUP2 DUP4 ADD DUP2 ADD DUP1 MLOAD PUSH1 0x4 DUP3 MSTORE SWAP3 DUP3 ADD SWAP2 SWAP1 SWAP4 ADD KECCAK256 SWAP2 MSTORE SLOAD PUSH1 0xFF AND DUP2 JUMP JUMPDEST PUSH1 0x7 PUSH1 0x20 MSTORE PUSH1 0x0 SWAP1 DUP2 MSTORE PUSH1 0x40 SWAP1 KECCAK256 DUP1 SLOAD PUSH2 0x3E7 SWAP1 PUSH2 0x228B JUMP JUMPDEST DUP1 PUSH1 0x1F ADD PUSH1 0x20 DUP1 SWAP2 DIV MUL PUSH1 0x20 ADD PUSH1 0x40 MLOAD SWAP1 DUP2 ADD PUSH1 0x40 MSTORE DUP1 SWAP3 SWAP2 SWAP1 DUP2 DUP2 MSTORE PUSH1 0x20 ADD DUP3 DUP1 SLOAD PUSH2 0x413 SWAP1 PUSH2 0x228B JUMP JUMPDEST DUP1 ISZERO PUSH2 0x460 JUMPI DUP1 PUSH1 0x1F LT PUSH2 0x435 JUMPI PUSH2 0x100 DUP1 DUP4 SLOAD DIV MUL DUP4 MSTORE SWAP2 PUSH1 0x20 ADD SWAP2 PUSH2 0x460 JUMP JUMPDEST DUP3 ADD SWAP2 SWAP1 PUSH1 0x0 MSTORE PUSH1 0x20 PUSH1 0x0 KECCAK256 SWAP1 JUMPDEST DUP2 SLOAD DUP2 MSTORE SWAP1 PUSH1 0x1 ADD SWAP1 PUSH1 0x20 ADD DUP1 DUP4 GT PUSH2 0x443 JUMPI DUP3 SWAP1 SUB PUSH1 0x1F AND DUP3 ADD SWAP2 JUMPDEST POP POP POP POP POP DUP2 JUMP JUMPDEST DUP2 MLOAD PUSH1 0x20 DUP2 DUP5 ADD DUP2 ADD DUP1 MLOAD PUSH1 0x9 DUP3 MSTORE SWAP3 DUP3 ADD SWAP2 DUP6 ADD SWAP2 SWAP1 SWAP2 KECCAK256 SWAP2 SWAP1 MSTORE DUP1 SLOAD DUP3 SWAP1 DUP2 LT PUSH2 0x493 JUMPI PUSH1 0x0 DUP1 REVERT JUMPDEST PUSH1 0x0 SWAP2 DUP3 MSTORE PUSH1 0x20 SWAP1 SWAP2 KECCAK256 ADD SLOAD PUSH1 0x1 PUSH1 0x1 PUSH1 0xA0 SHL SUB AND SWAP2 POP DUP3 SWAP1 POP JUMP JUMPDEST PUSH1 0xA PUSH1 0x20 MSTORE PUSH1 0x0 SWAP1 DUP2 MSTORE PUSH1 0x40 SWAP1 KECCAK256 DUP1 SLOAD DUP2 SWAP1 PUSH2 0x4CA SWAP1 PUSH2 0x228B JUMP JUMPDEST DUP1 PUSH1 0x1F ADD PUSH1 0x20 DUP1 SWAP2 DIV MUL PUSH1 0x20 ADD PUSH1 0x40 MLOAD SWAP1 DUP2 ADD PUSH1 0x40 MSTORE DUP1 SWAP3 SWAP2 SWAP1 DUP2 DUP2 MSTORE PUSH1 0x20 ADD DUP3 DUP1 SLOAD PUSH2 0x4F6 SWAP1 PUSH2 0x228B JUMP JUMPDEST DUP1 ISZERO PUSH2 0x543 JUMPI DUP1 PUSH1 0x1F LT PUSH2 0x518 JUMPI PUSH2 0x100 DUP1 DUP4 SLOAD DIV MUL DUP4 MSTORE SWAP2 PUSH1 0x20 ADD SWAP2 PUSH2 0x543 JUMP JUMPDEST DUP3 ADD SWAP2 SWAP1 PUSH1 0x0 MSTORE PUSH1 0x20 PUSH1 0x0 KECCAK256 SWAP1 JUMPDEST DUP2 SLOAD DUP2 MSTORE SWAP1 PUSH1 0x1 ADD SWAP1 PUSH1 0x20 ADD DUP1 DUP4 GT PUSH2 0x526 JUMPI DUP3 SWAP1 SUB PUSH1 0x1F AND DUP3 ADD SWAP2 JUMPDEST POP POP POP POP POP SWAP1 DUP1 PUSH1 0x1 ADD DUP1 SLOAD PUSH2 0x558 SWAP1 PUSH2 0x228B JUMP JUMPDEST DUP1 PUSH1 0x1F ADD PUSH1 0x20 DUP1 SWAP2 DIV MUL PUSH1 0x20 ADD PUSH1 0x40 MLOAD SWAP1 DUP2 ADD PUSH1 0x40 MSTORE DUP1 SWAP3 SWAP2 SWAP1 DUP2 DUP2 MSTORE PUSH1 0x20 ADD DUP3 DUP1 SLOAD PUSH2 0x584 SWAP1 PUSH2 0x228B JUMP JUMPDEST DUP1 ISZERO PUSH2 0x5D1 JUMPI DUP1 PUSH1 0x1F LT PUSH2 0x5A6 JUMPI PUSH2 0x100 DUP1 DUP4 SLOAD DIV MUL DUP4 MSTORE SWAP2 PUSH1 0x20 ADD SWAP2 PUSH2 0x5D1 JUMP JUMPDEST DUP3 ADD SWAP2 SWAP1 PUSH1 0x0 MSTORE PUSH1 0x20 PUSH1 0x0 KECCAK256 SWAP1 JUMPDEST DUP2 SLOAD DUP2 MSTORE SWAP1 PUSH1 0x1 ADD SWAP1 PUSH1 0x20 ADD DUP1 DUP4 GT PUSH2 0x5B4 JUMPI DUP3 SWAP1 SUB PUSH1 0x1F AND DUP3 ADD SWAP2 JUMPDEST POP POP POP POP POP SWAP1 DUP1 PUSH1 0x2 ADD DUP1 SLOAD PUSH2 0x5E6 SWAP1 PUSH2 0x228B JUMP JUMPDEST DUP1 PUSH1 0x1F ADD PUSH1 0x20 DUP1 SWAP2 DIV MUL PUSH1 0x20 ADD PUSH1 0x40 MLOAD SWAP1 DUP2 ADD PUSH1 0x40 MSTORE DUP1 SWAP3 SWAP2 SWAP1 DUP2 DUP2 MSTORE PUSH1 0x20 ADD DUP3 DUP1 SLOAD PUSH2 0x612 SWAP1 PUSH2 0x228B JUMP JUMPDEST DUP1 ISZERO PUSH2 0x65F JUMPI DUP1 PUSH1 0x1F LT PUSH2 0x634 JUMPI PUSH2 0x100 DUP1 DUP4 SLOAD DIV MUL DUP4 MSTORE SWAP2 PUSH1 0x20 ADD SWAP2 PUSH2 0x65F JUMP JUMPDEST DUP3 ADD SWAP2 SWAP1 PUSH1 0x0 MSTORE PUSH1 0x20 PUSH1 0x0 KECCAK256 SWAP1 JUMPDEST DUP2 SLOAD DUP2 MSTORE SWAP1 PUSH1 0x1 ADD SWAP1 PUSH1 0x20 ADD DUP1 DUP4 GT PUSH2 0x642 JUMPI DUP3 SWAP1 SUB PUSH1 0x1F AND DUP3 ADD SWAP2 JUMPDEST POP POP POP PUSH1 0x3 SWAP1 SWAP4 ADD SLOAD SWAP2 SWAP3 POP POP PUSH1 0xFF DUP1 DUP3 AND SWAP2 PUSH2 0x100 DUP2 DIV DUP3 AND SWAP2 PUSH3 0x10000 SWAP1 SWAP2 DIV AND DUP7 JUMP JUMPDEST PUSH1 0x60 PUSH1 0x0 DUP1 PUSH1 0x0 PUSH1 0x60 PUSH1 0x4 DUP7 PUSH1 0x40 MLOAD PUSH2 0x69E SWAP2 SWAP1 PUSH2 0x22C6 JUMP JUMPDEST SWAP1 DUP2 MSTORE PUSH1 0x40 MLOAD SWAP1 DUP2 SWAP1 SUB PUSH1 0x20 ADD SWAP1 KECCAK256 SLOAD PUSH1 0xFF AND PUSH2 0x6FE JUMPI PUSH1 0x40 MLOAD PUSH3 0x461BCD PUSH1 0xE5 SHL DUP2 MSTORE PUSH1 0x20 PUSH1 0x4 DUP3 ADD MSTORE PUSH1 0x19 PUSH1 0x24 DUP3 ADD MSTORE PUSH25 0x13DC99D85B9A5E985D1A5BDB881251081B9BDD08199BDD5B99 PUSH1 0x3A SHL PUSH1 0x44 DUP3 ADD MSTORE PUSH1 0x64 ADD JUMPDEST PUSH1 0x40 MLOAD DUP1 SWAP2 SUB SWAP1 REVERT JUMPDEST PUSH1 0x0 PUSH1 0x5 DUP8 PUSH1 0x40 MLOAD PUSH2 0x710 SWAP2 SWAP1 PUSH2 0x22C6 JUMP JUMPDEST SWAP1 DUP2 MSTORE PUSH1 0x40 MLOAD SWAP1 DUP2 SWAP1 SUB PUSH1 0x20 ADD SWAP1 KECCAK256 PUSH1 0x2 DUP2 ADD SLOAD DUP2 SLOAD SWAP2 SWAP3 POP DUP3 SWAP2 PUSH1 0xFF DUP3 AND SWAP2 PUSH6 0xFFFFFFFFFFFF PUSH4 0x1000000 DUP3 DIV AND SWAP2 PUSH2 0xFFFF PUSH2 0x100 SWAP1 SWAP3 DIV SWAP2 SWAP1 SWAP2 AND SWAP1 PUSH1 0x3 DUP6 ADD SWAP1 DUP6 SWAP1 PUSH2 0x75E SWAP1 PUSH2 0x228B JUMP JUMPDEST DUP1 PUSH1 0x1F ADD PUSH1 0x20 DUP1 SWAP2 DIV MUL PUSH1 0x20 ADD PUSH1 0x40 MLOAD SWAP1 DUP2 ADD PUSH1 0x40 MSTORE DUP1 SWAP3 SWAP2 SWAP1 DUP2 DUP2 MSTORE PUSH1 0x20 ADD DUP3 DUP1 SLOAD PUSH2 0x78A SWAP1 PUSH2 0x228B JUMP JUMPDEST DUP1 ISZERO PUSH2 0x7D7 JUMPI DUP1 PUSH1 0x1F LT PUSH2 0x7AC JUMPI PUSH2 0x100 DUP1 DUP4 SLOAD DIV MUL DUP4 MSTORE SWAP2 PUSH1 0x20 ADD SWAP2 PUSH2 0x7D7 JUMP JUMPDEST DUP3 ADD SWAP2 SWAP1 PUSH1 0x0 MSTORE PUSH1 0x20 PUSH1 0x0 KECCAK256 SWAP1 JUMPDEST DUP2 SLOAD DUP2 MSTORE SWAP1 PUSH1 0x1 ADD SWAP1 PUSH1 0x20 ADD DUP1 DUP4 GT PUSH2 0x7BA JUMPI DUP3 SWAP1 SUB PUSH1 0x1F AND DUP3 ADD SWAP2 JUMPDEST POP POP POP POP POP SWAP5 POP DUP1 DUP1 SLOAD DUP1 PUSH1 0x20 MUL PUSH1 0x20 ADD PUSH1 0x40 MLOAD SWAP1 DUP2 ADD PUSH1 0x40 MSTORE DUP1 SWAP3 SWAP2 SWAP1 DUP2 DUP2 MSTORE PUSH1 0x20 ADD DUP3 DUP1 SLOAD DUP1 ISZERO PUSH2 0x833 JUMPI PUSH1 0x20 MUL DUP3 ADD SWAP2 SWAP1 PUSH1 0x0 MSTORE PUSH1 0x20 PUSH1 0x0 KECCAK256 SWAP1 JUMPDEST DUP2 SLOAD PUSH1 0x1 PUSH1 0x1 PUSH1 0xA0 SHL SUB AND DUP2 MSTORE PUSH1 0x1 SWAP1 SWAP2 ADD SWAP1 PUSH1 0x20 ADD DUP1 DUP4 GT PUSH2 0x815 JUMPI JUMPDEST POP POP POP POP POP SWAP1 POP SWAP6 POP SWAP6 POP SWAP6 POP SWAP6 POP SWAP6 POP POP SWAP2 SWAP4 SWAP6 SWAP1 SWAP3 SWAP5 POP JUMP JUMPDEST PUSH1 0x1 SLOAD PUSH4 0xFFFFFFFF PUSH1 0x1 PUSH1 0xA0 SHL SWAP1 SWAP2 DIV DUP2 AND SWAP1 DUP4 AND LT PUSH2 0x8A9 JUMPI PUSH1 0x40 MLOAD PUSH3 0x461BCD PUSH1 0xE5 SHL DUP2 MSTORE PUSH1 0x20 PUSH1 0x4 DUP3 ADD MSTORE PUSH1 0x16 PUSH1 0x24 DUP3 ADD MSTORE PUSH22 0x92DCECC2D8D2C840CAD8CAC6E8D2DEDC40D2DCC8CAF PUSH1 0x53 SHL PUSH1 0x44 DUP3 ADD MSTORE PUSH1 0x64 ADD PUSH2 0x6F5 JUMP JUMPDEST PUSH4 0xFFFFFFFF DUP3 AND PUSH1 0x0 SWAP1 DUP2 MSTORE PUSH1 0xA PUSH1 0x20 MSTORE PUSH1 0x40 SWAP1 KECCAK256 PUSH1 0x1 DUP2 ADD DUP1 SLOAD PUSH2 0x956 SWAP2 CALLER SWAP2 PUSH2 0x8D3 SWAP1 PUSH2 0x228B JUMP JUMPDEST DUP1 PUSH1 0x1F ADD PUSH1 0x20 DUP1 SWAP2 DIV MUL PUSH1 0x20 ADD PUSH1 0x40 MLOAD SWAP1 DUP2 ADD PUSH1 0x40 MSTORE DUP1 SWAP3 SWAP2 SWAP1 DUP2 DUP2 MSTORE PUSH1 0x20 ADD DUP3 DUP1 SLOAD PUSH2 0x8FF SWAP1 PUSH2 0x228B JUMP JUMPDEST DUP1 ISZERO PUSH2 0x94C JUMPI DUP1 PUSH1 0x1F LT PUSH2 0x921 JUMPI PUSH2 0x100 DUP1 DUP4 SLOAD DIV MUL DUP4 MSTORE SWAP2 PUSH1 0x20 ADD SWAP2 PUSH2 0x94C JUMP JUMPDEST DUP3 ADD SWAP2 SWAP1 PUSH1 0x0 MSTORE PUSH1 0x20 PUSH1 0x0 KECCAK256 SWAP1 JUMPDEST DUP2 SLOAD DUP2 MSTORE SWAP1 PUSH1 0x1 ADD SWAP1 PUSH1 0x20 ADD DUP1 DUP4 GT PUSH2 0x92F JUMPI DUP3 SWAP1 SUB PUSH1 0x1F AND DUP3 ADD SWAP2 JUMPDEST POP POP POP POP POP PUSH2 0x1A1C JUMP JUMPDEST PUSH2 0x9B2 JUMPI PUSH1 0x40 MLOAD PUSH3 0x461BCD PUSH1 0xE5 SHL DUP2 MSTORE PUSH1 0x20 PUSH1 0x4 DUP3 ADD MSTORE PUSH1 0x27 PUSH1 0x24 DUP3 ADD MSTORE PUSH32 0x4F6E6C7920656C656374696F6E2061646D696E732063616E206164642063616E PUSH1 0x44 DUP3 ADD MSTORE PUSH7 0x64696461746573 PUSH1 0xC8 SHL PUSH1 0x64 DUP3 ADD MSTORE PUSH1 0x84 ADD PUSH2 0x6F5 JUMP JUMPDEST PUSH1 0x3 DUP2 ADD SLOAD PUSH1 0xFF DUP1 DUP3 AND PUSH2 0x100 SWAP1 SWAP3 DIV AND LT PUSH2 0xA10 JUMPI PUSH1 0x40 MLOAD PUSH3 0x461BCD PUSH1 0xE5 SHL DUP2 MSTORE PUSH1 0x20 PUSH1 0x4 DUP3 ADD MSTORE PUSH1 0x17 PUSH1 0x24 DUP3 ADD MSTORE PUSH32 0x43616E646964617465206C696D69742072656163686564000000000000000000 PUSH1 0x44 DUP3 ADD MSTORE PUSH1 0x64 ADD PUSH2 0x6F5 JUMP JUMPDEST PUSH1 0x0 DUP3 MLOAD GT PUSH2 0xA61 JUMPI PUSH1 0x40 MLOAD PUSH3 0x461BCD PUSH1 0xE5 SHL DUP2 MSTORE PUSH1 0x20 PUSH1 0x4 DUP3 ADD MSTORE PUSH1 0x1E PUSH1 0x24 DUP3 ADD MSTORE PUSH32 0x43616E646964617465206E616D652063616E6E6F7420626520656D7074790000 PUSH1 0x44 DUP3 ADD MSTORE PUSH1 0x64 ADD PUSH2 0x6F5 JUMP JUMPDEST PUSH1 0x10 DUP3 MLOAD GT ISZERO PUSH2 0xACA JUMPI PUSH1 0x40 MLOAD PUSH3 0x461BCD PUSH1 0xE5 SHL DUP2 MSTORE PUSH1 0x20 PUSH1 0x4 DUP3 ADD MSTORE PUSH1 0x2E PUSH1 0x24 DUP3 ADD MSTORE PUSH32 0x43616E646964617465206E616D652073686F756C642062652031362063686172 PUSH1 0x44 DUP3 ADD MSTORE PUSH14 0x616374657273206F72206C657373 PUSH1 0x90 SHL PUSH1 0x64 DUP3 ADD MSTORE PUSH1 0x84 ADD PUSH2 0x6F5 JUMP JUMPDEST PUSH2 0xAD3 DUP3 PUSH2 0x1B41 JUMP JUMPDEST PUSH2 0xB45 JUMPI PUSH1 0x40 MLOAD PUSH3 0x461BCD PUSH1 0xE5 SHL DUP2 MSTORE PUSH1 0x20 PUSH1 0x4 DUP3 ADD MSTORE PUSH1 0x3A PUSH1 0x24 DUP3 ADD MSTORE PUSH32 0x43616E646964617465206E616D652073686F756C64206F6E6C7920636F6E7461 PUSH1 0x44 DUP3 ADD MSTORE PUSH32 0x696E20616C7068616265746963616C2063686172616374657273000000000000 PUSH1 0x64 DUP3 ADD MSTORE PUSH1 0x84 ADD PUSH2 0x6F5 JUMP JUMPDEST PUSH1 0x3 DUP2 ADD DUP1 SLOAD PUSH2 0x100 SWAP1 DIV PUSH1 0xFF AND SWAP1 PUSH1 0x1 PUSH2 0xB5F DUP4 PUSH2 0x22F8 JUMP JUMPDEST SWAP2 SWAP1 PUSH2 0x100 EXP DUP2 SLOAD DUP2 PUSH1 0xFF MUL NOT AND SWAP1 DUP4 PUSH1 0xFF AND MUL OR SWAP1 SSTORE POP POP POP POP POP JUMP JUMPDEST CALLER PUSH1 0x0 DUP2 DUP2 MSTORE PUSH1 0x3 PUSH1 0x20 MSTORE PUSH1 0x40 SWAP1 KECCAK256 SLOAD PUSH1 0x60 SWAP2 DUP3 SWAP2 PUSH1 0xFF AND PUSH2 0xBEF JUMPI PUSH1 0x40 MLOAD PUSH3 0x461BCD PUSH1 0xE5 SHL DUP2 MSTORE PUSH1 0x20 PUSH1 0x4 DUP3 ADD MSTORE PUSH1 0x25 PUSH1 0x24 DUP3 ADD MSTORE PUSH32 0x456C656374696F6E2041646D696E2061646472657373206E6F74207265676973 PUSH1 0x44 DUP3 ADD MSTORE PUSH5 0x1D195C9959 PUSH1 0xDA SHL PUSH1 0x64 DUP3 ADD MSTORE PUSH1 0x84 ADD PUSH2 0x6F5 JUMP JUMPDEST PUSH1 0x1 PUSH1 0x1 PUSH1 0xA0 SHL SUB DUP2 AND PUSH1 0x0 SWAP1 DUP2 MSTORE PUSH1 0x7 PUSH1 0x20 MSTORE PUSH1 0x40 DUP2 KECCAK256 DUP1 SLOAD PUSH2 0xC12 SWAP1 PUSH2 0x228B JUMP JUMPDEST DUP1 PUSH1 0x1F ADD PUSH1 0x20 DUP1 SWAP2 DIV MUL PUSH1 0x20 ADD PUSH1 0x40 MLOAD SWAP1 DUP2 ADD PUSH1 0x40 MSTORE DUP1 SWAP3 SWAP2 SWAP1 DUP2 DUP2 MSTORE PUSH1 0x20 ADD DUP3 DUP1 SLOAD PUSH2 0xC3E SWAP1 PUSH2 0x228B JUMP JUMPDEST DUP1 ISZERO PUSH2 0xC8B JUMPI DUP1 PUSH1 0x1F LT PUSH2 0xC60 JUMPI PUSH2 0x100 DUP1 DUP4 SLOAD DIV MUL DUP4 MSTORE SWAP2 PUSH1 0x20 ADD SWAP2 PUSH2 0xC8B JUMP JUMPDEST DUP3 ADD SWAP2 SWAP1 PUSH1 0x0 MSTORE PUSH1 0x20 PUSH1 0x0 KECCAK256 SWAP1 JUMPDEST DUP2 SLOAD DUP2 MSTORE SWAP1 PUSH1 0x1 ADD SWAP1 PUSH1 0x20 ADD DUP1 DUP4 GT PUSH2 0xC6E JUMPI DUP3 SWAP1 SUB PUSH1 0x1F AND DUP3 ADD SWAP2 JUMPDEST POP POP POP POP POP SWAP1 POP PUSH1 0x4 DUP2 PUSH1 0x40 MLOAD PUSH2 0xCA2 SWAP2 SWAP1 PUSH2 0x22C6 JUMP JUMPDEST SWAP1 DUP2 MSTORE PUSH1 0x40 MLOAD SWAP1 DUP2 SWAP1 SUB PUSH1 0x20 ADD SWAP1 KECCAK256 SLOAD PUSH1 0xFF AND PUSH2 0xCFA JUMPI PUSH1 0x40 MLOAD PUSH3 0x461BCD PUSH1 0xE5 SHL DUP2 MSTORE PUSH1 0x20 PUSH1 0x4 DUP3 ADD MSTORE PUSH1 0x16 PUSH1 0x24 DUP3 ADD MSTORE PUSH22 0x13DC99D85B9A5E985D1A5BDB881B9BDD08199BDD5B99 PUSH1 0x52 SHL PUSH1 0x44 DUP3 ADD MSTORE PUSH1 0x64 ADD PUSH2 0x6F5 JUMP JUMPDEST PUSH1 0x0 PUSH1 0x5 DUP3 PUSH1 0x40 MLOAD PUSH2 0xD0C SWAP2 SWAP1 PUSH2 0x22C6 JUMP JUMPDEST SWAP1 DUP2 MSTORE PUSH1 0x20 ADD PUSH1 0x40 MLOAD DUP1 SWAP2 SUB SWAP1 KECCAK256 PUSH1 0x1 ADD DUP1 SLOAD PUSH2 0xD28 SWAP1 PUSH2 0x228B JUMP JUMPDEST DUP1 PUSH1 0x1F ADD PUSH1 0x20 DUP1 SWAP2 DIV MUL PUSH1 0x20 ADD PUSH1 0x40 MLOAD SWAP1 DUP2 ADD PUSH1 0x40 MSTORE DUP1 SWAP3 SWAP2 SWAP1 DUP2 DUP2 MSTORE PUSH1 0x20 ADD DUP3 DUP1 SLOAD PUSH2 0xD54 SWAP1 PUSH2 0x228B JUMP JUMPDEST DUP1 ISZERO PUSH2 0xDA1 JUMPI DUP1 PUSH1 0x1F LT PUSH2 0xD76 JUMPI PUSH2 0x100 DUP1 DUP4 SLOAD DIV MUL DUP4 MSTORE SWAP2 PUSH1 0x20 ADD SWAP2 PUSH2 0xDA1 JUMP JUMPDEST DUP3 ADD SWAP2 SWAP1 PUSH1 0x0 MSTORE PUSH1 0x20 PUSH1 0x0 KECCAK256 SWAP1 JUMPDEST DUP2 SLOAD DUP2 MSTORE SWAP1 PUSH1 0x1 ADD SWAP1 PUSH1 0x20 ADD DUP1 DUP4 GT PUSH2 0xD84 JUMPI DUP3 SWAP1 SUB PUSH1 0x1F AND DUP3 ADD SWAP2 JUMPDEST POP SWAP6 SWAP10 SWAP4 SWAP9 POP SWAP3 SWAP7 POP POP POP POP POP POP POP JUMP JUMPDEST PUSH1 0xB PUSH1 0x20 MSTORE PUSH1 0x0 SWAP1 DUP2 MSTORE PUSH1 0x40 SWAP1 KECCAK256 DUP1 SLOAD PUSH1 0x1 DUP3 ADD DUP1 SLOAD PUSH6 0xFFFFFFFFFFFF DUP4 AND SWAP4 PUSH7 0x1000000000000 SWAP1 SWAP4 DIV PUSH1 0x1 PUSH1 0x1 PUSH1 0xA0 SHL SUB AND SWAP3 SWAP2 SWAP1 PUSH2 0xDF2 SWAP1 PUSH2 0x228B JUMP JUMPDEST DUP1 PUSH1 0x1F ADD PUSH1 0x20 DUP1 SWAP2 DIV MUL PUSH1 0x20 ADD PUSH1 0x40 MLOAD SWAP1 DUP2 ADD PUSH1 0x40 MSTORE DUP1 SWAP3 SWAP2 SWAP1 DUP2 DUP2 MSTORE PUSH1 0x20 ADD DUP3 DUP1 SLOAD PUSH2 0xE1E SWAP1 PUSH2 0x228B JUMP JUMPDEST DUP1 ISZERO PUSH2 0xE6B JUMPI DUP1 PUSH1 0x1F LT PUSH2 0xE40 JUMPI PUSH2 0x100 DUP1 DUP4 SLOAD DIV MUL DUP4 MSTORE SWAP2 PUSH1 0x20 ADD SWAP2 PUSH2 0xE6B JUMP JUMPDEST DUP3 ADD SWAP2 SWAP1 PUSH1 0x0 MSTORE PUSH1 0x20 PUSH1 0x0 KECCAK256 SWAP1 JUMPDEST DUP2 SLOAD DUP2 MSTORE SWAP1 PUSH1 0x1 ADD SWAP1 PUSH1 0x20 ADD DUP1 DUP4 GT PUSH2 0xE4E JUMPI DUP3 SWAP1 SUB PUSH1 0x1F AND DUP3 ADD SWAP2 JUMPDEST POP POP POP PUSH1 0x2 DUP5 ADD SLOAD PUSH1 0x4 DUP6 ADD DUP1 SLOAD SWAP5 SWAP6 PUSH1 0xFF SWAP1 SWAP3 AND SWAP5 SWAP2 SWAP4 POP SWAP2 POP PUSH2 0xE8F SWAP1 PUSH2 0x228B JUMP JUMPDEST DUP1 PUSH1 0x1F ADD PUSH1 0x20 DUP1 SWAP2 DIV MUL PUSH1 0x20 ADD PUSH1 0x40 MLOAD SWAP1 DUP2 ADD PUSH1 0x40 MSTORE DUP1 SWAP3 SWAP2 SWAP1 DUP2 DUP2 MSTORE PUSH1 0x20 ADD DUP3 DUP1 SLOAD PUSH2 0xEBB SWAP1 PUSH2 0x228B JUMP JUMPDEST DUP1 ISZERO PUSH2 0xF08 JUMPI DUP1 PUSH1 0x1F LT PUSH2 0xEDD JUMPI PUSH2 0x100 DUP1 DUP4 SLOAD DIV MUL DUP4 MSTORE SWAP2 PUSH1 0x20 ADD SWAP2 PUSH2 0xF08 JUMP JUMPDEST DUP3 ADD SWAP2 SWAP1 PUSH1 0x0 MSTORE PUSH1 0x20 PUSH1 0x0 KECCAK256 SWAP1 JUMPDEST DUP2 SLOAD DUP2 MSTORE SWAP1 PUSH1 0x1 ADD SWAP1 PUSH1 0x20 ADD DUP1 DUP4 GT PUSH2 0xEEB JUMPI DUP3 SWAP1 SUB PUSH1 0x1F AND DUP3 ADD SWAP2 JUMPDEST POP POP POP POP POP SWAP1 POP DUP6 JUMP JUMPDEST CALLER PUSH1 0x0 SWAP1 DUP2 MSTORE PUSH1 0x3 PUSH1 0x20 MSTORE PUSH1 0x40 SWAP1 KECCAK256 SLOAD PUSH1 0xFF AND ISZERO PUSH2 0xF84 JUMPI PUSH1 0x40 MLOAD PUSH3 0x461BCD PUSH1 0xE5 SHL DUP2 MSTORE PUSH1 0x20 PUSH1 0x4 DUP3 ADD MSTORE PUSH1 0x29 PUSH1 0x24 DUP3 ADD MSTORE PUSH32 0x456C656374696F6E2041646D696E206164647265737320616C72656164792072 PUSH1 0x44 DUP3 ADD MSTORE PUSH9 0x1959DA5CDD195C9959 PUSH1 0xBA SHL PUSH1 0x64 DUP3 ADD MSTORE PUSH1 0x84 ADD PUSH2 0x6F5 JUMP JUMPDEST PUSH1 0x4 DUP2 PUSH1 0x40 MLOAD PUSH2 0xF94 SWAP2 SWAP1 PUSH2 0x22C6 JUMP JUMPDEST SWAP1 DUP2 MSTORE PUSH1 0x40 MLOAD SWAP1 DUP2 SWAP1 SUB PUSH1 0x20 ADD SWAP1 KECCAK256 SLOAD PUSH1 0xFF AND PUSH2 0xFEC JUMPI PUSH1 0x40 MLOAD PUSH3 0x461BCD PUSH1 0xE5 SHL DUP2 MSTORE PUSH1 0x20 PUSH1 0x4 DUP3 ADD MSTORE PUSH1 0x16 PUSH1 0x24 DUP3 ADD MSTORE PUSH22 0x13DC99D85B9A5E985D1A5BDB881B9BDD08199BDD5B99 PUSH1 0x52 SHL PUSH1 0x44 DUP3 ADD MSTORE PUSH1 0x64 ADD PUSH2 0x6F5 JUMP JUMPDEST PUSH1 0x0 PUSH1 0x5 DUP3 PUSH1 0x40 MLOAD PUSH2 0xFFE SWAP2 SWAP1 PUSH2 0x22C6 JUMP JUMPDEST SWAP1 DUP2 MSTORE PUSH1 0x40 DUP1 MLOAD SWAP2 DUP3 SWAP1 SUB PUSH1 0x20 SWAP1 DUP2 ADD DUP4 KECCAK256 PUSH1 0x3 DUP1 DUP3 ADD DUP1 SLOAD PUSH1 0x1 DUP2 DUP2 ADD DUP4 SSTORE PUSH1 0x0 SWAP3 DUP4 MSTORE DUP6 DUP4 KECCAK256 SWAP1 SWAP2 ADD DUP1 SLOAD PUSH1 0x1 PUSH1 0x1 PUSH1 0xA0 SHL SUB NOT AND CALLER SWAP1 DUP2 OR SWAP1 SWAP2 SSTORE DUP3 MSTORE SWAP2 SWAP1 SWAP4 MSTORE SWAP3 SWAP1 SWAP2 KECCAK256 DUP1 SLOAD PUSH1 0xFF NOT AND SWAP1 SWAP3 OR SWAP1 SWAP2 SSTORE SWAP2 POP PUSH1 0x6 SWAP1 PUSH2 0x1062 SWAP1 DUP5 SWAP1 PUSH2 0x22C6 JUMP JUMPDEST SWAP1 DUP2 MSTORE PUSH1 0x40 MLOAD SWAP1 DUP2 SWAP1 SUB PUSH1 0x20 ADD SWAP1 KECCAK256 DUP1 SLOAD PUSH6 0xFFFFFFFFFFFF AND SWAP1 PUSH1 0x0 PUSH2 0x1087 DUP4 PUSH2 0x2318 JUMP JUMPDEST SWAP2 SWAP1 PUSH2 0x100 EXP DUP2 SLOAD DUP2 PUSH6 0xFFFFFFFFFFFF MUL NOT AND SWAP1 DUP4 PUSH6 0xFFFFFFFFFFFF AND MUL OR SWAP1 SSTORE POP POP POP POP JUMP JUMPDEST DUP1 MLOAD PUSH1 0x20 DUP2 DUP4 ADD DUP2 ADD DUP1 MLOAD PUSH1 0x5 DUP3 MSTORE SWAP3 DUP3 ADD SWAP2 SWAP1 SWAP4 ADD KECCAK256 SWAP2 MSTORE DUP1 SLOAD DUP2 SWAP1 PUSH2 0x10D4 SWAP1 PUSH2 0x228B JUMP JUMPDEST DUP1 PUSH1 0x1F ADD PUSH1 0x20 DUP1 SWAP2 DIV MUL PUSH1 0x20 ADD PUSH1 0x40 MLOAD SWAP1 DUP2 ADD PUSH1 0x40 MSTORE DUP1 SWAP3 SWAP2 SWAP1 DUP2 DUP2 MSTORE PUSH1 0x20 ADD DUP3 DUP1 SLOAD PUSH2 0x1100 SWAP1 PUSH2 0x228B JUMP JUMPDEST DUP1 ISZERO PUSH2 0x114D JUMPI DUP1 PUSH1 0x1F LT PUSH2 0x1122 JUMPI PUSH2 0x100 DUP1 DUP4 SLOAD DIV MUL DUP4 MSTORE SWAP2 PUSH1 0x20 ADD SWAP2 PUSH2 0x114D JUMP JUMPDEST DUP3 ADD SWAP2 SWAP1 PUSH1 0x0 MSTORE PUSH1 0x20 PUSH1 0x0 KECCAK256 SWAP1 JUMPDEST DUP2 SLOAD DUP2 MSTORE SWAP1 PUSH1 0x1 ADD SWAP1 PUSH1 0x20 ADD DUP1 DUP4 GT PUSH2 0x1130 JUMPI DUP3 SWAP1 SUB PUSH1 0x1F AND DUP3 ADD SWAP2 JUMPDEST POP POP POP POP POP SWAP1 DUP1 PUSH1 0x1 ADD DUP1 SLOAD PUSH2 0x1162 SWAP1 PUSH2 0x228B JUMP JUMPDEST DUP1 PUSH1 0x1F ADD PUSH1 0x20 DUP1 SWAP2 DIV MUL PUSH1 0x20 ADD PUSH1 0x40 MLOAD SWAP1 DUP2 ADD PUSH1 0x40 MSTORE DUP1 SWAP3 SWAP2 SWAP1 DUP2 DUP2 MSTORE PUSH1 0x20 ADD DUP3 DUP1 SLOAD PUSH2 0x118E SWAP1 PUSH2 0x228B JUMP JUMPDEST DUP1 ISZERO PUSH2 0x11DB JUMPI DUP1 PUSH1 0x1F LT PUSH2 0x11B0 JUMPI PUSH2 0x100 DUP1 DUP4 SLOAD DIV MUL DUP4 MSTORE SWAP2 PUSH1 0x20 ADD SWAP2 PUSH2 0x11DB JUMP JUMPDEST DUP3 ADD SWAP2 SWAP1 PUSH1 0x0 MSTORE PUSH1 0x20 PUSH1 0x0 KECCAK256 SWAP1 JUMPDEST DUP2 SLOAD DUP2 MSTORE SWAP1 PUSH1 0x1 ADD SWAP1 PUSH1 0x20 ADD DUP1 DUP4 GT PUSH2 0x11BE JUMPI DUP3 SWAP1 SUB PUSH1 0x1F AND DUP3 ADD SWAP2 JUMPDEST POP POP POP PUSH1 0x2 SWAP1 SWAP4 ADD SLOAD SWAP2 SWAP3 POP POP PUSH1 0xFF DUP2 AND SWAP1 PUSH2 0xFFFF PUSH2 0x100 DUP3 DIV AND SWAP1 PUSH6 0xFFFFFFFFFFFF PUSH4 0x1000000 SWAP1 SWAP2 DIV AND DUP6 JUMP JUMPDEST PUSH1 0x4 DUP5 PUSH1 0x40 MLOAD PUSH2 0x121A SWAP2 SWAP1 PUSH2 0x22C6 JUMP JUMPDEST SWAP1 DUP2 MSTORE PUSH1 0x40 MLOAD SWAP1 DUP2 SWAP1 SUB PUSH1 0x20 ADD SWAP1 KECCAK256 SLOAD PUSH1 0xFF AND PUSH2 0x1275 JUMPI PUSH1 0x40 MLOAD PUSH3 0x461BCD PUSH1 0xE5 SHL DUP2 MSTORE PUSH1 0x20 PUSH1 0x4 DUP3 ADD MSTORE PUSH1 0x19 PUSH1 0x24 DUP3 ADD MSTORE PUSH25 0x13DC99D85B9A5E985D1A5BDB881251081B9BDD08199BDD5B99 PUSH1 0x3A SHL PUSH1 0x44 DUP3 ADD MSTORE PUSH1 0x64 ADD PUSH2 0x6F5 JUMP JUMPDEST PUSH1 0x1 DUP4 MLOAD GT PUSH2 0x12C6 JUMPI PUSH1 0x40 MLOAD PUSH3 0x461BCD PUSH1 0xE5 SHL DUP2 MSTORE PUSH1 0x20 PUSH1 0x4 DUP3 ADD MSTORE PUSH1 0x1A PUSH1 0x24 DUP3 ADD MSTORE PUSH32 0x456C656374696F6E2049442063616E277420626520656D707479000000000000 PUSH1 0x44 DUP3 ADD MSTORE PUSH1 0x64 ADD PUSH2 0x6F5 JUMP JUMPDEST PUSH1 0x6 DUP4 MLOAD GT ISZERO PUSH2 0x132B JUMPI PUSH1 0x40 MLOAD PUSH3 0x461BCD PUSH1 0xE5 SHL DUP2 MSTORE PUSH1 0x20 PUSH1 0x4 DUP3 ADD MSTORE PUSH1 0x2A PUSH1 0x24 DUP3 ADD MSTORE PUSH32 0x456C656374696F6E2049442073686F756C642062652036206368617261637465 PUSH1 0x44 DUP3 ADD MSTORE PUSH10 0x7273206F72206C657373 PUSH1 0xB0 SHL PUSH1 0x64 DUP3 ADD MSTORE PUSH1 0x84 ADD PUSH2 0x6F5 JUMP JUMPDEST PUSH1 0x1 DUP3 MLOAD GT PUSH2 0x137C JUMPI PUSH1 0x40 MLOAD PUSH3 0x461BCD PUSH1 0xE5 SHL DUP2 MSTORE PUSH1 0x20 PUSH1 0x4 DUP3 ADD MSTORE PUSH1 0x1C PUSH1 0x24 DUP3 ADD MSTORE PUSH32 0x456C656374696F6E206E616D652063616E277420626520656D70747900000000 PUSH1 0x44 DUP3 ADD MSTORE PUSH1 0x64 ADD PUSH2 0x6F5 JUMP JUMPDEST PUSH1 0xF DUP3 MLOAD GT ISZERO PUSH2 0x13E4 JUMPI PUSH1 0x40 MLOAD PUSH3 0x461BCD PUSH1 0xE5 SHL DUP2 MSTORE PUSH1 0x20 PUSH1 0x4 DUP3 ADD MSTORE PUSH1 0x2D PUSH1 0x24 DUP3 ADD MSTORE PUSH32 0x456C656374696F6E206E616D652073686F756C64206265203135206368617261 PUSH1 0x44 DUP3 ADD MSTORE PUSH13 0x6374657273206F72206C657373 PUSH1 0x98 SHL PUSH1 0x64 DUP3 ADD MSTORE PUSH1 0x84 ADD PUSH2 0x6F5 JUMP JUMPDEST PUSH1 0x1 SLOAD PUSH4 0xFFFFFFFF PUSH1 0x1 PUSH1 0xE0 SHL DUP3 DIV DUP2 AND PUSH1 0x1 PUSH1 0xA0 SHL SWAP1 SWAP3 DIV AND LT PUSH2 0x144B JUMPI PUSH1 0x40 MLOAD PUSH3 0x461BCD PUSH1 0xE5 SHL DUP2 MSTORE PUSH1 0x20 PUSH1 0x4 DUP3 ADD MSTORE PUSH1 0x1E PUSH1 0x24 DUP3 ADD MSTORE PUSH32 0x4D6178696D756D206576656E7473206372656174656420726561636865640000 PUSH1 0x44 DUP3 ADD MSTORE PUSH1 0x64 ADD PUSH2 0x6F5 JUMP JUMPDEST PUSH1 0x1 SLOAD PUSH1 0x1 PUSH1 0xA0 SHL SWAP1 DIV PUSH4 0xFFFFFFFF AND PUSH1 0x0 SWAP1 DUP2 MSTORE PUSH1 0xA PUSH1 0x20 SWAP1 DUP2 MSTORE PUSH1 0x40 DUP3 KECCAK256 DUP6 MLOAD SWAP1 SWAP2 PUSH2 0x147D SWAP2 DUP4 SWAP2 DUP9 ADD SWAP1 PUSH2 0x1C0C JUMP JUMPDEST POP DUP6 MLOAD PUSH2 0x1493 SWAP1 PUSH1 0x1 DUP4 ADD SWAP1 PUSH1 0x20 DUP10 ADD SWAP1 PUSH2 0x1C0C JUMP JUMPDEST POP DUP4 MLOAD PUSH2 0x14A9 SWAP1 PUSH1 0x2 DUP4 ADD SWAP1 PUSH1 0x20 DUP8 ADD SWAP1 PUSH2 0x1C0C JUMP JUMPDEST POP PUSH1 0x3 DUP2 ADD DUP1 SLOAD DUP4 SWAP2 SWAP1 PUSH3 0xFF0000 NOT AND PUSH3 0x10000 DUP4 PUSH1 0x2 DUP2 GT ISZERO PUSH2 0x14CF JUMPI PUSH2 0x14CF PUSH2 0x1EB5 JUMP JUMPDEST MUL OR SWAP1 SSTORE POP PUSH1 0x3 DUP2 ADD DUP1 SLOAD PUSH1 0xFF NOT AND PUSH1 0xFF DUP6 AND OR SWAP1 SSTORE PUSH1 0x40 MLOAD PUSH1 0x5 SWAP1 PUSH2 0x14F6 SWAP1 DUP9 SWAP1 PUSH2 0x22C6 JUMP JUMPDEST SWAP1 DUP2 MSTORE PUSH1 0x40 MLOAD SWAP1 DUP2 SWAP1 SUB PUSH1 0x20 ADD SWAP1 KECCAK256 PUSH1 0x2 ADD DUP1 SLOAD PUSH2 0xFFFF PUSH2 0x100 SWAP1 SWAP2 DIV AND SWAP1 PUSH1 0x1 PUSH2 0x1520 DUP4 PUSH2 0x233E JUMP JUMPDEST DUP3 SLOAD PUSH2 0xFFFF SWAP2 DUP3 AND PUSH2 0x100 SWAP4 SWAP1 SWAP4 EXP SWAP3 DUP4 MUL SWAP2 SWAP1 SWAP3 MUL NOT SWAP1 SWAP2 AND OR SWAP1 SSTORE POP PUSH1 0x1 DUP1 SLOAD PUSH4 0xFFFFFFFF PUSH1 0x1 PUSH1 0xA0 SHL SWAP1 SWAP2 DIV AND SWAP1 PUSH1 0x14 PUSH2 0x155C DUP4 PUSH2 0x2356 JUMP JUMPDEST SWAP2 SWAP1 PUSH2 0x100 EXP DUP2 SLOAD DUP2 PUSH4 0xFFFFFFFF MUL NOT AND SWAP1 DUP4 PUSH4 0xFFFFFFFF AND MUL OR SWAP1 SSTORE POP POP POP POP POP POP POP POP JUMP JUMPDEST PUSH1 0x4 DUP3 PUSH1 0x40 MLOAD PUSH2 0x1593 SWAP2 SWAP1 PUSH2 0x22C6 JUMP JUMPDEST SWAP1 DUP2 MSTORE PUSH1 0x40 MLOAD SWAP1 DUP2 SWAP1 SUB PUSH1 0x20 ADD SWAP1 KECCAK256 SLOAD PUSH1 0xFF AND ISZERO PUSH2 0x15FE JUMPI PUSH1 0x40 MLOAD PUSH3 0x461BCD PUSH1 0xE5 SHL DUP2 MSTORE PUSH1 0x20 PUSH1 0x4 DUP3 ADD MSTORE PUSH1 0x22 PUSH1 0x24 DUP3 ADD MSTORE PUSH32 0x4F7267616E697A6174696F6E20494420616C7265616479207265676973746572 PUSH1 0x44 DUP3 ADD MSTORE PUSH2 0x1959 PUSH1 0xF2 SHL PUSH1 0x64 DUP3 ADD MSTORE PUSH1 0x84 ADD PUSH2 0x6F5 JUMP JUMPDEST PUSH1 0x4 DUP4 PUSH1 0x40 MLOAD PUSH2 0x160E SWAP2 SWAP1 PUSH2 0x22C6 JUMP JUMPDEST SWAP1 DUP2 MSTORE PUSH1 0x40 MLOAD SWAP1 DUP2 SWAP1 SUB PUSH1 0x20 ADD SWAP1 KECCAK256 SLOAD PUSH1 0xFF AND ISZERO PUSH2 0x167A JUMPI PUSH1 0x40 MLOAD PUSH3 0x461BCD PUSH1 0xE5 SHL DUP2 MSTORE PUSH1 0x20 PUSH1 0x4 DUP3 ADD MSTORE PUSH1 0x24 DUP1 DUP3 ADD MSTORE PUSH32 0x4F7267616E697A6174696F6E204E616D6520616C726561647920726567697374 PUSH1 0x44 DUP3 ADD MSTORE PUSH4 0x195C9959 PUSH1 0xE2 SHL PUSH1 0x64 DUP3 ADD MSTORE PUSH1 0x84 ADD PUSH2 0x6F5 JUMP JUMPDEST PUSH1 0x1 DUP4 MLOAD GT PUSH2 0x16CB JUMPI PUSH1 0x40 MLOAD PUSH3 0x461BCD PUSH1 0xE5 SHL DUP2 MSTORE PUSH1 0x20 PUSH1 0x4 DUP3 ADD DUP2 SWAP1 MSTORE PUSH1 0x24 DUP3 ADD MSTORE PUSH32 0x4F7267616E697A6174696F6E206E616D652063616E277420626520656D707479 PUSH1 0x44 DUP3 ADD MSTORE PUSH1 0x64 ADD PUSH2 0x6F5 JUMP JUMPDEST PUSH1 0xC DUP4 MLOAD GT ISZERO PUSH2 0x1737 JUMPI PUSH1 0x40 MLOAD PUSH3 0x461BCD PUSH1 0xE5 SHL DUP2 MSTORE PUSH1 0x20 PUSH1 0x4 DUP3 ADD MSTORE PUSH1 0x31 PUSH1 0x24 DUP3 ADD MSTORE PUSH32 0x4F7267616E697A6174696F6E206E616D652073686F756C642062652031322063 PUSH1 0x44 DUP3 ADD MSTORE PUSH17 0x686172616374657273206F72206C657373 PUSH1 0x78 SHL PUSH1 0x64 DUP3 ADD MSTORE PUSH1 0x84 ADD PUSH2 0x6F5 JUMP JUMPDEST PUSH1 0x1 DUP3 MLOAD GT PUSH2 0x1788 JUMPI PUSH1 0x40 MLOAD PUSH3 0x461BCD PUSH1 0xE5 SHL DUP2 MSTORE PUSH1 0x20 PUSH1 0x4 DUP3 ADD MSTORE PUSH1 0x1E PUSH1 0x24 DUP3 ADD MSTORE PUSH32 0x4F7267616E697A6174696F6E2049442063616E277420626520656D7074790000 PUSH1 0x44 DUP3 ADD MSTORE PUSH1 0x64 ADD PUSH2 0x6F5 JUMP JUMPDEST PUSH1 0x4 DUP3 MLOAD GT ISZERO PUSH2 0x17F1 JUMPI PUSH1 0x40 MLOAD PUSH3 0x461BCD PUSH1 0xE5 SHL DUP2 MSTORE PUSH1 0x20 PUSH1 0x4 DUP3 ADD MSTORE PUSH1 0x2E PUSH1 0x24 DUP3 ADD MSTORE PUSH32 0x4F7267616E697A6174696F6E2049442073686F756C6420626520342063686172 PUSH1 0x44 DUP3 ADD MSTORE PUSH14 0x616374657273206F72206C657373 PUSH1 0x90 SHL PUSH1 0x64 DUP3 ADD MSTORE PUSH1 0x84 ADD PUSH2 0x6F5 JUMP JUMPDEST PUSH1 0x0 PUSH1 0x40 MLOAD DUP1 PUSH1 0xC0 ADD PUSH1 0x40 MSTORE DUP1 DUP6 DUP2 MSTORE PUSH1 0x20 ADD DUP5 DUP2 MSTORE PUSH1 0x20 ADD DUP4 PUSH1 0x2 DUP2 GT ISZERO PUSH2 0x181C JUMPI PUSH2 0x181C PUSH2 0x1EB5 JUMP JUMPDEST DUP2 MSTORE PUSH1 0x0 PUSH1 0x20 DUP1 DUP4 ADD DUP3 SWAP1 MSTORE PUSH1 0x40 DUP1 DUP5 ADD DUP4 SWAP1 MSTORE DUP1 MLOAD SWAP3 DUP4 MSTORE SWAP1 DUP3 ADD DUP2 MSTORE PUSH1 0x60 SWAP1 SWAP3 ADD MSTORE MLOAD SWAP1 SWAP2 POP DUP2 SWAP1 PUSH1 0x5 SWAP1 PUSH2 0x1854 SWAP1 DUP7 SWAP1 PUSH2 0x22C6 JUMP JUMPDEST SWAP1 DUP2 MSTORE PUSH1 0x20 ADD PUSH1 0x40 MLOAD DUP1 SWAP2 SUB SWAP1 KECCAK256 PUSH1 0x0 DUP3 ADD MLOAD DUP2 PUSH1 0x0 ADD SWAP1 DUP1 MLOAD SWAP1 PUSH1 0x20 ADD SWAP1 PUSH2 0x187E SWAP3 SWAP2 SWAP1 PUSH2 0x1C0C JUMP JUMPDEST POP PUSH1 0x20 DUP3 DUP2 ADD MLOAD DUP1 MLOAD PUSH2 0x1897 SWAP3 PUSH1 0x1 DUP6 ADD SWAP3 ADD SWAP1 PUSH2 0x1C0C JUMP JUMPDEST POP PUSH1 0x40 DUP3 ADD MLOAD DUP2 PUSH1 0x2 ADD PUSH1 0x0 PUSH2 0x100 EXP DUP2 SLOAD DUP2 PUSH1 0xFF MUL NOT AND SWAP1 DUP4 PUSH1 0x2 DUP2 GT ISZERO PUSH2 0x18C2 JUMPI PUSH2 0x18C2 PUSH2 0x1EB5 JUMP JUMPDEST MUL OR SWAP1 SSTORE POP PUSH1 0x60 DUP3 ADD MLOAD PUSH1 0x2 DUP3 ADD DUP1 SLOAD PUSH1 0x80 DUP6 ADD MLOAD PUSH6 0xFFFFFFFFFFFF AND PUSH4 0x1000000 MUL PUSH9 0xFFFFFFFFFFFF000000 NOT PUSH2 0xFFFF SWAP1 SWAP5 AND PUSH2 0x100 MUL SWAP4 SWAP1 SWAP4 AND PUSH9 0xFFFFFFFFFFFFFFFF00 NOT SWAP1 SWAP2 AND OR SWAP2 SWAP1 SWAP2 OR SWAP1 SSTORE PUSH1 0xA0 DUP3 ADD MLOAD DUP1 MLOAD PUSH2 0x192E SWAP2 PUSH1 0x3 DUP5 ADD SWAP2 PUSH1 0x20 SWAP1 SWAP2 ADD SWAP1 PUSH2 0x1C90 JUMP JUMPDEST POP SWAP1 POP POP PUSH1 0x1 PUSH1 0x4 DUP5 PUSH1 0x40 MLOAD PUSH2 0x1944 SWAP2 SWAP1 PUSH2 0x22C6 JUMP JUMPDEST SWAP1 DUP2 MSTORE PUSH1 0x40 MLOAD SWAP1 DUP2 SWAP1 SUB PUSH1 0x20 ADD DUP2 KECCAK256 DUP1 SLOAD SWAP3 ISZERO ISZERO PUSH1 0xFF NOT SWAP1 SWAP4 AND SWAP3 SWAP1 SWAP3 OR SWAP1 SWAP2 SSTORE PUSH1 0x1 SWAP1 PUSH1 0x4 SWAP1 PUSH2 0x1976 SWAP1 DUP8 SWAP1 PUSH2 0x22C6 JUMP JUMPDEST SWAP1 DUP2 MSTORE PUSH1 0x40 MLOAD SWAP1 DUP2 SWAP1 SUB PUSH1 0x20 ADD SWAP1 KECCAK256 DUP1 SLOAD SWAP2 ISZERO ISZERO PUSH1 0xFF NOT SWAP1 SWAP3 AND SWAP2 SWAP1 SWAP2 OR SWAP1 SSTORE PUSH1 0x1 DUP1 SLOAD PUSH4 0xFFFFFFFF PUSH1 0x1 PUSH1 0xC0 SHL SWAP1 SWAP2 DIV AND SWAP1 PUSH1 0x18 PUSH2 0x19B4 DUP4 PUSH2 0x2356 JUMP JUMPDEST SWAP2 SWAP1 PUSH2 0x100 EXP DUP2 SLOAD DUP2 PUSH4 0xFFFFFFFF MUL NOT AND SWAP1 DUP4 PUSH4 0xFFFFFFFF AND MUL OR SWAP1 SSTORE POP POP PUSH1 0x9 DUP5 PUSH1 0x40 MLOAD PUSH2 0x19E3 SWAP2 SWAP1 PUSH2 0x22C6 JUMP JUMPDEST SWAP1 DUP2 MSTORE PUSH1 0x40 MLOAD SWAP1 DUP2 SWAP1 SUB PUSH1 0x20 SWAP1 DUP2 ADD SWAP1 SWAP2 KECCAK256 DUP1 SLOAD PUSH1 0x1 DUP2 ADD DUP3 SSTORE PUSH1 0x0 SWAP2 DUP3 MSTORE SWAP2 SWAP1 KECCAK256 ADD DUP1 SLOAD PUSH1 0x1 PUSH1 0x1 PUSH1 0xA0 SHL SUB NOT AND CALLER OR SWAP1 SSTORE POP POP POP POP JUMP JUMPDEST PUSH1 0x1 PUSH1 0x1 PUSH1 0xA0 SHL SUB DUP3 AND PUSH1 0x0 SWAP1 DUP2 MSTORE PUSH1 0x3 PUSH1 0x20 MSTORE PUSH1 0x40 DUP2 KECCAK256 SLOAD PUSH1 0xFF AND ISZERO PUSH2 0x1B37 JUMPI PUSH1 0x1 PUSH1 0x1 PUSH1 0xA0 SHL SUB DUP4 AND PUSH1 0x0 SWAP1 DUP2 MSTORE PUSH1 0x7 PUSH1 0x20 MSTORE PUSH1 0x40 DUP2 KECCAK256 DUP1 SLOAD PUSH2 0x1A60 SWAP1 PUSH2 0x228B JUMP JUMPDEST DUP1 PUSH1 0x1F ADD PUSH1 0x20 DUP1 SWAP2 DIV MUL PUSH1 0x20 ADD PUSH1 0x40 MLOAD SWAP1 DUP2 ADD PUSH1 0x40 MSTORE DUP1 SWAP3 SWAP2 SWAP1 DUP2 DUP2 MSTORE PUSH1 0x20 ADD DUP3 DUP1 SLOAD PUSH2 0x1A8C SWAP1 PUSH2 0x228B JUMP JUMPDEST DUP1 ISZERO PUSH2 0x1AD9 JUMPI DUP1 PUSH1 0x1F LT PUSH2 0x1AAE JUMPI PUSH2 0x100 DUP1 DUP4 SLOAD DIV MUL DUP4 MSTORE SWAP2 PUSH1 0x20 ADD SWAP2 PUSH2 0x1AD9 JUMP JUMPDEST DUP3 ADD SWAP2 SWAP1 PUSH1 0x0 MSTORE PUSH1 0x20 PUSH1 0x0 KECCAK256 SWAP1 JUMPDEST DUP2 SLOAD DUP2 MSTORE SWAP1 PUSH1 0x1 ADD SWAP1 PUSH1 0x20 ADD DUP1 DUP4 GT PUSH2 0x1ABC JUMPI DUP3 SWAP1 SUB PUSH1 0x1F AND DUP3 ADD SWAP2 JUMPDEST POP POP POP POP POP SWAP1 POP DUP3 PUSH1 0x40 MLOAD PUSH1 0x20 ADD PUSH2 0x1AF1 SWAP2 SWAP1 PUSH2 0x22C6 JUMP JUMPDEST PUSH1 0x40 MLOAD PUSH1 0x20 DUP2 DUP4 SUB SUB DUP2 MSTORE SWAP1 PUSH1 0x40 MSTORE DUP1 MLOAD SWAP1 PUSH1 0x20 ADD KECCAK256 DUP2 PUSH1 0x40 MLOAD PUSH1 0x20 ADD PUSH2 0x1B18 SWAP2 SWAP1 PUSH2 0x22C6 JUMP JUMPDEST PUSH1 0x40 MLOAD PUSH1 0x20 DUP2 DUP4 SUB SUB DUP2 MSTORE SWAP1 PUSH1 0x40 MSTORE DUP1 MLOAD SWAP1 PUSH1 0x20 ADD KECCAK256 EQ SWAP2 POP POP PUSH2 0x1B3B JUMP JUMPDEST POP PUSH1 0x0 JUMPDEST SWAP3 SWAP2 POP POP JUMP JUMPDEST PUSH1 0x0 DUP2 DUP2 JUMPDEST DUP2 MLOAD DUP2 LT ISZERO PUSH2 0x1C02 JUMPI PUSH1 0x41 DUP3 DUP3 DUP2 MLOAD DUP2 LT PUSH2 0x1B63 JUMPI PUSH2 0x1B63 PUSH2 0x2370 JUMP JUMPDEST ADD PUSH1 0x20 ADD MLOAD PUSH1 0xF8 SHR LT DUP1 ISZERO SWAP1 PUSH2 0x1B93 JUMPI POP PUSH1 0x5A DUP3 DUP3 DUP2 MLOAD DUP2 LT PUSH2 0x1B88 JUMPI PUSH2 0x1B88 PUSH2 0x2370 JUMP JUMPDEST ADD PUSH1 0x20 ADD MLOAD PUSH1 0xF8 SHR GT ISZERO JUMPDEST ISZERO DUP1 ISZERO PUSH2 0x1BE1 JUMPI POP PUSH1 0x61 DUP3 DUP3 DUP2 MLOAD DUP2 LT PUSH2 0x1BAF JUMPI PUSH2 0x1BAF PUSH2 0x2370 JUMP JUMPDEST ADD PUSH1 0x20 ADD MLOAD PUSH1 0xF8 SHR LT DUP1 ISZERO SWAP1 PUSH2 0x1BDF JUMPI POP PUSH1 0x7A DUP3 DUP3 DUP2 MLOAD DUP2 LT PUSH2 0x1BD4 JUMPI PUSH2 0x1BD4 PUSH2 0x2370 JUMP JUMPDEST ADD PUSH1 0x20 ADD MLOAD PUSH1 0xF8 SHR GT ISZERO JUMPDEST ISZERO JUMPDEST ISZERO PUSH2 0x1BF0 JUMPI POP PUSH1 0x0 SWAP4 SWAP3 POP POP POP JUMP JUMPDEST DUP1 PUSH2 0x1BFA DUP2 PUSH2 0x2386 JUMP JUMPDEST SWAP2 POP POP PUSH2 0x1B46 JUMP JUMPDEST POP PUSH1 0x1 SWAP4 SWAP3 POP POP POP JUMP JUMPDEST DUP3 DUP1 SLOAD PUSH2 0x1C18 SWAP1 PUSH2 0x228B JUMP JUMPDEST SWAP1 PUSH1 0x0 MSTORE PUSH1 0x20 PUSH1 0x0 KECCAK256 SWAP1 PUSH1 0x1F ADD PUSH1 0x20 SWAP1 DIV DUP2 ADD SWAP3 DUP3 PUSH2 0x1C3A JUMPI PUSH1 0x0 DUP6 SSTORE PUSH2 0x1C80 JUMP JUMPDEST DUP3 PUSH1 0x1F LT PUSH2 0x1C53 JUMPI DUP1 MLOAD PUSH1 0xFF NOT AND DUP4 DUP1 ADD OR DUP6 SSTORE PUSH2 0x1C80 JUMP JUMPDEST DUP3 DUP1 ADD PUSH1 0x1 ADD DUP6 SSTORE DUP3 ISZERO PUSH2 0x1C80 JUMPI SWAP2 DUP3 ADD JUMPDEST DUP3 DUP2 GT ISZERO PUSH2 0x1C80 JUMPI DUP3 MLOAD DUP3 SSTORE SWAP2 PUSH1 0x20 ADD SWAP2 SWAP1 PUSH1 0x1 ADD SWAP1 PUSH2 0x1C65 JUMP JUMPDEST POP PUSH2 0x1C8C SWAP3 SWAP2 POP PUSH2 0x1CE5 JUMP JUMPDEST POP SWAP1 JUMP JUMPDEST DUP3 DUP1 SLOAD DUP3 DUP3 SSTORE SWAP1 PUSH1 0x0 MSTORE PUSH1 0x20 PUSH1 0x0 KECCAK256 SWAP1 DUP2 ADD SWAP3 DUP3 ISZERO PUSH2 0x1C80 JUMPI SWAP2 PUSH1 0x20 MUL DUP3 ADD JUMPDEST DUP3 DUP2 GT ISZERO PUSH2 0x1C80 JUMPI DUP3 MLOAD DUP3 SLOAD PUSH1 0x1 PUSH1 0x1 PUSH1 0xA0 SHL SUB NOT AND PUSH1 0x1 PUSH1 0x1 PUSH1 0xA0 SHL SUB SWAP1 SWAP2 AND OR DUP3 SSTORE PUSH1 0x20 SWAP1 SWAP3 ADD SWAP2 PUSH1 0x1 SWAP1 SWAP2 ADD SWAP1 PUSH2 0x1CB0 JUMP JUMPDEST JUMPDEST DUP1 DUP3 GT ISZERO PUSH2 0x1C8C JUMPI PUSH1 0x0 DUP2 SSTORE PUSH1 0x1 ADD PUSH2 0x1CE6 JUMP JUMPDEST PUSH1 0x0 PUSH1 0x20 DUP3 DUP5 SUB SLT ISZERO PUSH2 0x1D0C JUMPI PUSH1 0x0 DUP1 REVERT JUMPDEST DUP2 CALLDATALOAD PUSH1 0x1 PUSH1 0x1 PUSH1 0xA0 SHL SUB DUP2 AND DUP2 EQ PUSH2 0x1D23 JUMPI PUSH1 0x0 DUP1 REVERT JUMPDEST SWAP4 SWAP3 POP POP POP JUMP JUMPDEST PUSH1 0x0 JUMPDEST DUP4 DUP2 LT ISZERO PUSH2 0x1D45 JUMPI DUP2 DUP2 ADD MLOAD DUP4 DUP3 ADD MSTORE PUSH1 0x20 ADD PUSH2 0x1D2D JUMP JUMPDEST DUP4 DUP2 GT ISZERO PUSH2 0x1D54 JUMPI PUSH1 0x0 DUP5 DUP5 ADD MSTORE JUMPDEST POP POP POP POP JUMP JUMPDEST PUSH1 0x0 DUP2 MLOAD DUP1 DUP5 MSTORE PUSH2 0x1D72 DUP2 PUSH1 0x20 DUP7 ADD PUSH1 0x20 DUP7 ADD PUSH2 0x1D2A JUMP JUMPDEST PUSH1 0x1F ADD PUSH1 0x1F NOT AND SWAP3 SWAP1 SWAP3 ADD PUSH1 0x20 ADD SWAP3 SWAP2 POP POP JUMP JUMPDEST PUSH1 0x20 DUP2 MSTORE PUSH1 0x0 PUSH2 0x1D23 PUSH1 0x20 DUP4 ADD DUP5 PUSH2 0x1D5A JUMP JUMPDEST PUSH4 0x4E487B71 PUSH1 0xE0 SHL PUSH1 0x0 MSTORE PUSH1 0x41 PUSH1 0x4 MSTORE PUSH1 0x24 PUSH1 0x0 REVERT JUMPDEST PUSH1 0x0 DUP3 PUSH1 0x1F DUP4 ADD SLT PUSH2 0x1DC0 JUMPI PUSH1 0x0 DUP1 REVERT JUMPDEST DUP2 CALLDATALOAD PUSH8 0xFFFFFFFFFFFFFFFF DUP1 DUP3 GT ISZERO PUSH2 0x1DDB JUMPI PUSH2 0x1DDB PUSH2 0x1D99 JUMP JUMPDEST PUSH1 0x40 MLOAD PUSH1 0x1F DUP4 ADD PUSH1 0x1F NOT SWAP1 DUP2 AND PUSH1 0x3F ADD AND DUP2 ADD SWAP1 DUP3 DUP3 GT DUP2 DUP4 LT OR ISZERO PUSH2 0x1E03 JUMPI PUSH2 0x1E03 PUSH2 0x1D99 JUMP JUMPDEST DUP2 PUSH1 0x40 MSTORE DUP4 DUP2 MSTORE DUP7 PUSH1 0x20 DUP6 DUP9 ADD ADD GT ISZERO PUSH2 0x1E1C JUMPI PUSH1 0x0 DUP1 REVERT JUMPDEST DUP4 PUSH1 0x20 DUP8 ADD PUSH1 0x20 DUP4 ADD CALLDATACOPY PUSH1 0x0 PUSH1 0x20 DUP6 DUP4 ADD ADD MSTORE DUP1 SWAP5 POP POP POP POP POP SWAP3 SWAP2 POP POP JUMP JUMPDEST PUSH1 0x0 DUP1 PUSH1 0x40 DUP4 DUP6 SUB SLT ISZERO PUSH2 0x1E4F JUMPI PUSH1 0x0 DUP1 REVERT JUMPDEST DUP3 CALLDATALOAD PUSH8 0xFFFFFFFFFFFFFFFF DUP2 GT ISZERO PUSH2 0x1E66 JUMPI PUSH1 0x0 DUP1 REVERT JUMPDEST PUSH2 0x1E72 DUP6 DUP3 DUP7 ADD PUSH2 0x1DAF JUMP JUMPDEST SWAP6 PUSH1 0x20 SWAP5 SWAP1 SWAP5 ADD CALLDATALOAD SWAP5 POP POP POP POP JUMP JUMPDEST DUP1 CALLDATALOAD PUSH4 0xFFFFFFFF DUP2 AND DUP2 EQ PUSH2 0x1E95 JUMPI PUSH1 0x0 DUP1 REVERT JUMPDEST SWAP2 SWAP1 POP JUMP JUMPDEST PUSH1 0x0 PUSH1 0x20 DUP3 DUP5 SUB SLT ISZERO PUSH2 0x1EAC JUMPI PUSH1 0x0 DUP1 REVERT JUMPDEST PUSH2 0x1D23 DUP3 PUSH2 0x1E81 JUMP JUMPDEST PUSH4 0x4E487B71 PUSH1 0xE0 SHL PUSH1 0x0 MSTORE PUSH1 0x21 PUSH1 0x4 MSTORE PUSH1 0x24 PUSH1 0x0 REVERT JUMPDEST PUSH1 0x3 DUP2 LT PUSH2 0x1EE9 JUMPI PUSH4 0x4E487B71 PUSH1 0xE0 SHL PUSH1 0x0 MSTORE PUSH1 0x21 PUSH1 0x4 MSTORE PUSH1 0x24 PUSH1 0x0 REVERT JUMPDEST POP JUMP JUMPDEST PUSH1 0xC0 DUP2 MSTORE PUSH1 0x0 PUSH2 0x1EFF PUSH1 0xC0 DUP4 ADD DUP10 PUSH2 0x1D5A JUMP JUMPDEST DUP3 DUP2 SUB PUSH1 0x20 DUP5 ADD MSTORE PUSH2 0x1F11 DUP2 DUP10 PUSH2 0x1D5A JUMP JUMPDEST SWAP1 POP DUP3 DUP2 SUB PUSH1 0x40 DUP5 ADD MSTORE PUSH2 0x1F25 DUP2 DUP9 PUSH2 0x1D5A JUMP JUMPDEST SWAP2 POP POP PUSH1 0xFF DUP6 AND PUSH1 0x60 DUP4 ADD MSTORE PUSH1 0xFF DUP5 AND PUSH1 0x80 DUP4 ADD MSTORE PUSH2 0x1F43 DUP4 PUSH2 0x1ECB JUMP JUMPDEST DUP3 PUSH1 0xA0 DUP4 ADD MSTORE SWAP8 SWAP7 POP POP POP POP POP POP POP JUMP JUMPDEST PUSH1 0x0 PUSH1 0x20 DUP3 DUP5 SUB SLT ISZERO PUSH2 0x1F66 JUMPI PUSH1 0x0 DUP1 REVERT JUMPDEST DUP2 CALLDATALOAD PUSH8 0xFFFFFFFFFFFFFFFF DUP2 GT ISZERO PUSH2 0x1F7D JUMPI PUSH1 0x0 DUP1 REVERT JUMPDEST PUSH2 0x1F89 DUP5 DUP3 DUP6 ADD PUSH2 0x1DAF JUMP JUMPDEST SWAP5 SWAP4 POP POP POP POP JUMP JUMPDEST PUSH1 0xA0 DUP2 MSTORE PUSH1 0x0 PUSH2 0x1FA4 PUSH1 0xA0 DUP4 ADD DUP9 PUSH2 0x1D5A JUMP JUMPDEST PUSH1 0x20 PUSH2 0x1FAF DUP9 PUSH2 0x1ECB JUMP JUMPDEST DUP4 DUP2 ADD DUP9 SWAP1 MSTORE PUSH6 0xFFFFFFFFFFFF DUP8 AND PUSH1 0x40 DUP6 ADD MSTORE PUSH2 0xFFFF DUP7 AND PUSH1 0x60 DUP6 ADD MSTORE DUP4 DUP3 SUB PUSH1 0x80 DUP6 ADD MSTORE DUP5 MLOAD DUP1 DUP4 MSTORE DUP6 DUP3 ADD SWAP3 DUP3 ADD SWAP1 PUSH1 0x0 JUMPDEST DUP2 DUP2 LT ISZERO PUSH2 0x2009 JUMPI DUP5 MLOAD PUSH1 0x1 PUSH1 0x1 PUSH1 0xA0 SHL SUB AND DUP4 MSTORE SWAP4 DUP4 ADD SWAP4 SWAP2 DUP4 ADD SWAP2 PUSH1 0x1 ADD PUSH2 0x1FE4 JUMP JUMPDEST POP SWAP1 SWAP11 SWAP10 POP POP POP POP POP POP POP POP POP POP JUMP JUMPDEST PUSH1 0x0 DUP1 PUSH1 0x40 DUP4 DUP6 SUB SLT ISZERO PUSH2 0x202C JUMPI PUSH1 0x0 DUP1 REVERT JUMPDEST PUSH2 0x2035 DUP4 PUSH2 0x1E81 JUMP JUMPDEST SWAP2 POP PUSH1 0x20 DUP4 ADD CALLDATALOAD PUSH8 0xFFFFFFFFFFFFFFFF DUP2 GT ISZERO PUSH2 0x2051 JUMPI PUSH1 0x0 DUP1 REVERT JUMPDEST PUSH2 0x205D DUP6 DUP3 DUP7 ADD PUSH2 0x1DAF JUMP JUMPDEST SWAP2 POP POP SWAP3 POP SWAP3 SWAP1 POP JUMP JUMPDEST PUSH1 0x40 DUP2 MSTORE PUSH1 0x0 PUSH2 0x207A PUSH1 0x40 DUP4 ADD DUP6 PUSH2 0x1D5A JUMP JUMPDEST DUP3 DUP2 SUB PUSH1 0x20 DUP5 ADD MSTORE PUSH2 0x208C DUP2 DUP6 PUSH2 0x1D5A JUMP JUMPDEST SWAP6 SWAP5 POP POP POP POP POP JUMP JUMPDEST PUSH6 0xFFFFFFFFFFFF DUP7 AND DUP2 MSTORE PUSH1 0x1 PUSH1 0x1 PUSH1 0xA0 SHL SUB DUP6 AND PUSH1 0x20 DUP3 ADD MSTORE PUSH1 0xA0 PUSH1 0x40 DUP3 ADD DUP2 SWAP1 MSTORE PUSH1 0x0 SWAP1 PUSH2 0x20C7 SWAP1 DUP4 ADD DUP7 PUSH2 0x1D5A JUMP JUMPDEST DUP5 ISZERO ISZERO PUSH1 0x60 DUP5 ADD MSTORE DUP3 DUP2 SUB PUSH1 0x80 DUP5 ADD MSTORE PUSH2 0x20E1 DUP2 DUP6 PUSH2 0x1D5A JUMP JUMPDEST SWAP9 SWAP8 POP POP POP POP POP POP POP POP JUMP JUMPDEST PUSH1 0x0 PUSH1 0x20 DUP3 DUP5 SUB SLT ISZERO PUSH2 0x20FF JUMPI PUSH1 0x0 DUP1 REVERT JUMPDEST DUP2 CALLDATALOAD PUSH6 0xFFFFFFFFFFFF DUP2 AND DUP2 EQ PUSH2 0x1D23 JUMPI PUSH1 0x0 DUP1 REVERT JUMPDEST PUSH1 0xA0 DUP2 MSTORE PUSH1 0x0 PUSH2 0x2128 PUSH1 0xA0 DUP4 ADD DUP9 PUSH2 0x1D5A JUMP JUMPDEST DUP3 DUP2 SUB PUSH1 0x20 DUP5 ADD MSTORE PUSH2 0x213A DUP2 DUP9 PUSH2 0x1D5A JUMP JUMPDEST SWAP2 POP POP PUSH2 0x2146 DUP6 PUSH2 0x1ECB JUMP JUMPDEST DUP5 PUSH1 0x40 DUP4 ADD MSTORE PUSH2 0xFFFF DUP5 AND PUSH1 0x60 DUP4 ADD MSTORE PUSH6 0xFFFFFFFFFFFF DUP4 AND PUSH1 0x80 DUP4 ADD MSTORE SWAP7 SWAP6 POP POP POP POP POP POP JUMP JUMPDEST PUSH1 0x0 DUP1 PUSH1 0x0 DUP1 PUSH1 0x80 DUP6 DUP8 SUB SLT ISZERO PUSH2 0x2184 JUMPI PUSH1 0x0 DUP1 REVERT JUMPDEST DUP5 CALLDATALOAD PUSH8 0xFFFFFFFFFFFFFFFF DUP1 DUP3 GT ISZERO PUSH2 0x219C JUMPI PUSH1 0x0 DUP1 REVERT JUMPDEST PUSH2 0x21A8 DUP9 DUP4 DUP10 ADD PUSH2 0x1DAF JUMP JUMPDEST SWAP6 POP PUSH1 0x20 DUP8 ADD CALLDATALOAD SWAP2 POP DUP1 DUP3 GT ISZERO PUSH2 0x21BE JUMPI PUSH1 0x0 DUP1 REVERT JUMPDEST PUSH2 0x21CA DUP9 DUP4 DUP10 ADD PUSH2 0x1DAF JUMP JUMPDEST SWAP5 POP PUSH1 0x40 DUP8 ADD CALLDATALOAD SWAP2 POP DUP1 DUP3 GT ISZERO PUSH2 0x21E0 JUMPI PUSH1 0x0 DUP1 REVERT JUMPDEST POP PUSH2 0x21ED DUP8 DUP3 DUP9 ADD PUSH2 0x1DAF JUMP JUMPDEST SWAP3 POP POP PUSH1 0x60 DUP6 ADD CALLDATALOAD PUSH1 0xFF DUP2 AND DUP2 EQ PUSH2 0x2204 JUMPI PUSH1 0x0 DUP1 REVERT JUMPDEST SWAP4 SWAP7 SWAP3 SWAP6 POP SWAP1 SWAP4 POP POP JUMP JUMPDEST PUSH1 0x0 DUP1 PUSH1 0x0 PUSH1 0x60 DUP5 DUP7 SUB SLT ISZERO PUSH2 0x2224 JUMPI PUSH1 0x0 DUP1 REVERT JUMPDEST DUP4 CALLDATALOAD PUSH8 0xFFFFFFFFFFFFFFFF DUP1 DUP3 GT ISZERO PUSH2 0x223C JUMPI PUSH1 0x0 DUP1 REVERT JUMPDEST PUSH2 0x2248 DUP8 DUP4 DUP9 ADD PUSH2 0x1DAF JUMP JUMPDEST SWAP5 POP PUSH1 0x20 DUP7 ADD CALLDATALOAD SWAP2 POP DUP1 DUP3 GT ISZERO PUSH2 0x225E JUMPI PUSH1 0x0 DUP1 REVERT JUMPDEST POP PUSH2 0x226B DUP7 DUP3 DUP8 ADD PUSH2 0x1DAF JUMP JUMPDEST SWAP3 POP POP PUSH1 0x40 DUP5 ADD CALLDATALOAD PUSH1 0x3 DUP2 LT PUSH2 0x2280 JUMPI PUSH1 0x0 DUP1 REVERT JUMPDEST DUP1 SWAP2 POP POP SWAP3 POP SWAP3 POP SWAP3 JUMP JUMPDEST PUSH1 0x1 DUP2 DUP2 SHR SWAP1 DUP3 AND DUP1 PUSH2 0x229F JUMPI PUSH1 0x7F DUP3 AND SWAP2 POP JUMPDEST PUSH1 0x20 DUP3 LT DUP2 EQ ISZERO PUSH2 0x22C0 JUMPI PUSH4 0x4E487B71 PUSH1 0xE0 SHL PUSH1 0x0 MSTORE PUSH1 0x22 PUSH1 0x4 MSTORE PUSH1 0x24 PUSH1 0x0 REVERT JUMPDEST POP SWAP2 SWAP1 POP JUMP JUMPDEST PUSH1 0x0 DUP3 MLOAD PUSH2 0x22D8 DUP2 DUP5 PUSH1 0x20 DUP8 ADD PUSH2 0x1D2A JUMP JUMPDEST SWAP2 SWAP1 SWAP2 ADD SWAP3 SWAP2 POP POP JUMP JUMPDEST PUSH4 0x4E487B71 PUSH1 0xE0 SHL PUSH1 0x0 MSTORE PUSH1 0x11 PUSH1 0x4 MSTORE PUSH1 0x24 PUSH1 0x0 REVERT JUMPDEST PUSH1 0x0 PUSH1 0xFF DUP3 AND PUSH1 0xFF DUP2 EQ ISZERO PUSH2 0x230F JUMPI PUSH2 0x230F PUSH2 0x22E2 JUMP JUMPDEST PUSH1 0x1 ADD SWAP3 SWAP2 POP POP JUMP JUMPDEST PUSH1 0x0 PUSH6 0xFFFFFFFFFFFF DUP1 DUP4 AND DUP2 DUP2 EQ ISZERO PUSH2 0x2334 JUMPI PUSH2 0x2334 PUSH2 0x22E2 JUMP JUMPDEST PUSH1 0x1 ADD SWAP4 SWAP3 POP POP POP JUMP JUMPDEST PUSH1 0x0 PUSH2 0xFFFF DUP1 DUP4 AND DUP2 DUP2 EQ ISZERO PUSH2 0x2334 JUMPI PUSH2 0x2334 PUSH2 0x22E2 JUMP JUMPDEST PUSH1 0x0 PUSH4 0xFFFFFFFF DUP1 DUP4 AND DUP2 DUP2 EQ ISZERO PUSH2 0x2334 JUMPI PUSH2 0x2334 PUSH2 0x22E2 JUMP JUMPDEST PUSH4 0x4E487B71 PUSH1 0xE0 SHL PUSH1 0x0 MSTORE PUSH1 0x32 PUSH1 0x4 MSTORE PUSH1 0x24 PUSH1 0x0 REVERT JUMPDEST PUSH1 0x0 PUSH1 0x0 NOT DUP3 EQ ISZERO PUSH2 0x239A JUMPI PUSH2 0x239A PUSH2 0x22E2 JUMP JUMPDEST POP PUSH1 0x1 ADD SWAP1 JUMP INVALID LOG2 PUSH5 0x6970667358 0x22 SLT KECCAK256 COINBASE RETURNDATACOPY 0xBE REVERT DUP9 PUSH15 0xDA44AB90A9F5ADA0274DFCAF934070 0xEC PUSH22 0xE57EB93BEAD4B81A9B64736F6C634300080A00330000 "
				},
				"gasEstimates": {
					"creation": {
						"codeDepositCost": "1835000",
						"executionCost": "50436",
						"totalCost": "1885436"
					},
					"external": {
						"MAX_EVENTS()": "2397",
						"addCandidateToElection(uint32,string)": "infinite",
						"addElectionEvent(string,string,string,uint8)": "infinite",
						"adminToOrganization(address)": "infinite",
						"contractOwner()": "2448",
						"elections(uint32)": "infinite",
						"getAdminOrganization()": "infinite",
						"getOrganization(string)": "infinite",
						"getOrganizationsCount()": "2414",
						"organizationList(string)": "infinite",
						"organizationToAdminAddresses(string,uint256)": "infinite",
						"organizationTotalMembers(string)": "infinite",
						"organizations(string)": "infinite",
						"organizationsCount()": "2375",
						"registerElectionAdmin(string)": "infinite",
						"registerOrganization(string,string,uint8)": "infinite",
						"registeredAdmin(address)": "2608",
						"voters(address)": "infinite",
						"votersCount()": "2358",
						"votersIDExists(uint48)": "2573"
					},
					"internal": {
						"isElectionAdminForOrganization(address,string memory)": "infinite",
						"onlyAlphabetCharacters(string memory)": "infinite"
					}
				},
				"methodIdentifiers": {
					"MAX_EVENTS()": "5ded1bd6",
					"addCandidateToElection(uint32,string)": "4daa8e1d",
					"addElectionEvent(string,string,string,uint8)": "e374c32a",
					"adminToOrganization(address)": "0b2a0904",
					"contractOwner()": "ce606ee0",
					"elections(uint32)": "2c751d30",
					"getAdminOrganization()": "94c04f97",
					"getOrganization(string)": "375aa7e2",
					"getOrganizationsCount()": "7d70cbaf",
					"organizationList(string)": "f96ef609",
					"organizationToAdminAddresses(string,uint256)": "2812ca10",
					"organizationTotalMembers(string)": "6326b8cf",
					"organizations(string)": "e311f43c",
					"organizationsCount()": "59987f91",
					"registerElectionAdmin(string)": "def72ec1",
					"registerOrganization(string,string,uint8)": "f53cbb2d",
					"registeredAdmin(address)": "3c36ffae",
					"voters(address)": "a3ec138d",
					"votersCount()": "98c07938",
					"votersIDExists(uint48)": "a50f9495"
				}
			},
			"storageLayout": {
				"storage": [
					{
						"astId": 12,
						"contract": "DU-vote-v2/contracts/DVote-v2c.sol:Electionv2",
						"label": "contractOwner",
						"offset": 0,
						"slot": "0",
						"type": "t_address"
					},
					{
						"astId": 16,
						"contract": "DU-vote-v2/contracts/DVote-v2c.sol:Electionv2",
						"label": "electionAdmins",
						"offset": 0,
						"slot": "1",
						"type": "t_address"
					},
					{
						"astId": 18,
						"contract": "DU-vote-v2/contracts/DVote-v2c.sol:Electionv2",
						"label": "electionCount",
						"offset": 20,
						"slot": "1",
						"type": "t_uint32"
					},
					{
						"astId": 20,
						"contract": "DU-vote-v2/contracts/DVote-v2c.sol:Electionv2",
						"label": "organizationsCount",
						"offset": 24,
						"slot": "1",
						"type": "t_uint32"
					},
					{
						"astId": 23,
						"contract": "DU-vote-v2/contracts/DVote-v2c.sol:Electionv2",
						"label": "MAX_EVENTS",
						"offset": 28,
						"slot": "1",
						"type": "t_uint32"
					},
					{
						"astId": 25,
						"contract": "DU-vote-v2/contracts/DVote-v2c.sol:Electionv2",
						"label": "votersCount",
						"offset": 0,
						"slot": "2",
						"type": "t_uint48"
					},
					{
						"astId": 29,
						"contract": "DU-vote-v2/contracts/DVote-v2c.sol:Electionv2",
						"label": "registeredAdmin",
						"offset": 0,
						"slot": "3",
						"type": "t_mapping(t_address,t_bool)"
					},
					{
						"astId": 33,
						"contract": "DU-vote-v2/contracts/DVote-v2c.sol:Electionv2",
						"label": "organizationList",
						"offset": 0,
						"slot": "4",
						"type": "t_mapping(t_string_memory_ptr,t_bool)"
					},
					{
						"astId": 38,
						"contract": "DU-vote-v2/contracts/DVote-v2c.sol:Electionv2",
						"label": "organizations",
						"offset": 0,
						"slot": "5",
						"type": "t_mapping(t_string_memory_ptr,t_struct(Organization)100_storage)"
					},
					{
						"astId": 42,
						"contract": "DU-vote-v2/contracts/DVote-v2c.sol:Electionv2",
						"label": "organizationTotalMembers",
						"offset": 0,
						"slot": "6",
						"type": "t_mapping(t_string_memory_ptr,t_uint48)"
					},
					{
						"astId": 46,
						"contract": "DU-vote-v2/contracts/DVote-v2c.sol:Electionv2",
						"label": "adminToOrganization",
						"offset": 0,
						"slot": "7",
						"type": "t_mapping(t_address,t_string_storage)"
					},
					{
						"astId": 51,
						"contract": "DU-vote-v2/contracts/DVote-v2c.sol:Electionv2",
						"label": "organizationToElectionAdmins",
						"offset": 0,
						"slot": "8",
						"type": "t_mapping(t_string_memory_ptr,t_array(t_address)dyn_storage)"
					},
					{
						"astId": 56,
						"contract": "DU-vote-v2/contracts/DVote-v2c.sol:Electionv2",
						"label": "organizationToAdminAddresses",
						"offset": 0,
						"slot": "9",
						"type": "t_mapping(t_string_memory_ptr,t_array(t_address)dyn_storage)"
					},
					{
						"astId": 61,
						"contract": "DU-vote-v2/contracts/DVote-v2c.sol:Electionv2",
						"label": "elections",
						"offset": 0,
						"slot": "10",
						"type": "t_mapping(t_uint32,t_struct(ElectionDetail)114_storage)"
					},
					{
						"astId": 66,
						"contract": "DU-vote-v2/contracts/DVote-v2c.sol:Electionv2",
						"label": "voters",
						"offset": 0,
						"slot": "11",
						"type": "t_mapping(t_address,t_struct(Voter)135_storage)"
					},
					{
						"astId": 70,
						"contract": "DU-vote-v2/contracts/DVote-v2c.sol:Electionv2",
						"label": "votersIDExists",
						"offset": 0,
						"slot": "12",
						"type": "t_mapping(t_uint48,t_bool)"
					}
				],
				"types": {
					"t_address": {
						"encoding": "inplace",
						"label": "address",
						"numberOfBytes": "20"
					},
					"t_array(t_address)dyn_storage": {
						"base": "t_address",
						"encoding": "dynamic_array",
						"label": "address[]",
						"numberOfBytes": "32"
					},
					"t_array(t_string_storage)dyn_storage": {
						"base": "t_string_storage",
						"encoding": "dynamic_array",
						"label": "string[]",
						"numberOfBytes": "32"
					},
					"t_bool": {
						"encoding": "inplace",
						"label": "bool",
						"numberOfBytes": "1"
					},
					"t_enum(ElectionStatus)74": {
						"encoding": "inplace",
						"label": "enum Electionv2.ElectionStatus",
						"numberOfBytes": "1"
					},
					"t_enum(OrganizationType)78": {
						"encoding": "inplace",
						"label": "enum Electionv2.OrganizationType",
						"numberOfBytes": "1"
					},
					"t_mapping(t_address,t_bool)": {
						"encoding": "mapping",
						"key": "t_address",
						"label": "mapping(address => bool)",
						"numberOfBytes": "32",
						"value": "t_bool"
					},
					"t_mapping(t_address,t_string_storage)": {
						"encoding": "mapping",
						"key": "t_address",
						"label": "mapping(address => string)",
						"numberOfBytes": "32",
						"value": "t_string_storage"
					},
					"t_mapping(t_address,t_struct(Voter)135_storage)": {
						"encoding": "mapping",
						"key": "t_address",
						"label": "mapping(address => struct Electionv2.Voter)",
						"numberOfBytes": "32",
						"value": "t_struct(Voter)135_storage"
					},
					"t_mapping(t_string_memory_ptr,t_array(t_address)dyn_storage)": {
						"encoding": "mapping",
						"key": "t_string_memory_ptr",
						"label": "mapping(string => address[])",
						"numberOfBytes": "32",
						"value": "t_array(t_address)dyn_storage"
					},
					"t_mapping(t_string_memory_ptr,t_bool)": {
						"encoding": "mapping",
						"key": "t_string_memory_ptr",
						"label": "mapping(string => bool)",
						"numberOfBytes": "32",
						"value": "t_bool"
					},
					"t_mapping(t_string_memory_ptr,t_struct(Organization)100_storage)": {
						"encoding": "mapping",
						"key": "t_string_memory_ptr",
						"label": "mapping(string => struct Electionv2.Organization)",
						"numberOfBytes": "32",
						"value": "t_struct(Organization)100_storage"
					},
					"t_mapping(t_string_memory_ptr,t_uint48)": {
						"encoding": "mapping",
						"key": "t_string_memory_ptr",
						"label": "mapping(string => uint48)",
						"numberOfBytes": "32",
						"value": "t_uint48"
					},
					"t_mapping(t_uint32,t_struct(ElectionDetail)114_storage)": {
						"encoding": "mapping",
						"key": "t_uint32",
						"label": "mapping(uint32 => struct Electionv2.ElectionDetail)",
						"numberOfBytes": "32",
						"value": "t_struct(ElectionDetail)114_storage"
					},
					"t_mapping(t_uint48,t_bool)": {
						"encoding": "mapping",
						"key": "t_uint48",
						"label": "mapping(uint48 => bool)",
						"numberOfBytes": "32",
						"value": "t_bool"
					},
					"t_string_memory_ptr": {
						"encoding": "bytes",
						"label": "string",
						"numberOfBytes": "32"
					},
					"t_string_storage": {
						"encoding": "bytes",
						"label": "string",
						"numberOfBytes": "32"
					},
					"t_struct(ElectionDetail)114_storage": {
						"encoding": "inplace",
						"label": "struct Electionv2.ElectionDetail",
						"members": [
							{
								"astId": 102,
								"contract": "DU-vote-v2/contracts/DVote-v2c.sol:Electionv2",
								"label": "electionID",
								"offset": 0,
								"slot": "0",
								"type": "t_string_storage"
							},
							{
								"astId": 104,
								"contract": "DU-vote-v2/contracts/DVote-v2c.sol:Electionv2",
								"label": "orgId",
								"offset": 0,
								"slot": "1",
								"type": "t_string_storage"
							},
							{
								"astId": 106,
								"contract": "DU-vote-v2/contracts/DVote-v2c.sol:Electionv2",
								"label": "electionName",
								"offset": 0,
								"slot": "2",
								"type": "t_string_storage"
							},
							{
								"astId": 108,
								"contract": "DU-vote-v2/contracts/DVote-v2c.sol:Electionv2",
								"label": "candidateList",
								"offset": 0,
								"slot": "3",
								"type": "t_uint8"
							},
							{
								"astId": 110,
								"contract": "DU-vote-v2/contracts/DVote-v2c.sol:Electionv2",
								"label": "candidateCount",
								"offset": 1,
								"slot": "3",
								"type": "t_uint8"
							},
							{
								"astId": 113,
								"contract": "DU-vote-v2/contracts/DVote-v2c.sol:Electionv2",
								"label": "status",
								"offset": 2,
								"slot": "3",
								"type": "t_enum(ElectionStatus)74"
							}
						],
						"numberOfBytes": "128"
					},
					"t_struct(Organization)100_storage": {
						"encoding": "inplace",
						"label": "struct Electionv2.Organization",
						"members": [
							{
								"astId": 87,
								"contract": "DU-vote-v2/contracts/DVote-v2c.sol:Electionv2",
								"label": "orgName",
								"offset": 0,
								"slot": "0",
								"type": "t_string_storage"
							},
							{
								"astId": 89,
								"contract": "DU-vote-v2/contracts/DVote-v2c.sol:Electionv2",
								"label": "orgId",
								"offset": 0,
								"slot": "1",
								"type": "t_string_storage"
							},
							{
								"astId": 92,
								"contract": "DU-vote-v2/contracts/DVote-v2c.sol:Electionv2",
								"label": "orgType",
								"offset": 0,
								"slot": "2",
								"type": "t_enum(OrganizationType)78"
							},
							{
								"astId": 94,
								"contract": "DU-vote-v2/contracts/DVote-v2c.sol:Electionv2",
								"label": "electionEventCounter",
								"offset": 1,
								"slot": "2",
								"type": "t_uint16"
							},
							{
								"astId": 96,
								"contract": "DU-vote-v2/contracts/DVote-v2c.sol:Electionv2",
								"label": "totalMembers",
								"offset": 3,
								"slot": "2",
								"type": "t_uint48"
							},
							{
								"astId": 99,
								"contract": "DU-vote-v2/contracts/DVote-v2c.sol:Electionv2",
								"label": "electionAdminAddresses",
								"offset": 0,
								"slot": "3",
								"type": "t_array(t_address)dyn_storage"
							}
						],
						"numberOfBytes": "128"
					},
					"t_struct(Voter)135_storage": {
						"encoding": "inplace",
						"label": "struct Electionv2.Voter",
						"members": [
							{
								"astId": 123,
								"contract": "DU-vote-v2/contracts/DVote-v2c.sol:Electionv2",
								"label": "VoterID",
								"offset": 0,
								"slot": "0",
								"type": "t_uint48"
							},
							{
								"astId": 125,
								"contract": "DU-vote-v2/contracts/DVote-v2c.sol:Electionv2",
								"label": "VoterAddress",
								"offset": 6,
								"slot": "0",
								"type": "t_address"
							},
							{
								"astId": 127,
								"contract": "DU-vote-v2/contracts/DVote-v2c.sol:Electionv2",
								"label": "VoterName",
								"offset": 0,
								"slot": "1",
								"type": "t_string_storage"
							},
							{
								"astId": 129,
								"contract": "DU-vote-v2/contracts/DVote-v2c.sol:Electionv2",
								"label": "isRegistered",
								"offset": 0,
								"slot": "2",
								"type": "t_bool"
							},
							{
								"astId": 132,
								"contract": "DU-vote-v2/contracts/DVote-v2c.sol:Electionv2",
								"label": "participatedElectionEvents",
								"offset": 0,
								"slot": "3",
								"type": "t_array(t_string_storage)dyn_storage"
							},
							{
								"astId": 134,
								"contract": "DU-vote-v2/contracts/DVote-v2c.sol:Electionv2",
								"label": "associatedOrganization",
								"offset": 0,
								"slot": "4",
								"type": "t_string_storage"
							}
						],
						"numberOfBytes": "160"
					},
					"t_uint16": {
						"encoding": "inplace",
						"label": "uint16",
						"numberOfBytes": "2"
					},
					"t_uint32": {
						"encoding": "inplace",
						"label": "uint32",
						"numberOfBytes": "4"
					},
					"t_uint48": {
						"encoding": "inplace",
						"label": "uint48",
						"numberOfBytes": "6"
					},
					"t_uint8": {
						"encoding": "inplace",
						"label": "uint8",
						"numberOfBytes": "1"
					}
				}
			},
			"userdoc": {
				"kind": "user",
				"methods": {},
				"version": 1
			}
		}
	}
}