{
	"data": {
		"bytecode": {
			"linkReferences": {},
			"object": "6080604052600280547fffffffff00000000ffffffff0000000000000000000000000000000000000000163363ffffffff60c01b191617600560c11b1790553480156200004b57600080fd5b50604051620053ae380380620053ae8339810160408190526200006e91620000a2565b60018054336001600160a01b031991821617909155600280549091166001600160a01b0392909216919091179055620000d4565b600060208284031215620000b557600080fd5b81516001600160a01b0381168114620000cd57600080fd5b9392505050565b6152ca80620000e46000396000f3fe608060405234801561001057600080fd5b506004361061019a5760003560e01c80637d70cbaf116100e4578063a3ec138d11610092578063a3ec138d1461041f578063a50f949514610443578063adf457ef14610466578063ce606ee014610479578063e792dd8a146104a4578063ebe0c48f146104c8578063f53cbb2d146104ef578063f96ef6091461050257600080fd5b80637d70cbaf1461037d57806382a355291461038e57806394c04f97146103a75780639767fb72146103bd57806398c07938146103d0578063a14ff011146103f9578063a3ae58ba1461040c57600080fd5b80634509beb31161014c5780634509beb3146102b15780634526f690146102c4578063478a5fc2146102e95780634daa8e1d146102fc578063579cdf171461030f5780635ded1bd6146103225780635e1b71ea1461033957806363a846f81461035a57600080fd5b806303ef6d021461019f5780630b2a0904146101c957806315a1349b146101e957806329c8c595146101fe5780632c751d301461022f57806336cad6bf146102565780633c36ffae1461027e575b600080fd5b6101b26101ad366004614668565b610530565b6040516101c092919061472f565b60405180910390f35b6101dc6101d736600461478c565b610803565b6040516101c091906147b5565b6101fc6101f7366004614668565b61089d565b005b61021161020c36600461486a565b6109dd565b6040805160ff909316835263ffffffff9091166020830152016101c0565b61024261023d366004614668565b610b9a565b6040516101c09897969594939291906148cd565b61026961026436600461494c565b610d7d565b60405163ffffffff90911681526020016101c0565b6102a161028c36600461478c565b60046020526000908152604090205460ff1681565b60405190151581526020016101c0565b6101fc6102bf366004614999565b610e5a565b6102d76102d2366004614a43565b611278565b6040516101c096959493929190614a70565b6101fc6102f7366004614b0a565b611593565b6101fc61030a36600461486a565b611959565b6101dc61031d36600461478c565b611d81565b60025461026990600160c01b900463ffffffff1681565b61034c610347366004614668565b611ef8565b6040516101c0929190614b7d565b61036d61036836600461478c565b6120c9565b6040516101c09493929190614ba5565b6000546040519081526020016101c0565b610396612215565b6040516101c0959493929190614bee565b6103af6124a3565b6040516101c0929190614c52565b6101fc6103cb366004614c80565b612738565b6003546103e29065ffffffffffff1681565b60405165ffffffffffff90911681526020016101c0565b6101fc61040736600461486a565b612c38565b6101fc61041a366004614cb3565b612f42565b61043261042d36600461478c565b61314a565b6040516101c0959493929190614d0c565b6102a1610451366004614d58565b600c6020526000908152604090205460ff1681565b6101dc61047436600461478c565b6132a7565b60015461048c906001600160a01b031681565b6040516001600160a01b0390911681526020016101c0565b6104b76104b2366004614a43565b6132c0565b6040516101c0959493929190614d80565b6104db6104d6366004614668565b613427565b6040516101c0989796959493929190614dd7565b6101fc6104fd366004614e5f565b61369c565b6102a161051036600461494c565b805160208183018101805160088252928201919093012091525460ff1681565b600254606090819063ffffffff600160a01b9091048116908416106105705760405162461bcd60e51b815260040161056790614eda565b60405180910390fd5b63ffffffff8316600090815260066020526040812090600782015460ff16600281111561059f5761059f6148b7565b036105fc5760405162461bcd60e51b815260206004820152602760248201527f456c656374696f6e206973206e6f7420696e2070726f6772657373206f7220666044820152661a5b9a5cda195960ca1b6064820152608401610567565b60068101546000906001600160401b0381111561061b5761061b6147c8565b60405190808252806020026020018201604052801561064e57816020015b60608152602001906001900390816106395790505b5060068301549091506000906001600160401b03811115610671576106716147c8565b60405190808252806020026020018201604052801561069a578160200160208202803683370190505b50905060005b600684015460ff821610156107f757836006018160ff16815481106106c7576106c7614f0a565b906000526020600020906003020160010180546106e390614f20565b80601f016020809104026020016040519081016040528092919081815260200182805461070f90614f20565b801561075c5780601f106107315761010080835404028352916020019161075c565b820191906000526020600020905b81548152906001019060200180831161073f57829003601f168201915b5050505050838260ff168151811061077657610776614f0a565b6020026020010181905250836006018160ff168154811061079957610799614f0a565b906000526020600020906003020160020160009054906101000a900463ffffffff16828260ff16815181106107d0576107d0614f0a565b63ffffffff90921660209283029190910190910152806107ef81614f70565b9150506106a0565b50909590945092505050565b6009602052600090815260409020805461081c90614f20565b80601f016020809104026020016040519081016040528092919081815260200182805461084890614f20565b80156108955780601f1061086a57610100808354040283529160200191610895565b820191906000526020600020905b81548152906001019060200180831161087857829003601f168201915b505050505081565b6001546001600160a01b03163314806108c557503360009081526004602052604090205460ff165b6108e15760405162461bcd60e51b815260040161056790614f8f565b60025463ffffffff600160a01b9091048116908216106109135760405162461bcd60e51b815260040161056790614eda565b63ffffffff811660009081526006602052604090206002600782015460ff166002811115610943576109436148b7565b036109605760405162461bcd60e51b815260040161056790614fb5565b6000600782015460ff16600281111561097b5761097b6148b7565b146109c45760405162461bcd60e51b8152602060048201526019602482015278115b1958dd1a5bdb881a5cc81b9bdd081cd8da19591d5b1959603a1b6044820152606401610567565b60078101805460ff191660011790554260039091015550565b600254600090819063ffffffff600160a01b909104811690851610610a145760405162461bcd60e51b815260040161056790614eda565b63ffffffff84166000908152600660205260408120905b600682015460ff82161015610b345784604051602001610a4b9190614fec565b60405160208183030381529060405280519060200120826006018260ff1681548110610a7957610a79614f0a565b9060005260206000209060030201600101604051602001610a9a9190615008565b6040516020818303038152906040528051906020012003610b2257816006018160ff1681548110610acd57610acd614f0a565b600091825260209091206003909102015460068301805460ff928316928416908110610afb57610afb614f0a565b600091825260209091206002600390920201015490945063ffffffff169250610b93915050565b80610b2c81614f70565b915050610a2b565b5060405162461bcd60e51b815260206004820152602d60248201527f43616e646964617465206e6f7420666f756e6420696e2074686520737065636960448201526c3334b2b21032b632b1ba34b7b760991b6064820152608401610567565b9250929050565b600660205260009081526040902080548190610bb590614f20565b80601f0160208091040260200160405190810160405280929190818152602001828054610be190614f20565b8015610c2e5780601f10610c0357610100808354040283529160200191610c2e565b820191906000526020600020905b815481529060010190602001808311610c1157829003601f168201915b505050505090806001018054610c4390614f20565b80601f0160208091040260200160405190810160405280929190818152602001828054610c6f90614f20565b8015610cbc5780601f10610c9157610100808354040283529160200191610cbc565b820191906000526020600020905b815481529060010190602001808311610c9f57829003601f168201915b505050505090806002018054610cd190614f20565b80601f0160208091040260200160405190810160405280929190818152602001828054610cfd90614f20565b8015610d4a5780601f10610d1f57610100808354040283529160200191610d4a565b820191906000526020600020905b815481529060010190602001808311610d2d57829003601f168201915b505050506003830154600484015460058501546007909501549394919390925060ff918216918082169161010090041688565b6000805b60025463ffffffff600160a01b90910481169082161015610e1c5782604051602001610dad9190614fec565b60408051601f19818403018152828252805160209182012063ffffffff8516600090815260068352929092209192610de9926002019101615008565b6040516020818303038152906040528051906020012003610e0a5792915050565b80610e148161507e565b915050610d81565b5060405162461bcd60e51b8152602060048201526012602482015271115b1958dd1a5bdb881b9bdd08199bdd5b9960721b6044820152606401610567565b600886604051610e6a9190614fec565b9081526040519081900360200190205460ff16610e995760405162461bcd60e51b8152600401610567906150a1565b6001855111610eea5760405162461bcd60e51b815260206004820152601a60248201527f456c656374696f6e2049442063616e277420626520656d7074790000000000006044820152606401610567565b600685511115610f4f5760405162461bcd60e51b815260206004820152602a60248201527f456c656374696f6e2049442073686f756c6420626520362063686172616374656044820152697273206f72206c65737360b01b6064820152608401610567565b6001845111610fa05760405162461bcd60e51b815260206004820152601c60248201527f456c656374696f6e206e616d652063616e277420626520656d707479000000006044820152606401610567565b600f845111156110085760405162461bcd60e51b815260206004820152602d60248201527f456c656374696f6e206e616d652073686f756c6420626520313520636861726160448201526c6374657273206f72206c65737360981b6064820152608401610567565b60025463ffffffff600160c01b82048116600160a01b909204161061106f5760405162461bcd60e51b815260206004820152601e60248201527f4d6178696d756d206576656e74732063726561746564207265616368656400006044820152606401610567565b428210156110bf5760405162461bcd60e51b815260206004820181905260248201527f53746172742074696d652063616e6e6f7420626520696e2074686520706173746044820152606401610567565b6000811180156110d257506276a7008111155b61111a5760405162461bcd60e51b815260206004820152601960248201527824b73b30b634b21032b632b1ba34b7b710323ab930ba34b7b760391b6044820152606401610567565b600061112682846150d4565b9050600042841461113857600061113b565b60015b600254600160a01b900463ffffffff166000908152600660205260409020909150806111678982615136565b50600181016111768a82615136565b50600281016111858882615136565b5060078101805483919060ff191660018360028111156111a7576111a76148b7565b021790555060058101805460ff191660ff8816179055600381018590556004810183905560006111d68a613aee565b905060008161ffff16815481106111ef576111ef614f0a565b600091825260208220600560069092020101805461ffff1691611211836151f5565b825461ffff9182166101009390930a9283029190920219909116179055506002805463ffffffff600160a01b9091041690601461124d8361507e565b91906101000a81548163ffffffff021916908363ffffffff1602179055505050505050505050505050565b6060806000806000606060008054905087106112cc5760405162461bcd60e51b8152602060048201526013602482015272496e646578206f7574206f6620626f756e647360681b6044820152606401610567565b60008088815481106112e0576112e0614f0a565b90600052602060002090600602016040518060e001604052908160008201805461130990614f20565b80601f016020809104026020016040519081016040528092919081815260200182805461133590614f20565b80156113825780601f1061135757610100808354040283529160200191611382565b820191906000526020600020905b81548152906001019060200180831161136557829003601f168201915b5050505050815260200160018201805461139b90614f20565b80601f01602080910402602001604051908101604052809291908181526020018280546113c790614f20565b80156114145780601f106113e957610100808354040283529160200191611414565b820191906000526020600020905b8154815290600101906020018083116113f757829003601f168201915b505050505081526020016002820180548060200260200160405190810160405280929190818152602001828054801561147657602002820191906000526020600020905b81546001600160a01b03168152600190910190602001808311611458575b5050509183525050600382015460209091019060ff16600181111561149d5761149d6148b7565b60018111156114ae576114ae6148b7565b81526020016004820180548060200260200160405190810160405280929190818152602001828054801561153157602002820191906000526020600020906000905b82829054906101000a900465ffffffffffff1665ffffffffffff16815260200190600601906020826005010492830192600103820291508084116114f05790505b50505091835250506005919091015461ffff81166020808401919091526201000090910465ffffffffffff16604092830152825190830151606084015160c085015160a08601519590940151929d919c509a5091985091965090945092505050565b6008826040516115a39190614fec565b9081526040519081900360200190205460ff166115d25760405162461bcd60e51b8152600401610567906150a1565b60025463ffffffff600160a01b9091048116908216106116045760405162461bcd60e51b815260040161056790614eda565b60018351116116515760405162461bcd60e51b8152602060048201526019602482015278566f746572206e616d652063616e277420626520656d70747960381b6044820152606401610567565b600f8351106116b55760405162461bcd60e51b815260206004820152602a60248201527f566f746572206e616d652073686f756c642062652031352063686172616374656044820152697273206f72206c65737360b01b6064820152608401610567565b60006116c083613aee565b90506000808261ffff16815481106116da576116da614f0a565b6000918252602080832063ffffffff8716845260068083526040808620338752600b9094529094206002015492909302909201925060ff161561175f5760405162461bcd60e51b815260206004820152601b60248201527f566f74657220697320616c7265616479207265676973746572656400000000006044820152606401610567565b6117698533613bab565b156117d75760405162461bcd60e51b815260206004820152603860248201527f566f74657220697320616c7265616479207265676973746572656420696e207460448201527734329039b2b632b1ba32b21037b933b0b734bd30ba34b7b760411b6064820152608401610567565b60006117e1613cf7565b6040805160c08101825265ffffffffffff831681523360208201529081018990526001606082015290915060808101600060405190808252806020026020018201604052801561184557816020015b60608152602001906001900390816118305790505b5081526020908101889052336000908152600b825260409081902083518154938501516001600160a01b0316600160301b026001600160d01b031990941665ffffffffffff9091161792909217825582015160018201906118a69082615136565b50606082015160028201805460ff1916911515919091179055608082015180516118da916003840191602090910190614479565b5060a082015160048201906118ef9082615136565b5050336000908152600a60205260409020905061190c8782615136565b5060058301805462010000900465ffffffffffff1690600261192d8361520c565b91906101000a81548165ffffffffffff021916908365ffffffffffff1602179055505050505050505050565b60025463ffffffff600160a01b90910481169083161061198b5760405162461bcd60e51b815260040161056790614eda565b63ffffffff8216600090815260066020526040812060010180546119ae90614f20565b80601f01602080910402602001604051908101604052809291908181526020018280546119da90614f20565b8015611a275780601f106119fc57610100808354040283529160200191611a27565b820191906000526020600020905b815481529060010190602001808311611a0a57829003601f168201915b505050505090506000611a3982613aee565b90506000808261ffff1681548110611a5357611a53614f0a565b90600052602060002090600602019050611af933826001018054611a7690614f20565b80601f0160208091040260200160405190810160405280929190818152602001828054611aa290614f20565b8015611aef5780601f10611ac457610100808354040283529160200191611aef565b820191906000526020600020905b815481529060010190602001808311611ad257829003601f168201915b5050505050613e0e565b611b555760405162461bcd60e51b815260206004820152602760248201527f4f6e6c7920656c656374696f6e2061646d696e732063616e206164642063616e6044820152666469646174657360c81b6064820152608401610567565b63ffffffff85166000908152600660208190526040909120600581015491810154909160ff1611611bc25760405162461bcd60e51b815260206004820152601760248201527610d85b991a59185d19481b1a5b5a5d081c995858da1959604a1b6044820152606401610567565b6000855111611c135760405162461bcd60e51b815260206004820152601e60248201527f43616e646964617465206e616d652063616e6e6f7420626520656d70747900006044820152606401610567565b601085511115611c7c5760405162461bcd60e51b815260206004820152602e60248201527f43616e646964617465206e616d652073686f756c64206265203136206368617260448201526d616374657273206f72206c65737360901b6064820152608401610567565b611c8585613f4e565b611cf75760405162461bcd60e51b815260206004820152603a60248201527f43616e646964617465206e616d652073686f756c64206f6e6c7920636f6e746160448201527f696e20616c7068616265746963616c20636861726163746572730000000000006064820152608401610567565b6006810180546040805160608101825260ff808416825260208083018b81526000948401859052600180870188559685529320825160038602909101805460ff19169190921617815591519293909290820190611d549082615136565b50604091909101516002909101805463ffffffff191663ffffffff90921691909117905550505050505050565b6001600160a01b03808216600090815260056020908152604080832081516080810190925280549094168152600184018054606095929384019190611dc590614f20565b80601f0160208091040260200160405190810160405280929190818152602001828054611df190614f20565b8015611e3e5780601f10611e1357610100808354040283529160200191611e3e565b820191906000526020600020905b815481529060010190602001808311611e2157829003601f168201915b5050509183525050600282015460ff1615156020820152600382018054604090920191611e6a90614f20565b80601f0160208091040260200160405190810160405280929190818152602001828054611e9690614f20565b8015611ee35780601f10611eb857610100808354040283529160200191611ee3565b820191906000526020600020905b815481529060010190602001808311611ec657829003601f168201915b50505091909252505050602001519392505050565b60025460609060009063ffffffff600160a01b909104811690841610611f305760405162461bcd60e51b815260040161056790614eda565b63ffffffff80841660009081526007602052604090206004810154909116611fa95760405162461bcd60e51b815260206004820152602660248201527f456c656374696f6e20726573756c747320617265206e6f7420617661696c61626044820152651b19481e595d60d21b6064820152608401610567565b600263ffffffff851660009081526006602052604090206007015460ff166002811115611fd857611fd86148b7565b146120205760405162461bcd60e51b8152602060048201526018602482015277115b1958dd1a5bdb881a5cc81b9bdd08199a5b9a5cda195960421b6044820152606401610567565b6004810154600582018054909163ffffffff1690829061203f90614f20565b80601f016020809104026020016040519081016040528092919081815260200182805461206b90614f20565b80156120b85780601f1061208d576101008083540402835291602001916120b8565b820191906000526020600020905b81548152906001019060200180831161209b57829003601f168201915b505050505091509250925050915091565b600560205260009081526040902080546001820180546001600160a01b0390921692916120f590614f20565b80601f016020809104026020016040519081016040528092919081815260200182805461212190614f20565b801561216e5780601f106121435761010080835404028352916020019161216e565b820191906000526020600020905b81548152906001019060200180831161215157829003601f168201915b5050506002840154600385018054949560ff90921694919350915061219290614f20565b80601f01602080910402602001604051908101604052809291908181526020018280546121be90614f20565b801561220b5780601f106121e05761010080835404028352916020019161220b565b820191906000526020600020905b8154815290600101906020018083116121ee57829003601f168201915b5050505050905084565b336000818152600b602052604081206002810154919283926060928392839290919060ff166122785760405162461bcd60e51b815260206004820152600f60248201526e159bdd195c881b9bdd08199bdd5b99608a1b6044820152606401610567565b805460018201805465ffffffffffff831692600160301b90046001600160a01b031691906004850190600386019083906122b190614f20565b80601f01602080910402602001604051908101604052809291908181526020018280546122dd90614f20565b801561232a5780601f106122ff5761010080835404028352916020019161232a565b820191906000526020600020905b81548152906001019060200180831161230d57829003601f168201915b5050505050925081805461233d90614f20565b80601f016020809104026020016040519081016040528092919081815260200182805461236990614f20565b80156123b65780601f1061238b576101008083540402835291602001916123b6565b820191906000526020600020905b81548152906001019060200180831161239957829003601f168201915b5050505050915080805480602002602001604051908101604052809291908181526020016000905b8282101561248a5783829060005260206000200180546123fd90614f20565b80601f016020809104026020016040519081016040528092919081815260200182805461242990614f20565b80156124765780601f1061244b57610100808354040283529160200191612476565b820191906000526020600020905b81548152906001019060200180831161245957829003601f168201915b5050505050815260200190600101906123de565b5050505090509650965096509650965050509091929394565b33600081815260046020526040902054606091829160ff166125155760405162461bcd60e51b815260206004820152602560248201527f456c656374696f6e2041646d696e2061646472657373206e6f742072656769736044820152641d195c995960da1b6064820152608401610567565b6001600160a01b0381166000908152600960205260408120805461253890614f20565b80601f016020809104026020016040519081016040528092919081815260200182805461256490614f20565b80156125b15780601f10612586576101008083540402835291602001916125b1565b820191906000526020600020905b81548152906001019060200180831161259457829003601f168201915b5050505050905060006125c382614019565b905060008161ffff16815481106125dc576125dc614f0a565b906000526020600020906006020160010160008261ffff168154811061260457612604614f0a565b906000526020600020906006020160000181805461262190614f20565b80601f016020809104026020016040519081016040528092919081815260200182805461264d90614f20565b801561269a5780601f1061266f5761010080835404028352916020019161269a565b820191906000526020600020905b81548152906001019060200180831161267d57829003601f168201915b505050505091508080546126ad90614f20565b80601f01602080910402602001604051908101604052809291908181526020018280546126d990614f20565b80156127265780601f106126fb57610100808354040283529160200191612726565b820191906000526020600020905b81548152906001019060200180831161270957829003601f168201915b50505050509050945094505050509091565b60025463ffffffff600160a01b90910481169083161061276a5760405162461bcd60e51b815260040161056790614eda565b63ffffffff82166000908152600660208190526040909120015460ff8216106127cc5760405162461bcd60e51b8152602060048201526014602482015273125b9d985b1a590818d85b991a59185d1948125160621b6044820152606401610567565b63ffffffff82166000908152600660209081526040808320338452600b9092529091206002015460ff166128425760405162461bcd60e51b815260206004820152601e60248201527f596f7520617265206e6f742061207265676973746572656420766f74657200006044820152606401610567565b6001600782015460ff16600281111561285d5761285d6148b7565b146128aa5760405162461bcd60e51b815260206004820152601b60248201527f456c656374696f6e206973206e6f7420696e2070726f677265737300000000006044820152606401610567565b336000908152600b6020526040812060040180546128c790614f20565b80601f01602080910402602001604051908101604052809291908181526020018280546128f390614f20565b80156129405780601f1061291557610100808354040283529160200191612940565b820191906000526020600020905b81548152906001019060200180831161292357829003601f168201915b505050505090506008816040516129579190614fec565b9081526040519081900360200190205460ff166129d25760405162461bcd60e51b815260206004820152603360248201527f596f7520617265206e6f742061207265676973746572656420766f746572206960448201527237103a3434b99037b933b0b734bd30ba34b7b760691b6064820152608401610567565b60008260020180546129e390614f20565b80601f0160208091040260200160405190810160405280929190818152602001828054612a0f90614f20565b8015612a5c5780601f10612a3157610100808354040283529160200191612a5c565b820191906000526020600020905b815481529060010190602001808311612a3f57829003601f168201915b50505050509050612a6d33826140c7565b15612aca5760405162461bcd60e51b815260206004820152602760248201527f596f75206861766520616c726561647920766f74656420696e207468697320656044820152663632b1ba34b7b760c91b6064820152608401610567565b6000836006018560ff1681548110612ae457612ae4614f0a565b6000918252602082206002600390920201908101805491935063ffffffff90911691612b0f8361507e565b825463ffffffff9182166101009390930a928302919092021990911617905550336000908152600b602090815260408083206003810180548351818602810186019094528084529194612c189491929184015b82821015612c0e578382906000526020600020018054612b8190614f20565b80601f0160208091040260200160405190810160405280929190818152602001828054612bad90614f20565b8015612bfa5780601f10612bcf57610100808354040283529160200191612bfa565b820191906000526020600020905b815481529060010190602001808311612bdd57829003601f168201915b505050505081526020019060010190612b62565b5050505084614186565b8051612c2e916003840191602090910190614479565b5050505050505050565b6001546001600160a01b0316331480612c6057503360009081526004602052604090205460ff165b612c7c5760405162461bcd60e51b815260040161056790614f8f565b60025463ffffffff600160a01b909104811690831610612cae5760405162461bcd60e51b815260040161056790614eda565b63ffffffff821660009081526006602052604090206001600782015460ff166002811115612cde57612cde6148b7565b14612d255760405162461bcd60e51b8152602060048201526017602482015276115b1958dd1a5bdb881a5cc81b9bdd081cdd185c9d1959604a1b6044820152606401610567565b6007810154610100900460ff1615612d4f5760405162461bcd60e51b815260040161056790614fb5565b42600482015560078101805461ffff19166101021790556000612d7184614274565b90506000612d7e856142f3565b90506000612d8b33611d81565b9050604051806101000160405280856001018054612da890614f20565b80601f0160208091040260200160405190810160405280929190818152602001828054612dd490614f20565b8015612e215780601f10612df657610100808354040283529160200191612e21565b820191906000526020600020905b815481529060010190602001808311612e0457829003601f168201915b50505050508152602001336001600160a01b0316815260200185600301548152602001856004015481526020018463ffffffff16815260200183815260200182815260200186815250600760008863ffffffff1663ffffffff1681526020019081526020016000206000820151816000019081612e9e9190615136565b5060208201516001820180546001600160a01b0319166001600160a01b039092169190911790556040820151600282015560608201516003820155608082015160048201805463ffffffff191663ffffffff90921691909117905560a08201516005820190612f0d9082615136565b5060c08201516006820190612f229082615136565b5060e08201516007820190612f379082615136565b505050505050505050565b3360009081526004602052604090205460ff1615612fb45760405162461bcd60e51b815260206004820152602960248201527f456c656374696f6e2041646d696e206164647265737320616c726561647920726044820152681959da5cdd195c995960ba1b6064820152608401610567565b6000612fbf83614019565b60005490915061ffff821610612fe75760405162461bcd60e51b815260040161056790615227565b6000808261ffff1681548110612fff57612fff614f0a565b60009182526020808320600260069093020191820180546001810182558185528285200180546001600160a01b0319163390811790915584526009909152604090922090925061304f8682615136565b50604080516080810182523380825260208083018881526001848601819052606085018b90526000938452600590925293909120825181546001600160a01b0319166001600160a01b0390911617815592519192839290918201906130b49082615136565b50604082015160028201805460ff1916911515919091179055606082015160038201906130e19082615136565b5050336000908152600460205260409020805460ff191660011790555060058301805465ffffffffffff620100009091041690600261311f8361520c565b91906101000a81548165ffffffffffff021916908365ffffffffffff16021790555050505050505050565b600b602052600090815260409020805460018201805465ffffffffffff831693600160301b9093046001600160a01b031692919061318790614f20565b80601f01602080910402602001604051908101604052809291908181526020018280546131b390614f20565b80156132005780601f106131d557610100808354040283529160200191613200565b820191906000526020600020905b8154815290600101906020018083116131e357829003601f168201915b5050506002840154600485018054949560ff90921694919350915061322490614f20565b80601f016020809104026020016040519081016040528092919081815260200182805461325090614f20565b801561329d5780601f106132725761010080835404028352916020019161329d565b820191906000526020600020905b81548152906001019060200180831161328057829003601f168201915b5050505050905085565b600a602052600090815260409020805461081c90614f20565b600081815481106132d057600080fd5b90600052602060002090600602016000915090508060000180546132f390614f20565b80601f016020809104026020016040519081016040528092919081815260200182805461331f90614f20565b801561336c5780601f106133415761010080835404028352916020019161336c565b820191906000526020600020905b81548152906001019060200180831161334f57829003601f168201915b50505050509080600101805461338190614f20565b80601f01602080910402602001604051908101604052809291908181526020018280546133ad90614f20565b80156133fa5780601f106133cf576101008083540402835291602001916133fa565b820191906000526020600020905b8154815290600101906020018083116133dd57829003601f168201915b505050506003830154600590930154919260ff169161ffff8116915062010000900465ffffffffffff1685565b60076020526000908152604090208054819061344290614f20565b80601f016020809104026020016040519081016040528092919081815260200182805461346e90614f20565b80156134bb5780601f10613490576101008083540402835291602001916134bb565b820191906000526020600020905b81548152906001019060200180831161349e57829003601f168201915b505050600184015460028501546003860154600487015460058801805497986001600160a01b039095169793965091945063ffffffff1692916134fd90614f20565b80601f016020809104026020016040519081016040528092919081815260200182805461352990614f20565b80156135765780601f1061354b57610100808354040283529160200191613576565b820191906000526020600020905b81548152906001019060200180831161355957829003601f168201915b50505050509080600601805461358b90614f20565b80601f01602080910402602001604051908101604052809291908181526020018280546135b790614f20565b80156136045780601f106135d957610100808354040283529160200191613604565b820191906000526020600020905b8154815290600101906020018083116135e757829003601f168201915b50505050509080600701805461361990614f20565b80601f016020809104026020016040519081016040528092919081815260200182805461364590614f20565b80156136925780601f1061366757610100808354040283529160200191613692565b820191906000526020600020905b81548152906001019060200180831161367557829003601f168201915b5050505050905088565b6008826040516136ac9190614fec565b9081526040519081900360200190205460ff16156137175760405162461bcd60e51b815260206004820152602260248201527f4f7267616e697a6174696f6e20494420616c7265616479207265676973746572604482015261195960f21b6064820152608401610567565b6008836040516137279190614fec565b9081526040519081900360200190205460ff16156137935760405162461bcd60e51b8152602060048201526024808201527f4f7267616e697a6174696f6e204e616d6520616c726561647920726567697374604482015263195c995960e21b6064820152608401610567565b60018351116137e45760405162461bcd60e51b815260206004820181905260248201527f4f7267616e697a6174696f6e206e616d652063616e277420626520656d7074796044820152606401610567565b600c835111156138505760405162461bcd60e51b815260206004820152603160248201527f4f7267616e697a6174696f6e206e616d652073686f756c642062652031322063604482015270686172616374657273206f72206c65737360781b6064820152608401610567565b60018251116138a15760405162461bcd60e51b815260206004820152601e60248201527f4f7267616e697a6174696f6e2049442063616e277420626520656d70747900006044820152606401610567565b60048251111561390a5760405162461bcd60e51b815260206004820152602e60248201527f4f7267616e697a6174696f6e2049442073686f756c642062652034206368617260448201526d616374657273206f72206c65737360901b6064820152608401610567565b6040805160e081018252848152602080820185905282516000808252918101845290928201908152602001836001811115613947576139476148b7565b81526020016000604051908082528060200260200182016040528015613977578160200160208202803683370190505b508152600060208201819052604090910181905280546001810182559080528151919250829160069091027f290decd9548b62a8d60345a988386fc84ba6bc95484008f6362f93160ef3e563019081906139d19082615136565b50602082015160018201906139e69082615136565b5060408201518051613a029160028401916020909101906144cf565b50606082015160038201805460ff191660018381811115613a2557613a256148b7565b021790555060808201518051613a45916004840191602090910190614530565b5060a08201516005909101805460c09093015165ffffffffffff16620100000267ffffffffffffffff1990931661ffff90921691909117919091179055604051600190600890613a96908690614fec565b908152604051908190036020018120805492151560ff1990931692909217909155600190600890613ac8908790614fec565b908152604051908190036020019020805491151560ff1990921691909117905550505050565b6000805b60005461ffff82161015613b925782604051602001613b119190614fec565b6040516020818303038152906040528051906020012060008261ffff1681548110613b3e57613b3e614f0a565b9060005260206000209060060201600101604051602001613b5f9190615008565b6040516020818303038152906040528051906020012003613b805792915050565b80613b8a816151f5565b915050613af2565b5060405162461bcd60e51b815260040161056790615227565b6000805b600054811015613ceb5783604051602001613bca9190614fec565b6040516020818303038152906040528051906020012060008281548110613bf357613bf3614f0a565b9060005260206000209060060201600101604051602001613c149190615008565b6040516020818303038152906040528051906020012003613cd95760005b60008281548110613c4557613c45614f0a565b906000526020600020906006020160020180549050811015613cd757836001600160a01b031660008381548110613c7e57613c7e614f0a565b90600052602060002090600602016002018281548110613ca057613ca0614f0a565b6000918252602090912001546001600160a01b031603613cc557600192505050613cf1565b80613ccf81615257565b915050613c32565b505b80613ce381615257565b915050613baf565b50600090505b92915050565b6003805460009165ffffffffffff9091169082613d138361520c565b82546101009290920a65ffffffffffff818102199093169183160217909155600354169050651319718a5000811115613d865760405162461bcd60e51b8152602060048201526015602482015274159bdd195c9251081b1a5b5a5d081c995858da1959605a1b6044820152606401610567565b65ffffffffffff81166000908152600c602052604090205460ff1615613de75760405162461bcd60e51b8152602060048201526016602482015275566f746572494420616c72656164792065786973747360501b6044820152606401610567565b65ffffffffffff81166000908152600c60205260409020805460ff19166001179055919050565b6000805b600054811015613ceb5782604051602001613e2d9190614fec565b6040516020818303038152906040528051906020012060008281548110613e5657613e56614f0a565b9060005260206000209060060201600101604051602001613e779190615008565b6040516020818303038152906040528051906020012003613f3c5760005b60008281548110613ea857613ea8614f0a565b906000526020600020906006020160020180549050811015613f3a57846001600160a01b031660008381548110613ee157613ee1614f0a565b90600052602060002090600602016002018281548110613f0357613f03614f0a565b6000918252602090912001546001600160a01b031603613f2857600192505050613cf1565b80613f3281615257565b915050613e95565b505b80613f4681615257565b915050613e12565b600081815b815181101561400f576041828281518110613f7057613f70614f0a565b016020015160f81c10801590613fa05750605a828281518110613f9557613f95614f0a565b016020015160f81c11155b158015613fee57506061828281518110613fbc57613fbc614f0a565b016020015160f81c10801590613fec5750607a828281518110613fe157613fe1614f0a565b016020015160f81c11155b155b15613ffd575060009392505050565b8061400781615257565b915050613f53565b5060019392505050565b6000805b60005461ffff821610156140bd578260405160200161403c9190614fec565b6040516020818303038152906040528051906020012060008261ffff168154811061406957614069614f0a565b906000526020600020906006020160000160405160200161408a9190615008565b60405160208183030381529060405280519060200120036140ab5792915050565b806140b5816151f5565b91505061401d565b5050600054919050565b6001600160a01b0382166000908152600b60205260408120815b600382015481101561417b57836040516020016140fe9190614fec565b6040516020818303038152906040528051906020012082600301828154811061412957614129614f0a565b906000526020600020016040516020016141439190615008565b604051602081830303815290604052805190602001200361416957600192505050613cf1565b8061417381615257565b9150506140e1565b506000949350505050565b606060008351600161419891906150d4565b6001600160401b038111156141af576141af6147c8565b6040519080825280602002602001820160405280156141e257816020015b60608152602001906001900390816141cd5790505b50905060005b84518163ffffffff16101561424d57848163ffffffff168151811061420f5761420f614f0a565b6020026020010151828263ffffffff168151811061422f5761422f614f0a565b602002602001018190525080806142459061507e565b9150506141e8565b50828185518151811061426257614262614f0a565b60209081029190910101529392505050565b63ffffffff8116600090815260066020526040812081805b600683015460ff821610156142eb57826006018160ff16815481106142b3576142b3614f0a565b60009182526020909120600260039092020101546142d79063ffffffff1683615270565b9150806142e381614f70565b91505061428c565b509392505050565b63ffffffff811660009081526006602090815260408083208151928301909152828252606092909190805b600684015460ff8216101561446f578163ffffffff16846006018260ff168154811061434c5761434c614f0a565b600091825260209091206002600390920201015463ffffffff16111561445d57836006018160ff168154811061438457614384614f0a565b906000526020600020906003020160020160009054906101000a900463ffffffff169150836006018160ff16815481106143c0576143c0614f0a565b906000526020600020906003020160010180546143dc90614f20565b80601f016020809104026020016040519081016040528092919081815260200182805461440890614f20565b80156144555780601f1061442a57610100808354040283529160200191614455565b820191906000526020600020905b81548152906001019060200180831161443857829003601f168201915b505050505092505b8061446781614f70565b91505061431e565b5090949350505050565b8280548282559060005260206000209081019282156144bf579160200282015b828111156144bf57825182906144af9082615136565b5091602001919060010190614499565b506144cb9291506145e0565b5090565b828054828255906000526020600020908101928215614524579160200282015b8281111561452457825182546001600160a01b0319166001600160a01b039091161782556020909201916001909101906144ef565b506144cb9291506145fd565b828054828255906000526020600020906004016005900481019282156145245791602002820160005b838211156145a157835183826101000a81548165ffffffffffff021916908365ffffffffffff1602179055509260200192600601602081600501049283019260010302614559565b80156145d35782816101000a81549065ffffffffffff02191690556006016020816005010492830192600103026145a1565b50506144cb9291506145fd565b808211156144cb5760006145f48282614612565b506001016145e0565b5b808211156144cb57600081556001016145fe565b50805461461e90614f20565b6000825580601f1061462e575050565b601f01602090049060005260206000209081019061464c91906145fd565b50565b803563ffffffff8116811461466357600080fd5b919050565b60006020828403121561467a57600080fd5b6146838261464f565b9392505050565b60005b838110156146a557818101518382015260200161468d565b50506000910152565b600081518084526146c681602086016020860161468a565b601f01601f19169290920160200192915050565b600081518084526020808501808196508360051b8101915082860160005b858110156147225782840389526147108483516146ae565b988501989350908401906001016146f8565b5091979650505050505050565b60408152600061474260408301856146da565b82810360208481019190915284518083528582019282019060005b8181101561477f57845163ffffffff168352938301939183019160010161475d565b5090979650505050505050565b60006020828403121561479e57600080fd5b81356001600160a01b038116811461468357600080fd5b60208152600061468360208301846146ae565b634e487b7160e01b600052604160045260246000fd5b600082601f8301126147ef57600080fd5b81356001600160401b0380821115614809576148096147c8565b604051601f8301601f19908116603f01168101908282118183101715614831576148316147c8565b8160405283815286602085880101111561484a57600080fd5b836020870160208301376000602085830101528094505050505092915050565b6000806040838503121561487d57600080fd5b6148868361464f565b915060208301356001600160401b038111156148a157600080fd5b6148ad858286016147de565b9150509250929050565b634e487b7160e01b600052602160045260246000fd5b60006101008083526148e18184018c6146ae565b905082810360208401526148f5818b6146ae565b90508281036040840152614909818a6146ae565b91505086606083015285608083015260ff851660a083015260038410614931576149316148b7565b8360c083015282151560e08301529998505050505050505050565b60006020828403121561495e57600080fd5b81356001600160401b0381111561497457600080fd5b614980848285016147de565b949350505050565b803560ff8116811461466357600080fd5b60008060008060008060c087890312156149b257600080fd5b86356001600160401b03808211156149c957600080fd5b6149d58a838b016147de565b975060208901359150808211156149eb57600080fd5b6149f78a838b016147de565b96506040890135915080821115614a0d57600080fd5b50614a1a89828a016147de565b945050614a2960608801614988565b92506080870135915060a087013590509295509295509295565b600060208284031215614a5557600080fd5b5035919050565b60028110614a6c57614a6c6148b7565b9052565b60c081526000614a8360c08301896146ae565b602083820381850152614a96828a6146ae565b9150614aa56040850189614a5c565b65ffffffffffff8716606085015261ffff8616608085015283820360a085015284518083528186019282019060005b81811015614af95784516001600160a01b031683529383019391830191600101614ad4565b50909b9a5050505050505050505050565b600080600060608486031215614b1f57600080fd5b83356001600160401b0380821115614b3657600080fd5b614b42878388016147de565b94506020860135915080821115614b5857600080fd5b50614b65868287016147de565b925050614b746040850161464f565b90509250925092565b604081526000614b9060408301856146ae565b905063ffffffff831660208301529392505050565b6001600160a01b0385168152608060208201819052600090614bc9908301866146ae565b84151560408401528281036060840152614be381856146ae565b979650505050505050565b65ffffffffffff861681526001600160a01b038516602082015260a060408201819052600090614c20908301866146ae565b8281036060840152614c3281866146ae565b90508281036080840152614c4681856146da565b98975050505050505050565b604081526000614c6560408301856146ae565b8281036020840152614c7781856146ae565b95945050505050565b60008060408385031215614c9357600080fd5b614c9c8361464f565b9150614caa60208401614988565b90509250929050565b60008060408385031215614cc657600080fd5b82356001600160401b0380821115614cdd57600080fd5b614ce9868387016147de565b93506020850135915080821115614cff57600080fd5b506148ad858286016147de565b65ffffffffffff861681526001600160a01b038516602082015260a060408201819052600090614d3e908301866146ae565b84151560608401528281036080840152614c4681856146ae565b600060208284031215614d6a57600080fd5b813565ffffffffffff8116811461468357600080fd5b60a081526000614d9360a08301886146ae565b8281036020840152614da581886146ae565b915050614db56040830186614a5c565b61ffff8416606083015265ffffffffffff831660808301529695505050505050565b6000610100808352614deb8184018c6146ae565b6001600160a01b038b166020850152604084018a90526060840189905263ffffffff8816608085015283810360a08501529050614e2881876146ae565b905082810360c0840152614e3c81866146ae565b905082810360e0840152614e5081856146ae565b9b9a5050505050505050505050565b600080600060608486031215614e7457600080fd5b83356001600160401b0380821115614e8b57600080fd5b614e97878388016147de565b94506020860135915080821115614ead57600080fd5b50614eba868287016147de565b925050604084013560028110614ecf57600080fd5b809150509250925092565b602080825260169082015275092dcecc2d8d2c840cad8cac6e8d2dedc40d2dcc8caf60531b604082015260600190565b634e487b7160e01b600052603260045260246000fd5b600181811c90821680614f3457607f821691505b602082108103614f5457634e487b7160e01b600052602260045260246000fd5b50919050565b634e487b7160e01b600052601160045260246000fd5b600060ff821660ff8103614f8657614f86614f5a565b60010192915050565b6020808252600c908201526b155b985d5d1a1bdc9a5e995960a21b604082015260600190565b6020808252601c908201527f456c656374696f6e20697320616c72656164792066696e697368656400000000604082015260600190565b60008251614ffe81846020870161468a565b9190910192915050565b600080835461501681614f20565b6001828116801561502e576001811461504357615072565b60ff1984168752821515830287019450615072565b8760005260208060002060005b858110156150695781548a820152908401908201615050565b50505082870194505b50929695505050505050565b600063ffffffff80831681810361509757615097614f5a565b6001019392505050565b60208082526019908201527813dc99d85b9a5e985d1a5bdb881251081b9bdd08199bdd5b99603a1b604082015260600190565b80820180821115613cf157613cf1614f5a565b601f82111561513157600081815260208120601f850160051c8101602086101561510e5750805b601f850160051c820191505b8181101561512d5782815560010161511a565b5050505b505050565b81516001600160401b0381111561514f5761514f6147c8565b6151638161515d8454614f20565b846150e7565b602080601f83116001811461519857600084156151805750858301515b600019600386901b1c1916600185901b17855561512d565b600085815260208120601f198616915b828110156151c7578886015182559484019460019091019084016151a8565b50858210156151e55787850151600019600388901b60f8161c191681555b5050505050600190811b01905550565b600061ffff80831681810361509757615097614f5a565b600065ffffffffffff80831681810361509757615097614f5a565b60208082526016908201527513dc99d85b9a5e985d1a5bdb881b9bdd08199bdd5b9960521b604082015260600190565b60006001820161526957615269614f5a565b5060010190565b63ffffffff81811683821601908082111561528d5761528d614f5a565b509291505056fea2646970667358221220a453b49cb12922d74dc8e51491edcaef7275a87de450bf199e710c3c07d8a66e64736f6c63430008120033",
			"opcodes": "PUSH1 0x80 PUSH1 0x40 MSTORE PUSH1 0x2 DUP1 SLOAD PUSH32 0xFFFFFFFF00000000FFFFFFFF0000000000000000000000000000000000000000 AND CALLER PUSH4 0xFFFFFFFF PUSH1 0xC0 SHL NOT AND OR PUSH1 0x5 PUSH1 0xC1 SHL OR SWAP1 SSTORE CALLVALUE DUP1 ISZERO PUSH3 0x4B JUMPI PUSH1 0x0 DUP1 REVERT JUMPDEST POP PUSH1 0x40 MLOAD PUSH3 0x53AE CODESIZE SUB DUP1 PUSH3 0x53AE DUP4 CODECOPY DUP2 ADD PUSH1 0x40 DUP2 SWAP1 MSTORE PUSH3 0x6E SWAP2 PUSH3 0xA2 JUMP JUMPDEST PUSH1 0x1 DUP1 SLOAD CALLER PUSH1 0x1 PUSH1 0x1 PUSH1 0xA0 SHL SUB NOT SWAP2 DUP3 AND OR SWAP1 SWAP2 SSTORE PUSH1 0x2 DUP1 SLOAD SWAP1 SWAP2 AND PUSH1 0x1 PUSH1 0x1 PUSH1 0xA0 SHL SUB SWAP3 SWAP1 SWAP3 AND SWAP2 SWAP1 SWAP2 OR SWAP1 SSTORE PUSH3 0xD4 JUMP JUMPDEST PUSH1 0x0 PUSH1 0x20 DUP3 DUP5 SUB SLT ISZERO PUSH3 0xB5 JUMPI PUSH1 0x0 DUP1 REVERT JUMPDEST DUP2 MLOAD PUSH1 0x1 PUSH1 0x1 PUSH1 0xA0 SHL SUB DUP2 AND DUP2 EQ PUSH3 0xCD JUMPI PUSH1 0x0 DUP1 REVERT JUMPDEST SWAP4 SWAP3 POP POP POP JUMP JUMPDEST PUSH2 0x52CA DUP1 PUSH3 0xE4 PUSH1 0x0 CODECOPY PUSH1 0x0 RETURN INVALID PUSH1 0x80 PUSH1 0x40 MSTORE CALLVALUE DUP1 ISZERO PUSH2 0x10 JUMPI PUSH1 0x0 DUP1 REVERT JUMPDEST POP PUSH1 0x4 CALLDATASIZE LT PUSH2 0x19A JUMPI PUSH1 0x0 CALLDATALOAD PUSH1 0xE0 SHR DUP1 PUSH4 0x7D70CBAF GT PUSH2 0xE4 JUMPI DUP1 PUSH4 0xA3EC138D GT PUSH2 0x92 JUMPI DUP1 PUSH4 0xA3EC138D EQ PUSH2 0x41F JUMPI DUP1 PUSH4 0xA50F9495 EQ PUSH2 0x443 JUMPI DUP1 PUSH4 0xADF457EF EQ PUSH2 0x466 JUMPI DUP1 PUSH4 0xCE606EE0 EQ PUSH2 0x479 JUMPI DUP1 PUSH4 0xE792DD8A EQ PUSH2 0x4A4 JUMPI DUP1 PUSH4 0xEBE0C48F EQ PUSH2 0x4C8 JUMPI DUP1 PUSH4 0xF53CBB2D EQ PUSH2 0x4EF JUMPI DUP1 PUSH4 0xF96EF609 EQ PUSH2 0x502 JUMPI PUSH1 0x0 DUP1 REVERT JUMPDEST DUP1 PUSH4 0x7D70CBAF EQ PUSH2 0x37D JUMPI DUP1 PUSH4 0x82A35529 EQ PUSH2 0x38E JUMPI DUP1 PUSH4 0x94C04F97 EQ PUSH2 0x3A7 JUMPI DUP1 PUSH4 0x9767FB72 EQ PUSH2 0x3BD JUMPI DUP1 PUSH4 0x98C07938 EQ PUSH2 0x3D0 JUMPI DUP1 PUSH4 0xA14FF011 EQ PUSH2 0x3F9 JUMPI DUP1 PUSH4 0xA3AE58BA EQ PUSH2 0x40C JUMPI PUSH1 0x0 DUP1 REVERT JUMPDEST DUP1 PUSH4 0x4509BEB3 GT PUSH2 0x14C JUMPI DUP1 PUSH4 0x4509BEB3 EQ PUSH2 0x2B1 JUMPI DUP1 PUSH4 0x4526F690 EQ PUSH2 0x2C4 JUMPI DUP1 PUSH4 0x478A5FC2 EQ PUSH2 0x2E9 JUMPI DUP1 PUSH4 0x4DAA8E1D EQ PUSH2 0x2FC JUMPI DUP1 PUSH4 0x579CDF17 EQ PUSH2 0x30F JUMPI DUP1 PUSH4 0x5DED1BD6 EQ PUSH2 0x322 JUMPI DUP1 PUSH4 0x5E1B71EA EQ PUSH2 0x339 JUMPI DUP1 PUSH4 0x63A846F8 EQ PUSH2 0x35A JUMPI PUSH1 0x0 DUP1 REVERT JUMPDEST DUP1 PUSH4 0x3EF6D02 EQ PUSH2 0x19F JUMPI DUP1 PUSH4 0xB2A0904 EQ PUSH2 0x1C9 JUMPI DUP1 PUSH4 0x15A1349B EQ PUSH2 0x1E9 JUMPI DUP1 PUSH4 0x29C8C595 EQ PUSH2 0x1FE JUMPI DUP1 PUSH4 0x2C751D30 EQ PUSH2 0x22F JUMPI DUP1 PUSH4 0x36CAD6BF EQ PUSH2 0x256 JUMPI DUP1 PUSH4 0x3C36FFAE EQ PUSH2 0x27E JUMPI JUMPDEST PUSH1 0x0 DUP1 REVERT JUMPDEST PUSH2 0x1B2 PUSH2 0x1AD CALLDATASIZE PUSH1 0x4 PUSH2 0x4668 JUMP JUMPDEST PUSH2 0x530 JUMP JUMPDEST PUSH1 0x40 MLOAD PUSH2 0x1C0 SWAP3 SWAP2 SWAP1 PUSH2 0x472F JUMP JUMPDEST PUSH1 0x40 MLOAD DUP1 SWAP2 SUB SWAP1 RETURN JUMPDEST PUSH2 0x1DC PUSH2 0x1D7 CALLDATASIZE PUSH1 0x4 PUSH2 0x478C JUMP JUMPDEST PUSH2 0x803 JUMP JUMPDEST PUSH1 0x40 MLOAD PUSH2 0x1C0 SWAP2 SWAP1 PUSH2 0x47B5 JUMP JUMPDEST PUSH2 0x1FC PUSH2 0x1F7 CALLDATASIZE PUSH1 0x4 PUSH2 0x4668 JUMP JUMPDEST PUSH2 0x89D JUMP JUMPDEST STOP JUMPDEST PUSH2 0x211 PUSH2 0x20C CALLDATASIZE PUSH1 0x4 PUSH2 0x486A JUMP JUMPDEST PUSH2 0x9DD JUMP JUMPDEST PUSH1 0x40 DUP1 MLOAD PUSH1 0xFF SWAP1 SWAP4 AND DUP4 MSTORE PUSH4 0xFFFFFFFF SWAP1 SWAP2 AND PUSH1 0x20 DUP4 ADD MSTORE ADD PUSH2 0x1C0 JUMP JUMPDEST PUSH2 0x242 PUSH2 0x23D CALLDATASIZE PUSH1 0x4 PUSH2 0x4668 JUMP JUMPDEST PUSH2 0xB9A JUMP JUMPDEST PUSH1 0x40 MLOAD PUSH2 0x1C0 SWAP9 SWAP8 SWAP7 SWAP6 SWAP5 SWAP4 SWAP3 SWAP2 SWAP1 PUSH2 0x48CD JUMP JUMPDEST PUSH2 0x269 PUSH2 0x264 CALLDATASIZE PUSH1 0x4 PUSH2 0x494C JUMP JUMPDEST PUSH2 0xD7D JUMP JUMPDEST PUSH1 0x40 MLOAD PUSH4 0xFFFFFFFF SWAP1 SWAP2 AND DUP2 MSTORE PUSH1 0x20 ADD PUSH2 0x1C0 JUMP JUMPDEST PUSH2 0x2A1 PUSH2 0x28C CALLDATASIZE PUSH1 0x4 PUSH2 0x478C JUMP JUMPDEST PUSH1 0x4 PUSH1 0x20 MSTORE PUSH1 0x0 SWAP1 DUP2 MSTORE PUSH1 0x40 SWAP1 KECCAK256 SLOAD PUSH1 0xFF AND DUP2 JUMP JUMPDEST PUSH1 0x40 MLOAD SWAP1 ISZERO ISZERO DUP2 MSTORE PUSH1 0x20 ADD PUSH2 0x1C0 JUMP JUMPDEST PUSH2 0x1FC PUSH2 0x2BF CALLDATASIZE PUSH1 0x4 PUSH2 0x4999 JUMP JUMPDEST PUSH2 0xE5A JUMP JUMPDEST PUSH2 0x2D7 PUSH2 0x2D2 CALLDATASIZE PUSH1 0x4 PUSH2 0x4A43 JUMP JUMPDEST PUSH2 0x1278 JUMP JUMPDEST PUSH1 0x40 MLOAD PUSH2 0x1C0 SWAP7 SWAP6 SWAP5 SWAP4 SWAP3 SWAP2 SWAP1 PUSH2 0x4A70 JUMP JUMPDEST PUSH2 0x1FC PUSH2 0x2F7 CALLDATASIZE PUSH1 0x4 PUSH2 0x4B0A JUMP JUMPDEST PUSH2 0x1593 JUMP JUMPDEST PUSH2 0x1FC PUSH2 0x30A CALLDATASIZE PUSH1 0x4 PUSH2 0x486A JUMP JUMPDEST PUSH2 0x1959 JUMP JUMPDEST PUSH2 0x1DC PUSH2 0x31D CALLDATASIZE PUSH1 0x4 PUSH2 0x478C JUMP JUMPDEST PUSH2 0x1D81 JUMP JUMPDEST PUSH1 0x2 SLOAD PUSH2 0x269 SWAP1 PUSH1 0x1 PUSH1 0xC0 SHL SWAP1 DIV PUSH4 0xFFFFFFFF AND DUP2 JUMP JUMPDEST PUSH2 0x34C PUSH2 0x347 CALLDATASIZE PUSH1 0x4 PUSH2 0x4668 JUMP JUMPDEST PUSH2 0x1EF8 JUMP JUMPDEST PUSH1 0x40 MLOAD PUSH2 0x1C0 SWAP3 SWAP2 SWAP1 PUSH2 0x4B7D JUMP JUMPDEST PUSH2 0x36D PUSH2 0x368 CALLDATASIZE PUSH1 0x4 PUSH2 0x478C JUMP JUMPDEST PUSH2 0x20C9 JUMP JUMPDEST PUSH1 0x40 MLOAD PUSH2 0x1C0 SWAP5 SWAP4 SWAP3 SWAP2 SWAP1 PUSH2 0x4BA5 JUMP JUMPDEST PUSH1 0x0 SLOAD PUSH1 0x40 MLOAD SWAP1 DUP2 MSTORE PUSH1 0x20 ADD PUSH2 0x1C0 JUMP JUMPDEST PUSH2 0x396 PUSH2 0x2215 JUMP JUMPDEST PUSH1 0x40 MLOAD PUSH2 0x1C0 SWAP6 SWAP5 SWAP4 SWAP3 SWAP2 SWAP1 PUSH2 0x4BEE JUMP JUMPDEST PUSH2 0x3AF PUSH2 0x24A3 JUMP JUMPDEST PUSH1 0x40 MLOAD PUSH2 0x1C0 SWAP3 SWAP2 SWAP1 PUSH2 0x4C52 JUMP JUMPDEST PUSH2 0x1FC PUSH2 0x3CB CALLDATASIZE PUSH1 0x4 PUSH2 0x4C80 JUMP JUMPDEST PUSH2 0x2738 JUMP JUMPDEST PUSH1 0x3 SLOAD PUSH2 0x3E2 SWAP1 PUSH6 0xFFFFFFFFFFFF AND DUP2 JUMP JUMPDEST PUSH1 0x40 MLOAD PUSH6 0xFFFFFFFFFFFF SWAP1 SWAP2 AND DUP2 MSTORE PUSH1 0x20 ADD PUSH2 0x1C0 JUMP JUMPDEST PUSH2 0x1FC PUSH2 0x407 CALLDATASIZE PUSH1 0x4 PUSH2 0x486A JUMP JUMPDEST PUSH2 0x2C38 JUMP JUMPDEST PUSH2 0x1FC PUSH2 0x41A CALLDATASIZE PUSH1 0x4 PUSH2 0x4CB3 JUMP JUMPDEST PUSH2 0x2F42 JUMP JUMPDEST PUSH2 0x432 PUSH2 0x42D CALLDATASIZE PUSH1 0x4 PUSH2 0x478C JUMP JUMPDEST PUSH2 0x314A JUMP JUMPDEST PUSH1 0x40 MLOAD PUSH2 0x1C0 SWAP6 SWAP5 SWAP4 SWAP3 SWAP2 SWAP1 PUSH2 0x4D0C JUMP JUMPDEST PUSH2 0x2A1 PUSH2 0x451 CALLDATASIZE PUSH1 0x4 PUSH2 0x4D58 JUMP JUMPDEST PUSH1 0xC PUSH1 0x20 MSTORE PUSH1 0x0 SWAP1 DUP2 MSTORE PUSH1 0x40 SWAP1 KECCAK256 SLOAD PUSH1 0xFF AND DUP2 JUMP JUMPDEST PUSH2 0x1DC PUSH2 0x474 CALLDATASIZE PUSH1 0x4 PUSH2 0x478C JUMP JUMPDEST PUSH2 0x32A7 JUMP JUMPDEST PUSH1 0x1 SLOAD PUSH2 0x48C SWAP1 PUSH1 0x1 PUSH1 0x1 PUSH1 0xA0 SHL SUB AND DUP2 JUMP JUMPDEST PUSH1 0x40 MLOAD PUSH1 0x1 PUSH1 0x1 PUSH1 0xA0 SHL SUB SWAP1 SWAP2 AND DUP2 MSTORE PUSH1 0x20 ADD PUSH2 0x1C0 JUMP JUMPDEST PUSH2 0x4B7 PUSH2 0x4B2 CALLDATASIZE PUSH1 0x4 PUSH2 0x4A43 JUMP JUMPDEST PUSH2 0x32C0 JUMP JUMPDEST PUSH1 0x40 MLOAD PUSH2 0x1C0 SWAP6 SWAP5 SWAP4 SWAP3 SWAP2 SWAP1 PUSH2 0x4D80 JUMP JUMPDEST PUSH2 0x4DB PUSH2 0x4D6 CALLDATASIZE PUSH1 0x4 PUSH2 0x4668 JUMP JUMPDEST PUSH2 0x3427 JUMP JUMPDEST PUSH1 0x40 MLOAD PUSH2 0x1C0 SWAP9 SWAP8 SWAP7 SWAP6 SWAP5 SWAP4 SWAP3 SWAP2 SWAP1 PUSH2 0x4DD7 JUMP JUMPDEST PUSH2 0x1FC PUSH2 0x4FD CALLDATASIZE PUSH1 0x4 PUSH2 0x4E5F JUMP JUMPDEST PUSH2 0x369C JUMP JUMPDEST PUSH2 0x2A1 PUSH2 0x510 CALLDATASIZE PUSH1 0x4 PUSH2 0x494C JUMP JUMPDEST DUP1 MLOAD PUSH1 0x20 DUP2 DUP4 ADD DUP2 ADD DUP1 MLOAD PUSH1 0x8 DUP3 MSTORE SWAP3 DUP3 ADD SWAP2 SWAP1 SWAP4 ADD KECCAK256 SWAP2 MSTORE SLOAD PUSH1 0xFF AND DUP2 JUMP JUMPDEST PUSH1 0x2 SLOAD PUSH1 0x60 SWAP1 DUP2 SWAP1 PUSH4 0xFFFFFFFF PUSH1 0x1 PUSH1 0xA0 SHL SWAP1 SWAP2 DIV DUP2 AND SWAP1 DUP5 AND LT PUSH2 0x570 JUMPI PUSH1 0x40 MLOAD PUSH3 0x461BCD PUSH1 0xE5 SHL DUP2 MSTORE PUSH1 0x4 ADD PUSH2 0x567 SWAP1 PUSH2 0x4EDA JUMP JUMPDEST PUSH1 0x40 MLOAD DUP1 SWAP2 SUB SWAP1 REVERT JUMPDEST PUSH4 0xFFFFFFFF DUP4 AND PUSH1 0x0 SWAP1 DUP2 MSTORE PUSH1 0x6 PUSH1 0x20 MSTORE PUSH1 0x40 DUP2 KECCAK256 SWAP1 PUSH1 0x7 DUP3 ADD SLOAD PUSH1 0xFF AND PUSH1 0x2 DUP2 GT ISZERO PUSH2 0x59F JUMPI PUSH2 0x59F PUSH2 0x48B7 JUMP JUMPDEST SUB PUSH2 0x5FC JUMPI PUSH1 0x40 MLOAD PUSH3 0x461BCD PUSH1 0xE5 SHL DUP2 MSTORE PUSH1 0x20 PUSH1 0x4 DUP3 ADD MSTORE PUSH1 0x27 PUSH1 0x24 DUP3 ADD MSTORE PUSH32 0x456C656374696F6E206973206E6F7420696E2070726F6772657373206F722066 PUSH1 0x44 DUP3 ADD MSTORE PUSH7 0x1A5B9A5CDA1959 PUSH1 0xCA SHL PUSH1 0x64 DUP3 ADD MSTORE PUSH1 0x84 ADD PUSH2 0x567 JUMP JUMPDEST PUSH1 0x6 DUP2 ADD SLOAD PUSH1 0x0 SWAP1 PUSH1 0x1 PUSH1 0x1 PUSH1 0x40 SHL SUB DUP2 GT ISZERO PUSH2 0x61B JUMPI PUSH2 0x61B PUSH2 0x47C8 JUMP JUMPDEST PUSH1 0x40 MLOAD SWAP1 DUP1 DUP3 MSTORE DUP1 PUSH1 0x20 MUL PUSH1 0x20 ADD DUP3 ADD PUSH1 0x40 MSTORE DUP1 ISZERO PUSH2 0x64E JUMPI DUP2 PUSH1 0x20 ADD JUMPDEST PUSH1 0x60 DUP2 MSTORE PUSH1 0x20 ADD SWAP1 PUSH1 0x1 SWAP1 SUB SWAP1 DUP2 PUSH2 0x639 JUMPI SWAP1 POP JUMPDEST POP PUSH1 0x6 DUP4 ADD SLOAD SWAP1 SWAP2 POP PUSH1 0x0 SWAP1 PUSH1 0x1 PUSH1 0x1 PUSH1 0x40 SHL SUB DUP2 GT ISZERO PUSH2 0x671 JUMPI PUSH2 0x671 PUSH2 0x47C8 JUMP JUMPDEST PUSH1 0x40 MLOAD SWAP1 DUP1 DUP3 MSTORE DUP1 PUSH1 0x20 MUL PUSH1 0x20 ADD DUP3 ADD PUSH1 0x40 MSTORE DUP1 ISZERO PUSH2 0x69A JUMPI DUP2 PUSH1 0x20 ADD PUSH1 0x20 DUP3 MUL DUP1 CALLDATASIZE DUP4 CALLDATACOPY ADD SWAP1 POP JUMPDEST POP SWAP1 POP PUSH1 0x0 JUMPDEST PUSH1 0x6 DUP5 ADD SLOAD PUSH1 0xFF DUP3 AND LT ISZERO PUSH2 0x7F7 JUMPI DUP4 PUSH1 0x6 ADD DUP2 PUSH1 0xFF AND DUP2 SLOAD DUP2 LT PUSH2 0x6C7 JUMPI PUSH2 0x6C7 PUSH2 0x4F0A JUMP JUMPDEST SWAP1 PUSH1 0x0 MSTORE PUSH1 0x20 PUSH1 0x0 KECCAK256 SWAP1 PUSH1 0x3 MUL ADD PUSH1 0x1 ADD DUP1 SLOAD PUSH2 0x6E3 SWAP1 PUSH2 0x4F20 JUMP JUMPDEST DUP1 PUSH1 0x1F ADD PUSH1 0x20 DUP1 SWAP2 DIV MUL PUSH1 0x20 ADD PUSH1 0x40 MLOAD SWAP1 DUP2 ADD PUSH1 0x40 MSTORE DUP1 SWAP3 SWAP2 SWAP1 DUP2 DUP2 MSTORE PUSH1 0x20 ADD DUP3 DUP1 SLOAD PUSH2 0x70F SWAP1 PUSH2 0x4F20 JUMP JUMPDEST DUP1 ISZERO PUSH2 0x75C JUMPI DUP1 PUSH1 0x1F LT PUSH2 0x731 JUMPI PUSH2 0x100 DUP1 DUP4 SLOAD DIV MUL DUP4 MSTORE SWAP2 PUSH1 0x20 ADD SWAP2 PUSH2 0x75C JUMP JUMPDEST DUP3 ADD SWAP2 SWAP1 PUSH1 0x0 MSTORE PUSH1 0x20 PUSH1 0x0 KECCAK256 SWAP1 JUMPDEST DUP2 SLOAD DUP2 MSTORE SWAP1 PUSH1 0x1 ADD SWAP1 PUSH1 0x20 ADD DUP1 DUP4 GT PUSH2 0x73F JUMPI DUP3 SWAP1 SUB PUSH1 0x1F AND DUP3 ADD SWAP2 JUMPDEST POP POP POP POP POP DUP4 DUP3 PUSH1 0xFF AND DUP2 MLOAD DUP2 LT PUSH2 0x776 JUMPI PUSH2 0x776 PUSH2 0x4F0A JUMP JUMPDEST PUSH1 0x20 MUL PUSH1 0x20 ADD ADD DUP2 SWAP1 MSTORE POP DUP4 PUSH1 0x6 ADD DUP2 PUSH1 0xFF AND DUP2 SLOAD DUP2 LT PUSH2 0x799 JUMPI PUSH2 0x799 PUSH2 0x4F0A JUMP JUMPDEST SWAP1 PUSH1 0x0 MSTORE PUSH1 0x20 PUSH1 0x0 KECCAK256 SWAP1 PUSH1 0x3 MUL ADD PUSH1 0x2 ADD PUSH1 0x0 SWAP1 SLOAD SWAP1 PUSH2 0x100 EXP SWAP1 DIV PUSH4 0xFFFFFFFF AND DUP3 DUP3 PUSH1 0xFF AND DUP2 MLOAD DUP2 LT PUSH2 0x7D0 JUMPI PUSH2 0x7D0 PUSH2 0x4F0A JUMP JUMPDEST PUSH4 0xFFFFFFFF SWAP1 SWAP3 AND PUSH1 0x20 SWAP3 DUP4 MUL SWAP2 SWAP1 SWAP2 ADD SWAP1 SWAP2 ADD MSTORE DUP1 PUSH2 0x7EF DUP2 PUSH2 0x4F70 JUMP JUMPDEST SWAP2 POP POP PUSH2 0x6A0 JUMP JUMPDEST POP SWAP1 SWAP6 SWAP1 SWAP5 POP SWAP3 POP POP POP JUMP JUMPDEST PUSH1 0x9 PUSH1 0x20 MSTORE PUSH1 0x0 SWAP1 DUP2 MSTORE PUSH1 0x40 SWAP1 KECCAK256 DUP1 SLOAD PUSH2 0x81C SWAP1 PUSH2 0x4F20 JUMP JUMPDEST DUP1 PUSH1 0x1F ADD PUSH1 0x20 DUP1 SWAP2 DIV MUL PUSH1 0x20 ADD PUSH1 0x40 MLOAD SWAP1 DUP2 ADD PUSH1 0x40 MSTORE DUP1 SWAP3 SWAP2 SWAP1 DUP2 DUP2 MSTORE PUSH1 0x20 ADD DUP3 DUP1 SLOAD PUSH2 0x848 SWAP1 PUSH2 0x4F20 JUMP JUMPDEST DUP1 ISZERO PUSH2 0x895 JUMPI DUP1 PUSH1 0x1F LT PUSH2 0x86A JUMPI PUSH2 0x100 DUP1 DUP4 SLOAD DIV MUL DUP4 MSTORE SWAP2 PUSH1 0x20 ADD SWAP2 PUSH2 0x895 JUMP JUMPDEST DUP3 ADD SWAP2 SWAP1 PUSH1 0x0 MSTORE PUSH1 0x20 PUSH1 0x0 KECCAK256 SWAP1 JUMPDEST DUP2 SLOAD DUP2 MSTORE SWAP1 PUSH1 0x1 ADD SWAP1 PUSH1 0x20 ADD DUP1 DUP4 GT PUSH2 0x878 JUMPI DUP3 SWAP1 SUB PUSH1 0x1F AND DUP3 ADD SWAP2 JUMPDEST POP POP POP POP POP DUP2 JUMP JUMPDEST PUSH1 0x1 SLOAD PUSH1 0x1 PUSH1 0x1 PUSH1 0xA0 SHL SUB AND CALLER EQ DUP1 PUSH2 0x8C5 JUMPI POP CALLER PUSH1 0x0 SWAP1 DUP2 MSTORE PUSH1 0x4 PUSH1 0x20 MSTORE PUSH1 0x40 SWAP1 KECCAK256 SLOAD PUSH1 0xFF AND JUMPDEST PUSH2 0x8E1 JUMPI PUSH1 0x40 MLOAD PUSH3 0x461BCD PUSH1 0xE5 SHL DUP2 MSTORE PUSH1 0x4 ADD PUSH2 0x567 SWAP1 PUSH2 0x4F8F JUMP JUMPDEST PUSH1 0x2 SLOAD PUSH4 0xFFFFFFFF PUSH1 0x1 PUSH1 0xA0 SHL SWAP1 SWAP2 DIV DUP2 AND SWAP1 DUP3 AND LT PUSH2 0x913 JUMPI PUSH1 0x40 MLOAD PUSH3 0x461BCD PUSH1 0xE5 SHL DUP2 MSTORE PUSH1 0x4 ADD PUSH2 0x567 SWAP1 PUSH2 0x4EDA JUMP JUMPDEST PUSH4 0xFFFFFFFF DUP2 AND PUSH1 0x0 SWAP1 DUP2 MSTORE PUSH1 0x6 PUSH1 0x20 MSTORE PUSH1 0x40 SWAP1 KECCAK256 PUSH1 0x2 PUSH1 0x7 DUP3 ADD SLOAD PUSH1 0xFF AND PUSH1 0x2 DUP2 GT ISZERO PUSH2 0x943 JUMPI PUSH2 0x943 PUSH2 0x48B7 JUMP JUMPDEST SUB PUSH2 0x960 JUMPI PUSH1 0x40 MLOAD PUSH3 0x461BCD PUSH1 0xE5 SHL DUP2 MSTORE PUSH1 0x4 ADD PUSH2 0x567 SWAP1 PUSH2 0x4FB5 JUMP JUMPDEST PUSH1 0x0 PUSH1 0x7 DUP3 ADD SLOAD PUSH1 0xFF AND PUSH1 0x2 DUP2 GT ISZERO PUSH2 0x97B JUMPI PUSH2 0x97B PUSH2 0x48B7 JUMP JUMPDEST EQ PUSH2 0x9C4 JUMPI PUSH1 0x40 MLOAD PUSH3 0x461BCD PUSH1 0xE5 SHL DUP2 MSTORE PUSH1 0x20 PUSH1 0x4 DUP3 ADD MSTORE PUSH1 0x19 PUSH1 0x24 DUP3 ADD MSTORE PUSH25 0x115B1958DD1A5BDB881A5CC81B9BDD081CD8DA19591D5B1959 PUSH1 0x3A SHL PUSH1 0x44 DUP3 ADD MSTORE PUSH1 0x64 ADD PUSH2 0x567 JUMP JUMPDEST PUSH1 0x7 DUP2 ADD DUP1 SLOAD PUSH1 0xFF NOT AND PUSH1 0x1 OR SWAP1 SSTORE TIMESTAMP PUSH1 0x3 SWAP1 SWAP2 ADD SSTORE POP JUMP JUMPDEST PUSH1 0x2 SLOAD PUSH1 0x0 SWAP1 DUP2 SWAP1 PUSH4 0xFFFFFFFF PUSH1 0x1 PUSH1 0xA0 SHL SWAP1 SWAP2 DIV DUP2 AND SWAP1 DUP6 AND LT PUSH2 0xA14 JUMPI PUSH1 0x40 MLOAD PUSH3 0x461BCD PUSH1 0xE5 SHL DUP2 MSTORE PUSH1 0x4 ADD PUSH2 0x567 SWAP1 PUSH2 0x4EDA JUMP JUMPDEST PUSH4 0xFFFFFFFF DUP5 AND PUSH1 0x0 SWAP1 DUP2 MSTORE PUSH1 0x6 PUSH1 0x20 MSTORE PUSH1 0x40 DUP2 KECCAK256 SWAP1 JUMPDEST PUSH1 0x6 DUP3 ADD SLOAD PUSH1 0xFF DUP3 AND LT ISZERO PUSH2 0xB34 JUMPI DUP5 PUSH1 0x40 MLOAD PUSH1 0x20 ADD PUSH2 0xA4B SWAP2 SWAP1 PUSH2 0x4FEC JUMP JUMPDEST PUSH1 0x40 MLOAD PUSH1 0x20 DUP2 DUP4 SUB SUB DUP2 MSTORE SWAP1 PUSH1 0x40 MSTORE DUP1 MLOAD SWAP1 PUSH1 0x20 ADD KECCAK256 DUP3 PUSH1 0x6 ADD DUP3 PUSH1 0xFF AND DUP2 SLOAD DUP2 LT PUSH2 0xA79 JUMPI PUSH2 0xA79 PUSH2 0x4F0A JUMP JUMPDEST SWAP1 PUSH1 0x0 MSTORE PUSH1 0x20 PUSH1 0x0 KECCAK256 SWAP1 PUSH1 0x3 MUL ADD PUSH1 0x1 ADD PUSH1 0x40 MLOAD PUSH1 0x20 ADD PUSH2 0xA9A SWAP2 SWAP1 PUSH2 0x5008 JUMP JUMPDEST PUSH1 0x40 MLOAD PUSH1 0x20 DUP2 DUP4 SUB SUB DUP2 MSTORE SWAP1 PUSH1 0x40 MSTORE DUP1 MLOAD SWAP1 PUSH1 0x20 ADD KECCAK256 SUB PUSH2 0xB22 JUMPI DUP2 PUSH1 0x6 ADD DUP2 PUSH1 0xFF AND DUP2 SLOAD DUP2 LT PUSH2 0xACD JUMPI PUSH2 0xACD PUSH2 0x4F0A JUMP JUMPDEST PUSH1 0x0 SWAP2 DUP3 MSTORE PUSH1 0x20 SWAP1 SWAP2 KECCAK256 PUSH1 0x3 SWAP1 SWAP2 MUL ADD SLOAD PUSH1 0x6 DUP4 ADD DUP1 SLOAD PUSH1 0xFF SWAP3 DUP4 AND SWAP3 DUP5 AND SWAP1 DUP2 LT PUSH2 0xAFB JUMPI PUSH2 0xAFB PUSH2 0x4F0A JUMP JUMPDEST PUSH1 0x0 SWAP2 DUP3 MSTORE PUSH1 0x20 SWAP1 SWAP2 KECCAK256 PUSH1 0x2 PUSH1 0x3 SWAP1 SWAP3 MUL ADD ADD SLOAD SWAP1 SWAP5 POP PUSH4 0xFFFFFFFF AND SWAP3 POP PUSH2 0xB93 SWAP2 POP POP JUMP JUMPDEST DUP1 PUSH2 0xB2C DUP2 PUSH2 0x4F70 JUMP JUMPDEST SWAP2 POP POP PUSH2 0xA2B JUMP JUMPDEST POP PUSH1 0x40 MLOAD PUSH3 0x461BCD PUSH1 0xE5 SHL DUP2 MSTORE PUSH1 0x20 PUSH1 0x4 DUP3 ADD MSTORE PUSH1 0x2D PUSH1 0x24 DUP3 ADD MSTORE PUSH32 0x43616E646964617465206E6F7420666F756E6420696E20746865207370656369 PUSH1 0x44 DUP3 ADD MSTORE PUSH13 0x3334B2B21032B632B1BA34B7B7 PUSH1 0x99 SHL PUSH1 0x64 DUP3 ADD MSTORE PUSH1 0x84 ADD PUSH2 0x567 JUMP JUMPDEST SWAP3 POP SWAP3 SWAP1 POP JUMP JUMPDEST PUSH1 0x6 PUSH1 0x20 MSTORE PUSH1 0x0 SWAP1 DUP2 MSTORE PUSH1 0x40 SWAP1 KECCAK256 DUP1 SLOAD DUP2 SWAP1 PUSH2 0xBB5 SWAP1 PUSH2 0x4F20 JUMP JUMPDEST DUP1 PUSH1 0x1F ADD PUSH1 0x20 DUP1 SWAP2 DIV MUL PUSH1 0x20 ADD PUSH1 0x40 MLOAD SWAP1 DUP2 ADD PUSH1 0x40 MSTORE DUP1 SWAP3 SWAP2 SWAP1 DUP2 DUP2 MSTORE PUSH1 0x20 ADD DUP3 DUP1 SLOAD PUSH2 0xBE1 SWAP1 PUSH2 0x4F20 JUMP JUMPDEST DUP1 ISZERO PUSH2 0xC2E JUMPI DUP1 PUSH1 0x1F LT PUSH2 0xC03 JUMPI PUSH2 0x100 DUP1 DUP4 SLOAD DIV MUL DUP4 MSTORE SWAP2 PUSH1 0x20 ADD SWAP2 PUSH2 0xC2E JUMP JUMPDEST DUP3 ADD SWAP2 SWAP1 PUSH1 0x0 MSTORE PUSH1 0x20 PUSH1 0x0 KECCAK256 SWAP1 JUMPDEST DUP2 SLOAD DUP2 MSTORE SWAP1 PUSH1 0x1 ADD SWAP1 PUSH1 0x20 ADD DUP1 DUP4 GT PUSH2 0xC11 JUMPI DUP3 SWAP1 SUB PUSH1 0x1F AND DUP3 ADD SWAP2 JUMPDEST POP POP POP POP POP SWAP1 DUP1 PUSH1 0x1 ADD DUP1 SLOAD PUSH2 0xC43 SWAP1 PUSH2 0x4F20 JUMP JUMPDEST DUP1 PUSH1 0x1F ADD PUSH1 0x20 DUP1 SWAP2 DIV MUL PUSH1 0x20 ADD PUSH1 0x40 MLOAD SWAP1 DUP2 ADD PUSH1 0x40 MSTORE DUP1 SWAP3 SWAP2 SWAP1 DUP2 DUP2 MSTORE PUSH1 0x20 ADD DUP3 DUP1 SLOAD PUSH2 0xC6F SWAP1 PUSH2 0x4F20 JUMP JUMPDEST DUP1 ISZERO PUSH2 0xCBC JUMPI DUP1 PUSH1 0x1F LT PUSH2 0xC91 JUMPI PUSH2 0x100 DUP1 DUP4 SLOAD DIV MUL DUP4 MSTORE SWAP2 PUSH1 0x20 ADD SWAP2 PUSH2 0xCBC JUMP JUMPDEST DUP3 ADD SWAP2 SWAP1 PUSH1 0x0 MSTORE PUSH1 0x20 PUSH1 0x0 KECCAK256 SWAP1 JUMPDEST DUP2 SLOAD DUP2 MSTORE SWAP1 PUSH1 0x1 ADD SWAP1 PUSH1 0x20 ADD DUP1 DUP4 GT PUSH2 0xC9F JUMPI DUP3 SWAP1 SUB PUSH1 0x1F AND DUP3 ADD SWAP2 JUMPDEST POP POP POP POP POP SWAP1 DUP1 PUSH1 0x2 ADD DUP1 SLOAD PUSH2 0xCD1 SWAP1 PUSH2 0x4F20 JUMP JUMPDEST DUP1 PUSH1 0x1F ADD PUSH1 0x20 DUP1 SWAP2 DIV MUL PUSH1 0x20 ADD PUSH1 0x40 MLOAD SWAP1 DUP2 ADD PUSH1 0x40 MSTORE DUP1 SWAP3 SWAP2 SWAP1 DUP2 DUP2 MSTORE PUSH1 0x20 ADD DUP3 DUP1 SLOAD PUSH2 0xCFD SWAP1 PUSH2 0x4F20 JUMP JUMPDEST DUP1 ISZERO PUSH2 0xD4A JUMPI DUP1 PUSH1 0x1F LT PUSH2 0xD1F JUMPI PUSH2 0x100 DUP1 DUP4 SLOAD DIV MUL DUP4 MSTORE SWAP2 PUSH1 0x20 ADD SWAP2 PUSH2 0xD4A JUMP JUMPDEST DUP3 ADD SWAP2 SWAP1 PUSH1 0x0 MSTORE PUSH1 0x20 PUSH1 0x0 KECCAK256 SWAP1 JUMPDEST DUP2 SLOAD DUP2 MSTORE SWAP1 PUSH1 0x1 ADD SWAP1 PUSH1 0x20 ADD DUP1 DUP4 GT PUSH2 0xD2D JUMPI DUP3 SWAP1 SUB PUSH1 0x1F AND DUP3 ADD SWAP2 JUMPDEST POP POP POP POP PUSH1 0x3 DUP4 ADD SLOAD PUSH1 0x4 DUP5 ADD SLOAD PUSH1 0x5 DUP6 ADD SLOAD PUSH1 0x7 SWAP1 SWAP6 ADD SLOAD SWAP4 SWAP5 SWAP2 SWAP4 SWAP1 SWAP3 POP PUSH1 0xFF SWAP2 DUP3 AND SWAP2 DUP1 DUP3 AND SWAP2 PUSH2 0x100 SWAP1 DIV AND DUP9 JUMP JUMPDEST PUSH1 0x0 DUP1 JUMPDEST PUSH1 0x2 SLOAD PUSH4 0xFFFFFFFF PUSH1 0x1 PUSH1 0xA0 SHL SWAP1 SWAP2 DIV DUP2 AND SWAP1 DUP3 AND LT ISZERO PUSH2 0xE1C JUMPI DUP3 PUSH1 0x40 MLOAD PUSH1 0x20 ADD PUSH2 0xDAD SWAP2 SWAP1 PUSH2 0x4FEC JUMP JUMPDEST PUSH1 0x40 DUP1 MLOAD PUSH1 0x1F NOT DUP2 DUP5 SUB ADD DUP2 MSTORE DUP3 DUP3 MSTORE DUP1 MLOAD PUSH1 0x20 SWAP2 DUP3 ADD KECCAK256 PUSH4 0xFFFFFFFF DUP6 AND PUSH1 0x0 SWAP1 DUP2 MSTORE PUSH1 0x6 DUP4 MSTORE SWAP3 SWAP1 SWAP3 KECCAK256 SWAP2 SWAP3 PUSH2 0xDE9 SWAP3 PUSH1 0x2 ADD SWAP2 ADD PUSH2 0x5008 JUMP JUMPDEST PUSH1 0x40 MLOAD PUSH1 0x20 DUP2 DUP4 SUB SUB DUP2 MSTORE SWAP1 PUSH1 0x40 MSTORE DUP1 MLOAD SWAP1 PUSH1 0x20 ADD KECCAK256 SUB PUSH2 0xE0A JUMPI SWAP3 SWAP2 POP POP JUMP JUMPDEST DUP1 PUSH2 0xE14 DUP2 PUSH2 0x507E JUMP JUMPDEST SWAP2 POP POP PUSH2 0xD81 JUMP JUMPDEST POP PUSH1 0x40 MLOAD PUSH3 0x461BCD PUSH1 0xE5 SHL DUP2 MSTORE PUSH1 0x20 PUSH1 0x4 DUP3 ADD MSTORE PUSH1 0x12 PUSH1 0x24 DUP3 ADD MSTORE PUSH18 0x115B1958DD1A5BDB881B9BDD08199BDD5B99 PUSH1 0x72 SHL PUSH1 0x44 DUP3 ADD MSTORE PUSH1 0x64 ADD PUSH2 0x567 JUMP JUMPDEST PUSH1 0x8 DUP7 PUSH1 0x40 MLOAD PUSH2 0xE6A SWAP2 SWAP1 PUSH2 0x4FEC JUMP JUMPDEST SWAP1 DUP2 MSTORE PUSH1 0x40 MLOAD SWAP1 DUP2 SWAP1 SUB PUSH1 0x20 ADD SWAP1 KECCAK256 SLOAD PUSH1 0xFF AND PUSH2 0xE99 JUMPI PUSH1 0x40 MLOAD PUSH3 0x461BCD PUSH1 0xE5 SHL DUP2 MSTORE PUSH1 0x4 ADD PUSH2 0x567 SWAP1 PUSH2 0x50A1 JUMP JUMPDEST PUSH1 0x1 DUP6 MLOAD GT PUSH2 0xEEA JUMPI PUSH1 0x40 MLOAD PUSH3 0x461BCD PUSH1 0xE5 SHL DUP2 MSTORE PUSH1 0x20 PUSH1 0x4 DUP3 ADD MSTORE PUSH1 0x1A PUSH1 0x24 DUP3 ADD MSTORE PUSH32 0x456C656374696F6E2049442063616E277420626520656D707479000000000000 PUSH1 0x44 DUP3 ADD MSTORE PUSH1 0x64 ADD PUSH2 0x567 JUMP JUMPDEST PUSH1 0x6 DUP6 MLOAD GT ISZERO PUSH2 0xF4F JUMPI PUSH1 0x40 MLOAD PUSH3 0x461BCD PUSH1 0xE5 SHL DUP2 MSTORE PUSH1 0x20 PUSH1 0x4 DUP3 ADD MSTORE PUSH1 0x2A PUSH1 0x24 DUP3 ADD MSTORE PUSH32 0x456C656374696F6E2049442073686F756C642062652036206368617261637465 PUSH1 0x44 DUP3 ADD MSTORE PUSH10 0x7273206F72206C657373 PUSH1 0xB0 SHL PUSH1 0x64 DUP3 ADD MSTORE PUSH1 0x84 ADD PUSH2 0x567 JUMP JUMPDEST PUSH1 0x1 DUP5 MLOAD GT PUSH2 0xFA0 JUMPI PUSH1 0x40 MLOAD PUSH3 0x461BCD PUSH1 0xE5 SHL DUP2 MSTORE PUSH1 0x20 PUSH1 0x4 DUP3 ADD MSTORE PUSH1 0x1C PUSH1 0x24 DUP3 ADD MSTORE PUSH32 0x456C656374696F6E206E616D652063616E277420626520656D70747900000000 PUSH1 0x44 DUP3 ADD MSTORE PUSH1 0x64 ADD PUSH2 0x567 JUMP JUMPDEST PUSH1 0xF DUP5 MLOAD GT ISZERO PUSH2 0x1008 JUMPI PUSH1 0x40 MLOAD PUSH3 0x461BCD PUSH1 0xE5 SHL DUP2 MSTORE PUSH1 0x20 PUSH1 0x4 DUP3 ADD MSTORE PUSH1 0x2D PUSH1 0x24 DUP3 ADD MSTORE PUSH32 0x456C656374696F6E206E616D652073686F756C64206265203135206368617261 PUSH1 0x44 DUP3 ADD MSTORE PUSH13 0x6374657273206F72206C657373 PUSH1 0x98 SHL PUSH1 0x64 DUP3 ADD MSTORE PUSH1 0x84 ADD PUSH2 0x567 JUMP JUMPDEST PUSH1 0x2 SLOAD PUSH4 0xFFFFFFFF PUSH1 0x1 PUSH1 0xC0 SHL DUP3 DIV DUP2 AND PUSH1 0x1 PUSH1 0xA0 SHL SWAP1 SWAP3 DIV AND LT PUSH2 0x106F JUMPI PUSH1 0x40 MLOAD PUSH3 0x461BCD PUSH1 0xE5 SHL DUP2 MSTORE PUSH1 0x20 PUSH1 0x4 DUP3 ADD MSTORE PUSH1 0x1E PUSH1 0x24 DUP3 ADD MSTORE PUSH32 0x4D6178696D756D206576656E7473206372656174656420726561636865640000 PUSH1 0x44 DUP3 ADD MSTORE PUSH1 0x64 ADD PUSH2 0x567 JUMP JUMPDEST TIMESTAMP DUP3 LT ISZERO PUSH2 0x10BF JUMPI PUSH1 0x40 MLOAD PUSH3 0x461BCD PUSH1 0xE5 SHL DUP2 MSTORE PUSH1 0x20 PUSH1 0x4 DUP3 ADD DUP2 SWAP1 MSTORE PUSH1 0x24 DUP3 ADD MSTORE PUSH32 0x53746172742074696D652063616E6E6F7420626520696E207468652070617374 PUSH1 0x44 DUP3 ADD MSTORE PUSH1 0x64 ADD PUSH2 0x567 JUMP JUMPDEST PUSH1 0x0 DUP2 GT DUP1 ISZERO PUSH2 0x10D2 JUMPI POP PUSH3 0x76A700 DUP2 GT ISZERO JUMPDEST PUSH2 0x111A JUMPI PUSH1 0x40 MLOAD PUSH3 0x461BCD PUSH1 0xE5 SHL DUP2 MSTORE PUSH1 0x20 PUSH1 0x4 DUP3 ADD MSTORE PUSH1 0x19 PUSH1 0x24 DUP3 ADD MSTORE PUSH25 0x24B73B30B634B21032B632B1BA34B7B710323AB930BA34B7B7 PUSH1 0x39 SHL PUSH1 0x44 DUP3 ADD MSTORE PUSH1 0x64 ADD PUSH2 0x567 JUMP JUMPDEST PUSH1 0x0 PUSH2 0x1126 DUP3 DUP5 PUSH2 0x50D4 JUMP JUMPDEST SWAP1 POP PUSH1 0x0 TIMESTAMP DUP5 EQ PUSH2 0x1138 JUMPI PUSH1 0x0 PUSH2 0x113B JUMP JUMPDEST PUSH1 0x1 JUMPDEST PUSH1 0x2 SLOAD PUSH1 0x1 PUSH1 0xA0 SHL SWAP1 DIV PUSH4 0xFFFFFFFF AND PUSH1 0x0 SWAP1 DUP2 MSTORE PUSH1 0x6 PUSH1 0x20 MSTORE PUSH1 0x40 SWAP1 KECCAK256 SWAP1 SWAP2 POP DUP1 PUSH2 0x1167 DUP10 DUP3 PUSH2 0x5136 JUMP JUMPDEST POP PUSH1 0x1 DUP2 ADD PUSH2 0x1176 DUP11 DUP3 PUSH2 0x5136 JUMP JUMPDEST POP PUSH1 0x2 DUP2 ADD PUSH2 0x1185 DUP9 DUP3 PUSH2 0x5136 JUMP JUMPDEST POP PUSH1 0x7 DUP2 ADD DUP1 SLOAD DUP4 SWAP2 SWAP1 PUSH1 0xFF NOT AND PUSH1 0x1 DUP4 PUSH1 0x2 DUP2 GT ISZERO PUSH2 0x11A7 JUMPI PUSH2 0x11A7 PUSH2 0x48B7 JUMP JUMPDEST MUL OR SWAP1 SSTORE POP PUSH1 0x5 DUP2 ADD DUP1 SLOAD PUSH1 0xFF NOT AND PUSH1 0xFF DUP9 AND OR SWAP1 SSTORE PUSH1 0x3 DUP2 ADD DUP6 SWAP1 SSTORE PUSH1 0x4 DUP2 ADD DUP4 SWAP1 SSTORE PUSH1 0x0 PUSH2 0x11D6 DUP11 PUSH2 0x3AEE JUMP JUMPDEST SWAP1 POP PUSH1 0x0 DUP2 PUSH2 0xFFFF AND DUP2 SLOAD DUP2 LT PUSH2 0x11EF JUMPI PUSH2 0x11EF PUSH2 0x4F0A JUMP JUMPDEST PUSH1 0x0 SWAP2 DUP3 MSTORE PUSH1 0x20 DUP3 KECCAK256 PUSH1 0x5 PUSH1 0x6 SWAP1 SWAP3 MUL ADD ADD DUP1 SLOAD PUSH2 0xFFFF AND SWAP2 PUSH2 0x1211 DUP4 PUSH2 0x51F5 JUMP JUMPDEST DUP3 SLOAD PUSH2 0xFFFF SWAP2 DUP3 AND PUSH2 0x100 SWAP4 SWAP1 SWAP4 EXP SWAP3 DUP4 MUL SWAP2 SWAP1 SWAP3 MUL NOT SWAP1 SWAP2 AND OR SWAP1 SSTORE POP PUSH1 0x2 DUP1 SLOAD PUSH4 0xFFFFFFFF PUSH1 0x1 PUSH1 0xA0 SHL SWAP1 SWAP2 DIV AND SWAP1 PUSH1 0x14 PUSH2 0x124D DUP4 PUSH2 0x507E JUMP JUMPDEST SWAP2 SWAP1 PUSH2 0x100 EXP DUP2 SLOAD DUP2 PUSH4 0xFFFFFFFF MUL NOT AND SWAP1 DUP4 PUSH4 0xFFFFFFFF AND MUL OR SWAP1 SSTORE POP POP POP POP POP POP POP POP POP POP POP POP JUMP JUMPDEST PUSH1 0x60 DUP1 PUSH1 0x0 DUP1 PUSH1 0x0 PUSH1 0x60 PUSH1 0x0 DUP1 SLOAD SWAP1 POP DUP8 LT PUSH2 0x12CC JUMPI PUSH1 0x40 MLOAD PUSH3 0x461BCD PUSH1 0xE5 SHL DUP2 MSTORE PUSH1 0x20 PUSH1 0x4 DUP3 ADD MSTORE PUSH1 0x13 PUSH1 0x24 DUP3 ADD MSTORE PUSH19 0x496E646578206F7574206F6620626F756E6473 PUSH1 0x68 SHL PUSH1 0x44 DUP3 ADD MSTORE PUSH1 0x64 ADD PUSH2 0x567 JUMP JUMPDEST PUSH1 0x0 DUP1 DUP9 DUP2 SLOAD DUP2 LT PUSH2 0x12E0 JUMPI PUSH2 0x12E0 PUSH2 0x4F0A JUMP JUMPDEST SWAP1 PUSH1 0x0 MSTORE PUSH1 0x20 PUSH1 0x0 KECCAK256 SWAP1 PUSH1 0x6 MUL ADD PUSH1 0x40 MLOAD DUP1 PUSH1 0xE0 ADD PUSH1 0x40 MSTORE SWAP1 DUP2 PUSH1 0x0 DUP3 ADD DUP1 SLOAD PUSH2 0x1309 SWAP1 PUSH2 0x4F20 JUMP JUMPDEST DUP1 PUSH1 0x1F ADD PUSH1 0x20 DUP1 SWAP2 DIV MUL PUSH1 0x20 ADD PUSH1 0x40 MLOAD SWAP1 DUP2 ADD PUSH1 0x40 MSTORE DUP1 SWAP3 SWAP2 SWAP1 DUP2 DUP2 MSTORE PUSH1 0x20 ADD DUP3 DUP1 SLOAD PUSH2 0x1335 SWAP1 PUSH2 0x4F20 JUMP JUMPDEST DUP1 ISZERO PUSH2 0x1382 JUMPI DUP1 PUSH1 0x1F LT PUSH2 0x1357 JUMPI PUSH2 0x100 DUP1 DUP4 SLOAD DIV MUL DUP4 MSTORE SWAP2 PUSH1 0x20 ADD SWAP2 PUSH2 0x1382 JUMP JUMPDEST DUP3 ADD SWAP2 SWAP1 PUSH1 0x0 MSTORE PUSH1 0x20 PUSH1 0x0 KECCAK256 SWAP1 JUMPDEST DUP2 SLOAD DUP2 MSTORE SWAP1 PUSH1 0x1 ADD SWAP1 PUSH1 0x20 ADD DUP1 DUP4 GT PUSH2 0x1365 JUMPI DUP3 SWAP1 SUB PUSH1 0x1F AND DUP3 ADD SWAP2 JUMPDEST POP POP POP POP POP DUP2 MSTORE PUSH1 0x20 ADD PUSH1 0x1 DUP3 ADD DUP1 SLOAD PUSH2 0x139B SWAP1 PUSH2 0x4F20 JUMP JUMPDEST DUP1 PUSH1 0x1F ADD PUSH1 0x20 DUP1 SWAP2 DIV MUL PUSH1 0x20 ADD PUSH1 0x40 MLOAD SWAP1 DUP2 ADD PUSH1 0x40 MSTORE DUP1 SWAP3 SWAP2 SWAP1 DUP2 DUP2 MSTORE PUSH1 0x20 ADD DUP3 DUP1 SLOAD PUSH2 0x13C7 SWAP1 PUSH2 0x4F20 JUMP JUMPDEST DUP1 ISZERO PUSH2 0x1414 JUMPI DUP1 PUSH1 0x1F LT PUSH2 0x13E9 JUMPI PUSH2 0x100 DUP1 DUP4 SLOAD DIV MUL DUP4 MSTORE SWAP2 PUSH1 0x20 ADD SWAP2 PUSH2 0x1414 JUMP JUMPDEST DUP3 ADD SWAP2 SWAP1 PUSH1 0x0 MSTORE PUSH1 0x20 PUSH1 0x0 KECCAK256 SWAP1 JUMPDEST DUP2 SLOAD DUP2 MSTORE SWAP1 PUSH1 0x1 ADD SWAP1 PUSH1 0x20 ADD DUP1 DUP4 GT PUSH2 0x13F7 JUMPI DUP3 SWAP1 SUB PUSH1 0x1F AND DUP3 ADD SWAP2 JUMPDEST POP POP POP POP POP DUP2 MSTORE PUSH1 0x20 ADD PUSH1 0x2 DUP3 ADD DUP1 SLOAD DUP1 PUSH1 0x20 MUL PUSH1 0x20 ADD PUSH1 0x40 MLOAD SWAP1 DUP2 ADD PUSH1 0x40 MSTORE DUP1 SWAP3 SWAP2 SWAP1 DUP2 DUP2 MSTORE PUSH1 0x20 ADD DUP3 DUP1 SLOAD DUP1 ISZERO PUSH2 0x1476 JUMPI PUSH1 0x20 MUL DUP3 ADD SWAP2 SWAP1 PUSH1 0x0 MSTORE PUSH1 0x20 PUSH1 0x0 KECCAK256 SWAP1 JUMPDEST DUP2 SLOAD PUSH1 0x1 PUSH1 0x1 PUSH1 0xA0 SHL SUB AND DUP2 MSTORE PUSH1 0x1 SWAP1 SWAP2 ADD SWAP1 PUSH1 0x20 ADD DUP1 DUP4 GT PUSH2 0x1458 JUMPI JUMPDEST POP POP POP SWAP2 DUP4 MSTORE POP POP PUSH1 0x3 DUP3 ADD SLOAD PUSH1 0x20 SWAP1 SWAP2 ADD SWAP1 PUSH1 0xFF AND PUSH1 0x1 DUP2 GT ISZERO PUSH2 0x149D JUMPI PUSH2 0x149D PUSH2 0x48B7 JUMP JUMPDEST PUSH1 0x1 DUP2 GT ISZERO PUSH2 0x14AE JUMPI PUSH2 0x14AE PUSH2 0x48B7 JUMP JUMPDEST DUP2 MSTORE PUSH1 0x20 ADD PUSH1 0x4 DUP3 ADD DUP1 SLOAD DUP1 PUSH1 0x20 MUL PUSH1 0x20 ADD PUSH1 0x40 MLOAD SWAP1 DUP2 ADD PUSH1 0x40 MSTORE DUP1 SWAP3 SWAP2 SWAP1 DUP2 DUP2 MSTORE PUSH1 0x20 ADD DUP3 DUP1 SLOAD DUP1 ISZERO PUSH2 0x1531 JUMPI PUSH1 0x20 MUL DUP3 ADD SWAP2 SWAP1 PUSH1 0x0 MSTORE PUSH1 0x20 PUSH1 0x0 KECCAK256 SWAP1 PUSH1 0x0 SWAP1 JUMPDEST DUP3 DUP3 SWAP1 SLOAD SWAP1 PUSH2 0x100 EXP SWAP1 DIV PUSH6 0xFFFFFFFFFFFF AND PUSH6 0xFFFFFFFFFFFF AND DUP2 MSTORE PUSH1 0x20 ADD SWAP1 PUSH1 0x6 ADD SWAP1 PUSH1 0x20 DUP3 PUSH1 0x5 ADD DIV SWAP3 DUP4 ADD SWAP3 PUSH1 0x1 SUB DUP3 MUL SWAP2 POP DUP1 DUP5 GT PUSH2 0x14F0 JUMPI SWAP1 POP JUMPDEST POP POP POP SWAP2 DUP4 MSTORE POP POP PUSH1 0x5 SWAP2 SWAP1 SWAP2 ADD SLOAD PUSH2 0xFFFF DUP2 AND PUSH1 0x20 DUP1 DUP5 ADD SWAP2 SWAP1 SWAP2 MSTORE PUSH3 0x10000 SWAP1 SWAP2 DIV PUSH6 0xFFFFFFFFFFFF AND PUSH1 0x40 SWAP3 DUP4 ADD MSTORE DUP3 MLOAD SWAP1 DUP4 ADD MLOAD PUSH1 0x60 DUP5 ADD MLOAD PUSH1 0xC0 DUP6 ADD MLOAD PUSH1 0xA0 DUP7 ADD MLOAD SWAP6 SWAP1 SWAP5 ADD MLOAD SWAP3 SWAP14 SWAP2 SWAP13 POP SWAP11 POP SWAP2 SWAP9 POP SWAP2 SWAP7 POP SWAP1 SWAP5 POP SWAP3 POP POP POP JUMP JUMPDEST PUSH1 0x8 DUP3 PUSH1 0x40 MLOAD PUSH2 0x15A3 SWAP2 SWAP1 PUSH2 0x4FEC JUMP JUMPDEST SWAP1 DUP2 MSTORE PUSH1 0x40 MLOAD SWAP1 DUP2 SWAP1 SUB PUSH1 0x20 ADD SWAP1 KECCAK256 SLOAD PUSH1 0xFF AND PUSH2 0x15D2 JUMPI PUSH1 0x40 MLOAD PUSH3 0x461BCD PUSH1 0xE5 SHL DUP2 MSTORE PUSH1 0x4 ADD PUSH2 0x567 SWAP1 PUSH2 0x50A1 JUMP JUMPDEST PUSH1 0x2 SLOAD PUSH4 0xFFFFFFFF PUSH1 0x1 PUSH1 0xA0 SHL SWAP1 SWAP2 DIV DUP2 AND SWAP1 DUP3 AND LT PUSH2 0x1604 JUMPI PUSH1 0x40 MLOAD PUSH3 0x461BCD PUSH1 0xE5 SHL DUP2 MSTORE PUSH1 0x4 ADD PUSH2 0x567 SWAP1 PUSH2 0x4EDA JUMP JUMPDEST PUSH1 0x1 DUP4 MLOAD GT PUSH2 0x1651 JUMPI PUSH1 0x40 MLOAD PUSH3 0x461BCD PUSH1 0xE5 SHL DUP2 MSTORE PUSH1 0x20 PUSH1 0x4 DUP3 ADD MSTORE PUSH1 0x19 PUSH1 0x24 DUP3 ADD MSTORE PUSH25 0x566F746572206E616D652063616E277420626520656D707479 PUSH1 0x38 SHL PUSH1 0x44 DUP3 ADD MSTORE PUSH1 0x64 ADD PUSH2 0x567 JUMP JUMPDEST PUSH1 0xF DUP4 MLOAD LT PUSH2 0x16B5 JUMPI PUSH1 0x40 MLOAD PUSH3 0x461BCD PUSH1 0xE5 SHL DUP2 MSTORE PUSH1 0x20 PUSH1 0x4 DUP3 ADD MSTORE PUSH1 0x2A PUSH1 0x24 DUP3 ADD MSTORE PUSH32 0x566F746572206E616D652073686F756C64206265203135206368617261637465 PUSH1 0x44 DUP3 ADD MSTORE PUSH10 0x7273206F72206C657373 PUSH1 0xB0 SHL PUSH1 0x64 DUP3 ADD MSTORE PUSH1 0x84 ADD PUSH2 0x567 JUMP JUMPDEST PUSH1 0x0 PUSH2 0x16C0 DUP4 PUSH2 0x3AEE JUMP JUMPDEST SWAP1 POP PUSH1 0x0 DUP1 DUP3 PUSH2 0xFFFF AND DUP2 SLOAD DUP2 LT PUSH2 0x16DA JUMPI PUSH2 0x16DA PUSH2 0x4F0A JUMP JUMPDEST PUSH1 0x0 SWAP2 DUP3 MSTORE PUSH1 0x20 DUP1 DUP4 KECCAK256 PUSH4 0xFFFFFFFF DUP8 AND DUP5 MSTORE PUSH1 0x6 DUP1 DUP4 MSTORE PUSH1 0x40 DUP1 DUP7 KECCAK256 CALLER DUP8 MSTORE PUSH1 0xB SWAP1 SWAP5 MSTORE SWAP1 SWAP5 KECCAK256 PUSH1 0x2 ADD SLOAD SWAP3 SWAP1 SWAP4 MUL SWAP1 SWAP3 ADD SWAP3 POP PUSH1 0xFF AND ISZERO PUSH2 0x175F JUMPI PUSH1 0x40 MLOAD PUSH3 0x461BCD PUSH1 0xE5 SHL DUP2 MSTORE PUSH1 0x20 PUSH1 0x4 DUP3 ADD MSTORE PUSH1 0x1B PUSH1 0x24 DUP3 ADD MSTORE PUSH32 0x566F74657220697320616C726561647920726567697374657265640000000000 PUSH1 0x44 DUP3 ADD MSTORE PUSH1 0x64 ADD PUSH2 0x567 JUMP JUMPDEST PUSH2 0x1769 DUP6 CALLER PUSH2 0x3BAB JUMP JUMPDEST ISZERO PUSH2 0x17D7 JUMPI PUSH1 0x40 MLOAD PUSH3 0x461BCD PUSH1 0xE5 SHL DUP2 MSTORE PUSH1 0x20 PUSH1 0x4 DUP3 ADD MSTORE PUSH1 0x38 PUSH1 0x24 DUP3 ADD MSTORE PUSH32 0x566F74657220697320616C7265616479207265676973746572656420696E2074 PUSH1 0x44 DUP3 ADD MSTORE PUSH24 0x34329039B2B632B1BA32B21037B933B0B734BD30BA34B7B7 PUSH1 0x41 SHL PUSH1 0x64 DUP3 ADD MSTORE PUSH1 0x84 ADD PUSH2 0x567 JUMP JUMPDEST PUSH1 0x0 PUSH2 0x17E1 PUSH2 0x3CF7 JUMP JUMPDEST PUSH1 0x40 DUP1 MLOAD PUSH1 0xC0 DUP2 ADD DUP3 MSTORE PUSH6 0xFFFFFFFFFFFF DUP4 AND DUP2 MSTORE CALLER PUSH1 0x20 DUP3 ADD MSTORE SWAP1 DUP2 ADD DUP10 SWAP1 MSTORE PUSH1 0x1 PUSH1 0x60 DUP3 ADD MSTORE SWAP1 SWAP2 POP PUSH1 0x80 DUP2 ADD PUSH1 0x0 PUSH1 0x40 MLOAD SWAP1 DUP1 DUP3 MSTORE DUP1 PUSH1 0x20 MUL PUSH1 0x20 ADD DUP3 ADD PUSH1 0x40 MSTORE DUP1 ISZERO PUSH2 0x1845 JUMPI DUP2 PUSH1 0x20 ADD JUMPDEST PUSH1 0x60 DUP2 MSTORE PUSH1 0x20 ADD SWAP1 PUSH1 0x1 SWAP1 SUB SWAP1 DUP2 PUSH2 0x1830 JUMPI SWAP1 POP JUMPDEST POP DUP2 MSTORE PUSH1 0x20 SWAP1 DUP2 ADD DUP9 SWAP1 MSTORE CALLER PUSH1 0x0 SWAP1 DUP2 MSTORE PUSH1 0xB DUP3 MSTORE PUSH1 0x40 SWAP1 DUP2 SWAP1 KECCAK256 DUP4 MLOAD DUP2 SLOAD SWAP4 DUP6 ADD MLOAD PUSH1 0x1 PUSH1 0x1 PUSH1 0xA0 SHL SUB AND PUSH1 0x1 PUSH1 0x30 SHL MUL PUSH1 0x1 PUSH1 0x1 PUSH1 0xD0 SHL SUB NOT SWAP1 SWAP5 AND PUSH6 0xFFFFFFFFFFFF SWAP1 SWAP2 AND OR SWAP3 SWAP1 SWAP3 OR DUP3 SSTORE DUP3 ADD MLOAD PUSH1 0x1 DUP3 ADD SWAP1 PUSH2 0x18A6 SWAP1 DUP3 PUSH2 0x5136 JUMP JUMPDEST POP PUSH1 0x60 DUP3 ADD MLOAD PUSH1 0x2 DUP3 ADD DUP1 SLOAD PUSH1 0xFF NOT AND SWAP2 ISZERO ISZERO SWAP2 SWAP1 SWAP2 OR SWAP1 SSTORE PUSH1 0x80 DUP3 ADD MLOAD DUP1 MLOAD PUSH2 0x18DA SWAP2 PUSH1 0x3 DUP5 ADD SWAP2 PUSH1 0x20 SWAP1 SWAP2 ADD SWAP1 PUSH2 0x4479 JUMP JUMPDEST POP PUSH1 0xA0 DUP3 ADD MLOAD PUSH1 0x4 DUP3 ADD SWAP1 PUSH2 0x18EF SWAP1 DUP3 PUSH2 0x5136 JUMP JUMPDEST POP POP CALLER PUSH1 0x0 SWAP1 DUP2 MSTORE PUSH1 0xA PUSH1 0x20 MSTORE PUSH1 0x40 SWAP1 KECCAK256 SWAP1 POP PUSH2 0x190C DUP8 DUP3 PUSH2 0x5136 JUMP JUMPDEST POP PUSH1 0x5 DUP4 ADD DUP1 SLOAD PUSH3 0x10000 SWAP1 DIV PUSH6 0xFFFFFFFFFFFF AND SWAP1 PUSH1 0x2 PUSH2 0x192D DUP4 PUSH2 0x520C JUMP JUMPDEST SWAP2 SWAP1 PUSH2 0x100 EXP DUP2 SLOAD DUP2 PUSH6 0xFFFFFFFFFFFF MUL NOT AND SWAP1 DUP4 PUSH6 0xFFFFFFFFFFFF AND MUL OR SWAP1 SSTORE POP POP POP POP POP POP POP POP POP JUMP JUMPDEST PUSH1 0x2 SLOAD PUSH4 0xFFFFFFFF PUSH1 0x1 PUSH1 0xA0 SHL SWAP1 SWAP2 DIV DUP2 AND SWAP1 DUP4 AND LT PUSH2 0x198B JUMPI PUSH1 0x40 MLOAD PUSH3 0x461BCD PUSH1 0xE5 SHL DUP2 MSTORE PUSH1 0x4 ADD PUSH2 0x567 SWAP1 PUSH2 0x4EDA JUMP JUMPDEST PUSH4 0xFFFFFFFF DUP3 AND PUSH1 0x0 SWAP1 DUP2 MSTORE PUSH1 0x6 PUSH1 0x20 MSTORE PUSH1 0x40 DUP2 KECCAK256 PUSH1 0x1 ADD DUP1 SLOAD PUSH2 0x19AE SWAP1 PUSH2 0x4F20 JUMP JUMPDEST DUP1 PUSH1 0x1F ADD PUSH1 0x20 DUP1 SWAP2 DIV MUL PUSH1 0x20 ADD PUSH1 0x40 MLOAD SWAP1 DUP2 ADD PUSH1 0x40 MSTORE DUP1 SWAP3 SWAP2 SWAP1 DUP2 DUP2 MSTORE PUSH1 0x20 ADD DUP3 DUP1 SLOAD PUSH2 0x19DA SWAP1 PUSH2 0x4F20 JUMP JUMPDEST DUP1 ISZERO PUSH2 0x1A27 JUMPI DUP1 PUSH1 0x1F LT PUSH2 0x19FC JUMPI PUSH2 0x100 DUP1 DUP4 SLOAD DIV MUL DUP4 MSTORE SWAP2 PUSH1 0x20 ADD SWAP2 PUSH2 0x1A27 JUMP JUMPDEST DUP3 ADD SWAP2 SWAP1 PUSH1 0x0 MSTORE PUSH1 0x20 PUSH1 0x0 KECCAK256 SWAP1 JUMPDEST DUP2 SLOAD DUP2 MSTORE SWAP1 PUSH1 0x1 ADD SWAP1 PUSH1 0x20 ADD DUP1 DUP4 GT PUSH2 0x1A0A JUMPI DUP3 SWAP1 SUB PUSH1 0x1F AND DUP3 ADD SWAP2 JUMPDEST POP POP POP POP POP SWAP1 POP PUSH1 0x0 PUSH2 0x1A39 DUP3 PUSH2 0x3AEE JUMP JUMPDEST SWAP1 POP PUSH1 0x0 DUP1 DUP3 PUSH2 0xFFFF AND DUP2 SLOAD DUP2 LT PUSH2 0x1A53 JUMPI PUSH2 0x1A53 PUSH2 0x4F0A JUMP JUMPDEST SWAP1 PUSH1 0x0 MSTORE PUSH1 0x20 PUSH1 0x0 KECCAK256 SWAP1 PUSH1 0x6 MUL ADD SWAP1 POP PUSH2 0x1AF9 CALLER DUP3 PUSH1 0x1 ADD DUP1 SLOAD PUSH2 0x1A76 SWAP1 PUSH2 0x4F20 JUMP JUMPDEST DUP1 PUSH1 0x1F ADD PUSH1 0x20 DUP1 SWAP2 DIV MUL PUSH1 0x20 ADD PUSH1 0x40 MLOAD SWAP1 DUP2 ADD PUSH1 0x40 MSTORE DUP1 SWAP3 SWAP2 SWAP1 DUP2 DUP2 MSTORE PUSH1 0x20 ADD DUP3 DUP1 SLOAD PUSH2 0x1AA2 SWAP1 PUSH2 0x4F20 JUMP JUMPDEST DUP1 ISZERO PUSH2 0x1AEF JUMPI DUP1 PUSH1 0x1F LT PUSH2 0x1AC4 JUMPI PUSH2 0x100 DUP1 DUP4 SLOAD DIV MUL DUP4 MSTORE SWAP2 PUSH1 0x20 ADD SWAP2 PUSH2 0x1AEF JUMP JUMPDEST DUP3 ADD SWAP2 SWAP1 PUSH1 0x0 MSTORE PUSH1 0x20 PUSH1 0x0 KECCAK256 SWAP1 JUMPDEST DUP2 SLOAD DUP2 MSTORE SWAP1 PUSH1 0x1 ADD SWAP1 PUSH1 0x20 ADD DUP1 DUP4 GT PUSH2 0x1AD2 JUMPI DUP3 SWAP1 SUB PUSH1 0x1F AND DUP3 ADD SWAP2 JUMPDEST POP POP POP POP POP PUSH2 0x3E0E JUMP JUMPDEST PUSH2 0x1B55 JUMPI PUSH1 0x40 MLOAD PUSH3 0x461BCD PUSH1 0xE5 SHL DUP2 MSTORE PUSH1 0x20 PUSH1 0x4 DUP3 ADD MSTORE PUSH1 0x27 PUSH1 0x24 DUP3 ADD MSTORE PUSH32 0x4F6E6C7920656C656374696F6E2061646D696E732063616E206164642063616E PUSH1 0x44 DUP3 ADD MSTORE PUSH7 0x64696461746573 PUSH1 0xC8 SHL PUSH1 0x64 DUP3 ADD MSTORE PUSH1 0x84 ADD PUSH2 0x567 JUMP JUMPDEST PUSH4 0xFFFFFFFF DUP6 AND PUSH1 0x0 SWAP1 DUP2 MSTORE PUSH1 0x6 PUSH1 0x20 DUP2 SWAP1 MSTORE PUSH1 0x40 SWAP1 SWAP2 KECCAK256 PUSH1 0x5 DUP2 ADD SLOAD SWAP2 DUP2 ADD SLOAD SWAP1 SWAP2 PUSH1 0xFF AND GT PUSH2 0x1BC2 JUMPI PUSH1 0x40 MLOAD PUSH3 0x461BCD PUSH1 0xE5 SHL DUP2 MSTORE PUSH1 0x20 PUSH1 0x4 DUP3 ADD MSTORE PUSH1 0x17 PUSH1 0x24 DUP3 ADD MSTORE PUSH23 0x10D85B991A59185D19481B1A5B5A5D081C995858DA1959 PUSH1 0x4A SHL PUSH1 0x44 DUP3 ADD MSTORE PUSH1 0x64 ADD PUSH2 0x567 JUMP JUMPDEST PUSH1 0x0 DUP6 MLOAD GT PUSH2 0x1C13 JUMPI PUSH1 0x40 MLOAD PUSH3 0x461BCD PUSH1 0xE5 SHL DUP2 MSTORE PUSH1 0x20 PUSH1 0x4 DUP3 ADD MSTORE PUSH1 0x1E PUSH1 0x24 DUP3 ADD MSTORE PUSH32 0x43616E646964617465206E616D652063616E6E6F7420626520656D7074790000 PUSH1 0x44 DUP3 ADD MSTORE PUSH1 0x64 ADD PUSH2 0x567 JUMP JUMPDEST PUSH1 0x10 DUP6 MLOAD GT ISZERO PUSH2 0x1C7C JUMPI PUSH1 0x40 MLOAD PUSH3 0x461BCD PUSH1 0xE5 SHL DUP2 MSTORE PUSH1 0x20 PUSH1 0x4 DUP3 ADD MSTORE PUSH1 0x2E PUSH1 0x24 DUP3 ADD MSTORE PUSH32 0x43616E646964617465206E616D652073686F756C642062652031362063686172 PUSH1 0x44 DUP3 ADD MSTORE PUSH14 0x616374657273206F72206C657373 PUSH1 0x90 SHL PUSH1 0x64 DUP3 ADD MSTORE PUSH1 0x84 ADD PUSH2 0x567 JUMP JUMPDEST PUSH2 0x1C85 DUP6 PUSH2 0x3F4E JUMP JUMPDEST PUSH2 0x1CF7 JUMPI PUSH1 0x40 MLOAD PUSH3 0x461BCD PUSH1 0xE5 SHL DUP2 MSTORE PUSH1 0x20 PUSH1 0x4 DUP3 ADD MSTORE PUSH1 0x3A PUSH1 0x24 DUP3 ADD MSTORE PUSH32 0x43616E646964617465206E616D652073686F756C64206F6E6C7920636F6E7461 PUSH1 0x44 DUP3 ADD MSTORE PUSH32 0x696E20616C7068616265746963616C2063686172616374657273000000000000 PUSH1 0x64 DUP3 ADD MSTORE PUSH1 0x84 ADD PUSH2 0x567 JUMP JUMPDEST PUSH1 0x6 DUP2 ADD DUP1 SLOAD PUSH1 0x40 DUP1 MLOAD PUSH1 0x60 DUP2 ADD DUP3 MSTORE PUSH1 0xFF DUP1 DUP5 AND DUP3 MSTORE PUSH1 0x20 DUP1 DUP4 ADD DUP12 DUP2 MSTORE PUSH1 0x0 SWAP5 DUP5 ADD DUP6 SWAP1 MSTORE PUSH1 0x1 DUP1 DUP8 ADD DUP9 SSTORE SWAP7 DUP6 MSTORE SWAP4 KECCAK256 DUP3 MLOAD PUSH1 0x3 DUP7 MUL SWAP1 SWAP2 ADD DUP1 SLOAD PUSH1 0xFF NOT AND SWAP2 SWAP1 SWAP3 AND OR DUP2 SSTORE SWAP2 MLOAD SWAP3 SWAP4 SWAP1 SWAP3 SWAP1 DUP3 ADD SWAP1 PUSH2 0x1D54 SWAP1 DUP3 PUSH2 0x5136 JUMP JUMPDEST POP PUSH1 0x40 SWAP2 SWAP1 SWAP2 ADD MLOAD PUSH1 0x2 SWAP1 SWAP2 ADD DUP1 SLOAD PUSH4 0xFFFFFFFF NOT AND PUSH4 0xFFFFFFFF SWAP1 SWAP3 AND SWAP2 SWAP1 SWAP2 OR SWAP1 SSTORE POP POP POP POP POP POP POP JUMP JUMPDEST PUSH1 0x1 PUSH1 0x1 PUSH1 0xA0 SHL SUB DUP1 DUP3 AND PUSH1 0x0 SWAP1 DUP2 MSTORE PUSH1 0x5 PUSH1 0x20 SWAP1 DUP2 MSTORE PUSH1 0x40 DUP1 DUP4 KECCAK256 DUP2 MLOAD PUSH1 0x80 DUP2 ADD SWAP1 SWAP3 MSTORE DUP1 SLOAD SWAP1 SWAP5 AND DUP2 MSTORE PUSH1 0x1 DUP5 ADD DUP1 SLOAD PUSH1 0x60 SWAP6 SWAP3 SWAP4 DUP5 ADD SWAP2 SWAP1 PUSH2 0x1DC5 SWAP1 PUSH2 0x4F20 JUMP JUMPDEST DUP1 PUSH1 0x1F ADD PUSH1 0x20 DUP1 SWAP2 DIV MUL PUSH1 0x20 ADD PUSH1 0x40 MLOAD SWAP1 DUP2 ADD PUSH1 0x40 MSTORE DUP1 SWAP3 SWAP2 SWAP1 DUP2 DUP2 MSTORE PUSH1 0x20 ADD DUP3 DUP1 SLOAD PUSH2 0x1DF1 SWAP1 PUSH2 0x4F20 JUMP JUMPDEST DUP1 ISZERO PUSH2 0x1E3E JUMPI DUP1 PUSH1 0x1F LT PUSH2 0x1E13 JUMPI PUSH2 0x100 DUP1 DUP4 SLOAD DIV MUL DUP4 MSTORE SWAP2 PUSH1 0x20 ADD SWAP2 PUSH2 0x1E3E JUMP JUMPDEST DUP3 ADD SWAP2 SWAP1 PUSH1 0x0 MSTORE PUSH1 0x20 PUSH1 0x0 KECCAK256 SWAP1 JUMPDEST DUP2 SLOAD DUP2 MSTORE SWAP1 PUSH1 0x1 ADD SWAP1 PUSH1 0x20 ADD DUP1 DUP4 GT PUSH2 0x1E21 JUMPI DUP3 SWAP1 SUB PUSH1 0x1F AND DUP3 ADD SWAP2 JUMPDEST POP POP POP SWAP2 DUP4 MSTORE POP POP PUSH1 0x2 DUP3 ADD SLOAD PUSH1 0xFF AND ISZERO ISZERO PUSH1 0x20 DUP3 ADD MSTORE PUSH1 0x3 DUP3 ADD DUP1 SLOAD PUSH1 0x40 SWAP1 SWAP3 ADD SWAP2 PUSH2 0x1E6A SWAP1 PUSH2 0x4F20 JUMP JUMPDEST DUP1 PUSH1 0x1F ADD PUSH1 0x20 DUP1 SWAP2 DIV MUL PUSH1 0x20 ADD PUSH1 0x40 MLOAD SWAP1 DUP2 ADD PUSH1 0x40 MSTORE DUP1 SWAP3 SWAP2 SWAP1 DUP2 DUP2 MSTORE PUSH1 0x20 ADD DUP3 DUP1 SLOAD PUSH2 0x1E96 SWAP1 PUSH2 0x4F20 JUMP JUMPDEST DUP1 ISZERO PUSH2 0x1EE3 JUMPI DUP1 PUSH1 0x1F LT PUSH2 0x1EB8 JUMPI PUSH2 0x100 DUP1 DUP4 SLOAD DIV MUL DUP4 MSTORE SWAP2 PUSH1 0x20 ADD SWAP2 PUSH2 0x1EE3 JUMP JUMPDEST DUP3 ADD SWAP2 SWAP1 PUSH1 0x0 MSTORE PUSH1 0x20 PUSH1 0x0 KECCAK256 SWAP1 JUMPDEST DUP2 SLOAD DUP2 MSTORE SWAP1 PUSH1 0x1 ADD SWAP1 PUSH1 0x20 ADD DUP1 DUP4 GT PUSH2 0x1EC6 JUMPI DUP3 SWAP1 SUB PUSH1 0x1F AND DUP3 ADD SWAP2 JUMPDEST POP POP POP SWAP2 SWAP1 SWAP3 MSTORE POP POP POP PUSH1 0x20 ADD MLOAD SWAP4 SWAP3 POP POP POP JUMP JUMPDEST PUSH1 0x2 SLOAD PUSH1 0x60 SWAP1 PUSH1 0x0 SWAP1 PUSH4 0xFFFFFFFF PUSH1 0x1 PUSH1 0xA0 SHL SWAP1 SWAP2 DIV DUP2 AND SWAP1 DUP5 AND LT PUSH2 0x1F30 JUMPI PUSH1 0x40 MLOAD PUSH3 0x461BCD PUSH1 0xE5 SHL DUP2 MSTORE PUSH1 0x4 ADD PUSH2 0x567 SWAP1 PUSH2 0x4EDA JUMP JUMPDEST PUSH4 0xFFFFFFFF DUP1 DUP5 AND PUSH1 0x0 SWAP1 DUP2 MSTORE PUSH1 0x7 PUSH1 0x20 MSTORE PUSH1 0x40 SWAP1 KECCAK256 PUSH1 0x4 DUP2 ADD SLOAD SWAP1 SWAP2 AND PUSH2 0x1FA9 JUMPI PUSH1 0x40 MLOAD PUSH3 0x461BCD PUSH1 0xE5 SHL DUP2 MSTORE PUSH1 0x20 PUSH1 0x4 DUP3 ADD MSTORE PUSH1 0x26 PUSH1 0x24 DUP3 ADD MSTORE PUSH32 0x456C656374696F6E20726573756C747320617265206E6F7420617661696C6162 PUSH1 0x44 DUP3 ADD MSTORE PUSH6 0x1B19481E595D PUSH1 0xD2 SHL PUSH1 0x64 DUP3 ADD MSTORE PUSH1 0x84 ADD PUSH2 0x567 JUMP JUMPDEST PUSH1 0x2 PUSH4 0xFFFFFFFF DUP6 AND PUSH1 0x0 SWAP1 DUP2 MSTORE PUSH1 0x6 PUSH1 0x20 MSTORE PUSH1 0x40 SWAP1 KECCAK256 PUSH1 0x7 ADD SLOAD PUSH1 0xFF AND PUSH1 0x2 DUP2 GT ISZERO PUSH2 0x1FD8 JUMPI PUSH2 0x1FD8 PUSH2 0x48B7 JUMP JUMPDEST EQ PUSH2 0x2020 JUMPI PUSH1 0x40 MLOAD PUSH3 0x461BCD PUSH1 0xE5 SHL DUP2 MSTORE PUSH1 0x20 PUSH1 0x4 DUP3 ADD MSTORE PUSH1 0x18 PUSH1 0x24 DUP3 ADD MSTORE PUSH24 0x115B1958DD1A5BDB881A5CC81B9BDD08199A5B9A5CDA1959 PUSH1 0x42 SHL PUSH1 0x44 DUP3 ADD MSTORE PUSH1 0x64 ADD PUSH2 0x567 JUMP JUMPDEST PUSH1 0x4 DUP2 ADD SLOAD PUSH1 0x5 DUP3 ADD DUP1 SLOAD SWAP1 SWAP2 PUSH4 0xFFFFFFFF AND SWAP1 DUP3 SWAP1 PUSH2 0x203F SWAP1 PUSH2 0x4F20 JUMP JUMPDEST DUP1 PUSH1 0x1F ADD PUSH1 0x20 DUP1 SWAP2 DIV MUL PUSH1 0x20 ADD PUSH1 0x40 MLOAD SWAP1 DUP2 ADD PUSH1 0x40 MSTORE DUP1 SWAP3 SWAP2 SWAP1 DUP2 DUP2 MSTORE PUSH1 0x20 ADD DUP3 DUP1 SLOAD PUSH2 0x206B SWAP1 PUSH2 0x4F20 JUMP JUMPDEST DUP1 ISZERO PUSH2 0x20B8 JUMPI DUP1 PUSH1 0x1F LT PUSH2 0x208D JUMPI PUSH2 0x100 DUP1 DUP4 SLOAD DIV MUL DUP4 MSTORE SWAP2 PUSH1 0x20 ADD SWAP2 PUSH2 0x20B8 JUMP JUMPDEST DUP3 ADD SWAP2 SWAP1 PUSH1 0x0 MSTORE PUSH1 0x20 PUSH1 0x0 KECCAK256 SWAP1 JUMPDEST DUP2 SLOAD DUP2 MSTORE SWAP1 PUSH1 0x1 ADD SWAP1 PUSH1 0x20 ADD DUP1 DUP4 GT PUSH2 0x209B JUMPI DUP3 SWAP1 SUB PUSH1 0x1F AND DUP3 ADD SWAP2 JUMPDEST POP POP POP POP POP SWAP2 POP SWAP3 POP SWAP3 POP POP SWAP2 POP SWAP2 JUMP JUMPDEST PUSH1 0x5 PUSH1 0x20 MSTORE PUSH1 0x0 SWAP1 DUP2 MSTORE PUSH1 0x40 SWAP1 KECCAK256 DUP1 SLOAD PUSH1 0x1 DUP3 ADD DUP1 SLOAD PUSH1 0x1 PUSH1 0x1 PUSH1 0xA0 SHL SUB SWAP1 SWAP3 AND SWAP3 SWAP2 PUSH2 0x20F5 SWAP1 PUSH2 0x4F20 JUMP JUMPDEST DUP1 PUSH1 0x1F ADD PUSH1 0x20 DUP1 SWAP2 DIV MUL PUSH1 0x20 ADD PUSH1 0x40 MLOAD SWAP1 DUP2 ADD PUSH1 0x40 MSTORE DUP1 SWAP3 SWAP2 SWAP1 DUP2 DUP2 MSTORE PUSH1 0x20 ADD DUP3 DUP1 SLOAD PUSH2 0x2121 SWAP1 PUSH2 0x4F20 JUMP JUMPDEST DUP1 ISZERO PUSH2 0x216E JUMPI DUP1 PUSH1 0x1F LT PUSH2 0x2143 JUMPI PUSH2 0x100 DUP1 DUP4 SLOAD DIV MUL DUP4 MSTORE SWAP2 PUSH1 0x20 ADD SWAP2 PUSH2 0x216E JUMP JUMPDEST DUP3 ADD SWAP2 SWAP1 PUSH1 0x0 MSTORE PUSH1 0x20 PUSH1 0x0 KECCAK256 SWAP1 JUMPDEST DUP2 SLOAD DUP2 MSTORE SWAP1 PUSH1 0x1 ADD SWAP1 PUSH1 0x20 ADD DUP1 DUP4 GT PUSH2 0x2151 JUMPI DUP3 SWAP1 SUB PUSH1 0x1F AND DUP3 ADD SWAP2 JUMPDEST POP POP POP PUSH1 0x2 DUP5 ADD SLOAD PUSH1 0x3 DUP6 ADD DUP1 SLOAD SWAP5 SWAP6 PUSH1 0xFF SWAP1 SWAP3 AND SWAP5 SWAP2 SWAP4 POP SWAP2 POP PUSH2 0x2192 SWAP1 PUSH2 0x4F20 JUMP JUMPDEST DUP1 PUSH1 0x1F ADD PUSH1 0x20 DUP1 SWAP2 DIV MUL PUSH1 0x20 ADD PUSH1 0x40 MLOAD SWAP1 DUP2 ADD PUSH1 0x40 MSTORE DUP1 SWAP3 SWAP2 SWAP1 DUP2 DUP2 MSTORE PUSH1 0x20 ADD DUP3 DUP1 SLOAD PUSH2 0x21BE SWAP1 PUSH2 0x4F20 JUMP JUMPDEST DUP1 ISZERO PUSH2 0x220B JUMPI DUP1 PUSH1 0x1F LT PUSH2 0x21E0 JUMPI PUSH2 0x100 DUP1 DUP4 SLOAD DIV MUL DUP4 MSTORE SWAP2 PUSH1 0x20 ADD SWAP2 PUSH2 0x220B JUMP JUMPDEST DUP3 ADD SWAP2 SWAP1 PUSH1 0x0 MSTORE PUSH1 0x20 PUSH1 0x0 KECCAK256 SWAP1 JUMPDEST DUP2 SLOAD DUP2 MSTORE SWAP1 PUSH1 0x1 ADD SWAP1 PUSH1 0x20 ADD DUP1 DUP4 GT PUSH2 0x21EE JUMPI DUP3 SWAP1 SUB PUSH1 0x1F AND DUP3 ADD SWAP2 JUMPDEST POP POP POP POP POP SWAP1 POP DUP5 JUMP JUMPDEST CALLER PUSH1 0x0 DUP2 DUP2 MSTORE PUSH1 0xB PUSH1 0x20 MSTORE PUSH1 0x40 DUP2 KECCAK256 PUSH1 0x2 DUP2 ADD SLOAD SWAP2 SWAP3 DUP4 SWAP3 PUSH1 0x60 SWAP3 DUP4 SWAP3 DUP4 SWAP3 SWAP1 SWAP2 SWAP1 PUSH1 0xFF AND PUSH2 0x2278 JUMPI PUSH1 0x40 MLOAD PUSH3 0x461BCD PUSH1 0xE5 SHL DUP2 MSTORE PUSH1 0x20 PUSH1 0x4 DUP3 ADD MSTORE PUSH1 0xF PUSH1 0x24 DUP3 ADD MSTORE PUSH15 0x159BDD195C881B9BDD08199BDD5B99 PUSH1 0x8A SHL PUSH1 0x44 DUP3 ADD MSTORE PUSH1 0x64 ADD PUSH2 0x567 JUMP JUMPDEST DUP1 SLOAD PUSH1 0x1 DUP3 ADD DUP1 SLOAD PUSH6 0xFFFFFFFFFFFF DUP4 AND SWAP3 PUSH1 0x1 PUSH1 0x30 SHL SWAP1 DIV PUSH1 0x1 PUSH1 0x1 PUSH1 0xA0 SHL SUB AND SWAP2 SWAP1 PUSH1 0x4 DUP6 ADD SWAP1 PUSH1 0x3 DUP7 ADD SWAP1 DUP4 SWAP1 PUSH2 0x22B1 SWAP1 PUSH2 0x4F20 JUMP JUMPDEST DUP1 PUSH1 0x1F ADD PUSH1 0x20 DUP1 SWAP2 DIV MUL PUSH1 0x20 ADD PUSH1 0x40 MLOAD SWAP1 DUP2 ADD PUSH1 0x40 MSTORE DUP1 SWAP3 SWAP2 SWAP1 DUP2 DUP2 MSTORE PUSH1 0x20 ADD DUP3 DUP1 SLOAD PUSH2 0x22DD SWAP1 PUSH2 0x4F20 JUMP JUMPDEST DUP1 ISZERO PUSH2 0x232A JUMPI DUP1 PUSH1 0x1F LT PUSH2 0x22FF JUMPI PUSH2 0x100 DUP1 DUP4 SLOAD DIV MUL DUP4 MSTORE SWAP2 PUSH1 0x20 ADD SWAP2 PUSH2 0x232A JUMP JUMPDEST DUP3 ADD SWAP2 SWAP1 PUSH1 0x0 MSTORE PUSH1 0x20 PUSH1 0x0 KECCAK256 SWAP1 JUMPDEST DUP2 SLOAD DUP2 MSTORE SWAP1 PUSH1 0x1 ADD SWAP1 PUSH1 0x20 ADD DUP1 DUP4 GT PUSH2 0x230D JUMPI DUP3 SWAP1 SUB PUSH1 0x1F AND DUP3 ADD SWAP2 JUMPDEST POP POP POP POP POP SWAP3 POP DUP2 DUP1 SLOAD PUSH2 0x233D SWAP1 PUSH2 0x4F20 JUMP JUMPDEST DUP1 PUSH1 0x1F ADD PUSH1 0x20 DUP1 SWAP2 DIV MUL PUSH1 0x20 ADD PUSH1 0x40 MLOAD SWAP1 DUP2 ADD PUSH1 0x40 MSTORE DUP1 SWAP3 SWAP2 SWAP1 DUP2 DUP2 MSTORE PUSH1 0x20 ADD DUP3 DUP1 SLOAD PUSH2 0x2369 SWAP1 PUSH2 0x4F20 JUMP JUMPDEST DUP1 ISZERO PUSH2 0x23B6 JUMPI DUP1 PUSH1 0x1F LT PUSH2 0x238B JUMPI PUSH2 0x100 DUP1 DUP4 SLOAD DIV MUL DUP4 MSTORE SWAP2 PUSH1 0x20 ADD SWAP2 PUSH2 0x23B6 JUMP JUMPDEST DUP3 ADD SWAP2 SWAP1 PUSH1 0x0 MSTORE PUSH1 0x20 PUSH1 0x0 KECCAK256 SWAP1 JUMPDEST DUP2 SLOAD DUP2 MSTORE SWAP1 PUSH1 0x1 ADD SWAP1 PUSH1 0x20 ADD DUP1 DUP4 GT PUSH2 0x2399 JUMPI DUP3 SWAP1 SUB PUSH1 0x1F AND DUP3 ADD SWAP2 JUMPDEST POP POP POP POP POP SWAP2 POP DUP1 DUP1 SLOAD DUP1 PUSH1 0x20 MUL PUSH1 0x20 ADD PUSH1 0x40 MLOAD SWAP1 DUP2 ADD PUSH1 0x40 MSTORE DUP1 SWAP3 SWAP2 SWAP1 DUP2 DUP2 MSTORE PUSH1 0x20 ADD PUSH1 0x0 SWAP1 JUMPDEST DUP3 DUP3 LT ISZERO PUSH2 0x248A JUMPI DUP4 DUP3 SWAP1 PUSH1 0x0 MSTORE PUSH1 0x20 PUSH1 0x0 KECCAK256 ADD DUP1 SLOAD PUSH2 0x23FD SWAP1 PUSH2 0x4F20 JUMP JUMPDEST DUP1 PUSH1 0x1F ADD PUSH1 0x20 DUP1 SWAP2 DIV MUL PUSH1 0x20 ADD PUSH1 0x40 MLOAD SWAP1 DUP2 ADD PUSH1 0x40 MSTORE DUP1 SWAP3 SWAP2 SWAP1 DUP2 DUP2 MSTORE PUSH1 0x20 ADD DUP3 DUP1 SLOAD PUSH2 0x2429 SWAP1 PUSH2 0x4F20 JUMP JUMPDEST DUP1 ISZERO PUSH2 0x2476 JUMPI DUP1 PUSH1 0x1F LT PUSH2 0x244B JUMPI PUSH2 0x100 DUP1 DUP4 SLOAD DIV MUL DUP4 MSTORE SWAP2 PUSH1 0x20 ADD SWAP2 PUSH2 0x2476 JUMP JUMPDEST DUP3 ADD SWAP2 SWAP1 PUSH1 0x0 MSTORE PUSH1 0x20 PUSH1 0x0 KECCAK256 SWAP1 JUMPDEST DUP2 SLOAD DUP2 MSTORE SWAP1 PUSH1 0x1 ADD SWAP1 PUSH1 0x20 ADD DUP1 DUP4 GT PUSH2 0x2459 JUMPI DUP3 SWAP1 SUB PUSH1 0x1F AND DUP3 ADD SWAP2 JUMPDEST POP POP POP POP POP DUP2 MSTORE PUSH1 0x20 ADD SWAP1 PUSH1 0x1 ADD SWAP1 PUSH2 0x23DE JUMP JUMPDEST POP POP POP POP SWAP1 POP SWAP7 POP SWAP7 POP SWAP7 POP SWAP7 POP SWAP7 POP POP POP SWAP1 SWAP2 SWAP3 SWAP4 SWAP5 JUMP JUMPDEST CALLER PUSH1 0x0 DUP2 DUP2 MSTORE PUSH1 0x4 PUSH1 0x20 MSTORE PUSH1 0x40 SWAP1 KECCAK256 SLOAD PUSH1 0x60 SWAP2 DUP3 SWAP2 PUSH1 0xFF AND PUSH2 0x2515 JUMPI PUSH1 0x40 MLOAD PUSH3 0x461BCD PUSH1 0xE5 SHL DUP2 MSTORE PUSH1 0x20 PUSH1 0x4 DUP3 ADD MSTORE PUSH1 0x25 PUSH1 0x24 DUP3 ADD MSTORE PUSH32 0x456C656374696F6E2041646D696E2061646472657373206E6F74207265676973 PUSH1 0x44 DUP3 ADD MSTORE PUSH5 0x1D195C9959 PUSH1 0xDA SHL PUSH1 0x64 DUP3 ADD MSTORE PUSH1 0x84 ADD PUSH2 0x567 JUMP JUMPDEST PUSH1 0x1 PUSH1 0x1 PUSH1 0xA0 SHL SUB DUP2 AND PUSH1 0x0 SWAP1 DUP2 MSTORE PUSH1 0x9 PUSH1 0x20 MSTORE PUSH1 0x40 DUP2 KECCAK256 DUP1 SLOAD PUSH2 0x2538 SWAP1 PUSH2 0x4F20 JUMP JUMPDEST DUP1 PUSH1 0x1F ADD PUSH1 0x20 DUP1 SWAP2 DIV MUL PUSH1 0x20 ADD PUSH1 0x40 MLOAD SWAP1 DUP2 ADD PUSH1 0x40 MSTORE DUP1 SWAP3 SWAP2 SWAP1 DUP2 DUP2 MSTORE PUSH1 0x20 ADD DUP3 DUP1 SLOAD PUSH2 0x2564 SWAP1 PUSH2 0x4F20 JUMP JUMPDEST DUP1 ISZERO PUSH2 0x25B1 JUMPI DUP1 PUSH1 0x1F LT PUSH2 0x2586 JUMPI PUSH2 0x100 DUP1 DUP4 SLOAD DIV MUL DUP4 MSTORE SWAP2 PUSH1 0x20 ADD SWAP2 PUSH2 0x25B1 JUMP JUMPDEST DUP3 ADD SWAP2 SWAP1 PUSH1 0x0 MSTORE PUSH1 0x20 PUSH1 0x0 KECCAK256 SWAP1 JUMPDEST DUP2 SLOAD DUP2 MSTORE SWAP1 PUSH1 0x1 ADD SWAP1 PUSH1 0x20 ADD DUP1 DUP4 GT PUSH2 0x2594 JUMPI DUP3 SWAP1 SUB PUSH1 0x1F AND DUP3 ADD SWAP2 JUMPDEST POP POP POP POP POP SWAP1 POP PUSH1 0x0 PUSH2 0x25C3 DUP3 PUSH2 0x4019 JUMP JUMPDEST SWAP1 POP PUSH1 0x0 DUP2 PUSH2 0xFFFF AND DUP2 SLOAD DUP2 LT PUSH2 0x25DC JUMPI PUSH2 0x25DC PUSH2 0x4F0A JUMP JUMPDEST SWAP1 PUSH1 0x0 MSTORE PUSH1 0x20 PUSH1 0x0 KECCAK256 SWAP1 PUSH1 0x6 MUL ADD PUSH1 0x1 ADD PUSH1 0x0 DUP3 PUSH2 0xFFFF AND DUP2 SLOAD DUP2 LT PUSH2 0x2604 JUMPI PUSH2 0x2604 PUSH2 0x4F0A JUMP JUMPDEST SWAP1 PUSH1 0x0 MSTORE PUSH1 0x20 PUSH1 0x0 KECCAK256 SWAP1 PUSH1 0x6 MUL ADD PUSH1 0x0 ADD DUP2 DUP1 SLOAD PUSH2 0x2621 SWAP1 PUSH2 0x4F20 JUMP JUMPDEST DUP1 PUSH1 0x1F ADD PUSH1 0x20 DUP1 SWAP2 DIV MUL PUSH1 0x20 ADD PUSH1 0x40 MLOAD SWAP1 DUP2 ADD PUSH1 0x40 MSTORE DUP1 SWAP3 SWAP2 SWAP1 DUP2 DUP2 MSTORE PUSH1 0x20 ADD DUP3 DUP1 SLOAD PUSH2 0x264D SWAP1 PUSH2 0x4F20 JUMP JUMPDEST DUP1 ISZERO PUSH2 0x269A JUMPI DUP1 PUSH1 0x1F LT PUSH2 0x266F JUMPI PUSH2 0x100 DUP1 DUP4 SLOAD DIV MUL DUP4 MSTORE SWAP2 PUSH1 0x20 ADD SWAP2 PUSH2 0x269A JUMP JUMPDEST DUP3 ADD SWAP2 SWAP1 PUSH1 0x0 MSTORE PUSH1 0x20 PUSH1 0x0 KECCAK256 SWAP1 JUMPDEST DUP2 SLOAD DUP2 MSTORE SWAP1 PUSH1 0x1 ADD SWAP1 PUSH1 0x20 ADD DUP1 DUP4 GT PUSH2 0x267D JUMPI DUP3 SWAP1 SUB PUSH1 0x1F AND DUP3 ADD SWAP2 JUMPDEST POP POP POP POP POP SWAP2 POP DUP1 DUP1 SLOAD PUSH2 0x26AD SWAP1 PUSH2 0x4F20 JUMP JUMPDEST DUP1 PUSH1 0x1F ADD PUSH1 0x20 DUP1 SWAP2 DIV MUL PUSH1 0x20 ADD PUSH1 0x40 MLOAD SWAP1 DUP2 ADD PUSH1 0x40 MSTORE DUP1 SWAP3 SWAP2 SWAP1 DUP2 DUP2 MSTORE PUSH1 0x20 ADD DUP3 DUP1 SLOAD PUSH2 0x26D9 SWAP1 PUSH2 0x4F20 JUMP JUMPDEST DUP1 ISZERO PUSH2 0x2726 JUMPI DUP1 PUSH1 0x1F LT PUSH2 0x26FB JUMPI PUSH2 0x100 DUP1 DUP4 SLOAD DIV MUL DUP4 MSTORE SWAP2 PUSH1 0x20 ADD SWAP2 PUSH2 0x2726 JUMP JUMPDEST DUP3 ADD SWAP2 SWAP1 PUSH1 0x0 MSTORE PUSH1 0x20 PUSH1 0x0 KECCAK256 SWAP1 JUMPDEST DUP2 SLOAD DUP2 MSTORE SWAP1 PUSH1 0x1 ADD SWAP1 PUSH1 0x20 ADD DUP1 DUP4 GT PUSH2 0x2709 JUMPI DUP3 SWAP1 SUB PUSH1 0x1F AND DUP3 ADD SWAP2 JUMPDEST POP POP POP POP POP SWAP1 POP SWAP5 POP SWAP5 POP POP POP POP SWAP1 SWAP2 JUMP JUMPDEST PUSH1 0x2 SLOAD PUSH4 0xFFFFFFFF PUSH1 0x1 PUSH1 0xA0 SHL SWAP1 SWAP2 DIV DUP2 AND SWAP1 DUP4 AND LT PUSH2 0x276A JUMPI PUSH1 0x40 MLOAD PUSH3 0x461BCD PUSH1 0xE5 SHL DUP2 MSTORE PUSH1 0x4 ADD PUSH2 0x567 SWAP1 PUSH2 0x4EDA JUMP JUMPDEST PUSH4 0xFFFFFFFF DUP3 AND PUSH1 0x0 SWAP1 DUP2 MSTORE PUSH1 0x6 PUSH1 0x20 DUP2 SWAP1 MSTORE PUSH1 0x40 SWAP1 SWAP2 KECCAK256 ADD SLOAD PUSH1 0xFF DUP3 AND LT PUSH2 0x27CC JUMPI PUSH1 0x40 MLOAD PUSH3 0x461BCD PUSH1 0xE5 SHL DUP2 MSTORE PUSH1 0x20 PUSH1 0x4 DUP3 ADD MSTORE PUSH1 0x14 PUSH1 0x24 DUP3 ADD MSTORE PUSH20 0x125B9D985B1A590818D85B991A59185D19481251 PUSH1 0x62 SHL PUSH1 0x44 DUP3 ADD MSTORE PUSH1 0x64 ADD PUSH2 0x567 JUMP JUMPDEST PUSH4 0xFFFFFFFF DUP3 AND PUSH1 0x0 SWAP1 DUP2 MSTORE PUSH1 0x6 PUSH1 0x20 SWAP1 DUP2 MSTORE PUSH1 0x40 DUP1 DUP4 KECCAK256 CALLER DUP5 MSTORE PUSH1 0xB SWAP1 SWAP3 MSTORE SWAP1 SWAP2 KECCAK256 PUSH1 0x2 ADD SLOAD PUSH1 0xFF AND PUSH2 0x2842 JUMPI PUSH1 0x40 MLOAD PUSH3 0x461BCD PUSH1 0xE5 SHL DUP2 MSTORE PUSH1 0x20 PUSH1 0x4 DUP3 ADD MSTORE PUSH1 0x1E PUSH1 0x24 DUP3 ADD MSTORE PUSH32 0x596F7520617265206E6F742061207265676973746572656420766F7465720000 PUSH1 0x44 DUP3 ADD MSTORE PUSH1 0x64 ADD PUSH2 0x567 JUMP JUMPDEST PUSH1 0x1 PUSH1 0x7 DUP3 ADD SLOAD PUSH1 0xFF AND PUSH1 0x2 DUP2 GT ISZERO PUSH2 0x285D JUMPI PUSH2 0x285D PUSH2 0x48B7 JUMP JUMPDEST EQ PUSH2 0x28AA JUMPI PUSH1 0x40 MLOAD PUSH3 0x461BCD PUSH1 0xE5 SHL DUP2 MSTORE PUSH1 0x20 PUSH1 0x4 DUP3 ADD MSTORE PUSH1 0x1B PUSH1 0x24 DUP3 ADD MSTORE PUSH32 0x456C656374696F6E206973206E6F7420696E2070726F67726573730000000000 PUSH1 0x44 DUP3 ADD MSTORE PUSH1 0x64 ADD PUSH2 0x567 JUMP JUMPDEST CALLER PUSH1 0x0 SWAP1 DUP2 MSTORE PUSH1 0xB PUSH1 0x20 MSTORE PUSH1 0x40 DUP2 KECCAK256 PUSH1 0x4 ADD DUP1 SLOAD PUSH2 0x28C7 SWAP1 PUSH2 0x4F20 JUMP JUMPDEST DUP1 PUSH1 0x1F ADD PUSH1 0x20 DUP1 SWAP2 DIV MUL PUSH1 0x20 ADD PUSH1 0x40 MLOAD SWAP1 DUP2 ADD PUSH1 0x40 MSTORE DUP1 SWAP3 SWAP2 SWAP1 DUP2 DUP2 MSTORE PUSH1 0x20 ADD DUP3 DUP1 SLOAD PUSH2 0x28F3 SWAP1 PUSH2 0x4F20 JUMP JUMPDEST DUP1 ISZERO PUSH2 0x2940 JUMPI DUP1 PUSH1 0x1F LT PUSH2 0x2915 JUMPI PUSH2 0x100 DUP1 DUP4 SLOAD DIV MUL DUP4 MSTORE SWAP2 PUSH1 0x20 ADD SWAP2 PUSH2 0x2940 JUMP JUMPDEST DUP3 ADD SWAP2 SWAP1 PUSH1 0x0 MSTORE PUSH1 0x20 PUSH1 0x0 KECCAK256 SWAP1 JUMPDEST DUP2 SLOAD DUP2 MSTORE SWAP1 PUSH1 0x1 ADD SWAP1 PUSH1 0x20 ADD DUP1 DUP4 GT PUSH2 0x2923 JUMPI DUP3 SWAP1 SUB PUSH1 0x1F AND DUP3 ADD SWAP2 JUMPDEST POP POP POP POP POP SWAP1 POP PUSH1 0x8 DUP2 PUSH1 0x40 MLOAD PUSH2 0x2957 SWAP2 SWAP1 PUSH2 0x4FEC JUMP JUMPDEST SWAP1 DUP2 MSTORE PUSH1 0x40 MLOAD SWAP1 DUP2 SWAP1 SUB PUSH1 0x20 ADD SWAP1 KECCAK256 SLOAD PUSH1 0xFF AND PUSH2 0x29D2 JUMPI PUSH1 0x40 MLOAD PUSH3 0x461BCD PUSH1 0xE5 SHL DUP2 MSTORE PUSH1 0x20 PUSH1 0x4 DUP3 ADD MSTORE PUSH1 0x33 PUSH1 0x24 DUP3 ADD MSTORE PUSH32 0x596F7520617265206E6F742061207265676973746572656420766F7465722069 PUSH1 0x44 DUP3 ADD MSTORE PUSH19 0x37103A3434B99037B933B0B734BD30BA34B7B7 PUSH1 0x69 SHL PUSH1 0x64 DUP3 ADD MSTORE PUSH1 0x84 ADD PUSH2 0x567 JUMP JUMPDEST PUSH1 0x0 DUP3 PUSH1 0x2 ADD DUP1 SLOAD PUSH2 0x29E3 SWAP1 PUSH2 0x4F20 JUMP JUMPDEST DUP1 PUSH1 0x1F ADD PUSH1 0x20 DUP1 SWAP2 DIV MUL PUSH1 0x20 ADD PUSH1 0x40 MLOAD SWAP1 DUP2 ADD PUSH1 0x40 MSTORE DUP1 SWAP3 SWAP2 SWAP1 DUP2 DUP2 MSTORE PUSH1 0x20 ADD DUP3 DUP1 SLOAD PUSH2 0x2A0F SWAP1 PUSH2 0x4F20 JUMP JUMPDEST DUP1 ISZERO PUSH2 0x2A5C JUMPI DUP1 PUSH1 0x1F LT PUSH2 0x2A31 JUMPI PUSH2 0x100 DUP1 DUP4 SLOAD DIV MUL DUP4 MSTORE SWAP2 PUSH1 0x20 ADD SWAP2 PUSH2 0x2A5C JUMP JUMPDEST DUP3 ADD SWAP2 SWAP1 PUSH1 0x0 MSTORE PUSH1 0x20 PUSH1 0x0 KECCAK256 SWAP1 JUMPDEST DUP2 SLOAD DUP2 MSTORE SWAP1 PUSH1 0x1 ADD SWAP1 PUSH1 0x20 ADD DUP1 DUP4 GT PUSH2 0x2A3F JUMPI DUP3 SWAP1 SUB PUSH1 0x1F AND DUP3 ADD SWAP2 JUMPDEST POP POP POP POP POP SWAP1 POP PUSH2 0x2A6D CALLER DUP3 PUSH2 0x40C7 JUMP JUMPDEST ISZERO PUSH2 0x2ACA JUMPI PUSH1 0x40 MLOAD PUSH3 0x461BCD PUSH1 0xE5 SHL DUP2 MSTORE PUSH1 0x20 PUSH1 0x4 DUP3 ADD MSTORE PUSH1 0x27 PUSH1 0x24 DUP3 ADD MSTORE PUSH32 0x596F75206861766520616C726561647920766F74656420696E20746869732065 PUSH1 0x44 DUP3 ADD MSTORE PUSH7 0x3632B1BA34B7B7 PUSH1 0xC9 SHL PUSH1 0x64 DUP3 ADD MSTORE PUSH1 0x84 ADD PUSH2 0x567 JUMP JUMPDEST PUSH1 0x0 DUP4 PUSH1 0x6 ADD DUP6 PUSH1 0xFF AND DUP2 SLOAD DUP2 LT PUSH2 0x2AE4 JUMPI PUSH2 0x2AE4 PUSH2 0x4F0A JUMP JUMPDEST PUSH1 0x0 SWAP2 DUP3 MSTORE PUSH1 0x20 DUP3 KECCAK256 PUSH1 0x2 PUSH1 0x3 SWAP1 SWAP3 MUL ADD SWAP1 DUP2 ADD DUP1 SLOAD SWAP2 SWAP4 POP PUSH4 0xFFFFFFFF SWAP1 SWAP2 AND SWAP2 PUSH2 0x2B0F DUP4 PUSH2 0x507E JUMP JUMPDEST DUP3 SLOAD PUSH4 0xFFFFFFFF SWAP2 DUP3 AND PUSH2 0x100 SWAP4 SWAP1 SWAP4 EXP SWAP3 DUP4 MUL SWAP2 SWAP1 SWAP3 MUL NOT SWAP1 SWAP2 AND OR SWAP1 SSTORE POP CALLER PUSH1 0x0 SWAP1 DUP2 MSTORE PUSH1 0xB PUSH1 0x20 SWAP1 DUP2 MSTORE PUSH1 0x40 DUP1 DUP4 KECCAK256 PUSH1 0x3 DUP2 ADD DUP1 SLOAD DUP4 MLOAD DUP2 DUP7 MUL DUP2 ADD DUP7 ADD SWAP1 SWAP5 MSTORE DUP1 DUP5 MSTORE SWAP2 SWAP5 PUSH2 0x2C18 SWAP5 SWAP2 SWAP3 SWAP2 DUP5 ADD JUMPDEST DUP3 DUP3 LT ISZERO PUSH2 0x2C0E JUMPI DUP4 DUP3 SWAP1 PUSH1 0x0 MSTORE PUSH1 0x20 PUSH1 0x0 KECCAK256 ADD DUP1 SLOAD PUSH2 0x2B81 SWAP1 PUSH2 0x4F20 JUMP JUMPDEST DUP1 PUSH1 0x1F ADD PUSH1 0x20 DUP1 SWAP2 DIV MUL PUSH1 0x20 ADD PUSH1 0x40 MLOAD SWAP1 DUP2 ADD PUSH1 0x40 MSTORE DUP1 SWAP3 SWAP2 SWAP1 DUP2 DUP2 MSTORE PUSH1 0x20 ADD DUP3 DUP1 SLOAD PUSH2 0x2BAD SWAP1 PUSH2 0x4F20 JUMP JUMPDEST DUP1 ISZERO PUSH2 0x2BFA JUMPI DUP1 PUSH1 0x1F LT PUSH2 0x2BCF JUMPI PUSH2 0x100 DUP1 DUP4 SLOAD DIV MUL DUP4 MSTORE SWAP2 PUSH1 0x20 ADD SWAP2 PUSH2 0x2BFA JUMP JUMPDEST DUP3 ADD SWAP2 SWAP1 PUSH1 0x0 MSTORE PUSH1 0x20 PUSH1 0x0 KECCAK256 SWAP1 JUMPDEST DUP2 SLOAD DUP2 MSTORE SWAP1 PUSH1 0x1 ADD SWAP1 PUSH1 0x20 ADD DUP1 DUP4 GT PUSH2 0x2BDD JUMPI DUP3 SWAP1 SUB PUSH1 0x1F AND DUP3 ADD SWAP2 JUMPDEST POP POP POP POP POP DUP2 MSTORE PUSH1 0x20 ADD SWAP1 PUSH1 0x1 ADD SWAP1 PUSH2 0x2B62 JUMP JUMPDEST POP POP POP POP DUP5 PUSH2 0x4186 JUMP JUMPDEST DUP1 MLOAD PUSH2 0x2C2E SWAP2 PUSH1 0x3 DUP5 ADD SWAP2 PUSH1 0x20 SWAP1 SWAP2 ADD SWAP1 PUSH2 0x4479 JUMP JUMPDEST POP POP POP POP POP POP POP POP JUMP JUMPDEST PUSH1 0x1 SLOAD PUSH1 0x1 PUSH1 0x1 PUSH1 0xA0 SHL SUB AND CALLER EQ DUP1 PUSH2 0x2C60 JUMPI POP CALLER PUSH1 0x0 SWAP1 DUP2 MSTORE PUSH1 0x4 PUSH1 0x20 MSTORE PUSH1 0x40 SWAP1 KECCAK256 SLOAD PUSH1 0xFF AND JUMPDEST PUSH2 0x2C7C JUMPI PUSH1 0x40 MLOAD PUSH3 0x461BCD PUSH1 0xE5 SHL DUP2 MSTORE PUSH1 0x4 ADD PUSH2 0x567 SWAP1 PUSH2 0x4F8F JUMP JUMPDEST PUSH1 0x2 SLOAD PUSH4 0xFFFFFFFF PUSH1 0x1 PUSH1 0xA0 SHL SWAP1 SWAP2 DIV DUP2 AND SWAP1 DUP4 AND LT PUSH2 0x2CAE JUMPI PUSH1 0x40 MLOAD PUSH3 0x461BCD PUSH1 0xE5 SHL DUP2 MSTORE PUSH1 0x4 ADD PUSH2 0x567 SWAP1 PUSH2 0x4EDA JUMP JUMPDEST PUSH4 0xFFFFFFFF DUP3 AND PUSH1 0x0 SWAP1 DUP2 MSTORE PUSH1 0x6 PUSH1 0x20 MSTORE PUSH1 0x40 SWAP1 KECCAK256 PUSH1 0x1 PUSH1 0x7 DUP3 ADD SLOAD PUSH1 0xFF AND PUSH1 0x2 DUP2 GT ISZERO PUSH2 0x2CDE JUMPI PUSH2 0x2CDE PUSH2 0x48B7 JUMP JUMPDEST EQ PUSH2 0x2D25 JUMPI PUSH1 0x40 MLOAD PUSH3 0x461BCD PUSH1 0xE5 SHL DUP2 MSTORE PUSH1 0x20 PUSH1 0x4 DUP3 ADD MSTORE PUSH1 0x17 PUSH1 0x24 DUP3 ADD MSTORE PUSH23 0x115B1958DD1A5BDB881A5CC81B9BDD081CDD185C9D1959 PUSH1 0x4A SHL PUSH1 0x44 DUP3 ADD MSTORE PUSH1 0x64 ADD PUSH2 0x567 JUMP JUMPDEST PUSH1 0x7 DUP2 ADD SLOAD PUSH2 0x100 SWAP1 DIV PUSH1 0xFF AND ISZERO PUSH2 0x2D4F JUMPI PUSH1 0x40 MLOAD PUSH3 0x461BCD PUSH1 0xE5 SHL DUP2 MSTORE PUSH1 0x4 ADD PUSH2 0x567 SWAP1 PUSH2 0x4FB5 JUMP JUMPDEST TIMESTAMP PUSH1 0x4 DUP3 ADD SSTORE PUSH1 0x7 DUP2 ADD DUP1 SLOAD PUSH2 0xFFFF NOT AND PUSH2 0x102 OR SWAP1 SSTORE PUSH1 0x0 PUSH2 0x2D71 DUP5 PUSH2 0x4274 JUMP JUMPDEST SWAP1 POP PUSH1 0x0 PUSH2 0x2D7E DUP6 PUSH2 0x42F3 JUMP JUMPDEST SWAP1 POP PUSH1 0x0 PUSH2 0x2D8B CALLER PUSH2 0x1D81 JUMP JUMPDEST SWAP1 POP PUSH1 0x40 MLOAD DUP1 PUSH2 0x100 ADD PUSH1 0x40 MSTORE DUP1 DUP6 PUSH1 0x1 ADD DUP1 SLOAD PUSH2 0x2DA8 SWAP1 PUSH2 0x4F20 JUMP JUMPDEST DUP1 PUSH1 0x1F ADD PUSH1 0x20 DUP1 SWAP2 DIV MUL PUSH1 0x20 ADD PUSH1 0x40 MLOAD SWAP1 DUP2 ADD PUSH1 0x40 MSTORE DUP1 SWAP3 SWAP2 SWAP1 DUP2 DUP2 MSTORE PUSH1 0x20 ADD DUP3 DUP1 SLOAD PUSH2 0x2DD4 SWAP1 PUSH2 0x4F20 JUMP JUMPDEST DUP1 ISZERO PUSH2 0x2E21 JUMPI DUP1 PUSH1 0x1F LT PUSH2 0x2DF6 JUMPI PUSH2 0x100 DUP1 DUP4 SLOAD DIV MUL DUP4 MSTORE SWAP2 PUSH1 0x20 ADD SWAP2 PUSH2 0x2E21 JUMP JUMPDEST DUP3 ADD SWAP2 SWAP1 PUSH1 0x0 MSTORE PUSH1 0x20 PUSH1 0x0 KECCAK256 SWAP1 JUMPDEST DUP2 SLOAD DUP2 MSTORE SWAP1 PUSH1 0x1 ADD SWAP1 PUSH1 0x20 ADD DUP1 DUP4 GT PUSH2 0x2E04 JUMPI DUP3 SWAP1 SUB PUSH1 0x1F AND DUP3 ADD SWAP2 JUMPDEST POP POP POP POP POP DUP2 MSTORE PUSH1 0x20 ADD CALLER PUSH1 0x1 PUSH1 0x1 PUSH1 0xA0 SHL SUB AND DUP2 MSTORE PUSH1 0x20 ADD DUP6 PUSH1 0x3 ADD SLOAD DUP2 MSTORE PUSH1 0x20 ADD DUP6 PUSH1 0x4 ADD SLOAD DUP2 MSTORE PUSH1 0x20 ADD DUP5 PUSH4 0xFFFFFFFF AND DUP2 MSTORE PUSH1 0x20 ADD DUP4 DUP2 MSTORE PUSH1 0x20 ADD DUP3 DUP2 MSTORE PUSH1 0x20 ADD DUP7 DUP2 MSTORE POP PUSH1 0x7 PUSH1 0x0 DUP9 PUSH4 0xFFFFFFFF AND PUSH4 0xFFFFFFFF AND DUP2 MSTORE PUSH1 0x20 ADD SWAP1 DUP2 MSTORE PUSH1 0x20 ADD PUSH1 0x0 KECCAK256 PUSH1 0x0 DUP3 ADD MLOAD DUP2 PUSH1 0x0 ADD SWAP1 DUP2 PUSH2 0x2E9E SWAP2 SWAP1 PUSH2 0x5136 JUMP JUMPDEST POP PUSH1 0x20 DUP3 ADD MLOAD PUSH1 0x1 DUP3 ADD DUP1 SLOAD PUSH1 0x1 PUSH1 0x1 PUSH1 0xA0 SHL SUB NOT AND PUSH1 0x1 PUSH1 0x1 PUSH1 0xA0 SHL SUB SWAP1 SWAP3 AND SWAP2 SWAP1 SWAP2 OR SWAP1 SSTORE PUSH1 0x40 DUP3 ADD MLOAD PUSH1 0x2 DUP3 ADD SSTORE PUSH1 0x60 DUP3 ADD MLOAD PUSH1 0x3 DUP3 ADD SSTORE PUSH1 0x80 DUP3 ADD MLOAD PUSH1 0x4 DUP3 ADD DUP1 SLOAD PUSH4 0xFFFFFFFF NOT AND PUSH4 0xFFFFFFFF SWAP1 SWAP3 AND SWAP2 SWAP1 SWAP2 OR SWAP1 SSTORE PUSH1 0xA0 DUP3 ADD MLOAD PUSH1 0x5 DUP3 ADD SWAP1 PUSH2 0x2F0D SWAP1 DUP3 PUSH2 0x5136 JUMP JUMPDEST POP PUSH1 0xC0 DUP3 ADD MLOAD PUSH1 0x6 DUP3 ADD SWAP1 PUSH2 0x2F22 SWAP1 DUP3 PUSH2 0x5136 JUMP JUMPDEST POP PUSH1 0xE0 DUP3 ADD MLOAD PUSH1 0x7 DUP3 ADD SWAP1 PUSH2 0x2F37 SWAP1 DUP3 PUSH2 0x5136 JUMP JUMPDEST POP POP POP POP POP POP POP POP POP JUMP JUMPDEST CALLER PUSH1 0x0 SWAP1 DUP2 MSTORE PUSH1 0x4 PUSH1 0x20 MSTORE PUSH1 0x40 SWAP1 KECCAK256 SLOAD PUSH1 0xFF AND ISZERO PUSH2 0x2FB4 JUMPI PUSH1 0x40 MLOAD PUSH3 0x461BCD PUSH1 0xE5 SHL DUP2 MSTORE PUSH1 0x20 PUSH1 0x4 DUP3 ADD MSTORE PUSH1 0x29 PUSH1 0x24 DUP3 ADD MSTORE PUSH32 0x456C656374696F6E2041646D696E206164647265737320616C72656164792072 PUSH1 0x44 DUP3 ADD MSTORE PUSH9 0x1959DA5CDD195C9959 PUSH1 0xBA SHL PUSH1 0x64 DUP3 ADD MSTORE PUSH1 0x84 ADD PUSH2 0x567 JUMP JUMPDEST PUSH1 0x0 PUSH2 0x2FBF DUP4 PUSH2 0x4019 JUMP JUMPDEST PUSH1 0x0 SLOAD SWAP1 SWAP2 POP PUSH2 0xFFFF DUP3 AND LT PUSH2 0x2FE7 JUMPI PUSH1 0x40 MLOAD PUSH3 0x461BCD PUSH1 0xE5 SHL DUP2 MSTORE PUSH1 0x4 ADD PUSH2 0x567 SWAP1 PUSH2 0x5227 JUMP JUMPDEST PUSH1 0x0 DUP1 DUP3 PUSH2 0xFFFF AND DUP2 SLOAD DUP2 LT PUSH2 0x2FFF JUMPI PUSH2 0x2FFF PUSH2 0x4F0A JUMP JUMPDEST PUSH1 0x0 SWAP2 DUP3 MSTORE PUSH1 0x20 DUP1 DUP4 KECCAK256 PUSH1 0x2 PUSH1 0x6 SWAP1 SWAP4 MUL ADD SWAP2 DUP3 ADD DUP1 SLOAD PUSH1 0x1 DUP2 ADD DUP3 SSTORE DUP2 DUP6 MSTORE DUP3 DUP6 KECCAK256 ADD DUP1 SLOAD PUSH1 0x1 PUSH1 0x1 PUSH1 0xA0 SHL SUB NOT AND CALLER SWAP1 DUP2 OR SWAP1 SWAP2 SSTORE DUP5 MSTORE PUSH1 0x9 SWAP1 SWAP2 MSTORE PUSH1 0x40 SWAP1 SWAP3 KECCAK256 SWAP1 SWAP3 POP PUSH2 0x304F DUP7 DUP3 PUSH2 0x5136 JUMP JUMPDEST POP PUSH1 0x40 DUP1 MLOAD PUSH1 0x80 DUP2 ADD DUP3 MSTORE CALLER DUP1 DUP3 MSTORE PUSH1 0x20 DUP1 DUP4 ADD DUP9 DUP2 MSTORE PUSH1 0x1 DUP5 DUP7 ADD DUP2 SWAP1 MSTORE PUSH1 0x60 DUP6 ADD DUP12 SWAP1 MSTORE PUSH1 0x0 SWAP4 DUP5 MSTORE PUSH1 0x5 SWAP1 SWAP3 MSTORE SWAP4 SWAP1 SWAP2 KECCAK256 DUP3 MLOAD DUP2 SLOAD PUSH1 0x1 PUSH1 0x1 PUSH1 0xA0 SHL SUB NOT AND PUSH1 0x1 PUSH1 0x1 PUSH1 0xA0 SHL SUB SWAP1 SWAP2 AND OR DUP2 SSTORE SWAP3 MLOAD SWAP2 SWAP3 DUP4 SWAP3 SWAP1 SWAP2 DUP3 ADD SWAP1 PUSH2 0x30B4 SWAP1 DUP3 PUSH2 0x5136 JUMP JUMPDEST POP PUSH1 0x40 DUP3 ADD MLOAD PUSH1 0x2 DUP3 ADD DUP1 SLOAD PUSH1 0xFF NOT AND SWAP2 ISZERO ISZERO SWAP2 SWAP1 SWAP2 OR SWAP1 SSTORE PUSH1 0x60 DUP3 ADD MLOAD PUSH1 0x3 DUP3 ADD SWAP1 PUSH2 0x30E1 SWAP1 DUP3 PUSH2 0x5136 JUMP JUMPDEST POP POP CALLER PUSH1 0x0 SWAP1 DUP2 MSTORE PUSH1 0x4 PUSH1 0x20 MSTORE PUSH1 0x40 SWAP1 KECCAK256 DUP1 SLOAD PUSH1 0xFF NOT AND PUSH1 0x1 OR SWAP1 SSTORE POP PUSH1 0x5 DUP4 ADD DUP1 SLOAD PUSH6 0xFFFFFFFFFFFF PUSH3 0x10000 SWAP1 SWAP2 DIV AND SWAP1 PUSH1 0x2 PUSH2 0x311F DUP4 PUSH2 0x520C JUMP JUMPDEST SWAP2 SWAP1 PUSH2 0x100 EXP DUP2 SLOAD DUP2 PUSH6 0xFFFFFFFFFFFF MUL NOT AND SWAP1 DUP4 PUSH6 0xFFFFFFFFFFFF AND MUL OR SWAP1 SSTORE POP POP POP POP POP POP POP POP JUMP JUMPDEST PUSH1 0xB PUSH1 0x20 MSTORE PUSH1 0x0 SWAP1 DUP2 MSTORE PUSH1 0x40 SWAP1 KECCAK256 DUP1 SLOAD PUSH1 0x1 DUP3 ADD DUP1 SLOAD PUSH6 0xFFFFFFFFFFFF DUP4 AND SWAP4 PUSH1 0x1 PUSH1 0x30 SHL SWAP1 SWAP4 DIV PUSH1 0x1 PUSH1 0x1 PUSH1 0xA0 SHL SUB AND SWAP3 SWAP2 SWAP1 PUSH2 0x3187 SWAP1 PUSH2 0x4F20 JUMP JUMPDEST DUP1 PUSH1 0x1F ADD PUSH1 0x20 DUP1 SWAP2 DIV MUL PUSH1 0x20 ADD PUSH1 0x40 MLOAD SWAP1 DUP2 ADD PUSH1 0x40 MSTORE DUP1 SWAP3 SWAP2 SWAP1 DUP2 DUP2 MSTORE PUSH1 0x20 ADD DUP3 DUP1 SLOAD PUSH2 0x31B3 SWAP1 PUSH2 0x4F20 JUMP JUMPDEST DUP1 ISZERO PUSH2 0x3200 JUMPI DUP1 PUSH1 0x1F LT PUSH2 0x31D5 JUMPI PUSH2 0x100 DUP1 DUP4 SLOAD DIV MUL DUP4 MSTORE SWAP2 PUSH1 0x20 ADD SWAP2 PUSH2 0x3200 JUMP JUMPDEST DUP3 ADD SWAP2 SWAP1 PUSH1 0x0 MSTORE PUSH1 0x20 PUSH1 0x0 KECCAK256 SWAP1 JUMPDEST DUP2 SLOAD DUP2 MSTORE SWAP1 PUSH1 0x1 ADD SWAP1 PUSH1 0x20 ADD DUP1 DUP4 GT PUSH2 0x31E3 JUMPI DUP3 SWAP1 SUB PUSH1 0x1F AND DUP3 ADD SWAP2 JUMPDEST POP POP POP PUSH1 0x2 DUP5 ADD SLOAD PUSH1 0x4 DUP6 ADD DUP1 SLOAD SWAP5 SWAP6 PUSH1 0xFF SWAP1 SWAP3 AND SWAP5 SWAP2 SWAP4 POP SWAP2 POP PUSH2 0x3224 SWAP1 PUSH2 0x4F20 JUMP JUMPDEST DUP1 PUSH1 0x1F ADD PUSH1 0x20 DUP1 SWAP2 DIV MUL PUSH1 0x20 ADD PUSH1 0x40 MLOAD SWAP1 DUP2 ADD PUSH1 0x40 MSTORE DUP1 SWAP3 SWAP2 SWAP1 DUP2 DUP2 MSTORE PUSH1 0x20 ADD DUP3 DUP1 SLOAD PUSH2 0x3250 SWAP1 PUSH2 0x4F20 JUMP JUMPDEST DUP1 ISZERO PUSH2 0x329D JUMPI DUP1 PUSH1 0x1F LT PUSH2 0x3272 JUMPI PUSH2 0x100 DUP1 DUP4 SLOAD DIV MUL DUP4 MSTORE SWAP2 PUSH1 0x20 ADD SWAP2 PUSH2 0x329D JUMP JUMPDEST DUP3 ADD SWAP2 SWAP1 PUSH1 0x0 MSTORE PUSH1 0x20 PUSH1 0x0 KECCAK256 SWAP1 JUMPDEST DUP2 SLOAD DUP2 MSTORE SWAP1 PUSH1 0x1 ADD SWAP1 PUSH1 0x20 ADD DUP1 DUP4 GT PUSH2 0x3280 JUMPI DUP3 SWAP1 SUB PUSH1 0x1F AND DUP3 ADD SWAP2 JUMPDEST POP POP POP POP POP SWAP1 POP DUP6 JUMP JUMPDEST PUSH1 0xA PUSH1 0x20 MSTORE PUSH1 0x0 SWAP1 DUP2 MSTORE PUSH1 0x40 SWAP1 KECCAK256 DUP1 SLOAD PUSH2 0x81C SWAP1 PUSH2 0x4F20 JUMP JUMPDEST PUSH1 0x0 DUP2 DUP2 SLOAD DUP2 LT PUSH2 0x32D0 JUMPI PUSH1 0x0 DUP1 REVERT JUMPDEST SWAP1 PUSH1 0x0 MSTORE PUSH1 0x20 PUSH1 0x0 KECCAK256 SWAP1 PUSH1 0x6 MUL ADD PUSH1 0x0 SWAP2 POP SWAP1 POP DUP1 PUSH1 0x0 ADD DUP1 SLOAD PUSH2 0x32F3 SWAP1 PUSH2 0x4F20 JUMP JUMPDEST DUP1 PUSH1 0x1F ADD PUSH1 0x20 DUP1 SWAP2 DIV MUL PUSH1 0x20 ADD PUSH1 0x40 MLOAD SWAP1 DUP2 ADD PUSH1 0x40 MSTORE DUP1 SWAP3 SWAP2 SWAP1 DUP2 DUP2 MSTORE PUSH1 0x20 ADD DUP3 DUP1 SLOAD PUSH2 0x331F SWAP1 PUSH2 0x4F20 JUMP JUMPDEST DUP1 ISZERO PUSH2 0x336C JUMPI DUP1 PUSH1 0x1F LT PUSH2 0x3341 JUMPI PUSH2 0x100 DUP1 DUP4 SLOAD DIV MUL DUP4 MSTORE SWAP2 PUSH1 0x20 ADD SWAP2 PUSH2 0x336C JUMP JUMPDEST DUP3 ADD SWAP2 SWAP1 PUSH1 0x0 MSTORE PUSH1 0x20 PUSH1 0x0 KECCAK256 SWAP1 JUMPDEST DUP2 SLOAD DUP2 MSTORE SWAP1 PUSH1 0x1 ADD SWAP1 PUSH1 0x20 ADD DUP1 DUP4 GT PUSH2 0x334F JUMPI DUP3 SWAP1 SUB PUSH1 0x1F AND DUP3 ADD SWAP2 JUMPDEST POP POP POP POP POP SWAP1 DUP1 PUSH1 0x1 ADD DUP1 SLOAD PUSH2 0x3381 SWAP1 PUSH2 0x4F20 JUMP JUMPDEST DUP1 PUSH1 0x1F ADD PUSH1 0x20 DUP1 SWAP2 DIV MUL PUSH1 0x20 ADD PUSH1 0x40 MLOAD SWAP1 DUP2 ADD PUSH1 0x40 MSTORE DUP1 SWAP3 SWAP2 SWAP1 DUP2 DUP2 MSTORE PUSH1 0x20 ADD DUP3 DUP1 SLOAD PUSH2 0x33AD SWAP1 PUSH2 0x4F20 JUMP JUMPDEST DUP1 ISZERO PUSH2 0x33FA JUMPI DUP1 PUSH1 0x1F LT PUSH2 0x33CF JUMPI PUSH2 0x100 DUP1 DUP4 SLOAD DIV MUL DUP4 MSTORE SWAP2 PUSH1 0x20 ADD SWAP2 PUSH2 0x33FA JUMP JUMPDEST DUP3 ADD SWAP2 SWAP1 PUSH1 0x0 MSTORE PUSH1 0x20 PUSH1 0x0 KECCAK256 SWAP1 JUMPDEST DUP2 SLOAD DUP2 MSTORE SWAP1 PUSH1 0x1 ADD SWAP1 PUSH1 0x20 ADD DUP1 DUP4 GT PUSH2 0x33DD JUMPI DUP3 SWAP1 SUB PUSH1 0x1F AND DUP3 ADD SWAP2 JUMPDEST POP POP POP POP PUSH1 0x3 DUP4 ADD SLOAD PUSH1 0x5 SWAP1 SWAP4 ADD SLOAD SWAP2 SWAP3 PUSH1 0xFF AND SWAP2 PUSH2 0xFFFF DUP2 AND SWAP2 POP PUSH3 0x10000 SWAP1 DIV PUSH6 0xFFFFFFFFFFFF AND DUP6 JUMP JUMPDEST PUSH1 0x7 PUSH1 0x20 MSTORE PUSH1 0x0 SWAP1 DUP2 MSTORE PUSH1 0x40 SWAP1 KECCAK256 DUP1 SLOAD DUP2 SWAP1 PUSH2 0x3442 SWAP1 PUSH2 0x4F20 JUMP JUMPDEST DUP1 PUSH1 0x1F ADD PUSH1 0x20 DUP1 SWAP2 DIV MUL PUSH1 0x20 ADD PUSH1 0x40 MLOAD SWAP1 DUP2 ADD PUSH1 0x40 MSTORE DUP1 SWAP3 SWAP2 SWAP1 DUP2 DUP2 MSTORE PUSH1 0x20 ADD DUP3 DUP1 SLOAD PUSH2 0x346E SWAP1 PUSH2 0x4F20 JUMP JUMPDEST DUP1 ISZERO PUSH2 0x34BB JUMPI DUP1 PUSH1 0x1F LT PUSH2 0x3490 JUMPI PUSH2 0x100 DUP1 DUP4 SLOAD DIV MUL DUP4 MSTORE SWAP2 PUSH1 0x20 ADD SWAP2 PUSH2 0x34BB JUMP JUMPDEST DUP3 ADD SWAP2 SWAP1 PUSH1 0x0 MSTORE PUSH1 0x20 PUSH1 0x0 KECCAK256 SWAP1 JUMPDEST DUP2 SLOAD DUP2 MSTORE SWAP1 PUSH1 0x1 ADD SWAP1 PUSH1 0x20 ADD DUP1 DUP4 GT PUSH2 0x349E JUMPI DUP3 SWAP1 SUB PUSH1 0x1F AND DUP3 ADD SWAP2 JUMPDEST POP POP POP PUSH1 0x1 DUP5 ADD SLOAD PUSH1 0x2 DUP6 ADD SLOAD PUSH1 0x3 DUP7 ADD SLOAD PUSH1 0x4 DUP8 ADD SLOAD PUSH1 0x5 DUP9 ADD DUP1 SLOAD SWAP8 SWAP9 PUSH1 0x1 PUSH1 0x1 PUSH1 0xA0 SHL SUB SWAP1 SWAP6 AND SWAP8 SWAP4 SWAP7 POP SWAP2 SWAP5 POP PUSH4 0xFFFFFFFF AND SWAP3 SWAP2 PUSH2 0x34FD SWAP1 PUSH2 0x4F20 JUMP JUMPDEST DUP1 PUSH1 0x1F ADD PUSH1 0x20 DUP1 SWAP2 DIV MUL PUSH1 0x20 ADD PUSH1 0x40 MLOAD SWAP1 DUP2 ADD PUSH1 0x40 MSTORE DUP1 SWAP3 SWAP2 SWAP1 DUP2 DUP2 MSTORE PUSH1 0x20 ADD DUP3 DUP1 SLOAD PUSH2 0x3529 SWAP1 PUSH2 0x4F20 JUMP JUMPDEST DUP1 ISZERO PUSH2 0x3576 JUMPI DUP1 PUSH1 0x1F LT PUSH2 0x354B JUMPI PUSH2 0x100 DUP1 DUP4 SLOAD DIV MUL DUP4 MSTORE SWAP2 PUSH1 0x20 ADD SWAP2 PUSH2 0x3576 JUMP JUMPDEST DUP3 ADD SWAP2 SWAP1 PUSH1 0x0 MSTORE PUSH1 0x20 PUSH1 0x0 KECCAK256 SWAP1 JUMPDEST DUP2 SLOAD DUP2 MSTORE SWAP1 PUSH1 0x1 ADD SWAP1 PUSH1 0x20 ADD DUP1 DUP4 GT PUSH2 0x3559 JUMPI DUP3 SWAP1 SUB PUSH1 0x1F AND DUP3 ADD SWAP2 JUMPDEST POP POP POP POP POP SWAP1 DUP1 PUSH1 0x6 ADD DUP1 SLOAD PUSH2 0x358B SWAP1 PUSH2 0x4F20 JUMP JUMPDEST DUP1 PUSH1 0x1F ADD PUSH1 0x20 DUP1 SWAP2 DIV MUL PUSH1 0x20 ADD PUSH1 0x40 MLOAD SWAP1 DUP2 ADD PUSH1 0x40 MSTORE DUP1 SWAP3 SWAP2 SWAP1 DUP2 DUP2 MSTORE PUSH1 0x20 ADD DUP3 DUP1 SLOAD PUSH2 0x35B7 SWAP1 PUSH2 0x4F20 JUMP JUMPDEST DUP1 ISZERO PUSH2 0x3604 JUMPI DUP1 PUSH1 0x1F LT PUSH2 0x35D9 JUMPI PUSH2 0x100 DUP1 DUP4 SLOAD DIV MUL DUP4 MSTORE SWAP2 PUSH1 0x20 ADD SWAP2 PUSH2 0x3604 JUMP JUMPDEST DUP3 ADD SWAP2 SWAP1 PUSH1 0x0 MSTORE PUSH1 0x20 PUSH1 0x0 KECCAK256 SWAP1 JUMPDEST DUP2 SLOAD DUP2 MSTORE SWAP1 PUSH1 0x1 ADD SWAP1 PUSH1 0x20 ADD DUP1 DUP4 GT PUSH2 0x35E7 JUMPI DUP3 SWAP1 SUB PUSH1 0x1F AND DUP3 ADD SWAP2 JUMPDEST POP POP POP POP POP SWAP1 DUP1 PUSH1 0x7 ADD DUP1 SLOAD PUSH2 0x3619 SWAP1 PUSH2 0x4F20 JUMP JUMPDEST DUP1 PUSH1 0x1F ADD PUSH1 0x20 DUP1 SWAP2 DIV MUL PUSH1 0x20 ADD PUSH1 0x40 MLOAD SWAP1 DUP2 ADD PUSH1 0x40 MSTORE DUP1 SWAP3 SWAP2 SWAP1 DUP2 DUP2 MSTORE PUSH1 0x20 ADD DUP3 DUP1 SLOAD PUSH2 0x3645 SWAP1 PUSH2 0x4F20 JUMP JUMPDEST DUP1 ISZERO PUSH2 0x3692 JUMPI DUP1 PUSH1 0x1F LT PUSH2 0x3667 JUMPI PUSH2 0x100 DUP1 DUP4 SLOAD DIV MUL DUP4 MSTORE SWAP2 PUSH1 0x20 ADD SWAP2 PUSH2 0x3692 JUMP JUMPDEST DUP3 ADD SWAP2 SWAP1 PUSH1 0x0 MSTORE PUSH1 0x20 PUSH1 0x0 KECCAK256 SWAP1 JUMPDEST DUP2 SLOAD DUP2 MSTORE SWAP1 PUSH1 0x1 ADD SWAP1 PUSH1 0x20 ADD DUP1 DUP4 GT PUSH2 0x3675 JUMPI DUP3 SWAP1 SUB PUSH1 0x1F AND DUP3 ADD SWAP2 JUMPDEST POP POP POP POP POP SWAP1 POP DUP9 JUMP JUMPDEST PUSH1 0x8 DUP3 PUSH1 0x40 MLOAD PUSH2 0x36AC SWAP2 SWAP1 PUSH2 0x4FEC JUMP JUMPDEST SWAP1 DUP2 MSTORE PUSH1 0x40 MLOAD SWAP1 DUP2 SWAP1 SUB PUSH1 0x20 ADD SWAP1 KECCAK256 SLOAD PUSH1 0xFF AND ISZERO PUSH2 0x3717 JUMPI PUSH1 0x40 MLOAD PUSH3 0x461BCD PUSH1 0xE5 SHL DUP2 MSTORE PUSH1 0x20 PUSH1 0x4 DUP3 ADD MSTORE PUSH1 0x22 PUSH1 0x24 DUP3 ADD MSTORE PUSH32 0x4F7267616E697A6174696F6E20494420616C7265616479207265676973746572 PUSH1 0x44 DUP3 ADD MSTORE PUSH2 0x1959 PUSH1 0xF2 SHL PUSH1 0x64 DUP3 ADD MSTORE PUSH1 0x84 ADD PUSH2 0x567 JUMP JUMPDEST PUSH1 0x8 DUP4 PUSH1 0x40 MLOAD PUSH2 0x3727 SWAP2 SWAP1 PUSH2 0x4FEC JUMP JUMPDEST SWAP1 DUP2 MSTORE PUSH1 0x40 MLOAD SWAP1 DUP2 SWAP1 SUB PUSH1 0x20 ADD SWAP1 KECCAK256 SLOAD PUSH1 0xFF AND ISZERO PUSH2 0x3793 JUMPI PUSH1 0x40 MLOAD PUSH3 0x461BCD PUSH1 0xE5 SHL DUP2 MSTORE PUSH1 0x20 PUSH1 0x4 DUP3 ADD MSTORE PUSH1 0x24 DUP1 DUP3 ADD MSTORE PUSH32 0x4F7267616E697A6174696F6E204E616D6520616C726561647920726567697374 PUSH1 0x44 DUP3 ADD MSTORE PUSH4 0x195C9959 PUSH1 0xE2 SHL PUSH1 0x64 DUP3 ADD MSTORE PUSH1 0x84 ADD PUSH2 0x567 JUMP JUMPDEST PUSH1 0x1 DUP4 MLOAD GT PUSH2 0x37E4 JUMPI PUSH1 0x40 MLOAD PUSH3 0x461BCD PUSH1 0xE5 SHL DUP2 MSTORE PUSH1 0x20 PUSH1 0x4 DUP3 ADD DUP2 SWAP1 MSTORE PUSH1 0x24 DUP3 ADD MSTORE PUSH32 0x4F7267616E697A6174696F6E206E616D652063616E277420626520656D707479 PUSH1 0x44 DUP3 ADD MSTORE PUSH1 0x64 ADD PUSH2 0x567 JUMP JUMPDEST PUSH1 0xC DUP4 MLOAD GT ISZERO PUSH2 0x3850 JUMPI PUSH1 0x40 MLOAD PUSH3 0x461BCD PUSH1 0xE5 SHL DUP2 MSTORE PUSH1 0x20 PUSH1 0x4 DUP3 ADD MSTORE PUSH1 0x31 PUSH1 0x24 DUP3 ADD MSTORE PUSH32 0x4F7267616E697A6174696F6E206E616D652073686F756C642062652031322063 PUSH1 0x44 DUP3 ADD MSTORE PUSH17 0x686172616374657273206F72206C657373 PUSH1 0x78 SHL PUSH1 0x64 DUP3 ADD MSTORE PUSH1 0x84 ADD PUSH2 0x567 JUMP JUMPDEST PUSH1 0x1 DUP3 MLOAD GT PUSH2 0x38A1 JUMPI PUSH1 0x40 MLOAD PUSH3 0x461BCD PUSH1 0xE5 SHL DUP2 MSTORE PUSH1 0x20 PUSH1 0x4 DUP3 ADD MSTORE PUSH1 0x1E PUSH1 0x24 DUP3 ADD MSTORE PUSH32 0x4F7267616E697A6174696F6E2049442063616E277420626520656D7074790000 PUSH1 0x44 DUP3 ADD MSTORE PUSH1 0x64 ADD PUSH2 0x567 JUMP JUMPDEST PUSH1 0x4 DUP3 MLOAD GT ISZERO PUSH2 0x390A JUMPI PUSH1 0x40 MLOAD PUSH3 0x461BCD PUSH1 0xE5 SHL DUP2 MSTORE PUSH1 0x20 PUSH1 0x4 DUP3 ADD MSTORE PUSH1 0x2E PUSH1 0x24 DUP3 ADD MSTORE PUSH32 0x4F7267616E697A6174696F6E2049442073686F756C6420626520342063686172 PUSH1 0x44 DUP3 ADD MSTORE PUSH14 0x616374657273206F72206C657373 PUSH1 0x90 SHL PUSH1 0x64 DUP3 ADD MSTORE PUSH1 0x84 ADD PUSH2 0x567 JUMP JUMPDEST PUSH1 0x40 DUP1 MLOAD PUSH1 0xE0 DUP2 ADD DUP3 MSTORE DUP5 DUP2 MSTORE PUSH1 0x20 DUP1 DUP3 ADD DUP6 SWAP1 MSTORE DUP3 MLOAD PUSH1 0x0 DUP1 DUP3 MSTORE SWAP2 DUP2 ADD DUP5 MSTORE SWAP1 SWAP3 DUP3 ADD SWAP1 DUP2 MSTORE PUSH1 0x20 ADD DUP4 PUSH1 0x1 DUP2 GT ISZERO PUSH2 0x3947 JUMPI PUSH2 0x3947 PUSH2 0x48B7 JUMP JUMPDEST DUP2 MSTORE PUSH1 0x20 ADD PUSH1 0x0 PUSH1 0x40 MLOAD SWAP1 DUP1 DUP3 MSTORE DUP1 PUSH1 0x20 MUL PUSH1 0x20 ADD DUP3 ADD PUSH1 0x40 MSTORE DUP1 ISZERO PUSH2 0x3977 JUMPI DUP2 PUSH1 0x20 ADD PUSH1 0x20 DUP3 MUL DUP1 CALLDATASIZE DUP4 CALLDATACOPY ADD SWAP1 POP JUMPDEST POP DUP2 MSTORE PUSH1 0x0 PUSH1 0x20 DUP3 ADD DUP2 SWAP1 MSTORE PUSH1 0x40 SWAP1 SWAP2 ADD DUP2 SWAP1 MSTORE DUP1 SLOAD PUSH1 0x1 DUP2 ADD DUP3 SSTORE SWAP1 DUP1 MSTORE DUP2 MLOAD SWAP2 SWAP3 POP DUP3 SWAP2 PUSH1 0x6 SWAP1 SWAP2 MUL PUSH32 0x290DECD9548B62A8D60345A988386FC84BA6BC95484008F6362F93160EF3E563 ADD SWAP1 DUP2 SWAP1 PUSH2 0x39D1 SWAP1 DUP3 PUSH2 0x5136 JUMP JUMPDEST POP PUSH1 0x20 DUP3 ADD MLOAD PUSH1 0x1 DUP3 ADD SWAP1 PUSH2 0x39E6 SWAP1 DUP3 PUSH2 0x5136 JUMP JUMPDEST POP PUSH1 0x40 DUP3 ADD MLOAD DUP1 MLOAD PUSH2 0x3A02 SWAP2 PUSH1 0x2 DUP5 ADD SWAP2 PUSH1 0x20 SWAP1 SWAP2 ADD SWAP1 PUSH2 0x44CF JUMP JUMPDEST POP PUSH1 0x60 DUP3 ADD MLOAD PUSH1 0x3 DUP3 ADD DUP1 SLOAD PUSH1 0xFF NOT AND PUSH1 0x1 DUP4 DUP2 DUP2 GT ISZERO PUSH2 0x3A25 JUMPI PUSH2 0x3A25 PUSH2 0x48B7 JUMP JUMPDEST MUL OR SWAP1 SSTORE POP PUSH1 0x80 DUP3 ADD MLOAD DUP1 MLOAD PUSH2 0x3A45 SWAP2 PUSH1 0x4 DUP5 ADD SWAP2 PUSH1 0x20 SWAP1 SWAP2 ADD SWAP1 PUSH2 0x4530 JUMP JUMPDEST POP PUSH1 0xA0 DUP3 ADD MLOAD PUSH1 0x5 SWAP1 SWAP2 ADD DUP1 SLOAD PUSH1 0xC0 SWAP1 SWAP4 ADD MLOAD PUSH6 0xFFFFFFFFFFFF AND PUSH3 0x10000 MUL PUSH8 0xFFFFFFFFFFFFFFFF NOT SWAP1 SWAP4 AND PUSH2 0xFFFF SWAP1 SWAP3 AND SWAP2 SWAP1 SWAP2 OR SWAP2 SWAP1 SWAP2 OR SWAP1 SSTORE PUSH1 0x40 MLOAD PUSH1 0x1 SWAP1 PUSH1 0x8 SWAP1 PUSH2 0x3A96 SWAP1 DUP7 SWAP1 PUSH2 0x4FEC JUMP JUMPDEST SWAP1 DUP2 MSTORE PUSH1 0x40 MLOAD SWAP1 DUP2 SWAP1 SUB PUSH1 0x20 ADD DUP2 KECCAK256 DUP1 SLOAD SWAP3 ISZERO ISZERO PUSH1 0xFF NOT SWAP1 SWAP4 AND SWAP3 SWAP1 SWAP3 OR SWAP1 SWAP2 SSTORE PUSH1 0x1 SWAP1 PUSH1 0x8 SWAP1 PUSH2 0x3AC8 SWAP1 DUP8 SWAP1 PUSH2 0x4FEC JUMP JUMPDEST SWAP1 DUP2 MSTORE PUSH1 0x40 MLOAD SWAP1 DUP2 SWAP1 SUB PUSH1 0x20 ADD SWAP1 KECCAK256 DUP1 SLOAD SWAP2 ISZERO ISZERO PUSH1 0xFF NOT SWAP1 SWAP3 AND SWAP2 SWAP1 SWAP2 OR SWAP1 SSTORE POP POP POP POP JUMP JUMPDEST PUSH1 0x0 DUP1 JUMPDEST PUSH1 0x0 SLOAD PUSH2 0xFFFF DUP3 AND LT ISZERO PUSH2 0x3B92 JUMPI DUP3 PUSH1 0x40 MLOAD PUSH1 0x20 ADD PUSH2 0x3B11 SWAP2 SWAP1 PUSH2 0x4FEC JUMP JUMPDEST PUSH1 0x40 MLOAD PUSH1 0x20 DUP2 DUP4 SUB SUB DUP2 MSTORE SWAP1 PUSH1 0x40 MSTORE DUP1 MLOAD SWAP1 PUSH1 0x20 ADD KECCAK256 PUSH1 0x0 DUP3 PUSH2 0xFFFF AND DUP2 SLOAD DUP2 LT PUSH2 0x3B3E JUMPI PUSH2 0x3B3E PUSH2 0x4F0A JUMP JUMPDEST SWAP1 PUSH1 0x0 MSTORE PUSH1 0x20 PUSH1 0x0 KECCAK256 SWAP1 PUSH1 0x6 MUL ADD PUSH1 0x1 ADD PUSH1 0x40 MLOAD PUSH1 0x20 ADD PUSH2 0x3B5F SWAP2 SWAP1 PUSH2 0x5008 JUMP JUMPDEST PUSH1 0x40 MLOAD PUSH1 0x20 DUP2 DUP4 SUB SUB DUP2 MSTORE SWAP1 PUSH1 0x40 MSTORE DUP1 MLOAD SWAP1 PUSH1 0x20 ADD KECCAK256 SUB PUSH2 0x3B80 JUMPI SWAP3 SWAP2 POP POP JUMP JUMPDEST DUP1 PUSH2 0x3B8A DUP2 PUSH2 0x51F5 JUMP JUMPDEST SWAP2 POP POP PUSH2 0x3AF2 JUMP JUMPDEST POP PUSH1 0x40 MLOAD PUSH3 0x461BCD PUSH1 0xE5 SHL DUP2 MSTORE PUSH1 0x4 ADD PUSH2 0x567 SWAP1 PUSH2 0x5227 JUMP JUMPDEST PUSH1 0x0 DUP1 JUMPDEST PUSH1 0x0 SLOAD DUP2 LT ISZERO PUSH2 0x3CEB JUMPI DUP4 PUSH1 0x40 MLOAD PUSH1 0x20 ADD PUSH2 0x3BCA SWAP2 SWAP1 PUSH2 0x4FEC JUMP JUMPDEST PUSH1 0x40 MLOAD PUSH1 0x20 DUP2 DUP4 SUB SUB DUP2 MSTORE SWAP1 PUSH1 0x40 MSTORE DUP1 MLOAD SWAP1 PUSH1 0x20 ADD KECCAK256 PUSH1 0x0 DUP3 DUP2 SLOAD DUP2 LT PUSH2 0x3BF3 JUMPI PUSH2 0x3BF3 PUSH2 0x4F0A JUMP JUMPDEST SWAP1 PUSH1 0x0 MSTORE PUSH1 0x20 PUSH1 0x0 KECCAK256 SWAP1 PUSH1 0x6 MUL ADD PUSH1 0x1 ADD PUSH1 0x40 MLOAD PUSH1 0x20 ADD PUSH2 0x3C14 SWAP2 SWAP1 PUSH2 0x5008 JUMP JUMPDEST PUSH1 0x40 MLOAD PUSH1 0x20 DUP2 DUP4 SUB SUB DUP2 MSTORE SWAP1 PUSH1 0x40 MSTORE DUP1 MLOAD SWAP1 PUSH1 0x20 ADD KECCAK256 SUB PUSH2 0x3CD9 JUMPI PUSH1 0x0 JUMPDEST PUSH1 0x0 DUP3 DUP2 SLOAD DUP2 LT PUSH2 0x3C45 JUMPI PUSH2 0x3C45 PUSH2 0x4F0A JUMP JUMPDEST SWAP1 PUSH1 0x0 MSTORE PUSH1 0x20 PUSH1 0x0 KECCAK256 SWAP1 PUSH1 0x6 MUL ADD PUSH1 0x2 ADD DUP1 SLOAD SWAP1 POP DUP2 LT ISZERO PUSH2 0x3CD7 JUMPI DUP4 PUSH1 0x1 PUSH1 0x1 PUSH1 0xA0 SHL SUB AND PUSH1 0x0 DUP4 DUP2 SLOAD DUP2 LT PUSH2 0x3C7E JUMPI PUSH2 0x3C7E PUSH2 0x4F0A JUMP JUMPDEST SWAP1 PUSH1 0x0 MSTORE PUSH1 0x20 PUSH1 0x0 KECCAK256 SWAP1 PUSH1 0x6 MUL ADD PUSH1 0x2 ADD DUP3 DUP2 SLOAD DUP2 LT PUSH2 0x3CA0 JUMPI PUSH2 0x3CA0 PUSH2 0x4F0A JUMP JUMPDEST PUSH1 0x0 SWAP2 DUP3 MSTORE PUSH1 0x20 SWAP1 SWAP2 KECCAK256 ADD SLOAD PUSH1 0x1 PUSH1 0x1 PUSH1 0xA0 SHL SUB AND SUB PUSH2 0x3CC5 JUMPI PUSH1 0x1 SWAP3 POP POP POP PUSH2 0x3CF1 JUMP JUMPDEST DUP1 PUSH2 0x3CCF DUP2 PUSH2 0x5257 JUMP JUMPDEST SWAP2 POP POP PUSH2 0x3C32 JUMP JUMPDEST POP JUMPDEST DUP1 PUSH2 0x3CE3 DUP2 PUSH2 0x5257 JUMP JUMPDEST SWAP2 POP POP PUSH2 0x3BAF JUMP JUMPDEST POP PUSH1 0x0 SWAP1 POP JUMPDEST SWAP3 SWAP2 POP POP JUMP JUMPDEST PUSH1 0x3 DUP1 SLOAD PUSH1 0x0 SWAP2 PUSH6 0xFFFFFFFFFFFF SWAP1 SWAP2 AND SWAP1 DUP3 PUSH2 0x3D13 DUP4 PUSH2 0x520C JUMP JUMPDEST DUP3 SLOAD PUSH2 0x100 SWAP3 SWAP1 SWAP3 EXP PUSH6 0xFFFFFFFFFFFF DUP2 DUP2 MUL NOT SWAP1 SWAP4 AND SWAP2 DUP4 AND MUL OR SWAP1 SWAP2 SSTORE PUSH1 0x3 SLOAD AND SWAP1 POP PUSH6 0x1319718A5000 DUP2 GT ISZERO PUSH2 0x3D86 JUMPI PUSH1 0x40 MLOAD PUSH3 0x461BCD PUSH1 0xE5 SHL DUP2 MSTORE PUSH1 0x20 PUSH1 0x4 DUP3 ADD MSTORE PUSH1 0x15 PUSH1 0x24 DUP3 ADD MSTORE PUSH21 0x159BDD195C9251081B1A5B5A5D081C995858DA1959 PUSH1 0x5A SHL PUSH1 0x44 DUP3 ADD MSTORE PUSH1 0x64 ADD PUSH2 0x567 JUMP JUMPDEST PUSH6 0xFFFFFFFFFFFF DUP2 AND PUSH1 0x0 SWAP1 DUP2 MSTORE PUSH1 0xC PUSH1 0x20 MSTORE PUSH1 0x40 SWAP1 KECCAK256 SLOAD PUSH1 0xFF AND ISZERO PUSH2 0x3DE7 JUMPI PUSH1 0x40 MLOAD PUSH3 0x461BCD PUSH1 0xE5 SHL DUP2 MSTORE PUSH1 0x20 PUSH1 0x4 DUP3 ADD MSTORE PUSH1 0x16 PUSH1 0x24 DUP3 ADD MSTORE PUSH22 0x566F746572494420616C726561647920657869737473 PUSH1 0x50 SHL PUSH1 0x44 DUP3 ADD MSTORE PUSH1 0x64 ADD PUSH2 0x567 JUMP JUMPDEST PUSH6 0xFFFFFFFFFFFF DUP2 AND PUSH1 0x0 SWAP1 DUP2 MSTORE PUSH1 0xC PUSH1 0x20 MSTORE PUSH1 0x40 SWAP1 KECCAK256 DUP1 SLOAD PUSH1 0xFF NOT AND PUSH1 0x1 OR SWAP1 SSTORE SWAP2 SWAP1 POP JUMP JUMPDEST PUSH1 0x0 DUP1 JUMPDEST PUSH1 0x0 SLOAD DUP2 LT ISZERO PUSH2 0x3CEB JUMPI DUP3 PUSH1 0x40 MLOAD PUSH1 0x20 ADD PUSH2 0x3E2D SWAP2 SWAP1 PUSH2 0x4FEC JUMP JUMPDEST PUSH1 0x40 MLOAD PUSH1 0x20 DUP2 DUP4 SUB SUB DUP2 MSTORE SWAP1 PUSH1 0x40 MSTORE DUP1 MLOAD SWAP1 PUSH1 0x20 ADD KECCAK256 PUSH1 0x0 DUP3 DUP2 SLOAD DUP2 LT PUSH2 0x3E56 JUMPI PUSH2 0x3E56 PUSH2 0x4F0A JUMP JUMPDEST SWAP1 PUSH1 0x0 MSTORE PUSH1 0x20 PUSH1 0x0 KECCAK256 SWAP1 PUSH1 0x6 MUL ADD PUSH1 0x1 ADD PUSH1 0x40 MLOAD PUSH1 0x20 ADD PUSH2 0x3E77 SWAP2 SWAP1 PUSH2 0x5008 JUMP JUMPDEST PUSH1 0x40 MLOAD PUSH1 0x20 DUP2 DUP4 SUB SUB DUP2 MSTORE SWAP1 PUSH1 0x40 MSTORE DUP1 MLOAD SWAP1 PUSH1 0x20 ADD KECCAK256 SUB PUSH2 0x3F3C JUMPI PUSH1 0x0 JUMPDEST PUSH1 0x0 DUP3 DUP2 SLOAD DUP2 LT PUSH2 0x3EA8 JUMPI PUSH2 0x3EA8 PUSH2 0x4F0A JUMP JUMPDEST SWAP1 PUSH1 0x0 MSTORE PUSH1 0x20 PUSH1 0x0 KECCAK256 SWAP1 PUSH1 0x6 MUL ADD PUSH1 0x2 ADD DUP1 SLOAD SWAP1 POP DUP2 LT ISZERO PUSH2 0x3F3A JUMPI DUP5 PUSH1 0x1 PUSH1 0x1 PUSH1 0xA0 SHL SUB AND PUSH1 0x0 DUP4 DUP2 SLOAD DUP2 LT PUSH2 0x3EE1 JUMPI PUSH2 0x3EE1 PUSH2 0x4F0A JUMP JUMPDEST SWAP1 PUSH1 0x0 MSTORE PUSH1 0x20 PUSH1 0x0 KECCAK256 SWAP1 PUSH1 0x6 MUL ADD PUSH1 0x2 ADD DUP3 DUP2 SLOAD DUP2 LT PUSH2 0x3F03 JUMPI PUSH2 0x3F03 PUSH2 0x4F0A JUMP JUMPDEST PUSH1 0x0 SWAP2 DUP3 MSTORE PUSH1 0x20 SWAP1 SWAP2 KECCAK256 ADD SLOAD PUSH1 0x1 PUSH1 0x1 PUSH1 0xA0 SHL SUB AND SUB PUSH2 0x3F28 JUMPI PUSH1 0x1 SWAP3 POP POP POP PUSH2 0x3CF1 JUMP JUMPDEST DUP1 PUSH2 0x3F32 DUP2 PUSH2 0x5257 JUMP JUMPDEST SWAP2 POP POP PUSH2 0x3E95 JUMP JUMPDEST POP JUMPDEST DUP1 PUSH2 0x3F46 DUP2 PUSH2 0x5257 JUMP JUMPDEST SWAP2 POP POP PUSH2 0x3E12 JUMP JUMPDEST PUSH1 0x0 DUP2 DUP2 JUMPDEST DUP2 MLOAD DUP2 LT ISZERO PUSH2 0x400F JUMPI PUSH1 0x41 DUP3 DUP3 DUP2 MLOAD DUP2 LT PUSH2 0x3F70 JUMPI PUSH2 0x3F70 PUSH2 0x4F0A JUMP JUMPDEST ADD PUSH1 0x20 ADD MLOAD PUSH1 0xF8 SHR LT DUP1 ISZERO SWAP1 PUSH2 0x3FA0 JUMPI POP PUSH1 0x5A DUP3 DUP3 DUP2 MLOAD DUP2 LT PUSH2 0x3F95 JUMPI PUSH2 0x3F95 PUSH2 0x4F0A JUMP JUMPDEST ADD PUSH1 0x20 ADD MLOAD PUSH1 0xF8 SHR GT ISZERO JUMPDEST ISZERO DUP1 ISZERO PUSH2 0x3FEE JUMPI POP PUSH1 0x61 DUP3 DUP3 DUP2 MLOAD DUP2 LT PUSH2 0x3FBC JUMPI PUSH2 0x3FBC PUSH2 0x4F0A JUMP JUMPDEST ADD PUSH1 0x20 ADD MLOAD PUSH1 0xF8 SHR LT DUP1 ISZERO SWAP1 PUSH2 0x3FEC JUMPI POP PUSH1 0x7A DUP3 DUP3 DUP2 MLOAD DUP2 LT PUSH2 0x3FE1 JUMPI PUSH2 0x3FE1 PUSH2 0x4F0A JUMP JUMPDEST ADD PUSH1 0x20 ADD MLOAD PUSH1 0xF8 SHR GT ISZERO JUMPDEST ISZERO JUMPDEST ISZERO PUSH2 0x3FFD JUMPI POP PUSH1 0x0 SWAP4 SWAP3 POP POP POP JUMP JUMPDEST DUP1 PUSH2 0x4007 DUP2 PUSH2 0x5257 JUMP JUMPDEST SWAP2 POP POP PUSH2 0x3F53 JUMP JUMPDEST POP PUSH1 0x1 SWAP4 SWAP3 POP POP POP JUMP JUMPDEST PUSH1 0x0 DUP1 JUMPDEST PUSH1 0x0 SLOAD PUSH2 0xFFFF DUP3 AND LT ISZERO PUSH2 0x40BD JUMPI DUP3 PUSH1 0x40 MLOAD PUSH1 0x20 ADD PUSH2 0x403C SWAP2 SWAP1 PUSH2 0x4FEC JUMP JUMPDEST PUSH1 0x40 MLOAD PUSH1 0x20 DUP2 DUP4 SUB SUB DUP2 MSTORE SWAP1 PUSH1 0x40 MSTORE DUP1 MLOAD SWAP1 PUSH1 0x20 ADD KECCAK256 PUSH1 0x0 DUP3 PUSH2 0xFFFF AND DUP2 SLOAD DUP2 LT PUSH2 0x4069 JUMPI PUSH2 0x4069 PUSH2 0x4F0A JUMP JUMPDEST SWAP1 PUSH1 0x0 MSTORE PUSH1 0x20 PUSH1 0x0 KECCAK256 SWAP1 PUSH1 0x6 MUL ADD PUSH1 0x0 ADD PUSH1 0x40 MLOAD PUSH1 0x20 ADD PUSH2 0x408A SWAP2 SWAP1 PUSH2 0x5008 JUMP JUMPDEST PUSH1 0x40 MLOAD PUSH1 0x20 DUP2 DUP4 SUB SUB DUP2 MSTORE SWAP1 PUSH1 0x40 MSTORE DUP1 MLOAD SWAP1 PUSH1 0x20 ADD KECCAK256 SUB PUSH2 0x40AB JUMPI SWAP3 SWAP2 POP POP JUMP JUMPDEST DUP1 PUSH2 0x40B5 DUP2 PUSH2 0x51F5 JUMP JUMPDEST SWAP2 POP POP PUSH2 0x401D JUMP JUMPDEST POP POP PUSH1 0x0 SLOAD SWAP2 SWAP1 POP JUMP JUMPDEST PUSH1 0x1 PUSH1 0x1 PUSH1 0xA0 SHL SUB DUP3 AND PUSH1 0x0 SWAP1 DUP2 MSTORE PUSH1 0xB PUSH1 0x20 MSTORE PUSH1 0x40 DUP2 KECCAK256 DUP2 JUMPDEST PUSH1 0x3 DUP3 ADD SLOAD DUP2 LT ISZERO PUSH2 0x417B JUMPI DUP4 PUSH1 0x40 MLOAD PUSH1 0x20 ADD PUSH2 0x40FE SWAP2 SWAP1 PUSH2 0x4FEC JUMP JUMPDEST PUSH1 0x40 MLOAD PUSH1 0x20 DUP2 DUP4 SUB SUB DUP2 MSTORE SWAP1 PUSH1 0x40 MSTORE DUP1 MLOAD SWAP1 PUSH1 0x20 ADD KECCAK256 DUP3 PUSH1 0x3 ADD DUP3 DUP2 SLOAD DUP2 LT PUSH2 0x4129 JUMPI PUSH2 0x4129 PUSH2 0x4F0A JUMP JUMPDEST SWAP1 PUSH1 0x0 MSTORE PUSH1 0x20 PUSH1 0x0 KECCAK256 ADD PUSH1 0x40 MLOAD PUSH1 0x20 ADD PUSH2 0x4143 SWAP2 SWAP1 PUSH2 0x5008 JUMP JUMPDEST PUSH1 0x40 MLOAD PUSH1 0x20 DUP2 DUP4 SUB SUB DUP2 MSTORE SWAP1 PUSH1 0x40 MSTORE DUP1 MLOAD SWAP1 PUSH1 0x20 ADD KECCAK256 SUB PUSH2 0x4169 JUMPI PUSH1 0x1 SWAP3 POP POP POP PUSH2 0x3CF1 JUMP JUMPDEST DUP1 PUSH2 0x4173 DUP2 PUSH2 0x5257 JUMP JUMPDEST SWAP2 POP POP PUSH2 0x40E1 JUMP JUMPDEST POP PUSH1 0x0 SWAP5 SWAP4 POP POP POP POP JUMP JUMPDEST PUSH1 0x60 PUSH1 0x0 DUP4 MLOAD PUSH1 0x1 PUSH2 0x4198 SWAP2 SWAP1 PUSH2 0x50D4 JUMP JUMPDEST PUSH1 0x1 PUSH1 0x1 PUSH1 0x40 SHL SUB DUP2 GT ISZERO PUSH2 0x41AF JUMPI PUSH2 0x41AF PUSH2 0x47C8 JUMP JUMPDEST PUSH1 0x40 MLOAD SWAP1 DUP1 DUP3 MSTORE DUP1 PUSH1 0x20 MUL PUSH1 0x20 ADD DUP3 ADD PUSH1 0x40 MSTORE DUP1 ISZERO PUSH2 0x41E2 JUMPI DUP2 PUSH1 0x20 ADD JUMPDEST PUSH1 0x60 DUP2 MSTORE PUSH1 0x20 ADD SWAP1 PUSH1 0x1 SWAP1 SUB SWAP1 DUP2 PUSH2 0x41CD JUMPI SWAP1 POP JUMPDEST POP SWAP1 POP PUSH1 0x0 JUMPDEST DUP5 MLOAD DUP2 PUSH4 0xFFFFFFFF AND LT ISZERO PUSH2 0x424D JUMPI DUP5 DUP2 PUSH4 0xFFFFFFFF AND DUP2 MLOAD DUP2 LT PUSH2 0x420F JUMPI PUSH2 0x420F PUSH2 0x4F0A JUMP JUMPDEST PUSH1 0x20 MUL PUSH1 0x20 ADD ADD MLOAD DUP3 DUP3 PUSH4 0xFFFFFFFF AND DUP2 MLOAD DUP2 LT PUSH2 0x422F JUMPI PUSH2 0x422F PUSH2 0x4F0A JUMP JUMPDEST PUSH1 0x20 MUL PUSH1 0x20 ADD ADD DUP2 SWAP1 MSTORE POP DUP1 DUP1 PUSH2 0x4245 SWAP1 PUSH2 0x507E JUMP JUMPDEST SWAP2 POP POP PUSH2 0x41E8 JUMP JUMPDEST POP DUP3 DUP2 DUP6 MLOAD DUP2 MLOAD DUP2 LT PUSH2 0x4262 JUMPI PUSH2 0x4262 PUSH2 0x4F0A JUMP JUMPDEST PUSH1 0x20 SWAP1 DUP2 MUL SWAP2 SWAP1 SWAP2 ADD ADD MSTORE SWAP4 SWAP3 POP POP POP JUMP JUMPDEST PUSH4 0xFFFFFFFF DUP2 AND PUSH1 0x0 SWAP1 DUP2 MSTORE PUSH1 0x6 PUSH1 0x20 MSTORE PUSH1 0x40 DUP2 KECCAK256 DUP2 DUP1 JUMPDEST PUSH1 0x6 DUP4 ADD SLOAD PUSH1 0xFF DUP3 AND LT ISZERO PUSH2 0x42EB JUMPI DUP3 PUSH1 0x6 ADD DUP2 PUSH1 0xFF AND DUP2 SLOAD DUP2 LT PUSH2 0x42B3 JUMPI PUSH2 0x42B3 PUSH2 0x4F0A JUMP JUMPDEST PUSH1 0x0 SWAP2 DUP3 MSTORE PUSH1 0x20 SWAP1 SWAP2 KECCAK256 PUSH1 0x2 PUSH1 0x3 SWAP1 SWAP3 MUL ADD ADD SLOAD PUSH2 0x42D7 SWAP1 PUSH4 0xFFFFFFFF AND DUP4 PUSH2 0x5270 JUMP JUMPDEST SWAP2 POP DUP1 PUSH2 0x42E3 DUP2 PUSH2 0x4F70 JUMP JUMPDEST SWAP2 POP POP PUSH2 0x428C JUMP JUMPDEST POP SWAP4 SWAP3 POP POP POP JUMP JUMPDEST PUSH4 0xFFFFFFFF DUP2 AND PUSH1 0x0 SWAP1 DUP2 MSTORE PUSH1 0x6 PUSH1 0x20 SWAP1 DUP2 MSTORE PUSH1 0x40 DUP1 DUP4 KECCAK256 DUP2 MLOAD SWAP3 DUP4 ADD SWAP1 SWAP2 MSTORE DUP3 DUP3 MSTORE PUSH1 0x60 SWAP3 SWAP1 SWAP2 SWAP1 DUP1 JUMPDEST PUSH1 0x6 DUP5 ADD SLOAD PUSH1 0xFF DUP3 AND LT ISZERO PUSH2 0x446F JUMPI DUP2 PUSH4 0xFFFFFFFF AND DUP5 PUSH1 0x6 ADD DUP3 PUSH1 0xFF AND DUP2 SLOAD DUP2 LT PUSH2 0x434C JUMPI PUSH2 0x434C PUSH2 0x4F0A JUMP JUMPDEST PUSH1 0x0 SWAP2 DUP3 MSTORE PUSH1 0x20 SWAP1 SWAP2 KECCAK256 PUSH1 0x2 PUSH1 0x3 SWAP1 SWAP3 MUL ADD ADD SLOAD PUSH4 0xFFFFFFFF AND GT ISZERO PUSH2 0x445D JUMPI DUP4 PUSH1 0x6 ADD DUP2 PUSH1 0xFF AND DUP2 SLOAD DUP2 LT PUSH2 0x4384 JUMPI PUSH2 0x4384 PUSH2 0x4F0A JUMP JUMPDEST SWAP1 PUSH1 0x0 MSTORE PUSH1 0x20 PUSH1 0x0 KECCAK256 SWAP1 PUSH1 0x3 MUL ADD PUSH1 0x2 ADD PUSH1 0x0 SWAP1 SLOAD SWAP1 PUSH2 0x100 EXP SWAP1 DIV PUSH4 0xFFFFFFFF AND SWAP2 POP DUP4 PUSH1 0x6 ADD DUP2 PUSH1 0xFF AND DUP2 SLOAD DUP2 LT PUSH2 0x43C0 JUMPI PUSH2 0x43C0 PUSH2 0x4F0A JUMP JUMPDEST SWAP1 PUSH1 0x0 MSTORE PUSH1 0x20 PUSH1 0x0 KECCAK256 SWAP1 PUSH1 0x3 MUL ADD PUSH1 0x1 ADD DUP1 SLOAD PUSH2 0x43DC SWAP1 PUSH2 0x4F20 JUMP JUMPDEST DUP1 PUSH1 0x1F ADD PUSH1 0x20 DUP1 SWAP2 DIV MUL PUSH1 0x20 ADD PUSH1 0x40 MLOAD SWAP1 DUP2 ADD PUSH1 0x40 MSTORE DUP1 SWAP3 SWAP2 SWAP1 DUP2 DUP2 MSTORE PUSH1 0x20 ADD DUP3 DUP1 SLOAD PUSH2 0x4408 SWAP1 PUSH2 0x4F20 JUMP JUMPDEST DUP1 ISZERO PUSH2 0x4455 JUMPI DUP1 PUSH1 0x1F LT PUSH2 0x442A JUMPI PUSH2 0x100 DUP1 DUP4 SLOAD DIV MUL DUP4 MSTORE SWAP2 PUSH1 0x20 ADD SWAP2 PUSH2 0x4455 JUMP JUMPDEST DUP3 ADD SWAP2 SWAP1 PUSH1 0x0 MSTORE PUSH1 0x20 PUSH1 0x0 KECCAK256 SWAP1 JUMPDEST DUP2 SLOAD DUP2 MSTORE SWAP1 PUSH1 0x1 ADD SWAP1 PUSH1 0x20 ADD DUP1 DUP4 GT PUSH2 0x4438 JUMPI DUP3 SWAP1 SUB PUSH1 0x1F AND DUP3 ADD SWAP2 JUMPDEST POP POP POP POP POP SWAP3 POP JUMPDEST DUP1 PUSH2 0x4467 DUP2 PUSH2 0x4F70 JUMP JUMPDEST SWAP2 POP POP PUSH2 0x431E JUMP JUMPDEST POP SWAP1 SWAP5 SWAP4 POP POP POP POP JUMP JUMPDEST DUP3 DUP1 SLOAD DUP3 DUP3 SSTORE SWAP1 PUSH1 0x0 MSTORE PUSH1 0x20 PUSH1 0x0 KECCAK256 SWAP1 DUP2 ADD SWAP3 DUP3 ISZERO PUSH2 0x44BF JUMPI SWAP2 PUSH1 0x20 MUL DUP3 ADD JUMPDEST DUP3 DUP2 GT ISZERO PUSH2 0x44BF JUMPI DUP3 MLOAD DUP3 SWAP1 PUSH2 0x44AF SWAP1 DUP3 PUSH2 0x5136 JUMP JUMPDEST POP SWAP2 PUSH1 0x20 ADD SWAP2 SWAP1 PUSH1 0x1 ADD SWAP1 PUSH2 0x4499 JUMP JUMPDEST POP PUSH2 0x44CB SWAP3 SWAP2 POP PUSH2 0x45E0 JUMP JUMPDEST POP SWAP1 JUMP JUMPDEST DUP3 DUP1 SLOAD DUP3 DUP3 SSTORE SWAP1 PUSH1 0x0 MSTORE PUSH1 0x20 PUSH1 0x0 KECCAK256 SWAP1 DUP2 ADD SWAP3 DUP3 ISZERO PUSH2 0x4524 JUMPI SWAP2 PUSH1 0x20 MUL DUP3 ADD JUMPDEST DUP3 DUP2 GT ISZERO PUSH2 0x4524 JUMPI DUP3 MLOAD DUP3 SLOAD PUSH1 0x1 PUSH1 0x1 PUSH1 0xA0 SHL SUB NOT AND PUSH1 0x1 PUSH1 0x1 PUSH1 0xA0 SHL SUB SWAP1 SWAP2 AND OR DUP3 SSTORE PUSH1 0x20 SWAP1 SWAP3 ADD SWAP2 PUSH1 0x1 SWAP1 SWAP2 ADD SWAP1 PUSH2 0x44EF JUMP JUMPDEST POP PUSH2 0x44CB SWAP3 SWAP2 POP PUSH2 0x45FD JUMP JUMPDEST DUP3 DUP1 SLOAD DUP3 DUP3 SSTORE SWAP1 PUSH1 0x0 MSTORE PUSH1 0x20 PUSH1 0x0 KECCAK256 SWAP1 PUSH1 0x4 ADD PUSH1 0x5 SWAP1 DIV DUP2 ADD SWAP3 DUP3 ISZERO PUSH2 0x4524 JUMPI SWAP2 PUSH1 0x20 MUL DUP3 ADD PUSH1 0x0 JUMPDEST DUP4 DUP3 GT ISZERO PUSH2 0x45A1 JUMPI DUP4 MLOAD DUP4 DUP3 PUSH2 0x100 EXP DUP2 SLOAD DUP2 PUSH6 0xFFFFFFFFFFFF MUL NOT AND SWAP1 DUP4 PUSH6 0xFFFFFFFFFFFF AND MUL OR SWAP1 SSTORE POP SWAP3 PUSH1 0x20 ADD SWAP3 PUSH1 0x6 ADD PUSH1 0x20 DUP2 PUSH1 0x5 ADD DIV SWAP3 DUP4 ADD SWAP3 PUSH1 0x1 SUB MUL PUSH2 0x4559 JUMP JUMPDEST DUP1 ISZERO PUSH2 0x45D3 JUMPI DUP3 DUP2 PUSH2 0x100 EXP DUP2 SLOAD SWAP1 PUSH6 0xFFFFFFFFFFFF MUL NOT AND SWAP1 SSTORE PUSH1 0x6 ADD PUSH1 0x20 DUP2 PUSH1 0x5 ADD DIV SWAP3 DUP4 ADD SWAP3 PUSH1 0x1 SUB MUL PUSH2 0x45A1 JUMP JUMPDEST POP POP PUSH2 0x44CB SWAP3 SWAP2 POP PUSH2 0x45FD JUMP JUMPDEST DUP1 DUP3 GT ISZERO PUSH2 0x44CB JUMPI PUSH1 0x0 PUSH2 0x45F4 DUP3 DUP3 PUSH2 0x4612 JUMP JUMPDEST POP PUSH1 0x1 ADD PUSH2 0x45E0 JUMP JUMPDEST JUMPDEST DUP1 DUP3 GT ISZERO PUSH2 0x44CB JUMPI PUSH1 0x0 DUP2 SSTORE PUSH1 0x1 ADD PUSH2 0x45FE JUMP JUMPDEST POP DUP1 SLOAD PUSH2 0x461E SWAP1 PUSH2 0x4F20 JUMP JUMPDEST PUSH1 0x0 DUP3 SSTORE DUP1 PUSH1 0x1F LT PUSH2 0x462E JUMPI POP POP JUMP JUMPDEST PUSH1 0x1F ADD PUSH1 0x20 SWAP1 DIV SWAP1 PUSH1 0x0 MSTORE PUSH1 0x20 PUSH1 0x0 KECCAK256 SWAP1 DUP2 ADD SWAP1 PUSH2 0x464C SWAP2 SWAP1 PUSH2 0x45FD JUMP JUMPDEST POP JUMP JUMPDEST DUP1 CALLDATALOAD PUSH4 0xFFFFFFFF DUP2 AND DUP2 EQ PUSH2 0x4663 JUMPI PUSH1 0x0 DUP1 REVERT JUMPDEST SWAP2 SWAP1 POP JUMP JUMPDEST PUSH1 0x0 PUSH1 0x20 DUP3 DUP5 SUB SLT ISZERO PUSH2 0x467A JUMPI PUSH1 0x0 DUP1 REVERT JUMPDEST PUSH2 0x4683 DUP3 PUSH2 0x464F JUMP JUMPDEST SWAP4 SWAP3 POP POP POP JUMP JUMPDEST PUSH1 0x0 JUMPDEST DUP4 DUP2 LT ISZERO PUSH2 0x46A5 JUMPI DUP2 DUP2 ADD MLOAD DUP4 DUP3 ADD MSTORE PUSH1 0x20 ADD PUSH2 0x468D JUMP JUMPDEST POP POP PUSH1 0x0 SWAP2 ADD MSTORE JUMP JUMPDEST PUSH1 0x0 DUP2 MLOAD DUP1 DUP5 MSTORE PUSH2 0x46C6 DUP2 PUSH1 0x20 DUP7 ADD PUSH1 0x20 DUP7 ADD PUSH2 0x468A JUMP JUMPDEST PUSH1 0x1F ADD PUSH1 0x1F NOT AND SWAP3 SWAP1 SWAP3 ADD PUSH1 0x20 ADD SWAP3 SWAP2 POP POP JUMP JUMPDEST PUSH1 0x0 DUP2 MLOAD DUP1 DUP5 MSTORE PUSH1 0x20 DUP1 DUP6 ADD DUP1 DUP2 SWAP7 POP DUP4 PUSH1 0x5 SHL DUP2 ADD SWAP2 POP DUP3 DUP7 ADD PUSH1 0x0 JUMPDEST DUP6 DUP2 LT ISZERO PUSH2 0x4722 JUMPI DUP3 DUP5 SUB DUP10 MSTORE PUSH2 0x4710 DUP5 DUP4 MLOAD PUSH2 0x46AE JUMP JUMPDEST SWAP9 DUP6 ADD SWAP9 SWAP4 POP SWAP1 DUP5 ADD SWAP1 PUSH1 0x1 ADD PUSH2 0x46F8 JUMP JUMPDEST POP SWAP2 SWAP8 SWAP7 POP POP POP POP POP POP POP JUMP JUMPDEST PUSH1 0x40 DUP2 MSTORE PUSH1 0x0 PUSH2 0x4742 PUSH1 0x40 DUP4 ADD DUP6 PUSH2 0x46DA JUMP JUMPDEST DUP3 DUP2 SUB PUSH1 0x20 DUP5 DUP2 ADD SWAP2 SWAP1 SWAP2 MSTORE DUP5 MLOAD DUP1 DUP4 MSTORE DUP6 DUP3 ADD SWAP3 DUP3 ADD SWAP1 PUSH1 0x0 JUMPDEST DUP2 DUP2 LT ISZERO PUSH2 0x477F JUMPI DUP5 MLOAD PUSH4 0xFFFFFFFF AND DUP4 MSTORE SWAP4 DUP4 ADD SWAP4 SWAP2 DUP4 ADD SWAP2 PUSH1 0x1 ADD PUSH2 0x475D JUMP JUMPDEST POP SWAP1 SWAP8 SWAP7 POP POP POP POP POP POP POP JUMP JUMPDEST PUSH1 0x0 PUSH1 0x20 DUP3 DUP5 SUB SLT ISZERO PUSH2 0x479E JUMPI PUSH1 0x0 DUP1 REVERT JUMPDEST DUP2 CALLDATALOAD PUSH1 0x1 PUSH1 0x1 PUSH1 0xA0 SHL SUB DUP2 AND DUP2 EQ PUSH2 0x4683 JUMPI PUSH1 0x0 DUP1 REVERT JUMPDEST PUSH1 0x20 DUP2 MSTORE PUSH1 0x0 PUSH2 0x4683 PUSH1 0x20 DUP4 ADD DUP5 PUSH2 0x46AE JUMP JUMPDEST PUSH4 0x4E487B71 PUSH1 0xE0 SHL PUSH1 0x0 MSTORE PUSH1 0x41 PUSH1 0x4 MSTORE PUSH1 0x24 PUSH1 0x0 REVERT JUMPDEST PUSH1 0x0 DUP3 PUSH1 0x1F DUP4 ADD SLT PUSH2 0x47EF JUMPI PUSH1 0x0 DUP1 REVERT JUMPDEST DUP2 CALLDATALOAD PUSH1 0x1 PUSH1 0x1 PUSH1 0x40 SHL SUB DUP1 DUP3 GT ISZERO PUSH2 0x4809 JUMPI PUSH2 0x4809 PUSH2 0x47C8 JUMP JUMPDEST PUSH1 0x40 MLOAD PUSH1 0x1F DUP4 ADD PUSH1 0x1F NOT SWAP1 DUP2 AND PUSH1 0x3F ADD AND DUP2 ADD SWAP1 DUP3 DUP3 GT DUP2 DUP4 LT OR ISZERO PUSH2 0x4831 JUMPI PUSH2 0x4831 PUSH2 0x47C8 JUMP JUMPDEST DUP2 PUSH1 0x40 MSTORE DUP4 DUP2 MSTORE DUP7 PUSH1 0x20 DUP6 DUP9 ADD ADD GT ISZERO PUSH2 0x484A JUMPI PUSH1 0x0 DUP1 REVERT JUMPDEST DUP4 PUSH1 0x20 DUP8 ADD PUSH1 0x20 DUP4 ADD CALLDATACOPY PUSH1 0x0 PUSH1 0x20 DUP6 DUP4 ADD ADD MSTORE DUP1 SWAP5 POP POP POP POP POP SWAP3 SWAP2 POP POP JUMP JUMPDEST PUSH1 0x0 DUP1 PUSH1 0x40 DUP4 DUP6 SUB SLT ISZERO PUSH2 0x487D JUMPI PUSH1 0x0 DUP1 REVERT JUMPDEST PUSH2 0x4886 DUP4 PUSH2 0x464F JUMP JUMPDEST SWAP2 POP PUSH1 0x20 DUP4 ADD CALLDATALOAD PUSH1 0x1 PUSH1 0x1 PUSH1 0x40 SHL SUB DUP2 GT ISZERO PUSH2 0x48A1 JUMPI PUSH1 0x0 DUP1 REVERT JUMPDEST PUSH2 0x48AD DUP6 DUP3 DUP7 ADD PUSH2 0x47DE JUMP JUMPDEST SWAP2 POP POP SWAP3 POP SWAP3 SWAP1 POP JUMP JUMPDEST PUSH4 0x4E487B71 PUSH1 0xE0 SHL PUSH1 0x0 MSTORE PUSH1 0x21 PUSH1 0x4 MSTORE PUSH1 0x24 PUSH1 0x0 REVERT JUMPDEST PUSH1 0x0 PUSH2 0x100 DUP1 DUP4 MSTORE PUSH2 0x48E1 DUP2 DUP5 ADD DUP13 PUSH2 0x46AE JUMP JUMPDEST SWAP1 POP DUP3 DUP2 SUB PUSH1 0x20 DUP5 ADD MSTORE PUSH2 0x48F5 DUP2 DUP12 PUSH2 0x46AE JUMP JUMPDEST SWAP1 POP DUP3 DUP2 SUB PUSH1 0x40 DUP5 ADD MSTORE PUSH2 0x4909 DUP2 DUP11 PUSH2 0x46AE JUMP JUMPDEST SWAP2 POP POP DUP7 PUSH1 0x60 DUP4 ADD MSTORE DUP6 PUSH1 0x80 DUP4 ADD MSTORE PUSH1 0xFF DUP6 AND PUSH1 0xA0 DUP4 ADD MSTORE PUSH1 0x3 DUP5 LT PUSH2 0x4931 JUMPI PUSH2 0x4931 PUSH2 0x48B7 JUMP JUMPDEST DUP4 PUSH1 0xC0 DUP4 ADD MSTORE DUP3 ISZERO ISZERO PUSH1 0xE0 DUP4 ADD MSTORE SWAP10 SWAP9 POP POP POP POP POP POP POP POP POP JUMP JUMPDEST PUSH1 0x0 PUSH1 0x20 DUP3 DUP5 SUB SLT ISZERO PUSH2 0x495E JUMPI PUSH1 0x0 DUP1 REVERT JUMPDEST DUP2 CALLDATALOAD PUSH1 0x1 PUSH1 0x1 PUSH1 0x40 SHL SUB DUP2 GT ISZERO PUSH2 0x4974 JUMPI PUSH1 0x0 DUP1 REVERT JUMPDEST PUSH2 0x4980 DUP5 DUP3 DUP6 ADD PUSH2 0x47DE JUMP JUMPDEST SWAP5 SWAP4 POP POP POP POP JUMP JUMPDEST DUP1 CALLDATALOAD PUSH1 0xFF DUP2 AND DUP2 EQ PUSH2 0x4663 JUMPI PUSH1 0x0 DUP1 REVERT JUMPDEST PUSH1 0x0 DUP1 PUSH1 0x0 DUP1 PUSH1 0x0 DUP1 PUSH1 0xC0 DUP8 DUP10 SUB SLT ISZERO PUSH2 0x49B2 JUMPI PUSH1 0x0 DUP1 REVERT JUMPDEST DUP7 CALLDATALOAD PUSH1 0x1 PUSH1 0x1 PUSH1 0x40 SHL SUB DUP1 DUP3 GT ISZERO PUSH2 0x49C9 JUMPI PUSH1 0x0 DUP1 REVERT JUMPDEST PUSH2 0x49D5 DUP11 DUP4 DUP12 ADD PUSH2 0x47DE JUMP JUMPDEST SWAP8 POP PUSH1 0x20 DUP10 ADD CALLDATALOAD SWAP2 POP DUP1 DUP3 GT ISZERO PUSH2 0x49EB JUMPI PUSH1 0x0 DUP1 REVERT JUMPDEST PUSH2 0x49F7 DUP11 DUP4 DUP12 ADD PUSH2 0x47DE JUMP JUMPDEST SWAP7 POP PUSH1 0x40 DUP10 ADD CALLDATALOAD SWAP2 POP DUP1 DUP3 GT ISZERO PUSH2 0x4A0D JUMPI PUSH1 0x0 DUP1 REVERT JUMPDEST POP PUSH2 0x4A1A DUP10 DUP3 DUP11 ADD PUSH2 0x47DE JUMP JUMPDEST SWAP5 POP POP PUSH2 0x4A29 PUSH1 0x60 DUP9 ADD PUSH2 0x4988 JUMP JUMPDEST SWAP3 POP PUSH1 0x80 DUP8 ADD CALLDATALOAD SWAP2 POP PUSH1 0xA0 DUP8 ADD CALLDATALOAD SWAP1 POP SWAP3 SWAP6 POP SWAP3 SWAP6 POP SWAP3 SWAP6 JUMP JUMPDEST PUSH1 0x0 PUSH1 0x20 DUP3 DUP5 SUB SLT ISZERO PUSH2 0x4A55 JUMPI PUSH1 0x0 DUP1 REVERT JUMPDEST POP CALLDATALOAD SWAP2 SWAP1 POP JUMP JUMPDEST PUSH1 0x2 DUP2 LT PUSH2 0x4A6C JUMPI PUSH2 0x4A6C PUSH2 0x48B7 JUMP JUMPDEST SWAP1 MSTORE JUMP JUMPDEST PUSH1 0xC0 DUP2 MSTORE PUSH1 0x0 PUSH2 0x4A83 PUSH1 0xC0 DUP4 ADD DUP10 PUSH2 0x46AE JUMP JUMPDEST PUSH1 0x20 DUP4 DUP3 SUB DUP2 DUP6 ADD MSTORE PUSH2 0x4A96 DUP3 DUP11 PUSH2 0x46AE JUMP JUMPDEST SWAP2 POP PUSH2 0x4AA5 PUSH1 0x40 DUP6 ADD DUP10 PUSH2 0x4A5C JUMP JUMPDEST PUSH6 0xFFFFFFFFFFFF DUP8 AND PUSH1 0x60 DUP6 ADD MSTORE PUSH2 0xFFFF DUP7 AND PUSH1 0x80 DUP6 ADD MSTORE DUP4 DUP3 SUB PUSH1 0xA0 DUP6 ADD MSTORE DUP5 MLOAD DUP1 DUP4 MSTORE DUP2 DUP7 ADD SWAP3 DUP3 ADD SWAP1 PUSH1 0x0 JUMPDEST DUP2 DUP2 LT ISZERO PUSH2 0x4AF9 JUMPI DUP5 MLOAD PUSH1 0x1 PUSH1 0x1 PUSH1 0xA0 SHL SUB AND DUP4 MSTORE SWAP4 DUP4 ADD SWAP4 SWAP2 DUP4 ADD SWAP2 PUSH1 0x1 ADD PUSH2 0x4AD4 JUMP JUMPDEST POP SWAP1 SWAP12 SWAP11 POP POP POP POP POP POP POP POP POP POP POP JUMP JUMPDEST PUSH1 0x0 DUP1 PUSH1 0x0 PUSH1 0x60 DUP5 DUP7 SUB SLT ISZERO PUSH2 0x4B1F JUMPI PUSH1 0x0 DUP1 REVERT JUMPDEST DUP4 CALLDATALOAD PUSH1 0x1 PUSH1 0x1 PUSH1 0x40 SHL SUB DUP1 DUP3 GT ISZERO PUSH2 0x4B36 JUMPI PUSH1 0x0 DUP1 REVERT JUMPDEST PUSH2 0x4B42 DUP8 DUP4 DUP9 ADD PUSH2 0x47DE JUMP JUMPDEST SWAP5 POP PUSH1 0x20 DUP7 ADD CALLDATALOAD SWAP2 POP DUP1 DUP3 GT ISZERO PUSH2 0x4B58 JUMPI PUSH1 0x0 DUP1 REVERT JUMPDEST POP PUSH2 0x4B65 DUP7 DUP3 DUP8 ADD PUSH2 0x47DE JUMP JUMPDEST SWAP3 POP POP PUSH2 0x4B74 PUSH1 0x40 DUP6 ADD PUSH2 0x464F JUMP JUMPDEST SWAP1 POP SWAP3 POP SWAP3 POP SWAP3 JUMP JUMPDEST PUSH1 0x40 DUP2 MSTORE PUSH1 0x0 PUSH2 0x4B90 PUSH1 0x40 DUP4 ADD DUP6 PUSH2 0x46AE JUMP JUMPDEST SWAP1 POP PUSH4 0xFFFFFFFF DUP4 AND PUSH1 0x20 DUP4 ADD MSTORE SWAP4 SWAP3 POP POP POP JUMP JUMPDEST PUSH1 0x1 PUSH1 0x1 PUSH1 0xA0 SHL SUB DUP6 AND DUP2 MSTORE PUSH1 0x80 PUSH1 0x20 DUP3 ADD DUP2 SWAP1 MSTORE PUSH1 0x0 SWAP1 PUSH2 0x4BC9 SWAP1 DUP4 ADD DUP7 PUSH2 0x46AE JUMP JUMPDEST DUP5 ISZERO ISZERO PUSH1 0x40 DUP5 ADD MSTORE DUP3 DUP2 SUB PUSH1 0x60 DUP5 ADD MSTORE PUSH2 0x4BE3 DUP2 DUP6 PUSH2 0x46AE JUMP JUMPDEST SWAP8 SWAP7 POP POP POP POP POP POP POP JUMP JUMPDEST PUSH6 0xFFFFFFFFFFFF DUP7 AND DUP2 MSTORE PUSH1 0x1 PUSH1 0x1 PUSH1 0xA0 SHL SUB DUP6 AND PUSH1 0x20 DUP3 ADD MSTORE PUSH1 0xA0 PUSH1 0x40 DUP3 ADD DUP2 SWAP1 MSTORE PUSH1 0x0 SWAP1 PUSH2 0x4C20 SWAP1 DUP4 ADD DUP7 PUSH2 0x46AE JUMP JUMPDEST DUP3 DUP2 SUB PUSH1 0x60 DUP5 ADD MSTORE PUSH2 0x4C32 DUP2 DUP7 PUSH2 0x46AE JUMP JUMPDEST SWAP1 POP DUP3 DUP2 SUB PUSH1 0x80 DUP5 ADD MSTORE PUSH2 0x4C46 DUP2 DUP6 PUSH2 0x46DA JUMP JUMPDEST SWAP9 SWAP8 POP POP POP POP POP POP POP POP JUMP JUMPDEST PUSH1 0x40 DUP2 MSTORE PUSH1 0x0 PUSH2 0x4C65 PUSH1 0x40 DUP4 ADD DUP6 PUSH2 0x46AE JUMP JUMPDEST DUP3 DUP2 SUB PUSH1 0x20 DUP5 ADD MSTORE PUSH2 0x4C77 DUP2 DUP6 PUSH2 0x46AE JUMP JUMPDEST SWAP6 SWAP5 POP POP POP POP POP JUMP JUMPDEST PUSH1 0x0 DUP1 PUSH1 0x40 DUP4 DUP6 SUB SLT ISZERO PUSH2 0x4C93 JUMPI PUSH1 0x0 DUP1 REVERT JUMPDEST PUSH2 0x4C9C DUP4 PUSH2 0x464F JUMP JUMPDEST SWAP2 POP PUSH2 0x4CAA PUSH1 0x20 DUP5 ADD PUSH2 0x4988 JUMP JUMPDEST SWAP1 POP SWAP3 POP SWAP3 SWAP1 POP JUMP JUMPDEST PUSH1 0x0 DUP1 PUSH1 0x40 DUP4 DUP6 SUB SLT ISZERO PUSH2 0x4CC6 JUMPI PUSH1 0x0 DUP1 REVERT JUMPDEST DUP3 CALLDATALOAD PUSH1 0x1 PUSH1 0x1 PUSH1 0x40 SHL SUB DUP1 DUP3 GT ISZERO PUSH2 0x4CDD JUMPI PUSH1 0x0 DUP1 REVERT JUMPDEST PUSH2 0x4CE9 DUP7 DUP4 DUP8 ADD PUSH2 0x47DE JUMP JUMPDEST SWAP4 POP PUSH1 0x20 DUP6 ADD CALLDATALOAD SWAP2 POP DUP1 DUP3 GT ISZERO PUSH2 0x4CFF JUMPI PUSH1 0x0 DUP1 REVERT JUMPDEST POP PUSH2 0x48AD DUP6 DUP3 DUP7 ADD PUSH2 0x47DE JUMP JUMPDEST PUSH6 0xFFFFFFFFFFFF DUP7 AND DUP2 MSTORE PUSH1 0x1 PUSH1 0x1 PUSH1 0xA0 SHL SUB DUP6 AND PUSH1 0x20 DUP3 ADD MSTORE PUSH1 0xA0 PUSH1 0x40 DUP3 ADD DUP2 SWAP1 MSTORE PUSH1 0x0 SWAP1 PUSH2 0x4D3E SWAP1 DUP4 ADD DUP7 PUSH2 0x46AE JUMP JUMPDEST DUP5 ISZERO ISZERO PUSH1 0x60 DUP5 ADD MSTORE DUP3 DUP2 SUB PUSH1 0x80 DUP5 ADD MSTORE PUSH2 0x4C46 DUP2 DUP6 PUSH2 0x46AE JUMP JUMPDEST PUSH1 0x0 PUSH1 0x20 DUP3 DUP5 SUB SLT ISZERO PUSH2 0x4D6A JUMPI PUSH1 0x0 DUP1 REVERT JUMPDEST DUP2 CALLDATALOAD PUSH6 0xFFFFFFFFFFFF DUP2 AND DUP2 EQ PUSH2 0x4683 JUMPI PUSH1 0x0 DUP1 REVERT JUMPDEST PUSH1 0xA0 DUP2 MSTORE PUSH1 0x0 PUSH2 0x4D93 PUSH1 0xA0 DUP4 ADD DUP9 PUSH2 0x46AE JUMP JUMPDEST DUP3 DUP2 SUB PUSH1 0x20 DUP5 ADD MSTORE PUSH2 0x4DA5 DUP2 DUP9 PUSH2 0x46AE JUMP JUMPDEST SWAP2 POP POP PUSH2 0x4DB5 PUSH1 0x40 DUP4 ADD DUP7 PUSH2 0x4A5C JUMP JUMPDEST PUSH2 0xFFFF DUP5 AND PUSH1 0x60 DUP4 ADD MSTORE PUSH6 0xFFFFFFFFFFFF DUP4 AND PUSH1 0x80 DUP4 ADD MSTORE SWAP7 SWAP6 POP POP POP POP POP POP JUMP JUMPDEST PUSH1 0x0 PUSH2 0x100 DUP1 DUP4 MSTORE PUSH2 0x4DEB DUP2 DUP5 ADD DUP13 PUSH2 0x46AE JUMP JUMPDEST PUSH1 0x1 PUSH1 0x1 PUSH1 0xA0 SHL SUB DUP12 AND PUSH1 0x20 DUP6 ADD MSTORE PUSH1 0x40 DUP5 ADD DUP11 SWAP1 MSTORE PUSH1 0x60 DUP5 ADD DUP10 SWAP1 MSTORE PUSH4 0xFFFFFFFF DUP9 AND PUSH1 0x80 DUP6 ADD MSTORE DUP4 DUP2 SUB PUSH1 0xA0 DUP6 ADD MSTORE SWAP1 POP PUSH2 0x4E28 DUP2 DUP8 PUSH2 0x46AE JUMP JUMPDEST SWAP1 POP DUP3 DUP2 SUB PUSH1 0xC0 DUP5 ADD MSTORE PUSH2 0x4E3C DUP2 DUP7 PUSH2 0x46AE JUMP JUMPDEST SWAP1 POP DUP3 DUP2 SUB PUSH1 0xE0 DUP5 ADD MSTORE PUSH2 0x4E50 DUP2 DUP6 PUSH2 0x46AE JUMP JUMPDEST SWAP12 SWAP11 POP POP POP POP POP POP POP POP POP POP POP JUMP JUMPDEST PUSH1 0x0 DUP1 PUSH1 0x0 PUSH1 0x60 DUP5 DUP7 SUB SLT ISZERO PUSH2 0x4E74 JUMPI PUSH1 0x0 DUP1 REVERT JUMPDEST DUP4 CALLDATALOAD PUSH1 0x1 PUSH1 0x1 PUSH1 0x40 SHL SUB DUP1 DUP3 GT ISZERO PUSH2 0x4E8B JUMPI PUSH1 0x0 DUP1 REVERT JUMPDEST PUSH2 0x4E97 DUP8 DUP4 DUP9 ADD PUSH2 0x47DE JUMP JUMPDEST SWAP5 POP PUSH1 0x20 DUP7 ADD CALLDATALOAD SWAP2 POP DUP1 DUP3 GT ISZERO PUSH2 0x4EAD JUMPI PUSH1 0x0 DUP1 REVERT JUMPDEST POP PUSH2 0x4EBA DUP7 DUP3 DUP8 ADD PUSH2 0x47DE JUMP JUMPDEST SWAP3 POP POP PUSH1 0x40 DUP5 ADD CALLDATALOAD PUSH1 0x2 DUP2 LT PUSH2 0x4ECF JUMPI PUSH1 0x0 DUP1 REVERT JUMPDEST DUP1 SWAP2 POP POP SWAP3 POP SWAP3 POP SWAP3 JUMP JUMPDEST PUSH1 0x20 DUP1 DUP3 MSTORE PUSH1 0x16 SWAP1 DUP3 ADD MSTORE PUSH22 0x92DCECC2D8D2C840CAD8CAC6E8D2DEDC40D2DCC8CAF PUSH1 0x53 SHL PUSH1 0x40 DUP3 ADD MSTORE PUSH1 0x60 ADD SWAP1 JUMP JUMPDEST PUSH4 0x4E487B71 PUSH1 0xE0 SHL PUSH1 0x0 MSTORE PUSH1 0x32 PUSH1 0x4 MSTORE PUSH1 0x24 PUSH1 0x0 REVERT JUMPDEST PUSH1 0x1 DUP2 DUP2 SHR SWAP1 DUP3 AND DUP1 PUSH2 0x4F34 JUMPI PUSH1 0x7F DUP3 AND SWAP2 POP JUMPDEST PUSH1 0x20 DUP3 LT DUP2 SUB PUSH2 0x4F54 JUMPI PUSH4 0x4E487B71 PUSH1 0xE0 SHL PUSH1 0x0 MSTORE PUSH1 0x22 PUSH1 0x4 MSTORE PUSH1 0x24 PUSH1 0x0 REVERT JUMPDEST POP SWAP2 SWAP1 POP JUMP JUMPDEST PUSH4 0x4E487B71 PUSH1 0xE0 SHL PUSH1 0x0 MSTORE PUSH1 0x11 PUSH1 0x4 MSTORE PUSH1 0x24 PUSH1 0x0 REVERT JUMPDEST PUSH1 0x0 PUSH1 0xFF DUP3 AND PUSH1 0xFF DUP2 SUB PUSH2 0x4F86 JUMPI PUSH2 0x4F86 PUSH2 0x4F5A JUMP JUMPDEST PUSH1 0x1 ADD SWAP3 SWAP2 POP POP JUMP JUMPDEST PUSH1 0x20 DUP1 DUP3 MSTORE PUSH1 0xC SWAP1 DUP3 ADD MSTORE PUSH12 0x155B985D5D1A1BDC9A5E9959 PUSH1 0xA2 SHL PUSH1 0x40 DUP3 ADD MSTORE PUSH1 0x60 ADD SWAP1 JUMP JUMPDEST PUSH1 0x20 DUP1 DUP3 MSTORE PUSH1 0x1C SWAP1 DUP3 ADD MSTORE PUSH32 0x456C656374696F6E20697320616C72656164792066696E697368656400000000 PUSH1 0x40 DUP3 ADD MSTORE PUSH1 0x60 ADD SWAP1 JUMP JUMPDEST PUSH1 0x0 DUP3 MLOAD PUSH2 0x4FFE DUP2 DUP5 PUSH1 0x20 DUP8 ADD PUSH2 0x468A JUMP JUMPDEST SWAP2 SWAP1 SWAP2 ADD SWAP3 SWAP2 POP POP JUMP JUMPDEST PUSH1 0x0 DUP1 DUP4 SLOAD PUSH2 0x5016 DUP2 PUSH2 0x4F20 JUMP JUMPDEST PUSH1 0x1 DUP3 DUP2 AND DUP1 ISZERO PUSH2 0x502E JUMPI PUSH1 0x1 DUP2 EQ PUSH2 0x5043 JUMPI PUSH2 0x5072 JUMP JUMPDEST PUSH1 0xFF NOT DUP5 AND DUP8 MSTORE DUP3 ISZERO ISZERO DUP4 MUL DUP8 ADD SWAP5 POP PUSH2 0x5072 JUMP JUMPDEST DUP8 PUSH1 0x0 MSTORE PUSH1 0x20 DUP1 PUSH1 0x0 KECCAK256 PUSH1 0x0 JUMPDEST DUP6 DUP2 LT ISZERO PUSH2 0x5069 JUMPI DUP2 SLOAD DUP11 DUP3 ADD MSTORE SWAP1 DUP5 ADD SWAP1 DUP3 ADD PUSH2 0x5050 JUMP JUMPDEST POP POP POP DUP3 DUP8 ADD SWAP5 POP JUMPDEST POP SWAP3 SWAP7 SWAP6 POP POP POP POP POP POP JUMP JUMPDEST PUSH1 0x0 PUSH4 0xFFFFFFFF DUP1 DUP4 AND DUP2 DUP2 SUB PUSH2 0x5097 JUMPI PUSH2 0x5097 PUSH2 0x4F5A JUMP JUMPDEST PUSH1 0x1 ADD SWAP4 SWAP3 POP POP POP JUMP JUMPDEST PUSH1 0x20 DUP1 DUP3 MSTORE PUSH1 0x19 SWAP1 DUP3 ADD MSTORE PUSH25 0x13DC99D85B9A5E985D1A5BDB881251081B9BDD08199BDD5B99 PUSH1 0x3A SHL PUSH1 0x40 DUP3 ADD MSTORE PUSH1 0x60 ADD SWAP1 JUMP JUMPDEST DUP1 DUP3 ADD DUP1 DUP3 GT ISZERO PUSH2 0x3CF1 JUMPI PUSH2 0x3CF1 PUSH2 0x4F5A JUMP JUMPDEST PUSH1 0x1F DUP3 GT ISZERO PUSH2 0x5131 JUMPI PUSH1 0x0 DUP2 DUP2 MSTORE PUSH1 0x20 DUP2 KECCAK256 PUSH1 0x1F DUP6 ADD PUSH1 0x5 SHR DUP2 ADD PUSH1 0x20 DUP7 LT ISZERO PUSH2 0x510E JUMPI POP DUP1 JUMPDEST PUSH1 0x1F DUP6 ADD PUSH1 0x5 SHR DUP3 ADD SWAP2 POP JUMPDEST DUP2 DUP2 LT ISZERO PUSH2 0x512D JUMPI DUP3 DUP2 SSTORE PUSH1 0x1 ADD PUSH2 0x511A JUMP JUMPDEST POP POP POP JUMPDEST POP POP POP JUMP JUMPDEST DUP2 MLOAD PUSH1 0x1 PUSH1 0x1 PUSH1 0x40 SHL SUB DUP2 GT ISZERO PUSH2 0x514F JUMPI PUSH2 0x514F PUSH2 0x47C8 JUMP JUMPDEST PUSH2 0x5163 DUP2 PUSH2 0x515D DUP5 SLOAD PUSH2 0x4F20 JUMP JUMPDEST DUP5 PUSH2 0x50E7 JUMP JUMPDEST PUSH1 0x20 DUP1 PUSH1 0x1F DUP4 GT PUSH1 0x1 DUP2 EQ PUSH2 0x5198 JUMPI PUSH1 0x0 DUP5 ISZERO PUSH2 0x5180 JUMPI POP DUP6 DUP4 ADD MLOAD JUMPDEST PUSH1 0x0 NOT PUSH1 0x3 DUP7 SWAP1 SHL SHR NOT AND PUSH1 0x1 DUP6 SWAP1 SHL OR DUP6 SSTORE PUSH2 0x512D JUMP JUMPDEST PUSH1 0x0 DUP6 DUP2 MSTORE PUSH1 0x20 DUP2 KECCAK256 PUSH1 0x1F NOT DUP7 AND SWAP2 JUMPDEST DUP3 DUP2 LT ISZERO PUSH2 0x51C7 JUMPI DUP9 DUP7 ADD MLOAD DUP3 SSTORE SWAP5 DUP5 ADD SWAP5 PUSH1 0x1 SWAP1 SWAP2 ADD SWAP1 DUP5 ADD PUSH2 0x51A8 JUMP JUMPDEST POP DUP6 DUP3 LT ISZERO PUSH2 0x51E5 JUMPI DUP8 DUP6 ADD MLOAD PUSH1 0x0 NOT PUSH1 0x3 DUP9 SWAP1 SHL PUSH1 0xF8 AND SHR NOT AND DUP2 SSTORE JUMPDEST POP POP POP POP POP PUSH1 0x1 SWAP1 DUP2 SHL ADD SWAP1 SSTORE POP JUMP JUMPDEST PUSH1 0x0 PUSH2 0xFFFF DUP1 DUP4 AND DUP2 DUP2 SUB PUSH2 0x5097 JUMPI PUSH2 0x5097 PUSH2 0x4F5A JUMP JUMPDEST PUSH1 0x0 PUSH6 0xFFFFFFFFFFFF DUP1 DUP4 AND DUP2 DUP2 SUB PUSH2 0x5097 JUMPI PUSH2 0x5097 PUSH2 0x4F5A JUMP JUMPDEST PUSH1 0x20 DUP1 DUP3 MSTORE PUSH1 0x16 SWAP1 DUP3 ADD MSTORE PUSH22 0x13DC99D85B9A5E985D1A5BDB881B9BDD08199BDD5B99 PUSH1 0x52 SHL PUSH1 0x40 DUP3 ADD MSTORE PUSH1 0x60 ADD SWAP1 JUMP JUMPDEST PUSH1 0x0 PUSH1 0x1 DUP3 ADD PUSH2 0x5269 JUMPI PUSH2 0x5269 PUSH2 0x4F5A JUMP JUMPDEST POP PUSH1 0x1 ADD SWAP1 JUMP JUMPDEST PUSH4 0xFFFFFFFF DUP2 DUP2 AND DUP4 DUP3 AND ADD SWAP1 DUP1 DUP3 GT ISZERO PUSH2 0x528D JUMPI PUSH2 0x528D PUSH2 0x4F5A JUMP JUMPDEST POP SWAP3 SWAP2 POP POP JUMP INVALID LOG2 PUSH5 0x6970667358 0x22 SLT KECCAK256 LOG4 MSTORE8 0xB4 SWAP13 0xB1 0x29 0x22 0xD7 0x4D 0xC8 0xE5 EQ SWAP2 0xED 0xCA 0xEF PUSH19 0x75A87DE450BF199E710C3C07D8A66E64736F6C PUSH4 0x43000812 STOP CALLER "
		},
		"gasEstimates": {
			"creation": {
				"codeDepositCost": "4238800",
				"executionCost": "infinite",
				"totalCost": "infinite"
			},
			"external": {
				"MAX_EVENTS()": "2463",
				"addCandidateToElection(uint32,string)": "infinite",
				"admin(address)": "infinite",
				"adminToOrganization(address)": "infinite",
				"associatedOrganizations(address)": "infinite",
				"checkMyVoterInfo()": "infinite",
				"contractOwner()": "2425",
				"createElection(string,string,string,uint8,uint256,uint256)": "infinite",
				"electionResults(uint32)": "infinite",
				"elections(uint32)": "infinite",
				"finishElection(uint32,string)": "infinite",
				"getAdminName(address)": "infinite",
				"getAdminOrganization()": "infinite",
				"getCandidateDetail(uint32,string)": "infinite",
				"getCurrentVoteResult(uint32)": "infinite",
				"getElectionIndexByName(string)": "infinite",
				"getOrganization(uint256)": "infinite",
				"getOrganizationsCount()": "2303",
				"getWinnerResult(uint32)": "infinite",
				"organizationList(string)": "infinite",
				"organizations(uint256)": "infinite",
				"registerElectionAdmin(string,string)": "infinite",
				"registerOrganization(string,string,uint8)": "infinite",
				"registerVoter(string,string,uint32)": "infinite",
				"registeredAdmin(address)": "2652",
				"startElection(uint32)": "57598",
				"vote(uint32,uint8)": "infinite",
				"voters(address)": "infinite",
				"votersCount()": "2424",
				"votersIDExists(uint48)": "2528"
			},
			"internal": {
				"appendToStringArray(string memory[] memory,string memory)": "infinite",
				"calculateTotalVotes(uint32)": "infinite",
				"determineWinner(uint32)": "infinite",
				"generateUniqueVoterID()": "infinite",
				"getOrganizationIndexById(string memory)": "infinite",
				"getOrganizationIndexByName(string memory)": "infinite",
				"hasParticipatedInElection(address,string memory)": "infinite",
				"isElectionAdminForOrganization(address,string memory)": "infinite",
				"isVoterRegisteredInOrg(string memory,address)": "infinite",
				"onlyAlphabetCharacters(string memory)": "infinite"
			}
		},
		"methodIdentifiers": {
			"MAX_EVENTS()": "5ded1bd6",
			"addCandidateToElection(uint32,string)": "4daa8e1d",
			"admin(address)": "63a846f8",
			"adminToOrganization(address)": "0b2a0904",
			"associatedOrganizations(address)": "adf457ef",
			"checkMyVoterInfo()": "82a35529",
			"contractOwner()": "ce606ee0",
			"createElection(string,string,string,uint8,uint256,uint256)": "4509beb3",
			"electionResults(uint32)": "ebe0c48f",
			"elections(uint32)": "2c751d30",
			"finishElection(uint32,string)": "a14ff011",
			"getAdminName(address)": "579cdf17",
			"getAdminOrganization()": "94c04f97",
			"getCandidateDetail(uint32,string)": "29c8c595",
			"getCurrentVoteResult(uint32)": "03ef6d02",
			"getElectionIndexByName(string)": "36cad6bf",
			"getOrganization(uint256)": "4526f690",
			"getOrganizationsCount()": "7d70cbaf",
			"getWinnerResult(uint32)": "5e1b71ea",
			"organizationList(string)": "f96ef609",
			"organizations(uint256)": "e792dd8a",
			"registerElectionAdmin(string,string)": "a3ae58ba",
			"registerOrganization(string,string,uint8)": "f53cbb2d",
			"registerVoter(string,string,uint32)": "478a5fc2",
			"registeredAdmin(address)": "3c36ffae",
			"startElection(uint32)": "15a1349b",
			"vote(uint32,uint8)": "9767fb72",
			"voters(address)": "a3ec138d",
			"votersCount()": "98c07938",
			"votersIDExists(uint48)": "a50f9495"
		}
	},
	"abi": [
		{
			"inputs": [
				{
					"internalType": "address",
					"name": "initialElectionAdmin",
					"type": "address"
				}
			],
			"stateMutability": "nonpayable",
			"type": "constructor"
		},
		{
			"inputs": [],
			"name": "MAX_EVENTS",
			"outputs": [
				{
					"internalType": "uint32",
					"name": "",
					"type": "uint32"
				}
			],
			"stateMutability": "view",
			"type": "function"
		},
		{
			"inputs": [
				{
					"internalType": "uint32",
					"name": "electionIndex",
					"type": "uint32"
				},
				{
					"internalType": "string",
					"name": "_candidateName",
					"type": "string"
				}
			],
			"name": "addCandidateToElection",
			"outputs": [],
			"stateMutability": "nonpayable",
			"type": "function"
		},
		{
			"inputs": [
				{
					"internalType": "address",
					"name": "",
					"type": "address"
				}
			],
			"name": "admin",
			"outputs": [
				{
					"internalType": "address",
					"name": "electionAdminAddress",
					"type": "address"
				},
				{
					"internalType": "string",
					"name": "adminName",
					"type": "string"
				},
				{
					"internalType": "bool",
					"name": "isRegistered",
					"type": "bool"
				},
				{
					"internalType": "string",
					"name": "orgName",
					"type": "string"
				}
			],
			"stateMutability": "view",
			"type": "function"
		},
		{
			"inputs": [
				{
					"internalType": "address",
					"name": "",
					"type": "address"
				}
			],
			"name": "adminToOrganization",
			"outputs": [
				{
					"internalType": "string",
					"name": "",
					"type": "string"
				}
			],
			"stateMutability": "view",
			"type": "function"
		},
		{
			"inputs": [
				{
					"internalType": "address",
					"name": "",
					"type": "address"
				}
			],
			"name": "associatedOrganizations",
			"outputs": [
				{
					"internalType": "string",
					"name": "",
					"type": "string"
				}
			],
			"stateMutability": "view",
			"type": "function"
		},
		{
			"inputs": [],
			"name": "checkMyVoterInfo",
			"outputs": [
				{
					"internalType": "uint48",
					"name": "",
					"type": "uint48"
				},
				{
					"internalType": "address",
					"name": "",
					"type": "address"
				},
				{
					"internalType": "string",
					"name": "",
					"type": "string"
				},
				{
					"internalType": "string",
					"name": "",
					"type": "string"
				},
				{
					"internalType": "string[]",
					"name": "",
					"type": "string[]"
				}
			],
			"stateMutability": "view",
			"type": "function"
		},
		{
			"inputs": [],
			"name": "contractOwner",
			"outputs": [
				{
					"internalType": "address",
					"name": "",
					"type": "address"
				}
			],
			"stateMutability": "view",
			"type": "function"
		},
		{
			"inputs": [
				{
					"internalType": "string",
					"name": "_orgId",
					"type": "string"
				},
				{
					"internalType": "string",
					"name": "_electionID",
					"type": "string"
				},
				{
					"internalType": "string",
					"name": "_electionName",
					"type": "string"
				},
				{
					"internalType": "uint8",
					"name": "_candidateCount",
					"type": "uint8"
				},
				{
					"internalType": "uint256",
					"name": "_startTime",
					"type": "uint256"
				},
				{
					"internalType": "uint256",
					"name": "_duration",
					"type": "uint256"
				}
			],
			"name": "createElection",
			"outputs": [],
			"stateMutability": "nonpayable",
			"type": "function"
		},
		{
			"inputs": [
				{
					"internalType": "uint32",
					"name": "",
					"type": "uint32"
				}
			],
			"name": "electionResults",
			"outputs": [
				{
					"internalType": "string",
					"name": "registeredOrganization",
					"type": "string"
				},
				{
					"internalType": "address",
					"name": "adminAddress",
					"type": "address"
				},
				{
					"internalType": "uint256",
					"name": "startTime",
					"type": "uint256"
				},
				{
					"internalType": "uint256",
					"name": "endTime",
					"type": "uint256"
				},
				{
					"internalType": "uint32",
					"name": "totalVotes",
					"type": "uint32"
				},
				{
					"internalType": "string",
					"name": "electionWinner",
					"type": "string"
				},
				{
					"internalType": "string",
					"name": "signedBy",
					"type": "string"
				},
				{
					"internalType": "string",
					"name": "digitalSignature",
					"type": "string"
				}
			],
			"stateMutability": "view",
			"type": "function"
		},
		{
			"inputs": [
				{
					"internalType": "uint32",
					"name": "",
					"type": "uint32"
				}
			],
			"name": "elections",
			"outputs": [
				{
					"internalType": "string",
					"name": "electionID",
					"type": "string"
				},
				{
					"internalType": "string",
					"name": "orgId",
					"type": "string"
				},
				{
					"internalType": "string",
					"name": "electionName",
					"type": "string"
				},
				{
					"internalType": "uint256",
					"name": "startTime",
					"type": "uint256"
				},
				{
					"internalType": "uint256",
					"name": "endTime",
					"type": "uint256"
				},
				{
					"internalType": "uint8",
					"name": "candidateList",
					"type": "uint8"
				},
				{
					"internalType": "enum DVotev2.ElectionStatus",
					"name": "status",
					"type": "uint8"
				},
				{
					"internalType": "bool",
					"name": "isFinished",
					"type": "bool"
				}
			],
			"stateMutability": "view",
			"type": "function"
		},
		{
			"inputs": [
				{
					"internalType": "uint32",
					"name": "electionIndex",
					"type": "uint32"
				},
				{
					"internalType": "string",
					"name": "digitalSignature",
					"type": "string"
				}
			],
			"name": "finishElection",
			"outputs": [],
			"stateMutability": "nonpayable",
			"type": "function"
		},
		{
			"inputs": [
				{
					"internalType": "address",
					"name": "adminAddress",
					"type": "address"
				}
			],
			"name": "getAdminName",
			"outputs": [
				{
					"internalType": "string",
					"name": "",
					"type": "string"
				}
			],
			"stateMutability": "view",
			"type": "function"
		},
		{
			"inputs": [],
			"name": "getAdminOrganization",
			"outputs": [
				{
					"internalType": "string",
					"name": "",
					"type": "string"
				},
				{
					"internalType": "string",
					"name": "",
					"type": "string"
				}
			],
			"stateMutability": "view",
			"type": "function"
		},
		{
			"inputs": [
				{
					"internalType": "uint32",
					"name": "electionIndex",
					"type": "uint32"
				},
				{
					"internalType": "string",
					"name": "candidateName",
					"type": "string"
				}
			],
			"name": "getCandidateDetail",
			"outputs": [
				{
					"internalType": "uint8",
					"name": "",
					"type": "uint8"
				},
				{
					"internalType": "uint32",
					"name": "",
					"type": "uint32"
				}
			],
			"stateMutability": "view",
			"type": "function"
		},
		{
			"inputs": [
				{
					"internalType": "uint32",
					"name": "electionIndex",
					"type": "uint32"
				}
			],
			"name": "getCurrentVoteResult",
			"outputs": [
				{
					"internalType": "string[]",
					"name": "",
					"type": "string[]"
				},
				{
					"internalType": "uint32[]",
					"name": "",
					"type": "uint32[]"
				}
			],
			"stateMutability": "view",
			"type": "function"
		},
		{
			"inputs": [
				{
					"internalType": "string",
					"name": "_electionName",
					"type": "string"
				}
			],
			"name": "getElectionIndexByName",
			"outputs": [
				{
					"internalType": "uint32",
					"name": "",
					"type": "uint32"
				}
			],
			"stateMutability": "view",
			"type": "function"
		},
		{
			"inputs": [
				{
					"internalType": "uint256",
					"name": "index",
					"type": "uint256"
				}
			],
			"name": "getOrganization",
			"outputs": [
				{
					"internalType": "string",
					"name": "",
					"type": "string"
				},
				{
					"internalType": "string",
					"name": "",
					"type": "string"
				},
				{
					"internalType": "enum DVotev2.OrganizationType",
					"name": "",
					"type": "uint8"
				},
				{
					"internalType": "uint48",
					"name": "",
					"type": "uint48"
				},
				{
					"internalType": "uint16",
					"name": "",
					"type": "uint16"
				},
				{
					"internalType": "address[]",
					"name": "",
					"type": "address[]"
				}
			],
			"stateMutability": "view",
			"type": "function"
		},
		{
			"inputs": [],
			"name": "getOrganizationsCount",
			"outputs": [
				{
					"internalType": "uint256",
					"name": "",
					"type": "uint256"
				}
			],
			"stateMutability": "view",
			"type": "function"
		},
		{
			"inputs": [
				{
					"internalType": "uint32",
					"name": "electionIndex",
					"type": "uint32"
				}
			],
			"name": "getWinnerResult",
			"outputs": [
				{
					"internalType": "string",
					"name": "",
					"type": "string"
				},
				{
					"internalType": "uint32",
					"name": "",
					"type": "uint32"
				}
			],
			"stateMutability": "view",
			"type": "function"
		},
		{
			"inputs": [
				{
					"internalType": "string",
					"name": "",
					"type": "string"
				}
			],
			"name": "organizationList",
			"outputs": [
				{
					"internalType": "bool",
					"name": "",
					"type": "bool"
				}
			],
			"stateMutability": "view",
			"type": "function"
		},
		{
			"inputs": [
				{
					"internalType": "uint256",
					"name": "",
					"type": "uint256"
				}
			],
			"name": "organizations",
			"outputs": [
				{
					"internalType": "string",
					"name": "orgName",
					"type": "string"
				},
				{
					"internalType": "string",
					"name": "orgId",
					"type": "string"
				},
				{
					"internalType": "enum DVotev2.OrganizationType",
					"name": "orgType",
					"type": "uint8"
				},
				{
					"internalType": "uint16",
					"name": "electionEventCounter",
					"type": "uint16"
				},
				{
					"internalType": "uint48",
					"name": "totalMembers",
					"type": "uint48"
				}
			],
			"stateMutability": "view",
			"type": "function"
		},
		{
			"inputs": [
				{
					"internalType": "string",
					"name": "_orgName",
					"type": "string"
				},
				{
					"internalType": "string",
					"name": "_adminName",
					"type": "string"
				}
			],
			"name": "registerElectionAdmin",
			"outputs": [],
			"stateMutability": "nonpayable",
			"type": "function"
		},
		{
			"inputs": [
				{
					"internalType": "string",
					"name": "_orgName",
					"type": "string"
				},
				{
					"internalType": "string",
					"name": "_orgId",
					"type": "string"
				},
				{
					"internalType": "enum DVotev2.OrganizationType",
					"name": "_orgType",
					"type": "uint8"
				}
			],
			"name": "registerOrganization",
			"outputs": [],
			"stateMutability": "nonpayable",
			"type": "function"
		},
		{
			"inputs": [
				{
					"internalType": "string",
					"name": "_VoterName",
					"type": "string"
				},
				{
					"internalType": "string",
					"name": "_orgId",
					"type": "string"
				},
				{
					"internalType": "uint32",
					"name": "_electionIndex",
					"type": "uint32"
				}
			],
			"name": "registerVoter",
			"outputs": [],
			"stateMutability": "nonpayable",
			"type": "function"
		},
		{
			"inputs": [
				{
					"internalType": "address",
					"name": "",
					"type": "address"
				}
			],
			"name": "registeredAdmin",
			"outputs": [
				{
					"internalType": "bool",
					"name": "",
					"type": "bool"
				}
			],
			"stateMutability": "view",
			"type": "function"
		},
		{
			"inputs": [
				{
					"internalType": "uint32",
					"name": "electionIndex",
					"type": "uint32"
				}
			],
			"name": "startElection",
			"outputs": [],
			"stateMutability": "nonpayable",
			"type": "function"
		},
		{
			"inputs": [
				{
					"internalType": "uint32",
					"name": "electionIndex",
					"type": "uint32"
				},
				{
					"internalType": "uint8",
					"name": "candidateID",
					"type": "uint8"
				}
			],
			"name": "vote",
			"outputs": [],
			"stateMutability": "nonpayable",
			"type": "function"
		},
		{
			"inputs": [
				{
					"internalType": "address",
					"name": "",
					"type": "address"
				}
			],
			"name": "voters",
			"outputs": [
				{
					"internalType": "uint48",
					"name": "VoterID",
					"type": "uint48"
				},
				{
					"internalType": "address",
					"name": "VoterAddress",
					"type": "address"
				},
				{
					"internalType": "string",
					"name": "VoterName",
					"type": "string"
				},
				{
					"internalType": "bool",
					"name": "isRegistered",
					"type": "bool"
				},
				{
					"internalType": "string",
					"name": "associatedOrganization",
					"type": "string"
				}
			],
			"stateMutability": "view",
			"type": "function"
		},
		{
			"inputs": [],
			"name": "votersCount",
			"outputs": [
				{
					"internalType": "uint48",
					"name": "",
					"type": "uint48"
				}
			],
			"stateMutability": "view",
			"type": "function"
		},
		{
			"inputs": [
				{
					"internalType": "uint48",
					"name": "",
					"type": "uint48"
				}
			],
			"name": "votersIDExists",
			"outputs": [
				{
					"internalType": "bool",
					"name": "",
					"type": "bool"
				}
			],
			"stateMutability": "view",
			"type": "function"
		}
	]
}