{
  "contractName": "DVotev2",
  "abi": [
    {
      "inputs": [
        {
          "internalType": "address",
          "name": "initialElectionAdmin",
          "type": "address"
        }
      ],
      "stateMutability": "nonpayable",
      "type": "constructor"
    },
    {
      "inputs": [],
      "name": "MAX_EVENTS",
      "outputs": [
        {
          "internalType": "uint32",
          "name": "",
          "type": "uint32"
        }
      ],
      "stateMutability": "view",
      "type": "function"
    },
    {
      "inputs": [
        {
          "internalType": "address",
          "name": "",
          "type": "address"
        }
      ],
      "name": "admin",
      "outputs": [
        {
          "internalType": "address",
          "name": "electionAdminAddress",
          "type": "address"
        },
        {
          "internalType": "string",
          "name": "adminName",
          "type": "string"
        },
        {
          "internalType": "bool",
          "name": "isRegistered",
          "type": "bool"
        },
        {
          "internalType": "string",
          "name": "orgName",
          "type": "string"
        }
      ],
      "stateMutability": "view",
      "type": "function"
    },
    {
      "inputs": [
        {
          "internalType": "address",
          "name": "",
          "type": "address"
        }
      ],
      "name": "adminToOrganization",
      "outputs": [
        {
          "internalType": "string",
          "name": "",
          "type": "string"
        }
      ],
      "stateMutability": "view",
      "type": "function"
    },
    {
      "inputs": [
        {
          "internalType": "address",
          "name": "",
          "type": "address"
        }
      ],
      "name": "associatedOrganizations",
      "outputs": [
        {
          "internalType": "string",
          "name": "",
          "type": "string"
        }
      ],
      "stateMutability": "view",
      "type": "function"
    },
    {
      "inputs": [],
      "name": "contractOwner",
      "outputs": [
        {
          "internalType": "address",
          "name": "",
          "type": "address"
        }
      ],
      "stateMutability": "view",
      "type": "function"
    },
    {
      "inputs": [
        {
          "internalType": "uint32",
          "name": "",
          "type": "uint32"
        }
      ],
      "name": "electionResults",
      "outputs": [
        {
          "internalType": "string",
          "name": "registeredOrganization",
          "type": "string"
        },
        {
          "internalType": "address",
          "name": "adminAddress",
          "type": "address"
        },
        {
          "internalType": "uint256",
          "name": "startTime",
          "type": "uint256"
        },
        {
          "internalType": "uint256",
          "name": "endTime",
          "type": "uint256"
        },
        {
          "internalType": "uint32",
          "name": "totalVotes",
          "type": "uint32"
        },
        {
          "internalType": "string",
          "name": "electionWinner",
          "type": "string"
        },
        {
          "internalType": "string",
          "name": "signedBy",
          "type": "string"
        },
        {
          "internalType": "string",
          "name": "digitalSignature",
          "type": "string"
        }
      ],
      "stateMutability": "view",
      "type": "function"
    },
    {
      "inputs": [
        {
          "internalType": "uint32",
          "name": "",
          "type": "uint32"
        }
      ],
      "name": "elections",
      "outputs": [
        {
          "internalType": "string",
          "name": "electionID",
          "type": "string"
        },
        {
          "internalType": "string",
          "name": "orgId",
          "type": "string"
        },
        {
          "internalType": "string",
          "name": "electionName",
          "type": "string"
        },
        {
          "internalType": "uint256",
          "name": "startTime",
          "type": "uint256"
        },
        {
          "internalType": "uint256",
          "name": "endTime",
          "type": "uint256"
        },
        {
          "internalType": "uint8",
          "name": "candidateList",
          "type": "uint8"
        },
        {
          "internalType": "enum DVotev2.ElectionStatus",
          "name": "status",
          "type": "uint8"
        },
        {
          "internalType": "bool",
          "name": "isFinished",
          "type": "bool"
        }
      ],
      "stateMutability": "view",
      "type": "function"
    },
    {
      "inputs": [
        {
          "internalType": "string",
          "name": "",
          "type": "string"
        }
      ],
      "name": "organizationList",
      "outputs": [
        {
          "internalType": "bool",
          "name": "",
          "type": "bool"
        }
      ],
      "stateMutability": "view",
      "type": "function"
    },
    {
      "inputs": [
        {
          "internalType": "uint256",
          "name": "",
          "type": "uint256"
        }
      ],
      "name": "organizations",
      "outputs": [
        {
          "internalType": "string",
          "name": "orgName",
          "type": "string"
        },
        {
          "internalType": "string",
          "name": "orgId",
          "type": "string"
        },
        {
          "internalType": "enum DVotev2.OrganizationType",
          "name": "orgType",
          "type": "uint8"
        },
        {
          "internalType": "uint16",
          "name": "electionEventCounter",
          "type": "uint16"
        },
        {
          "internalType": "uint48",
          "name": "totalMembers",
          "type": "uint48"
        }
      ],
      "stateMutability": "view",
      "type": "function"
    },
    {
      "inputs": [
        {
          "internalType": "address",
          "name": "",
          "type": "address"
        }
      ],
      "name": "registeredAdmin",
      "outputs": [
        {
          "internalType": "bool",
          "name": "",
          "type": "bool"
        }
      ],
      "stateMutability": "view",
      "type": "function"
    },
    {
      "inputs": [
        {
          "internalType": "address",
          "name": "",
          "type": "address"
        }
      ],
      "name": "voters",
      "outputs": [
        {
          "internalType": "uint48",
          "name": "VoterID",
          "type": "uint48"
        },
        {
          "internalType": "address",
          "name": "VoterAddress",
          "type": "address"
        },
        {
          "internalType": "string",
          "name": "VoterName",
          "type": "string"
        },
        {
          "internalType": "bool",
          "name": "isRegistered",
          "type": "bool"
        },
        {
          "internalType": "string",
          "name": "associatedOrganization",
          "type": "string"
        }
      ],
      "stateMutability": "view",
      "type": "function"
    },
    {
      "inputs": [],
      "name": "votersCount",
      "outputs": [
        {
          "internalType": "uint48",
          "name": "",
          "type": "uint48"
        }
      ],
      "stateMutability": "view",
      "type": "function"
    },
    {
      "inputs": [
        {
          "internalType": "uint48",
          "name": "",
          "type": "uint48"
        }
      ],
      "name": "votersIDExists",
      "outputs": [
        {
          "internalType": "bool",
          "name": "",
          "type": "bool"
        }
      ],
      "stateMutability": "view",
      "type": "function"
    },
    {
      "inputs": [
        {
          "internalType": "string",
          "name": "_orgName",
          "type": "string"
        },
        {
          "internalType": "string",
          "name": "_adminName",
          "type": "string"
        }
      ],
      "name": "registerElectionAdmin",
      "outputs": [],
      "stateMutability": "nonpayable",
      "type": "function"
    },
    {
      "inputs": [],
      "name": "getAdminOrganization",
      "outputs": [
        {
          "internalType": "string",
          "name": "",
          "type": "string"
        },
        {
          "internalType": "string",
          "name": "",
          "type": "string"
        }
      ],
      "stateMutability": "view",
      "type": "function"
    },
    {
      "inputs": [
        {
          "internalType": "string",
          "name": "_orgName",
          "type": "string"
        },
        {
          "internalType": "string",
          "name": "_orgId",
          "type": "string"
        },
        {
          "internalType": "enum DVotev2.OrganizationType",
          "name": "_orgType",
          "type": "uint8"
        }
      ],
      "name": "registerOrganization",
      "outputs": [],
      "stateMutability": "nonpayable",
      "type": "function"
    },
    {
      "inputs": [
        {
          "internalType": "uint256",
          "name": "index",
          "type": "uint256"
        }
      ],
      "name": "getOrganization",
      "outputs": [
        {
          "internalType": "string",
          "name": "",
          "type": "string"
        },
        {
          "internalType": "string",
          "name": "",
          "type": "string"
        },
        {
          "internalType": "enum DVotev2.OrganizationType",
          "name": "",
          "type": "uint8"
        },
        {
          "internalType": "uint48",
          "name": "",
          "type": "uint48"
        },
        {
          "internalType": "uint16",
          "name": "",
          "type": "uint16"
        },
        {
          "internalType": "address[]",
          "name": "",
          "type": "address[]"
        }
      ],
      "stateMutability": "view",
      "type": "function"
    },
    {
      "inputs": [],
      "name": "getOrganizationsCount",
      "outputs": [
        {
          "internalType": "uint256",
          "name": "",
          "type": "uint256"
        }
      ],
      "stateMutability": "view",
      "type": "function"
    },
    {
      "inputs": [
        {
          "internalType": "string",
          "name": "_orgId",
          "type": "string"
        },
        {
          "internalType": "string",
          "name": "_electionID",
          "type": "string"
        },
        {
          "internalType": "string",
          "name": "_electionName",
          "type": "string"
        },
        {
          "internalType": "uint8",
          "name": "_candidateCount",
          "type": "uint8"
        },
        {
          "internalType": "uint256",
          "name": "_startTime",
          "type": "uint256"
        },
        {
          "internalType": "uint256",
          "name": "_duration",
          "type": "uint256"
        }
      ],
      "name": "createElection",
      "outputs": [],
      "stateMutability": "nonpayable",
      "type": "function"
    },
    {
      "inputs": [
        {
          "internalType": "uint32",
          "name": "electionIndex",
          "type": "uint32"
        }
      ],
      "name": "startElection",
      "outputs": [],
      "stateMutability": "nonpayable",
      "type": "function"
    },
    {
      "inputs": [
        {
          "internalType": "uint32",
          "name": "electionIndex",
          "type": "uint32"
        },
        {
          "internalType": "string",
          "name": "digitalSignature",
          "type": "string"
        }
      ],
      "name": "finishElection",
      "outputs": [],
      "stateMutability": "nonpayable",
      "type": "function"
    },
    {
      "inputs": [
        {
          "internalType": "address",
          "name": "adminAddress",
          "type": "address"
        }
      ],
      "name": "getAdminName",
      "outputs": [
        {
          "internalType": "string",
          "name": "",
          "type": "string"
        }
      ],
      "stateMutability": "view",
      "type": "function"
    },
    {
      "inputs": [
        {
          "internalType": "uint32",
          "name": "electionIndex",
          "type": "uint32"
        },
        {
          "internalType": "string",
          "name": "_candidateName",
          "type": "string"
        }
      ],
      "name": "addCandidateToElection",
      "outputs": [],
      "stateMutability": "nonpayable",
      "type": "function"
    },
    {
      "inputs": [
        {
          "internalType": "string",
          "name": "_VoterName",
          "type": "string"
        },
        {
          "internalType": "string",
          "name": "_orgId",
          "type": "string"
        },
        {
          "internalType": "uint32",
          "name": "_electionIndex",
          "type": "uint32"
        }
      ],
      "name": "registerVoter",
      "outputs": [],
      "stateMutability": "nonpayable",
      "type": "function"
    },
    {
      "inputs": [
        {
          "internalType": "uint32",
          "name": "electionIndex",
          "type": "uint32"
        },
        {
          "internalType": "uint8",
          "name": "candidateID",
          "type": "uint8"
        }
      ],
      "name": "vote",
      "outputs": [],
      "stateMutability": "nonpayable",
      "type": "function"
    },
    {
      "inputs": [
        {
          "internalType": "string",
          "name": "_electionName",
          "type": "string"
        }
      ],
      "name": "getElectionIndexByName",
      "outputs": [
        {
          "internalType": "uint32",
          "name": "",
          "type": "uint32"
        }
      ],
      "stateMutability": "view",
      "type": "function"
    },
    {
      "inputs": [
        {
          "internalType": "uint32",
          "name": "electionIndex",
          "type": "uint32"
        },
        {
          "internalType": "string",
          "name": "candidateName",
          "type": "string"
        }
      ],
      "name": "getCandidateDetail",
      "outputs": [
        {
          "internalType": "uint8",
          "name": "",
          "type": "uint8"
        },
        {
          "internalType": "uint32",
          "name": "",
          "type": "uint32"
        }
      ],
      "stateMutability": "view",
      "type": "function"
    },
    {
      "inputs": [],
      "name": "checkMyVoterInfo",
      "outputs": [
        {
          "internalType": "uint48",
          "name": "",
          "type": "uint48"
        },
        {
          "internalType": "address",
          "name": "",
          "type": "address"
        },
        {
          "internalType": "string",
          "name": "",
          "type": "string"
        },
        {
          "internalType": "string",
          "name": "",
          "type": "string"
        },
        {
          "internalType": "string[]",
          "name": "",
          "type": "string[]"
        }
      ],
      "stateMutability": "view",
      "type": "function"
    },
    {
      "inputs": [
        {
          "internalType": "uint32",
          "name": "electionIndex",
          "type": "uint32"
        }
      ],
      "name": "getCurrentVoteResult",
      "outputs": [
        {
          "internalType": "string[]",
          "name": "",
          "type": "string[]"
        },
        {
          "internalType": "uint32[]",
          "name": "",
          "type": "uint32[]"
        }
      ],
      "stateMutability": "view",
      "type": "function"
    },
    {
      "inputs": [
        {
          "internalType": "uint32",
          "name": "electionIndex",
          "type": "uint32"
        }
      ],
      "name": "getWinnerResult",
      "outputs": [
        {
          "internalType": "string",
          "name": "",
          "type": "string"
        },
        {
          "internalType": "uint32",
          "name": "",
          "type": "uint32"
        }
      ],
      "stateMutability": "view",
      "type": "function"
    }
  ],
  "bytecode": "0x6080604052600280547fffffffff00000000ffffffff0000000000000000000000000000000000000000163363ffffffff60c01b191617600560c11b1790553480156200004b57600080fd5b50604051620053ae380380620053ae8339810160408190526200006e91620000a2565b60018054336001600160a01b031991821617909155600280549091166001600160a01b0392909216919091179055620000d4565b600060208284031215620000b557600080fd5b81516001600160a01b0381168114620000cd57600080fd5b9392505050565b6152ca80620000e46000396000f3fe608060405234801561001057600080fd5b506004361061019a5760003560e01c80637d70cbaf116100e4578063a3ec138d11610092578063a3ec138d1461041f578063a50f949514610443578063adf457ef14610466578063ce606ee014610479578063e792dd8a146104a4578063ebe0c48f146104c8578063f53cbb2d146104ef578063f96ef6091461050257600080fd5b80637d70cbaf1461037d57806382a355291461038e57806394c04f97146103a75780639767fb72146103bd57806398c07938146103d0578063a14ff011146103f9578063a3ae58ba1461040c57600080fd5b80634509beb31161014c5780634509beb3146102b15780634526f690146102c4578063478a5fc2146102e95780634daa8e1d146102fc578063579cdf171461030f5780635ded1bd6146103225780635e1b71ea1461033957806363a846f81461035a57600080fd5b806303ef6d021461019f5780630b2a0904146101c957806315a1349b146101e957806329c8c595146101fe5780632c751d301461022f57806336cad6bf146102565780633c36ffae1461027e575b600080fd5b6101b26101ad366004614668565b610530565b6040516101c092919061472f565b60405180910390f35b6101dc6101d736600461478c565b610803565b6040516101c091906147b5565b6101fc6101f7366004614668565b61089d565b005b61021161020c36600461486a565b6109dd565b6040805160ff909316835263ffffffff9091166020830152016101c0565b61024261023d366004614668565b610b9a565b6040516101c09897969594939291906148cd565b61026961026436600461494c565b610d7d565b60405163ffffffff90911681526020016101c0565b6102a161028c36600461478c565b60046020526000908152604090205460ff1681565b60405190151581526020016101c0565b6101fc6102bf366004614999565b610e5a565b6102d76102d2366004614a43565b611278565b6040516101c096959493929190614a70565b6101fc6102f7366004614b0a565b611593565b6101fc61030a36600461486a565b611959565b6101dc61031d36600461478c565b611d81565b60025461026990600160c01b900463ffffffff1681565b61034c610347366004614668565b611ef8565b6040516101c0929190614b7d565b61036d61036836600461478c565b6120c9565b6040516101c09493929190614ba5565b6000546040519081526020016101c0565b610396612215565b6040516101c0959493929190614bee565b6103af6124a3565b6040516101c0929190614c52565b6101fc6103cb366004614c80565b612738565b6003546103e29065ffffffffffff1681565b60405165ffffffffffff90911681526020016101c0565b6101fc61040736600461486a565b612c38565b6101fc61041a366004614cb3565b612f42565b61043261042d36600461478c565b61314a565b6040516101c0959493929190614d0c565b6102a1610451366004614d58565b600c6020526000908152604090205460ff1681565b6101dc61047436600461478c565b6132a7565b60015461048c906001600160a01b031681565b6040516001600160a01b0390911681526020016101c0565b6104b76104b2366004614a43565b6132c0565b6040516101c0959493929190614d80565b6104db6104d6366004614668565b613427565b6040516101c0989796959493929190614dd7565b6101fc6104fd366004614e5f565b61369c565b6102a161051036600461494c565b805160208183018101805160088252928201919093012091525460ff1681565b600254606090819063ffffffff600160a01b9091048116908416106105705760405162461bcd60e51b815260040161056790614eda565b60405180910390fd5b63ffffffff8316600090815260066020526040812090600782015460ff16600281111561059f5761059f6148b7565b036105fc5760405162461bcd60e51b815260206004820152602760248201527f456c656374696f6e206973206e6f7420696e2070726f6772657373206f7220666044820152661a5b9a5cda195960ca1b6064820152608401610567565b60068101546000906001600160401b0381111561061b5761061b6147c8565b60405190808252806020026020018201604052801561064e57816020015b60608152602001906001900390816106395790505b5060068301549091506000906001600160401b03811115610671576106716147c8565b60405190808252806020026020018201604052801561069a578160200160208202803683370190505b50905060005b600684015460ff821610156107f757836006018160ff16815481106106c7576106c7614f0a565b906000526020600020906003020160010180546106e390614f20565b80601f016020809104026020016040519081016040528092919081815260200182805461070f90614f20565b801561075c5780601f106107315761010080835404028352916020019161075c565b820191906000526020600020905b81548152906001019060200180831161073f57829003601f168201915b5050505050838260ff168151811061077657610776614f0a565b6020026020010181905250836006018160ff168154811061079957610799614f0a565b906000526020600020906003020160020160009054906101000a900463ffffffff16828260ff16815181106107d0576107d0614f0a565b63ffffffff90921660209283029190910190910152806107ef81614f70565b9150506106a0565b50909590945092505050565b6009602052600090815260409020805461081c90614f20565b80601f016020809104026020016040519081016040528092919081815260200182805461084890614f20565b80156108955780601f1061086a57610100808354040283529160200191610895565b820191906000526020600020905b81548152906001019060200180831161087857829003601f168201915b505050505081565b6001546001600160a01b03163314806108c557503360009081526004602052604090205460ff165b6108e15760405162461bcd60e51b815260040161056790614f8f565b60025463ffffffff600160a01b9091048116908216106109135760405162461bcd60e51b815260040161056790614eda565b63ffffffff811660009081526006602052604090206002600782015460ff166002811115610943576109436148b7565b036109605760405162461bcd60e51b815260040161056790614fb5565b6000600782015460ff16600281111561097b5761097b6148b7565b146109c45760405162461bcd60e51b8152602060048201526019602482015278115b1958dd1a5bdb881a5cc81b9bdd081cd8da19591d5b1959603a1b6044820152606401610567565b60078101805460ff191660011790554260039091015550565b600254600090819063ffffffff600160a01b909104811690851610610a145760405162461bcd60e51b815260040161056790614eda565b63ffffffff84166000908152600660205260408120905b600682015460ff82161015610b345784604051602001610a4b9190614fec565b60405160208183030381529060405280519060200120826006018260ff1681548110610a7957610a79614f0a565b9060005260206000209060030201600101604051602001610a9a9190615008565b6040516020818303038152906040528051906020012003610b2257816006018160ff1681548110610acd57610acd614f0a565b600091825260209091206003909102015460068301805460ff928316928416908110610afb57610afb614f0a565b600091825260209091206002600390920201015490945063ffffffff169250610b93915050565b80610b2c81614f70565b915050610a2b565b5060405162461bcd60e51b815260206004820152602d60248201527f43616e646964617465206e6f7420666f756e6420696e2074686520737065636960448201526c3334b2b21032b632b1ba34b7b760991b6064820152608401610567565b9250929050565b600660205260009081526040902080548190610bb590614f20565b80601f0160208091040260200160405190810160405280929190818152602001828054610be190614f20565b8015610c2e5780601f10610c0357610100808354040283529160200191610c2e565b820191906000526020600020905b815481529060010190602001808311610c1157829003601f168201915b505050505090806001018054610c4390614f20565b80601f0160208091040260200160405190810160405280929190818152602001828054610c6f90614f20565b8015610cbc5780601f10610c9157610100808354040283529160200191610cbc565b820191906000526020600020905b815481529060010190602001808311610c9f57829003601f168201915b505050505090806002018054610cd190614f20565b80601f0160208091040260200160405190810160405280929190818152602001828054610cfd90614f20565b8015610d4a5780601f10610d1f57610100808354040283529160200191610d4a565b820191906000526020600020905b815481529060010190602001808311610d2d57829003601f168201915b505050506003830154600484015460058501546007909501549394919390925060ff918216918082169161010090041688565b6000805b60025463ffffffff600160a01b90910481169082161015610e1c5782604051602001610dad9190614fec565b60408051601f19818403018152828252805160209182012063ffffffff8516600090815260068352929092209192610de9926002019101615008565b6040516020818303038152906040528051906020012003610e0a5792915050565b80610e148161507e565b915050610d81565b5060405162461bcd60e51b8152602060048201526012602482015271115b1958dd1a5bdb881b9bdd08199bdd5b9960721b6044820152606401610567565b600886604051610e6a9190614fec565b9081526040519081900360200190205460ff16610e995760405162461bcd60e51b8152600401610567906150a1565b6001855111610eea5760405162461bcd60e51b815260206004820152601a60248201527f456c656374696f6e2049442063616e277420626520656d7074790000000000006044820152606401610567565b600685511115610f4f5760405162461bcd60e51b815260206004820152602a60248201527f456c656374696f6e2049442073686f756c6420626520362063686172616374656044820152697273206f72206c65737360b01b6064820152608401610567565b6001845111610fa05760405162461bcd60e51b815260206004820152601c60248201527f456c656374696f6e206e616d652063616e277420626520656d707479000000006044820152606401610567565b600f845111156110085760405162461bcd60e51b815260206004820152602d60248201527f456c656374696f6e206e616d652073686f756c6420626520313520636861726160448201526c6374657273206f72206c65737360981b6064820152608401610567565b60025463ffffffff600160c01b82048116600160a01b909204161061106f5760405162461bcd60e51b815260206004820152601e60248201527f4d6178696d756d206576656e74732063726561746564207265616368656400006044820152606401610567565b428210156110bf5760405162461bcd60e51b815260206004820181905260248201527f53746172742074696d652063616e6e6f7420626520696e2074686520706173746044820152606401610567565b6000811180156110d257506276a7008111155b61111a5760405162461bcd60e51b815260206004820152601960248201527824b73b30b634b21032b632b1ba34b7b710323ab930ba34b7b760391b6044820152606401610567565b600061112682846150d4565b9050600042841461113857600061113b565b60015b600254600160a01b900463ffffffff166000908152600660205260409020909150806111678982615136565b50600181016111768a82615136565b50600281016111858882615136565b5060078101805483919060ff191660018360028111156111a7576111a76148b7565b021790555060058101805460ff191660ff8816179055600381018590556004810183905560006111d68a613aee565b905060008161ffff16815481106111ef576111ef614f0a565b600091825260208220600560069092020101805461ffff1691611211836151f5565b825461ffff9182166101009390930a9283029190920219909116179055506002805463ffffffff600160a01b9091041690601461124d8361507e565b91906101000a81548163ffffffff021916908363ffffffff1602179055505050505050505050505050565b6060806000806000606060008054905087106112cc5760405162461bcd60e51b8152602060048201526013602482015272496e646578206f7574206f6620626f756e647360681b6044820152606401610567565b60008088815481106112e0576112e0614f0a565b90600052602060002090600602016040518060e001604052908160008201805461130990614f20565b80601f016020809104026020016040519081016040528092919081815260200182805461133590614f20565b80156113825780601f1061135757610100808354040283529160200191611382565b820191906000526020600020905b81548152906001019060200180831161136557829003601f168201915b5050505050815260200160018201805461139b90614f20565b80601f01602080910402602001604051908101604052809291908181526020018280546113c790614f20565b80156114145780601f106113e957610100808354040283529160200191611414565b820191906000526020600020905b8154815290600101906020018083116113f757829003601f168201915b505050505081526020016002820180548060200260200160405190810160405280929190818152602001828054801561147657602002820191906000526020600020905b81546001600160a01b03168152600190910190602001808311611458575b5050509183525050600382015460209091019060ff16600181111561149d5761149d6148b7565b60018111156114ae576114ae6148b7565b81526020016004820180548060200260200160405190810160405280929190818152602001828054801561153157602002820191906000526020600020906000905b82829054906101000a900465ffffffffffff1665ffffffffffff16815260200190600601906020826005010492830192600103820291508084116114f05790505b50505091835250506005919091015461ffff81166020808401919091526201000090910465ffffffffffff16604092830152825190830151606084015160c085015160a08601519590940151929d919c509a5091985091965090945092505050565b6008826040516115a39190614fec565b9081526040519081900360200190205460ff166115d25760405162461bcd60e51b8152600401610567906150a1565b60025463ffffffff600160a01b9091048116908216106116045760405162461bcd60e51b815260040161056790614eda565b60018351116116515760405162461bcd60e51b8152602060048201526019602482015278566f746572206e616d652063616e277420626520656d70747960381b6044820152606401610567565b600f8351106116b55760405162461bcd60e51b815260206004820152602a60248201527f566f746572206e616d652073686f756c642062652031352063686172616374656044820152697273206f72206c65737360b01b6064820152608401610567565b60006116c083613aee565b90506000808261ffff16815481106116da576116da614f0a565b6000918252602080832063ffffffff8716845260068083526040808620338752600b9094529094206002015492909302909201925060ff161561175f5760405162461bcd60e51b815260206004820152601b60248201527f566f74657220697320616c7265616479207265676973746572656400000000006044820152606401610567565b6117698533613bab565b156117d75760405162461bcd60e51b815260206004820152603860248201527f566f74657220697320616c7265616479207265676973746572656420696e207460448201527734329039b2b632b1ba32b21037b933b0b734bd30ba34b7b760411b6064820152608401610567565b60006117e1613cf7565b6040805160c08101825265ffffffffffff831681523360208201529081018990526001606082015290915060808101600060405190808252806020026020018201604052801561184557816020015b60608152602001906001900390816118305790505b5081526020908101889052336000908152600b825260409081902083518154938501516001600160a01b0316600160301b026001600160d01b031990941665ffffffffffff9091161792909217825582015160018201906118a69082615136565b50606082015160028201805460ff1916911515919091179055608082015180516118da916003840191602090910190614479565b5060a082015160048201906118ef9082615136565b5050336000908152600a60205260409020905061190c8782615136565b5060058301805462010000900465ffffffffffff1690600261192d8361520c565b91906101000a81548165ffffffffffff021916908365ffffffffffff1602179055505050505050505050565b60025463ffffffff600160a01b90910481169083161061198b5760405162461bcd60e51b815260040161056790614eda565b63ffffffff8216600090815260066020526040812060010180546119ae90614f20565b80601f01602080910402602001604051908101604052809291908181526020018280546119da90614f20565b8015611a275780601f106119fc57610100808354040283529160200191611a27565b820191906000526020600020905b815481529060010190602001808311611a0a57829003601f168201915b505050505090506000611a3982613aee565b90506000808261ffff1681548110611a5357611a53614f0a565b90600052602060002090600602019050611af933826001018054611a7690614f20565b80601f0160208091040260200160405190810160405280929190818152602001828054611aa290614f20565b8015611aef5780601f10611ac457610100808354040283529160200191611aef565b820191906000526020600020905b815481529060010190602001808311611ad257829003601f168201915b5050505050613e0e565b611b555760405162461bcd60e51b815260206004820152602760248201527f4f6e6c7920656c656374696f6e2061646d696e732063616e206164642063616e6044820152666469646174657360c81b6064820152608401610567565b63ffffffff85166000908152600660208190526040909120600581015491810154909160ff1611611bc25760405162461bcd60e51b815260206004820152601760248201527610d85b991a59185d19481b1a5b5a5d081c995858da1959604a1b6044820152606401610567565b6000855111611c135760405162461bcd60e51b815260206004820152601e60248201527f43616e646964617465206e616d652063616e6e6f7420626520656d70747900006044820152606401610567565b601085511115611c7c5760405162461bcd60e51b815260206004820152602e60248201527f43616e646964617465206e616d652073686f756c64206265203136206368617260448201526d616374657273206f72206c65737360901b6064820152608401610567565b611c8585613f4e565b611cf75760405162461bcd60e51b815260206004820152603a60248201527f43616e646964617465206e616d652073686f756c64206f6e6c7920636f6e746160448201527f696e20616c7068616265746963616c20636861726163746572730000000000006064820152608401610567565b6006810180546040805160608101825260ff808416825260208083018b81526000948401859052600180870188559685529320825160038602909101805460ff19169190921617815591519293909290820190611d549082615136565b50604091909101516002909101805463ffffffff191663ffffffff90921691909117905550505050505050565b6001600160a01b03808216600090815260056020908152604080832081516080810190925280549094168152600184018054606095929384019190611dc590614f20565b80601f0160208091040260200160405190810160405280929190818152602001828054611df190614f20565b8015611e3e5780601f10611e1357610100808354040283529160200191611e3e565b820191906000526020600020905b815481529060010190602001808311611e2157829003601f168201915b5050509183525050600282015460ff1615156020820152600382018054604090920191611e6a90614f20565b80601f0160208091040260200160405190810160405280929190818152602001828054611e9690614f20565b8015611ee35780601f10611eb857610100808354040283529160200191611ee3565b820191906000526020600020905b815481529060010190602001808311611ec657829003601f168201915b50505091909252505050602001519392505050565b60025460609060009063ffffffff600160a01b909104811690841610611f305760405162461bcd60e51b815260040161056790614eda565b63ffffffff80841660009081526007602052604090206004810154909116611fa95760405162461bcd60e51b815260206004820152602660248201527f456c656374696f6e20726573756c747320617265206e6f7420617661696c61626044820152651b19481e595d60d21b6064820152608401610567565b600263ffffffff851660009081526006602052604090206007015460ff166002811115611fd857611fd86148b7565b146120205760405162461bcd60e51b8152602060048201526018602482015277115b1958dd1a5bdb881a5cc81b9bdd08199a5b9a5cda195960421b6044820152606401610567565b6004810154600582018054909163ffffffff1690829061203f90614f20565b80601f016020809104026020016040519081016040528092919081815260200182805461206b90614f20565b80156120b85780601f1061208d576101008083540402835291602001916120b8565b820191906000526020600020905b81548152906001019060200180831161209b57829003601f168201915b505050505091509250925050915091565b600560205260009081526040902080546001820180546001600160a01b0390921692916120f590614f20565b80601f016020809104026020016040519081016040528092919081815260200182805461212190614f20565b801561216e5780601f106121435761010080835404028352916020019161216e565b820191906000526020600020905b81548152906001019060200180831161215157829003601f168201915b5050506002840154600385018054949560ff90921694919350915061219290614f20565b80601f01602080910402602001604051908101604052809291908181526020018280546121be90614f20565b801561220b5780601f106121e05761010080835404028352916020019161220b565b820191906000526020600020905b8154815290600101906020018083116121ee57829003601f168201915b5050505050905084565b336000818152600b602052604081206002810154919283926060928392839290919060ff166122785760405162461bcd60e51b815260206004820152600f60248201526e159bdd195c881b9bdd08199bdd5b99608a1b6044820152606401610567565b805460018201805465ffffffffffff831692600160301b90046001600160a01b031691906004850190600386019083906122b190614f20565b80601f01602080910402602001604051908101604052809291908181526020018280546122dd90614f20565b801561232a5780601f106122ff5761010080835404028352916020019161232a565b820191906000526020600020905b81548152906001019060200180831161230d57829003601f168201915b5050505050925081805461233d90614f20565b80601f016020809104026020016040519081016040528092919081815260200182805461236990614f20565b80156123b65780601f1061238b576101008083540402835291602001916123b6565b820191906000526020600020905b81548152906001019060200180831161239957829003601f168201915b5050505050915080805480602002602001604051908101604052809291908181526020016000905b8282101561248a5783829060005260206000200180546123fd90614f20565b80601f016020809104026020016040519081016040528092919081815260200182805461242990614f20565b80156124765780601f1061244b57610100808354040283529160200191612476565b820191906000526020600020905b81548152906001019060200180831161245957829003601f168201915b5050505050815260200190600101906123de565b5050505090509650965096509650965050509091929394565b33600081815260046020526040902054606091829160ff166125155760405162461bcd60e51b815260206004820152602560248201527f456c656374696f6e2041646d696e2061646472657373206e6f742072656769736044820152641d195c995960da1b6064820152608401610567565b6001600160a01b0381166000908152600960205260408120805461253890614f20565b80601f016020809104026020016040519081016040528092919081815260200182805461256490614f20565b80156125b15780601f10612586576101008083540402835291602001916125b1565b820191906000526020600020905b81548152906001019060200180831161259457829003601f168201915b5050505050905060006125c382614019565b905060008161ffff16815481106125dc576125dc614f0a565b906000526020600020906006020160010160008261ffff168154811061260457612604614f0a565b906000526020600020906006020160000181805461262190614f20565b80601f016020809104026020016040519081016040528092919081815260200182805461264d90614f20565b801561269a5780601f1061266f5761010080835404028352916020019161269a565b820191906000526020600020905b81548152906001019060200180831161267d57829003601f168201915b505050505091508080546126ad90614f20565b80601f01602080910402602001604051908101604052809291908181526020018280546126d990614f20565b80156127265780601f106126fb57610100808354040283529160200191612726565b820191906000526020600020905b81548152906001019060200180831161270957829003601f168201915b50505050509050945094505050509091565b60025463ffffffff600160a01b90910481169083161061276a5760405162461bcd60e51b815260040161056790614eda565b63ffffffff82166000908152600660208190526040909120015460ff8216106127cc5760405162461bcd60e51b8152602060048201526014602482015273125b9d985b1a590818d85b991a59185d1948125160621b6044820152606401610567565b63ffffffff82166000908152600660209081526040808320338452600b9092529091206002015460ff166128425760405162461bcd60e51b815260206004820152601e60248201527f596f7520617265206e6f742061207265676973746572656420766f74657200006044820152606401610567565b6001600782015460ff16600281111561285d5761285d6148b7565b146128aa5760405162461bcd60e51b815260206004820152601b60248201527f456c656374696f6e206973206e6f7420696e2070726f677265737300000000006044820152606401610567565b336000908152600b6020526040812060040180546128c790614f20565b80601f01602080910402602001604051908101604052809291908181526020018280546128f390614f20565b80156129405780601f1061291557610100808354040283529160200191612940565b820191906000526020600020905b81548152906001019060200180831161292357829003601f168201915b505050505090506008816040516129579190614fec565b9081526040519081900360200190205460ff166129d25760405162461bcd60e51b815260206004820152603360248201527f596f7520617265206e6f742061207265676973746572656420766f746572206960448201527237103a3434b99037b933b0b734bd30ba34b7b760691b6064820152608401610567565b60008260020180546129e390614f20565b80601f0160208091040260200160405190810160405280929190818152602001828054612a0f90614f20565b8015612a5c5780601f10612a3157610100808354040283529160200191612a5c565b820191906000526020600020905b815481529060010190602001808311612a3f57829003601f168201915b50505050509050612a6d33826140c7565b15612aca5760405162461bcd60e51b815260206004820152602760248201527f596f75206861766520616c726561647920766f74656420696e207468697320656044820152663632b1ba34b7b760c91b6064820152608401610567565b6000836006018560ff1681548110612ae457612ae4614f0a565b6000918252602082206002600390920201908101805491935063ffffffff90911691612b0f8361507e565b825463ffffffff9182166101009390930a928302919092021990911617905550336000908152600b602090815260408083206003810180548351818602810186019094528084529194612c189491929184015b82821015612c0e578382906000526020600020018054612b8190614f20565b80601f0160208091040260200160405190810160405280929190818152602001828054612bad90614f20565b8015612bfa5780601f10612bcf57610100808354040283529160200191612bfa565b820191906000526020600020905b815481529060010190602001808311612bdd57829003601f168201915b505050505081526020019060010190612b62565b5050505084614186565b8051612c2e916003840191602090910190614479565b5050505050505050565b6001546001600160a01b0316331480612c6057503360009081526004602052604090205460ff165b612c7c5760405162461bcd60e51b815260040161056790614f8f565b60025463ffffffff600160a01b909104811690831610612cae5760405162461bcd60e51b815260040161056790614eda565b63ffffffff821660009081526006602052604090206001600782015460ff166002811115612cde57612cde6148b7565b14612d255760405162461bcd60e51b8152602060048201526017602482015276115b1958dd1a5bdb881a5cc81b9bdd081cdd185c9d1959604a1b6044820152606401610567565b6007810154610100900460ff1615612d4f5760405162461bcd60e51b815260040161056790614fb5565b42600482015560078101805461ffff19166101021790556000612d7184614274565b90506000612d7e856142f3565b90506000612d8b33611d81565b9050604051806101000160405280856001018054612da890614f20565b80601f0160208091040260200160405190810160405280929190818152602001828054612dd490614f20565b8015612e215780601f10612df657610100808354040283529160200191612e21565b820191906000526020600020905b815481529060010190602001808311612e0457829003601f168201915b50505050508152602001336001600160a01b0316815260200185600301548152602001856004015481526020018463ffffffff16815260200183815260200182815260200186815250600760008863ffffffff1663ffffffff1681526020019081526020016000206000820151816000019081612e9e9190615136565b5060208201516001820180546001600160a01b0319166001600160a01b039092169190911790556040820151600282015560608201516003820155608082015160048201805463ffffffff191663ffffffff90921691909117905560a08201516005820190612f0d9082615136565b5060c08201516006820190612f229082615136565b5060e08201516007820190612f379082615136565b505050505050505050565b3360009081526004602052604090205460ff1615612fb45760405162461bcd60e51b815260206004820152602960248201527f456c656374696f6e2041646d696e206164647265737320616c726561647920726044820152681959da5cdd195c995960ba1b6064820152608401610567565b6000612fbf83614019565b60005490915061ffff821610612fe75760405162461bcd60e51b815260040161056790615227565b6000808261ffff1681548110612fff57612fff614f0a565b60009182526020808320600260069093020191820180546001810182558185528285200180546001600160a01b0319163390811790915584526009909152604090922090925061304f8682615136565b50604080516080810182523380825260208083018881526001848601819052606085018b90526000938452600590925293909120825181546001600160a01b0319166001600160a01b0390911617815592519192839290918201906130b49082615136565b50604082015160028201805460ff1916911515919091179055606082015160038201906130e19082615136565b5050336000908152600460205260409020805460ff191660011790555060058301805465ffffffffffff620100009091041690600261311f8361520c565b91906101000a81548165ffffffffffff021916908365ffffffffffff16021790555050505050505050565b600b602052600090815260409020805460018201805465ffffffffffff831693600160301b9093046001600160a01b031692919061318790614f20565b80601f01602080910402602001604051908101604052809291908181526020018280546131b390614f20565b80156132005780601f106131d557610100808354040283529160200191613200565b820191906000526020600020905b8154815290600101906020018083116131e357829003601f168201915b5050506002840154600485018054949560ff90921694919350915061322490614f20565b80601f016020809104026020016040519081016040528092919081815260200182805461325090614f20565b801561329d5780601f106132725761010080835404028352916020019161329d565b820191906000526020600020905b81548152906001019060200180831161328057829003601f168201915b5050505050905085565b600a602052600090815260409020805461081c90614f20565b600081815481106132d057600080fd5b90600052602060002090600602016000915090508060000180546132f390614f20565b80601f016020809104026020016040519081016040528092919081815260200182805461331f90614f20565b801561336c5780601f106133415761010080835404028352916020019161336c565b820191906000526020600020905b81548152906001019060200180831161334f57829003601f168201915b50505050509080600101805461338190614f20565b80601f01602080910402602001604051908101604052809291908181526020018280546133ad90614f20565b80156133fa5780601f106133cf576101008083540402835291602001916133fa565b820191906000526020600020905b8154815290600101906020018083116133dd57829003601f168201915b505050506003830154600590930154919260ff169161ffff8116915062010000900465ffffffffffff1685565b60076020526000908152604090208054819061344290614f20565b80601f016020809104026020016040519081016040528092919081815260200182805461346e90614f20565b80156134bb5780601f10613490576101008083540402835291602001916134bb565b820191906000526020600020905b81548152906001019060200180831161349e57829003601f168201915b505050600184015460028501546003860154600487015460058801805497986001600160a01b039095169793965091945063ffffffff1692916134fd90614f20565b80601f016020809104026020016040519081016040528092919081815260200182805461352990614f20565b80156135765780601f1061354b57610100808354040283529160200191613576565b820191906000526020600020905b81548152906001019060200180831161355957829003601f168201915b50505050509080600601805461358b90614f20565b80601f01602080910402602001604051908101604052809291908181526020018280546135b790614f20565b80156136045780601f106135d957610100808354040283529160200191613604565b820191906000526020600020905b8154815290600101906020018083116135e757829003601f168201915b50505050509080600701805461361990614f20565b80601f016020809104026020016040519081016040528092919081815260200182805461364590614f20565b80156136925780601f1061366757610100808354040283529160200191613692565b820191906000526020600020905b81548152906001019060200180831161367557829003601f168201915b5050505050905088565b6008826040516136ac9190614fec565b9081526040519081900360200190205460ff16156137175760405162461bcd60e51b815260206004820152602260248201527f4f7267616e697a6174696f6e20494420616c7265616479207265676973746572604482015261195960f21b6064820152608401610567565b6008836040516137279190614fec565b9081526040519081900360200190205460ff16156137935760405162461bcd60e51b8152602060048201526024808201527f4f7267616e697a6174696f6e204e616d6520616c726561647920726567697374604482015263195c995960e21b6064820152608401610567565b60018351116137e45760405162461bcd60e51b815260206004820181905260248201527f4f7267616e697a6174696f6e206e616d652063616e277420626520656d7074796044820152606401610567565b600c835111156138505760405162461bcd60e51b815260206004820152603160248201527f4f7267616e697a6174696f6e206e616d652073686f756c642062652031322063604482015270686172616374657273206f72206c65737360781b6064820152608401610567565b60018251116138a15760405162461bcd60e51b815260206004820152601e60248201527f4f7267616e697a6174696f6e2049442063616e277420626520656d70747900006044820152606401610567565b60048251111561390a5760405162461bcd60e51b815260206004820152602e60248201527f4f7267616e697a6174696f6e2049442073686f756c642062652034206368617260448201526d616374657273206f72206c65737360901b6064820152608401610567565b6040805160e081018252848152602080820185905282516000808252918101845290928201908152602001836001811115613947576139476148b7565b81526020016000604051908082528060200260200182016040528015613977578160200160208202803683370190505b508152600060208201819052604090910181905280546001810182559080528151919250829160069091027f290decd9548b62a8d60345a988386fc84ba6bc95484008f6362f93160ef3e563019081906139d19082615136565b50602082015160018201906139e69082615136565b5060408201518051613a029160028401916020909101906144cf565b50606082015160038201805460ff191660018381811115613a2557613a256148b7565b021790555060808201518051613a45916004840191602090910190614530565b5060a08201516005909101805460c09093015165ffffffffffff16620100000267ffffffffffffffff1990931661ffff90921691909117919091179055604051600190600890613a96908690614fec565b908152604051908190036020018120805492151560ff1990931692909217909155600190600890613ac8908790614fec565b908152604051908190036020019020805491151560ff1990921691909117905550505050565b6000805b60005461ffff82161015613b925782604051602001613b119190614fec565b6040516020818303038152906040528051906020012060008261ffff1681548110613b3e57613b3e614f0a565b9060005260206000209060060201600101604051602001613b5f9190615008565b6040516020818303038152906040528051906020012003613b805792915050565b80613b8a816151f5565b915050613af2565b5060405162461bcd60e51b815260040161056790615227565b6000805b600054811015613ceb5783604051602001613bca9190614fec565b6040516020818303038152906040528051906020012060008281548110613bf357613bf3614f0a565b9060005260206000209060060201600101604051602001613c149190615008565b6040516020818303038152906040528051906020012003613cd95760005b60008281548110613c4557613c45614f0a565b906000526020600020906006020160020180549050811015613cd757836001600160a01b031660008381548110613c7e57613c7e614f0a565b90600052602060002090600602016002018281548110613ca057613ca0614f0a565b6000918252602090912001546001600160a01b031603613cc557600192505050613cf1565b80613ccf81615257565b915050613c32565b505b80613ce381615257565b915050613baf565b50600090505b92915050565b6003805460009165ffffffffffff9091169082613d138361520c565b82546101009290920a65ffffffffffff818102199093169183160217909155600354169050651319718a5000811115613d865760405162461bcd60e51b8152602060048201526015602482015274159bdd195c9251081b1a5b5a5d081c995858da1959605a1b6044820152606401610567565b65ffffffffffff81166000908152600c602052604090205460ff1615613de75760405162461bcd60e51b8152602060048201526016602482015275566f746572494420616c72656164792065786973747360501b6044820152606401610567565b65ffffffffffff81166000908152600c60205260409020805460ff19166001179055919050565b6000805b600054811015613ceb5782604051602001613e2d9190614fec565b6040516020818303038152906040528051906020012060008281548110613e5657613e56614f0a565b9060005260206000209060060201600101604051602001613e779190615008565b6040516020818303038152906040528051906020012003613f3c5760005b60008281548110613ea857613ea8614f0a565b906000526020600020906006020160020180549050811015613f3a57846001600160a01b031660008381548110613ee157613ee1614f0a565b90600052602060002090600602016002018281548110613f0357613f03614f0a565b6000918252602090912001546001600160a01b031603613f2857600192505050613cf1565b80613f3281615257565b915050613e95565b505b80613f4681615257565b915050613e12565b600081815b815181101561400f576041828281518110613f7057613f70614f0a565b016020015160f81c10801590613fa05750605a828281518110613f9557613f95614f0a565b016020015160f81c11155b158015613fee57506061828281518110613fbc57613fbc614f0a565b016020015160f81c10801590613fec5750607a828281518110613fe157613fe1614f0a565b016020015160f81c11155b155b15613ffd575060009392505050565b8061400781615257565b915050613f53565b5060019392505050565b6000805b60005461ffff821610156140bd578260405160200161403c9190614fec565b6040516020818303038152906040528051906020012060008261ffff168154811061406957614069614f0a565b906000526020600020906006020160000160405160200161408a9190615008565b60405160208183030381529060405280519060200120036140ab5792915050565b806140b5816151f5565b91505061401d565b5050600054919050565b6001600160a01b0382166000908152600b60205260408120815b600382015481101561417b57836040516020016140fe9190614fec565b6040516020818303038152906040528051906020012082600301828154811061412957614129614f0a565b906000526020600020016040516020016141439190615008565b604051602081830303815290604052805190602001200361416957600192505050613cf1565b8061417381615257565b9150506140e1565b506000949350505050565b606060008351600161419891906150d4565b6001600160401b038111156141af576141af6147c8565b6040519080825280602002602001820160405280156141e257816020015b60608152602001906001900390816141cd5790505b50905060005b84518163ffffffff16101561424d57848163ffffffff168151811061420f5761420f614f0a565b6020026020010151828263ffffffff168151811061422f5761422f614f0a565b602002602001018190525080806142459061507e565b9150506141e8565b50828185518151811061426257614262614f0a565b60209081029190910101529392505050565b63ffffffff8116600090815260066020526040812081805b600683015460ff821610156142eb57826006018160ff16815481106142b3576142b3614f0a565b60009182526020909120600260039092020101546142d79063ffffffff1683615270565b9150806142e381614f70565b91505061428c565b509392505050565b63ffffffff811660009081526006602090815260408083208151928301909152828252606092909190805b600684015460ff8216101561446f578163ffffffff16846006018260ff168154811061434c5761434c614f0a565b600091825260209091206002600390920201015463ffffffff16111561445d57836006018160ff168154811061438457614384614f0a565b906000526020600020906003020160020160009054906101000a900463ffffffff169150836006018160ff16815481106143c0576143c0614f0a565b906000526020600020906003020160010180546143dc90614f20565b80601f016020809104026020016040519081016040528092919081815260200182805461440890614f20565b80156144555780601f1061442a57610100808354040283529160200191614455565b820191906000526020600020905b81548152906001019060200180831161443857829003601f168201915b505050505092505b8061446781614f70565b91505061431e565b5090949350505050565b8280548282559060005260206000209081019282156144bf579160200282015b828111156144bf57825182906144af9082615136565b5091602001919060010190614499565b506144cb9291506145e0565b5090565b828054828255906000526020600020908101928215614524579160200282015b8281111561452457825182546001600160a01b0319166001600160a01b039091161782556020909201916001909101906144ef565b506144cb9291506145fd565b828054828255906000526020600020906004016005900481019282156145245791602002820160005b838211156145a157835183826101000a81548165ffffffffffff021916908365ffffffffffff1602179055509260200192600601602081600501049283019260010302614559565b80156145d35782816101000a81549065ffffffffffff02191690556006016020816005010492830192600103026145a1565b50506144cb9291506145fd565b808211156144cb5760006145f48282614612565b506001016145e0565b5b808211156144cb57600081556001016145fe565b50805461461e90614f20565b6000825580601f1061462e575050565b601f01602090049060005260206000209081019061464c91906145fd565b50565b803563ffffffff8116811461466357600080fd5b919050565b60006020828403121561467a57600080fd5b6146838261464f565b9392505050565b60005b838110156146a557818101518382015260200161468d565b50506000910152565b600081518084526146c681602086016020860161468a565b601f01601f19169290920160200192915050565b600081518084526020808501808196508360051b8101915082860160005b858110156147225782840389526147108483516146ae565b988501989350908401906001016146f8565b5091979650505050505050565b60408152600061474260408301856146da565b82810360208481019190915284518083528582019282019060005b8181101561477f57845163ffffffff168352938301939183019160010161475d565b5090979650505050505050565b60006020828403121561479e57600080fd5b81356001600160a01b038116811461468357600080fd5b60208152600061468360208301846146ae565b634e487b7160e01b600052604160045260246000fd5b600082601f8301126147ef57600080fd5b81356001600160401b0380821115614809576148096147c8565b604051601f8301601f19908116603f01168101908282118183101715614831576148316147c8565b8160405283815286602085880101111561484a57600080fd5b836020870160208301376000602085830101528094505050505092915050565b6000806040838503121561487d57600080fd5b6148868361464f565b915060208301356001600160401b038111156148a157600080fd5b6148ad858286016147de565b9150509250929050565b634e487b7160e01b600052602160045260246000fd5b60006101008083526148e18184018c6146ae565b905082810360208401526148f5818b6146ae565b90508281036040840152614909818a6146ae565b91505086606083015285608083015260ff851660a083015260038410614931576149316148b7565b8360c083015282151560e08301529998505050505050505050565b60006020828403121561495e57600080fd5b81356001600160401b0381111561497457600080fd5b614980848285016147de565b949350505050565b803560ff8116811461466357600080fd5b60008060008060008060c087890312156149b257600080fd5b86356001600160401b03808211156149c957600080fd5b6149d58a838b016147de565b975060208901359150808211156149eb57600080fd5b6149f78a838b016147de565b96506040890135915080821115614a0d57600080fd5b50614a1a89828a016147de565b945050614a2960608801614988565b92506080870135915060a087013590509295509295509295565b600060208284031215614a5557600080fd5b5035919050565b60028110614a6c57614a6c6148b7565b9052565b60c081526000614a8360c08301896146ae565b602083820381850152614a96828a6146ae565b9150614aa56040850189614a5c565b65ffffffffffff8716606085015261ffff8616608085015283820360a085015284518083528186019282019060005b81811015614af95784516001600160a01b031683529383019391830191600101614ad4565b50909b9a5050505050505050505050565b600080600060608486031215614b1f57600080fd5b83356001600160401b0380821115614b3657600080fd5b614b42878388016147de565b94506020860135915080821115614b5857600080fd5b50614b65868287016147de565b925050614b746040850161464f565b90509250925092565b604081526000614b9060408301856146ae565b905063ffffffff831660208301529392505050565b6001600160a01b0385168152608060208201819052600090614bc9908301866146ae565b84151560408401528281036060840152614be381856146ae565b979650505050505050565b65ffffffffffff861681526001600160a01b038516602082015260a060408201819052600090614c20908301866146ae565b8281036060840152614c3281866146ae565b90508281036080840152614c4681856146da565b98975050505050505050565b604081526000614c6560408301856146ae565b8281036020840152614c7781856146ae565b95945050505050565b60008060408385031215614c9357600080fd5b614c9c8361464f565b9150614caa60208401614988565b90509250929050565b60008060408385031215614cc657600080fd5b82356001600160401b0380821115614cdd57600080fd5b614ce9868387016147de565b93506020850135915080821115614cff57600080fd5b506148ad858286016147de565b65ffffffffffff861681526001600160a01b038516602082015260a060408201819052600090614d3e908301866146ae565b84151560608401528281036080840152614c4681856146ae565b600060208284031215614d6a57600080fd5b813565ffffffffffff8116811461468357600080fd5b60a081526000614d9360a08301886146ae565b8281036020840152614da581886146ae565b915050614db56040830186614a5c565b61ffff8416606083015265ffffffffffff831660808301529695505050505050565b6000610100808352614deb8184018c6146ae565b6001600160a01b038b166020850152604084018a90526060840189905263ffffffff8816608085015283810360a08501529050614e2881876146ae565b905082810360c0840152614e3c81866146ae565b905082810360e0840152614e5081856146ae565b9b9a5050505050505050505050565b600080600060608486031215614e7457600080fd5b83356001600160401b0380821115614e8b57600080fd5b614e97878388016147de565b94506020860135915080821115614ead57600080fd5b50614eba868287016147de565b925050604084013560028110614ecf57600080fd5b809150509250925092565b602080825260169082015275092dcecc2d8d2c840cad8cac6e8d2dedc40d2dcc8caf60531b604082015260600190565b634e487b7160e01b600052603260045260246000fd5b600181811c90821680614f3457607f821691505b602082108103614f5457634e487b7160e01b600052602260045260246000fd5b50919050565b634e487b7160e01b600052601160045260246000fd5b600060ff821660ff8103614f8657614f86614f5a565b60010192915050565b6020808252600c908201526b155b985d5d1a1bdc9a5e995960a21b604082015260600190565b6020808252601c908201527f456c656374696f6e20697320616c72656164792066696e697368656400000000604082015260600190565b60008251614ffe81846020870161468a565b9190910192915050565b600080835461501681614f20565b6001828116801561502e576001811461504357615072565b60ff1984168752821515830287019450615072565b8760005260208060002060005b858110156150695781548a820152908401908201615050565b50505082870194505b50929695505050505050565b600063ffffffff80831681810361509757615097614f5a565b6001019392505050565b60208082526019908201527813dc99d85b9a5e985d1a5bdb881251081b9bdd08199bdd5b99603a1b604082015260600190565b80820180821115613cf157613cf1614f5a565b601f82111561513157600081815260208120601f850160051c8101602086101561510e5750805b601f850160051c820191505b8181101561512d5782815560010161511a565b5050505b505050565b81516001600160401b0381111561514f5761514f6147c8565b6151638161515d8454614f20565b846150e7565b602080601f83116001811461519857600084156151805750858301515b600019600386901b1c1916600185901b17855561512d565b600085815260208120601f198616915b828110156151c7578886015182559484019460019091019084016151a8565b50858210156151e55787850151600019600388901b60f8161c191681555b5050505050600190811b01905550565b600061ffff80831681810361509757615097614f5a565b600065ffffffffffff80831681810361509757615097614f5a565b60208082526016908201527513dc99d85b9a5e985d1a5bdb881b9bdd08199bdd5b9960521b604082015260600190565b60006001820161526957615269614f5a565b5060010190565b63ffffffff81811683821601908082111561528d5761528d614f5a565b509291505056fea26469706673582212204c6046e4b203b8fb95cdee0528f252b224d11962270574aae1e7605de4c4b73c64736f6c63430008120033",
  "immutableReferences": {},
  "source": "// SPDX-License-Identifier: MIT\r\n\r\npragma solidity ^0.8.10;\r\n\r\n\r\ncontract DVotev2{\r\n\r\n    constructor(address initialElectionAdmin) {\r\n        contractOwner = msg.sender;\r\n        electionAdmins = initialElectionAdmin;\r\n    }\r\n\r\n    Organization[] public organizations;\r\n    address public contractOwner;\r\n    address electionAdmins =  msg.sender;\r\n    uint32 electionCount;\r\n    uint32 public MAX_EVENTS = 10;\r\n    uint48 public votersCount;\r\n\r\n    mapping(address => bool) public registeredAdmin;\r\n    mapping(address =>ElectionAdmins) public admin;\r\n    mapping (uint32 => ElectionDetail) public elections;\r\n    mapping(uint32 => ElectionResult) public electionResults;\r\n    mapping(string => bool) public organizationList;\r\n    mapping(address => string) public adminToOrganization;\r\n    mapping(address => string) public associatedOrganizations;\r\n    mapping(address => Voter) public voters;\r\n    mapping(uint48 => bool) public votersIDExists;\r\n\r\n\r\n    enum ElectionStatus {Scheduled, Started, Finished}\r\n    enum OrganizationType {Organization, Corporate}\r\n\r\n    struct ElectionAdmins {\r\n        address electionAdminAddress;\r\n        string adminName;\r\n        bool isRegistered;\r\n        string orgName;\r\n    }\r\n\r\n    struct Organization {\r\n        string orgName;\r\n        string orgId;\r\n        address[] electionAdminAddresses;\r\n        OrganizationType orgType;\r\n        uint48[] voterIDs;\r\n        uint16 electionEventCounter;\r\n        uint48 totalMembers;\r\n    }\r\n    \r\n    struct ElectionDetail{\r\n        string electionID;\r\n        string orgId;\r\n        string electionName;\r\n        uint startTime;\r\n        uint endTime;\r\n        uint8 candidateList;\r\n        Candidate[] candidates;\r\n        ElectionStatus status;\r\n        bool isFinished;\r\n    }\r\n\r\n    struct ElectionResult {\r\n        string registeredOrganization;\r\n        address adminAddress;\r\n        uint startTime; \r\n        uint endTime;\r\n        uint32 totalVotes;\r\n        string electionWinner;\r\n        string signedBy;\r\n        string digitalSignature;\r\n    }\r\n\r\n    struct Candidate{\r\n        uint8 candidateID;\r\n        string CandidateName;\r\n        uint32 CandidateVoteCount;\r\n    }\r\n\r\n    struct Voter{\r\n        uint48 VoterID;\r\n        address VoterAddress;\r\n        string VoterName;\r\n        bool isRegistered;\r\n        string[] participatedElectionEvents;\r\n        string associatedOrganization;\r\n    }\r\n\r\n    function registerElectionAdmin(string memory _orgName, string memory _adminName) public {\r\n        require(!registeredAdmin[msg.sender], \"Election Admin address already registered\");\r\n\r\n        // Find the organization index by its name\r\n        uint16 orgIndex = getOrganizationIndexByName(_orgName);\r\n\r\n        // Make sure the organization exists\r\n        require(orgIndex < organizations.length, \"Organization not found\");\r\n\r\n        // Retrieve the organization struct\r\n        Organization storage org = organizations[orgIndex];\r\n\r\n        // Update the organization's electionAdminAddresses array\r\n        address[] storage adminAddresses = org.electionAdminAddresses;\r\n        adminAddresses.push(msg.sender);\r\n\r\n        // Set the admin's organization association\r\n        adminToOrganization[msg.sender] = _orgName;\r\n\r\n        // Create a new ElectionAdmins struct and add it to the mapping\r\n        ElectionAdmins memory newAdmin = ElectionAdmins({\r\n            electionAdminAddress: msg.sender,\r\n            orgName: _orgName,\r\n            isRegistered: true,\r\n            adminName: _adminName\r\n        });\r\n        admin[msg.sender] = newAdmin;\r\n\r\n        // Mark the sender's address as a registered admin\r\n        registeredAdmin[msg.sender] = true;\r\n        org.totalMembers++;\r\n    }\r\n\r\n\r\n    function getAdminOrganization() public view returns (string memory, string memory) {\r\n        address _adminAddress = msg.sender;\r\n        require(registeredAdmin[_adminAddress], \"Election Admin address not registered\");\r\n        string memory orgName = adminToOrganization[_adminAddress];\r\n        uint16 index = getOrganizationIndexByName(orgName);\r\n        return (organizations[index].orgId, organizations[index].orgName);\r\n    }\r\n\r\n    function registerOrganization(\r\n        string memory _orgName,\r\n        string memory _orgId,\r\n        OrganizationType _orgType\r\n        ) public {\r\n            require(!organizationList[_orgId], \"Organization ID already registered\");\r\n            require(!organizationList[_orgName], \"Organization Name already registered\");\r\n            require(bytes(_orgName).length > 1, \"Organization name can't be empty\");\r\n            require(bytes(_orgName).length <= 12, \"Organization name should be 12 characters or less\");\r\n            \r\n            require(bytes(_orgId).length > 1, \"Organization ID can't be empty\");\r\n            require(bytes(_orgId).length <= 4, \"Organization ID should be 4 characters or less\");\r\n            \r\n            Organization memory newOrg = Organization({\r\n                orgId: _orgId,\r\n                orgName: _orgName,\r\n                orgType: _orgType,\r\n                electionAdminAddresses: new address[](0),\r\n                electionEventCounter: 0,\r\n                totalMembers: 0,\r\n                voterIDs: new uint48[](0)\r\n            });\r\n            organizations.push(newOrg);\r\n            \r\n            // Set the initial election admin for the organization\r\n            organizationList[_orgId] = true;\r\n            organizationList[_orgName] = true;\r\n        }\r\n\r\n    function getOrganization(uint index) public view returns (string memory, string memory, OrganizationType, uint48, uint16, address[] memory) {\r\n        require(index < organizations.length, \"Index out of bounds\");\r\n        Organization memory org = organizations[index];\r\n        return (org.orgName, org.orgId, org.orgType, org.totalMembers, org.electionEventCounter, org.electionAdminAddresses);\r\n    }\r\n\r\n    function getOrganizationsCount() public view returns (uint) {\r\n        return organizations.length;\r\n    }\r\n\r\n    function createElection(\r\n        string memory _orgId,\r\n        string memory _electionID,\r\n        string memory _electionName,\r\n        uint8 _candidateCount,\r\n        uint  _startTime,\r\n        uint _duration\r\n    ) public {\r\n        require(organizationList[_orgId], \"Organization ID not found\");\r\n        require(bytes(_electionID).length > 1, \"Election ID can't be empty\");\r\n        require(bytes(_electionID).length <= 6, \"Election ID should be 6 characters or less\");\r\n        require(bytes(_electionName).length > 1, \"Election name can't be empty\");\r\n        require(bytes(_electionName).length <= 15, \"Election name should be 15 characters or less\");\r\n        require(electionCount < MAX_EVENTS, \"Maximum events created reached\");\r\n        require(_startTime >= block.timestamp, \"Start time cannot be in the past\");\r\n        require(_duration > 0 && _duration <= 3 * 30 days, \"Invalid election duration\");\r\n\r\n        uint endTime = _startTime + _duration;\r\n\r\n        ElectionStatus status = _startTime == block.timestamp ? ElectionStatus.Started : ElectionStatus.Scheduled;\r\n\r\n        ElectionDetail storage newElection = elections[electionCount];\r\n        newElection.electionID = _electionID;\r\n        newElection.orgId = _orgId;\r\n        newElection.electionName = _electionName;\r\n        newElection.status = status;\r\n        newElection.candidateList = _candidateCount;\r\n        newElection.startTime = _startTime;\r\n        newElection.endTime = endTime;\r\n\r\n        uint16 orgIndex = getOrganizationIndexById(_orgId);\r\n        organizations[orgIndex].electionEventCounter++;\r\n\r\n        electionCount++;\r\n    }\r\n\r\n\r\n    function startElection(uint32 electionIndex) public onlyAuthorized {\r\n        require(electionIndex < electionCount, \"Invalid election index\");\r\n\r\n        ElectionDetail storage election = elections[electionIndex];\r\n        require(election.status != ElectionStatus.Finished, \"Election is already finished\");\r\n        require(election.status == ElectionStatus.Scheduled, \"Election is not scheduled\");\r\n\r\n        election.status = ElectionStatus.Started;\r\n        election.startTime = block.timestamp; // Set the start time to the current block timestamp\r\n    }\r\n\r\n    modifier onlyAuthorized() {\r\n        require(msg.sender == contractOwner || registeredAdmin[msg.sender], \"Unauthorized\");\r\n        _;\r\n    }\r\n\r\n    function finishElection(uint32 electionIndex, string memory digitalSignature) public onlyAuthorized {\r\n        require(electionIndex < electionCount, \"Invalid election index\");\r\n\r\n        ElectionDetail storage election = elections[electionIndex];\r\n        require(election.status == ElectionStatus.Started, \"Election is not started\");\r\n        require(!election.isFinished, \"Election is already finished\");\r\n\r\n        // Set the end time to the current block timestamp\r\n        election.endTime = uint(block.timestamp);\r\n        election.status = ElectionStatus.Finished;\r\n        election.isFinished = true; // Mark the election as finished\r\n\r\n        // Calculate total votes and determine the winner (you can add this logic)\r\n        uint32 totalVotes = calculateTotalVotes(electionIndex);\r\n        string memory electionWinner = determineWinner(electionIndex);\r\n\r\n        // Get the admin's name from the election admin struct\r\n        string memory adminName = getAdminName(msg.sender);\r\n\r\n        // Store the election results\r\n        electionResults[electionIndex] = ElectionResult(\r\n            election.orgId,\r\n            msg.sender, \r\n            election.startTime,\r\n            election.endTime,\r\n            totalVotes,\r\n            electionWinner,\r\n            adminName,\r\n            digitalSignature\r\n        );\r\n    }\r\n\r\n\r\n    function getAdminName(address adminAddress) public view returns (string memory) {\r\n        ElectionAdmins memory admin = admin[adminAddress];\r\n        return admin.adminName;\r\n    }\r\n\r\n    \r\n    function addCandidateToElection(uint32 electionIndex, string memory _candidateName) public {\r\n        require(electionIndex < electionCount, \"Invalid election index\");\r\n\r\n        // Get the organization associated with this election\r\n        string memory orgId = elections[electionIndex].orgId;\r\n        uint16 orgIndex = getOrganizationIndexById(orgId);\r\n        Organization storage org = organizations[orgIndex];\r\n\r\n        // Check if the sender is an election admin for the organization\r\n        require(isElectionAdminForOrganization(msg.sender, org.orgId), \"Only election admins can add candidates\");\r\n\r\n        ElectionDetail storage election = elections[electionIndex];\r\n\r\n        // Check if the candidate count is within the limit defined in the election detail\r\n        require(election.candidates.length < election.candidateList, \"Candidate limit reached\");\r\n\r\n        // Check that the candidate name is not empty and only contains alphabetical characters (a to z)\r\n        require(bytes(_candidateName).length > 0, \"Candidate name cannot be empty\");\r\n        require(bytes(_candidateName).length <= 16, \"Candidate name should be 16 characters or less\");\r\n        require(onlyAlphabetCharacters(_candidateName), \"Candidate name should only contain alphabetical characters\");\r\n\r\n        uint8 candidateID = uint8(election.candidates.length);\r\n        election.candidates.push(\r\n            Candidate({\r\n                candidateID: candidateID,\r\n                CandidateName: _candidateName,\r\n                CandidateVoteCount: 0\r\n                })\r\n            );\r\n    }\r\n    \r\n    function registerVoter(string memory _VoterName, string memory _orgId, uint32 _electionIndex) public {\r\n        require(organizationList[_orgId], \"Organization ID not found\");\r\n        require(_electionIndex < electionCount, \"Invalid election index\");\r\n        require(bytes(_VoterName).length > 1, \"Voter name can't be empty\");\r\n        require(bytes(_VoterName).length < 15, \"Voter name should be 15 characters or less\");\r\n\r\n        uint16 orgIndex = getOrganizationIndexById(_orgId);\r\n        Organization storage org = organizations[orgIndex];\r\n\r\n        // Get the election from the elections mapping using the provided index\r\n        ElectionDetail storage election = elections[_electionIndex];\r\n\r\n        require(!voters[msg.sender].isRegistered, \"Voter is already registered\");\r\n        require(!isVoterRegisteredInOrg(_orgId, msg.sender), \"Voter is already registered in the selected organization\");\r\n\r\n        // Generate a unique 6-digit VoterID\r\n        uint48 voterID = generateUniqueVoterID();       \r\n\r\n        voters[msg.sender] = Voter({\r\n            VoterID: voterID,\r\n            VoterAddress: msg.sender,\r\n            VoterName: _VoterName,\r\n            isRegistered: true,\r\n            associatedOrganization: _orgId,\r\n            participatedElectionEvents: new string[](0)\r\n        });\r\n\r\n        associatedOrganizations[msg.sender] = _orgId;\r\n\r\n        // Increment the totalMembers count for the organization\r\n        org.totalMembers++;\r\n    }\r\n\r\n\r\n    function vote(uint32 electionIndex, uint8 candidateID) public {\r\n        require(electionIndex < electionCount, \"Invalid election index\");\r\n        require(candidateID < elections[electionIndex].candidates.length, \"Invalid candidate ID\");\r\n\r\n        ElectionDetail storage election = elections[electionIndex];\r\n\r\n        // Check if the sender is a registered voter in the organization\r\n        require(voters[msg.sender].isRegistered, \"You are not a registered voter\");\r\n\r\n        // Check if the election is in the \"Start\" status\r\n        require(election.status == ElectionStatus.Started, \"Election is not in progress\");\r\n        string memory orgId = voters[msg.sender].associatedOrganization;\r\n\r\n        require(organizationList[orgId], \"You are not a registered voter in this organization\");\r\n\r\n        // Check if the voter has already participated in this election\r\n        string memory electionName = election.electionName;\r\n        require(!hasParticipatedInElection(msg.sender, electionName), \"You have already voted in this election\");\r\n\r\n        // Get the candidate from the election's candidate list\r\n        Candidate storage candidate = election.candidates[candidateID];\r\n\r\n        // Increment the vote count for the selected candidate\r\n        candidate.CandidateVoteCount++;\r\n\r\n        // Record that the voter has participated in this election\r\n        Voter storage voter = voters[msg.sender];\r\n        voter.participatedElectionEvents = appendToStringArray(voter.participatedElectionEvents, electionName);\r\n    }\r\n\r\n    function hasParticipatedInElection(address voterAddress, string memory electionName) internal view returns (bool) {\r\n        Voter storage voter = voters[voterAddress];\r\n        for (uint i = 0; i < voter.participatedElectionEvents.length; i++) {\r\n            if (keccak256(abi.encodePacked(voter.participatedElectionEvents[i])) == keccak256(abi.encodePacked(electionName))) {\r\n                return true; \r\n            }\r\n        }\r\n        return false; \r\n    }\r\n\r\n    function calculateTotalVotes(uint32 electionIndex) internal view returns (uint32) {\r\n        ElectionDetail storage election = elections[electionIndex];\r\n        uint32 totalVotes = 0;\r\n        for (uint8 i = 0; i < election.candidates.length; i++) {\r\n            totalVotes += election.candidates[i].CandidateVoteCount;\r\n        }\r\n        return totalVotes;\r\n    }\r\n\r\n    function determineWinner(uint32 electionIndex) internal view returns (string memory) {\r\n        ElectionDetail storage election = elections[electionIndex];\r\n        string memory winner = \"\";\r\n        uint32 maxVotes = 0;\r\n        for (uint8 i = 0; i < election.candidates.length; i++) {\r\n            if (election.candidates[i].CandidateVoteCount > maxVotes) {\r\n                maxVotes = election.candidates[i].CandidateVoteCount;\r\n                winner = election.candidates[i].CandidateName;\r\n            }\r\n        }\r\n        return winner;\r\n    }\r\n\r\n\r\n    function getElectionIndexByName(string memory _electionName) public view returns (uint32) {\r\n        for (uint32 i = 0; i < electionCount; i++) {\r\n            if (keccak256(abi.encodePacked(elections[i].electionName)) == keccak256(abi.encodePacked(_electionName))) {\r\n                return i;\r\n            }\r\n        }\r\n        revert(\"Election not found\");\r\n    }\r\n\r\n    function getCandidateDetail(uint32 electionIndex, string memory candidateName) public view returns (uint8, uint32) {\r\n        require(electionIndex < electionCount, \"Invalid election index\");\r\n\r\n        ElectionDetail storage election = elections[electionIndex];\r\n\r\n        // Find the candidate with the specified name in the election\r\n        for (uint8 i = 0; i < election.candidates.length; i++) {\r\n            if (keccak256(abi.encodePacked(election.candidates[i].CandidateName)) == keccak256(abi.encodePacked(candidateName))) {\r\n                return (election.candidates[i].candidateID, election.candidates[i].CandidateVoteCount);\r\n            }\r\n        }\r\n\r\n        revert(\"Candidate not found in the specified election\");\r\n    }\r\n\r\n    function checkMyVoterInfo() public view returns (uint48, address, string memory, string memory, string[] memory) {\r\n        address voterAddress = msg.sender;\r\n        Voter storage voter = voters[voterAddress];\r\n        require(voter.isRegistered, \"Voter not found\");\r\n        return (voter.VoterID, voter.VoterAddress, voter.VoterName, voter.associatedOrganization, voter.participatedElectionEvents);\r\n    }\r\n\r\n    function getCurrentVoteResult(uint32 electionIndex) public view returns (string[] memory, uint32[] memory) {\r\n        require(electionIndex < electionCount, \"Invalid election index\");\r\n        \r\n        ElectionDetail storage election = elections[electionIndex];\r\n        \r\n        require(election.status != ElectionStatus.Scheduled, \"Election is not in progress or finished\");\r\n        \r\n        string[] memory candidateNames = new string[](election.candidates.length);\r\n        uint32[] memory voteCounts = new uint32[](election.candidates.length);\r\n        \r\n        for (uint8 i = 0; i < election.candidates.length; i++) {\r\n            candidateNames[i] = election.candidates[i].CandidateName;\r\n            voteCounts[i] = election.candidates[i].CandidateVoteCount;\r\n        }\r\n        \r\n        return (candidateNames, voteCounts);\r\n    }\r\n\r\n    function getWinnerResult(uint32 electionIndex) public view returns (string memory, uint32) {\r\n        require(electionIndex < electionCount, \"Invalid election index\");\r\n        \r\n        ElectionResult storage result = electionResults[electionIndex];\r\n        \r\n        require(result.totalVotes > 0, \"Election results are not available yet\");\r\n        require(elections[electionIndex].status == ElectionStatus.Finished, \"Election is not finished\");\r\n        \r\n        return (result.electionWinner, result.totalVotes);\r\n    }\r\n    \r\n\r\n    // Helper function to check if a string contains only alphabetical characters (a to z)\r\n    function onlyAlphabetCharacters(string memory _input) internal pure returns (bool) {\r\n        bytes memory b = bytes(_input);\r\n        for (uint i = 0; i < b.length; i++) {\r\n            if (!(uint8(b[i]) >= 65 && uint8(b[i]) <= 90) && !(uint8(b[i]) >= 97 && uint8(b[i]) <= 122)) {\r\n                return false;\r\n            }\r\n        }\r\n        return true;\r\n    }\r\n\r\n    function appendToStringArray(string[] memory array, string memory newValue) internal pure returns (string[] memory) {\r\n        string[] memory newArray = new string[](array.length + 1);\r\n        \r\n        for (uint32 i = 0; i < array.length; i++) {\r\n            newArray[i] = array[i];\r\n        }\r\n        \r\n        newArray[array.length] = newValue;\r\n        \r\n        return newArray;\r\n    }\r\n\r\n    function generateUniqueVoterID() internal returns (uint48) {\r\n        votersCount++; // Increment the voter count\r\n        uint48 newVoterID = votersCount;\r\n        require(newVoterID <= 21000000000000, \"VoterID limit reached\");\r\n        require(!votersIDExists[newVoterID], \"VoterID already exists\");\r\n\r\n        // Mark the generated VoterID as used\r\n        votersIDExists[newVoterID] = true;\r\n\r\n        return newVoterID;\r\n    }\r\n\r\n\r\n\r\n    function getOrganizationIndexByName(string memory _orgName) internal view returns (uint16) {\r\n        for (uint16 i = 0; i < organizations.length; i++) {\r\n            if (keccak256(abi.encodePacked(organizations[i].orgName)) == keccak256(abi.encodePacked(_orgName))) {\r\n                return i;\r\n            }\r\n        }\r\n        return uint16(organizations.length); // Return a value that indicates \"not found\"\r\n    }\r\n\r\n    function getOrganizationIndexById(string memory _orgId) internal view returns (uint16) {\r\n        for (uint16 i = 0; i < organizations.length; i++) {\r\n            if (keccak256(abi.encodePacked(organizations[i].orgId)) == keccak256(abi.encodePacked(_orgId))) {\r\n                return i;\r\n            }\r\n        }\r\n        revert(\"Organization not found\");\r\n    }\r\n\r\n    function isElectionAdminForOrganization(address adminAddress, string memory orgId) internal view returns (bool) {\r\n        for (uint i = 0; i < organizations.length; i++) {\r\n            if (keccak256(abi.encodePacked(organizations[i].orgId)) == keccak256(abi.encodePacked(orgId))) {\r\n                for (uint j = 0; j < organizations[i].electionAdminAddresses.length; j++) {\r\n                    if (organizations[i].electionAdminAddresses[j] == adminAddress) {\r\n                        return true;\r\n                    }\r\n                }\r\n            }\r\n        }\r\n        return false;\r\n    }\r\n\r\n    function isVoterRegisteredInOrg(string memory _orgId, address _VoterAddress) internal view returns (bool) {\r\n        for (uint i = 0; i < organizations.length; i++) {\r\n            if (keccak256(abi.encodePacked(organizations[i].orgId)) == keccak256(abi.encodePacked(_orgId))) {\r\n                for (uint j = 0; j < organizations[i].electionAdminAddresses.length; j++) {\r\n                    if (organizations[i].electionAdminAddresses[j] == _VoterAddress) {\r\n                        return true;\r\n                    }\r\n                }\r\n            }\r\n        }\r\n        return false;\r\n    }\r\n}",
  "sourcePath": "C:\\Users\\arson\\Documents\\DU-vote-v2\\DU-vote-v2\\contracts\\DVotev2.sol",
  "compiler": {
    "name": "solc",
    "version": "0.8.18+commit.87f61d96.Emscripten.clang"
  },
  "schemaVersion": "3.4.16",
  "updatedAt": "2023-10-19T11:43:26.648Z",
  "devdoc": {
    "kind": "dev",
    "methods": {},
    "version": 1
  },
  "userdoc": {
    "kind": "user",
    "methods": {},
    "version": 1
  }
}